{
  "contractName": "ERC20",
  "abi": [
    {
      "anonymous": false,
      "inputs": [
        {
          "indexed": true,
          "internalType": "address",
          "name": "owner",
          "type": "address"
        },
        {
          "indexed": true,
          "internalType": "address",
          "name": "spender",
          "type": "address"
        },
        {
          "indexed": false,
          "internalType": "uint256",
          "name": "value",
          "type": "uint256"
        }
      ],
      "name": "Approval",
      "type": "event"
    },
    {
      "anonymous": false,
      "inputs": [
        {
          "indexed": true,
          "internalType": "address",
          "name": "from",
          "type": "address"
        },
        {
          "indexed": true,
          "internalType": "address",
          "name": "to",
          "type": "address"
        },
        {
          "indexed": false,
          "internalType": "uint256",
          "name": "value",
          "type": "uint256"
        }
      ],
      "name": "Transfer",
      "type": "event"
    },
    {
      "constant": true,
      "inputs": [],
      "name": "totalSupply",
      "outputs": [
        {
          "internalType": "uint256",
          "name": "",
          "type": "uint256"
        }
      ],
      "payable": false,
      "stateMutability": "view",
      "type": "function"
    },
    {
      "constant": true,
      "inputs": [
        {
          "internalType": "address",
          "name": "account",
          "type": "address"
        }
      ],
      "name": "balanceOf",
      "outputs": [
        {
          "internalType": "uint256",
          "name": "",
          "type": "uint256"
        }
      ],
      "payable": false,
      "stateMutability": "view",
      "type": "function"
    },
    {
      "constant": false,
      "inputs": [
        {
          "internalType": "address",
          "name": "recipient",
          "type": "address"
        },
        {
          "internalType": "uint256",
          "name": "amount",
          "type": "uint256"
        }
      ],
      "name": "transfer",
      "outputs": [
        {
          "internalType": "bool",
          "name": "",
          "type": "bool"
        }
      ],
      "payable": false,
      "stateMutability": "nonpayable",
      "type": "function"
    },
    {
      "constant": true,
      "inputs": [
        {
          "internalType": "address",
          "name": "owner",
          "type": "address"
        },
        {
          "internalType": "address",
          "name": "spender",
          "type": "address"
        }
      ],
      "name": "allowance",
      "outputs": [
        {
          "internalType": "uint256",
          "name": "",
          "type": "uint256"
        }
      ],
      "payable": false,
      "stateMutability": "view",
      "type": "function"
    },
    {
      "constant": false,
      "inputs": [
        {
          "internalType": "address",
          "name": "spender",
          "type": "address"
        },
        {
          "internalType": "uint256",
          "name": "amount",
          "type": "uint256"
        }
      ],
      "name": "approve",
      "outputs": [
        {
          "internalType": "bool",
          "name": "",
          "type": "bool"
        }
      ],
      "payable": false,
      "stateMutability": "nonpayable",
      "type": "function"
    },
    {
      "constant": false,
      "inputs": [
        {
          "internalType": "address",
          "name": "sender",
          "type": "address"
        },
        {
          "internalType": "address",
          "name": "recipient",
          "type": "address"
        },
        {
          "internalType": "uint256",
          "name": "amount",
          "type": "uint256"
        }
      ],
      "name": "transferFrom",
      "outputs": [
        {
          "internalType": "bool",
          "name": "",
          "type": "bool"
        }
      ],
      "payable": false,
      "stateMutability": "nonpayable",
      "type": "function"
    },
    {
      "constant": false,
      "inputs": [
        {
          "internalType": "address",
          "name": "spender",
          "type": "address"
        },
        {
          "internalType": "uint256",
          "name": "addedValue",
          "type": "uint256"
        }
      ],
      "name": "increaseAllowance",
      "outputs": [
        {
          "internalType": "bool",
          "name": "",
          "type": "bool"
        }
      ],
      "payable": false,
      "stateMutability": "nonpayable",
      "type": "function"
    },
    {
      "constant": false,
      "inputs": [
        {
          "internalType": "address",
          "name": "spender",
          "type": "address"
        },
        {
          "internalType": "uint256",
          "name": "subtractedValue",
          "type": "uint256"
        }
      ],
      "name": "decreaseAllowance",
      "outputs": [
        {
          "internalType": "bool",
          "name": "",
          "type": "bool"
        }
      ],
      "payable": false,
      "stateMutability": "nonpayable",
      "type": "function"
    }
  ],
  "bytecode": "0x6080604052610e3a806100136000396000f3fe608060405234801561001057600080fd5b50600436106100885760003560e01c806370a082311161005b57806370a08231146101fd578063a457c2d714610255578063a9059cbb146102bb578063dd62ed3e1461032157610088565b8063095ea7b31461008d57806318160ddd146100f357806323b872dd146101115780633950935114610197575b600080fd5b6100d9600480360360408110156100a357600080fd5b81019080803573ffffffffffffffffffffffffffffffffffffffff16906020019092919080359060200190929190505050610399565b604051808215151515815260200191505060405180910390f35b6100fb6103b7565b6040518082815260200191505060405180910390f35b61017d6004803603606081101561012757600080fd5b81019080803573ffffffffffffffffffffffffffffffffffffffff169060200190929190803573ffffffffffffffffffffffffffffffffffffffff169060200190929190803590602001909291905050506103c1565b604051808215151515815260200191505060405180910390f35b6101e3600480360360408110156101ad57600080fd5b81019080803573ffffffffffffffffffffffffffffffffffffffff1690602001909291908035906020019092919050505061049a565b604051808215151515815260200191505060405180910390f35b61023f6004803603602081101561021357600080fd5b81019080803573ffffffffffffffffffffffffffffffffffffffff16906020019092919050505061054d565b6040518082815260200191505060405180910390f35b6102a16004803603604081101561026b57600080fd5b81019080803573ffffffffffffffffffffffffffffffffffffffff16906020019092919080359060200190929190505050610595565b604051808215151515815260200191505060405180910390f35b610307600480360360408110156102d157600080fd5b81019080803573ffffffffffffffffffffffffffffffffffffffff16906020019092919080359060200190929190505050610662565b604051808215151515815260200191505060405180910390f35b6103836004803603604081101561033757600080fd5b81019080803573ffffffffffffffffffffffffffffffffffffffff169060200190929190803573ffffffffffffffffffffffffffffffffffffffff169060200190929190505050610680565b6040518082815260200191505060405180910390f35b60006103ad6103a6610707565b848461070f565b6001905092915050565b6000600254905090565b60006103ce848484610906565b61048f846103da610707565b61048a85604051806060016040528060288152602001610d7060289139600160008b73ffffffffffffffffffffffffffffffffffffffff1673ffffffffffffffffffffffffffffffffffffffff1681526020019081526020016000206000610440610707565b73ffffffffffffffffffffffffffffffffffffffff1673ffffffffffffffffffffffffffffffffffffffff16815260200190815260200160002054610bbc9092919063ffffffff16565b61070f565b600190509392505050565b60006105436104a7610707565b8461053e85600160006104b8610707565b73ffffffffffffffffffffffffffffffffffffffff1673ffffffffffffffffffffffffffffffffffffffff16815260200190815260200160002060008973ffffffffffffffffffffffffffffffffffffffff1673ffffffffffffffffffffffffffffffffffffffff16815260200190815260200160002054610c7c90919063ffffffff16565b61070f565b6001905092915050565b60008060008373ffffffffffffffffffffffffffffffffffffffff1673ffffffffffffffffffffffffffffffffffffffff168152602001908152602001600020549050919050565b60006106586105a2610707565b8461065385604051806060016040528060258152602001610de160259139600160006105cc610707565b73ffffffffffffffffffffffffffffffffffffffff1673ffffffffffffffffffffffffffffffffffffffff16815260200190815260200160002060008a73ffffffffffffffffffffffffffffffffffffffff1673ffffffffffffffffffffffffffffffffffffffff16815260200190815260200160002054610bbc9092919063ffffffff16565b61070f565b6001905092915050565b600061067661066f610707565b8484610906565b6001905092915050565b6000600160008473ffffffffffffffffffffffffffffffffffffffff1673ffffffffffffffffffffffffffffffffffffffff16815260200190815260200160002060008373ffffffffffffffffffffffffffffffffffffffff1673ffffffffffffffffffffffffffffffffffffffff16815260200190815260200160002054905092915050565b600033905090565b600073ffffffffffffffffffffffffffffffffffffffff168373ffffffffffffffffffffffffffffffffffffffff161415610795576040517f08c379a0000000000000000000000000000000000000000000000000000000008152600401808060200182810382526024815260200180610dbd6024913960400191505060405180910390fd5b600073ffffffffffffffffffffffffffffffffffffffff168273ffffffffffffffffffffffffffffffffffffffff16141561081b576040517f08c379a0000000000000000000000000000000000000000000000000000000008152600401808060200182810382526022815260200180610d286022913960400191505060405180910390fd5b80600160008573ffffffffffffffffffffffffffffffffffffffff1673ffffffffffffffffffffffffffffffffffffffff16815260200190815260200160002060008473ffffffffffffffffffffffffffffffffffffffff1673ffffffffffffffffffffffffffffffffffffffff168152602001908152602001600020819055508173ffffffffffffffffffffffffffffffffffffffff168373ffffffffffffffffffffffffffffffffffffffff167f8c5be1e5ebec7d5bd14f71427d1e84f3dd0314c0f7b2291e5b200ac8c7c3b925836040518082815260200191505060405180910390a3505050565b600073ffffffffffffffffffffffffffffffffffffffff168373ffffffffffffffffffffffffffffffffffffffff16141561098c576040517f08c379a0000000000000000000000000000000000000000000000000000000008152600401808060200182810382526025815260200180610d986025913960400191505060405180910390fd5b600073ffffffffffffffffffffffffffffffffffffffff168273ffffffffffffffffffffffffffffffffffffffff161415610a12576040517f08c379a0000000000000000000000000000000000000000000000000000000008152600401808060200182810382526023815260200180610d056023913960400191505060405180910390fd5b610a7d81604051806060016040528060268152602001610d4a602691396000808773ffffffffffffffffffffffffffffffffffffffff1673ffffffffffffffffffffffffffffffffffffffff16815260200190815260200160002054610bbc9092919063ffffffff16565b6000808573ffffffffffffffffffffffffffffffffffffffff1673ffffffffffffffffffffffffffffffffffffffff16815260200190815260200160002081905550610b10816000808573ffffffffffffffffffffffffffffffffffffffff1673ffffffffffffffffffffffffffffffffffffffff16815260200190815260200160002054610c7c90919063ffffffff16565b6000808473ffffffffffffffffffffffffffffffffffffffff1673ffffffffffffffffffffffffffffffffffffffff168152602001908152602001600020819055508173ffffffffffffffffffffffffffffffffffffffff168373ffffffffffffffffffffffffffffffffffffffff167fddf252ad1be2c89b69c2b068fc378daa952ba7f163c4a11628f55a4df523b3ef836040518082815260200191505060405180910390a3505050565b6000838311158290610c69576040517f08c379a00000000000000000000000000000000000000000000000000000000081526004018080602001828103825283818151815260200191508051906020019080838360005b83811015610c2e578082015181840152602081019050610c13565b50505050905090810190601f168015610c5b5780820380516001836020036101000a031916815260200191505b509250505060405180910390fd5b5060008385039050809150509392505050565b600080828401905083811015610cfa576040517f08c379a000000000000000000000000000000000000000000000000000000000815260040180806020018281038252601b8152602001807f536166654d6174683a206164646974696f6e206f766572666c6f77000000000081525060200191505060405180910390fd5b809150509291505056fe45524332303a207472616e7366657220746f20746865207a65726f206164647265737345524332303a20617070726f766520746f20746865207a65726f206164647265737345524332303a207472616e7366657220616d6f756e7420657863656564732062616c616e636545524332303a207472616e7366657220616d6f756e74206578636565647320616c6c6f77616e636545524332303a207472616e736665722066726f6d20746865207a65726f206164647265737345524332303a20617070726f76652066726f6d20746865207a65726f206164647265737345524332303a2064656372656173656420616c6c6f77616e63652062656c6f77207a65726fa265627a7a7231582072d7336663da84d5681865eda45b3ec74262d40a5fb6b489a3ca3d894c893dae64736f6c634300050c0032",
  "source": "pragma solidity ^0.5.0;\n\ninterface IERC20 {\n    function totalSupply() external view returns (uint256);\n    function balanceOf(address account) external view returns (uint256);\n    function transfer(address recipient, uint256 amount) external returns (bool);\n    function allowance(address owner, address spender) external view returns (uint256);\n    function approve(address spender, uint256 amount) external returns (bool);\n    function transferFrom(address sender, address recipient, uint256 amount) external returns (bool);\n    event Transfer(address indexed from, address indexed to, uint256 value);\n    event Approval(address indexed owner, address indexed spender, uint256 value);\n}\n\ncontract Context {\n    constructor () internal { }\n    // solhint-disable-previous-line no-empty-blocks\n\n    function _msgSender() internal view returns (address payable) {\n        return msg.sender;\n    }\n\n    function _msgData() internal view returns (bytes memory) {\n        this; // silence state mutability warning without generating bytecode - see https://github.com/ethereum/solidity/issues/2691\n        return msg.data;\n    }\n}\n\ncontract Ownable is Context {\n    address private _owner;\n\n    event OwnershipTransferred(address indexed previousOwner, address indexed newOwner);\n    constructor () internal {\n        _owner = _msgSender();\n        emit OwnershipTransferred(address(0), _owner);\n    }\n    function owner() public view returns (address) {\n        return _owner;\n    }\n    modifier onlyOwner() {\n        require(isOwner(), \"Ownable: caller is not the owner\");\n        _;\n    }\n    function isOwner() public view returns (bool) {\n        return _msgSender() == _owner;\n    }\n    function renounceOwnership() public onlyOwner {\n        emit OwnershipTransferred(_owner, address(0));\n        _owner = address(0);\n    }\n    function transferOwnership(address newOwner) public onlyOwner {\n        _transferOwnership(newOwner);\n    }\n    function _transferOwnership(address newOwner) internal {\n        require(newOwner != address(0), \"Ownable: new owner is the zero address\");\n        emit OwnershipTransferred(_owner, newOwner);\n        _owner = newOwner;\n    }\n}\n\ncontract ERC20 is Context, IERC20 {\n    using SafeMath for uint256;\n\n    mapping (address => uint256) private _balances;\n\n    mapping (address => mapping (address => uint256)) private _allowances;\n\n    uint256 private _totalSupply;\n    function totalSupply() public view returns (uint256) {\n        return _totalSupply;\n    }\n    function balanceOf(address account) public view returns (uint256) {\n        return _balances[account];\n    }\n    function transfer(address recipient, uint256 amount) public returns (bool) {\n        _transfer(_msgSender(), recipient, amount);\n        return true;\n    }\n    function allowance(address owner, address spender) public view returns (uint256) {\n        return _allowances[owner][spender];\n    }\n    function approve(address spender, uint256 amount) public returns (bool) {\n        _approve(_msgSender(), spender, amount);\n        return true;\n    }\n    function transferFrom(address sender, address recipient, uint256 amount) public returns (bool) {\n        _transfer(sender, recipient, amount);\n        _approve(sender, _msgSender(), _allowances[sender][_msgSender()].sub(amount, \"ERC20: transfer amount exceeds allowance\"));\n        return true;\n    }\n    function increaseAllowance(address spender, uint256 addedValue) public returns (bool) {\n        _approve(_msgSender(), spender, _allowances[_msgSender()][spender].add(addedValue));\n        return true;\n    }\n    function decreaseAllowance(address spender, uint256 subtractedValue) public returns (bool) {\n        _approve(_msgSender(), spender, _allowances[_msgSender()][spender].sub(subtractedValue, \"ERC20: decreased allowance below zero\"));\n        return true;\n    }\n    function _transfer(address sender, address recipient, uint256 amount) internal {\n        require(sender != address(0), \"ERC20: transfer from the zero address\");\n        require(recipient != address(0), \"ERC20: transfer to the zero address\");\n\n        _balances[sender] = _balances[sender].sub(amount, \"ERC20: transfer amount exceeds balance\");\n        _balances[recipient] = _balances[recipient].add(amount);\n        emit Transfer(sender, recipient, amount);\n    }\n    function _mint(address account, uint256 amount) internal {\n        require(account != address(0), \"ERC20: mint to the zero address\");\n\n        _totalSupply = _totalSupply.add(amount);\n        _balances[account] = _balances[account].add(amount);\n        emit Transfer(address(0), account, amount);\n    }\n    function _burn(address account, uint256 amount) internal {\n        require(account != address(0), \"ERC20: burn from the zero address\");\n\n        _balances[account] = _balances[account].sub(amount, \"ERC20: burn amount exceeds balance\");\n        _totalSupply = _totalSupply.sub(amount);\n        emit Transfer(account, address(0), amount);\n    }\n    function _approve(address owner, address spender, uint256 amount) internal {\n        require(owner != address(0), \"ERC20: approve from the zero address\");\n        require(spender != address(0), \"ERC20: approve to the zero address\");\n\n        _allowances[owner][spender] = amount;\n        emit Approval(owner, spender, amount);\n    }\n    function _burnFrom(address account, uint256 amount) internal {\n        _burn(account, amount);\n        _approve(account, _msgSender(), _allowances[account][_msgSender()].sub(amount, \"ERC20: burn amount exceeds allowance\"));\n    }\n}\n\ncontract ERC20Detailed is IERC20 {\n    string private _name;\n    string private _symbol;\n    uint8 private _decimals;\n\n    constructor (string memory name, string memory symbol, uint8 decimals) public {\n        _name = name;\n        _symbol = symbol;\n        _decimals = decimals;\n    }\n    function name() public view returns (string memory) {\n        return _name;\n    }\n    function symbol() public view returns (string memory) {\n        return _symbol;\n    }\n    function decimals() public view returns (uint8) {\n        return _decimals;\n    }\n}\n\ncontract ReentrancyGuard {\n    uint256 private _guardCounter;\n\n    constructor () internal {\n        _guardCounter = 1;\n    }\n\n    modifier nonReentrant() {\n        _guardCounter += 1;\n        uint256 localCounter = _guardCounter;\n        _;\n        require(localCounter == _guardCounter, \"ReentrancyGuard: reentrant call\");\n    }\n}\n\nlibrary SafeMath {\n    function add(uint256 a, uint256 b) internal pure returns (uint256) {\n        uint256 c = a + b;\n        require(c >= a, \"SafeMath: addition overflow\");\n\n        return c;\n    }\n    function sub(uint256 a, uint256 b) internal pure returns (uint256) {\n        return sub(a, b, \"SafeMath: subtraction overflow\");\n    }\n    function sub(uint256 a, uint256 b, string memory errorMessage) internal pure returns (uint256) {\n        require(b <= a, errorMessage);\n        uint256 c = a - b;\n\n        return c;\n    }\n    function mul(uint256 a, uint256 b) internal pure returns (uint256) {\n        if (a == 0) {\n            return 0;\n        }\n\n        uint256 c = a * b;\n        require(c / a == b, \"SafeMath: multiplication overflow\");\n\n        return c;\n    }\n    function div(uint256 a, uint256 b) internal pure returns (uint256) {\n        return div(a, b, \"SafeMath: division by zero\");\n    }\n    function div(uint256 a, uint256 b, string memory errorMessage) internal pure returns (uint256) {\n        // Solidity only automatically asserts when dividing by 0\n        require(b > 0, errorMessage);\n        uint256 c = a / b;\n\n        return c;\n    }\n    function mod(uint256 a, uint256 b) internal pure returns (uint256) {\n        return mod(a, b, \"SafeMath: modulo by zero\");\n    }\n    function mod(uint256 a, uint256 b, string memory errorMessage) internal pure returns (uint256) {\n        require(b != 0, errorMessage);\n        return a % b;\n    }\n}\n\nlibrary Address {\n    function isContract(address account) internal view returns (bool) {\n        bytes32 codehash;\n        bytes32 accountHash = 0xc5d2460186f7233c927e7db2dcc703c0e500b653ca82273b7bfad8045d85a470;\n        // solhint-disable-next-line no-inline-assembly\n        assembly { codehash := extcodehash(account) }\n        return (codehash != 0x0 && codehash != accountHash);\n    }\n    function toPayable(address account) internal pure returns (address payable) {\n        return address(uint160(account));\n    }\n    function sendValue(address payable recipient, uint256 amount) internal {\n        require(address(this).balance >= amount, \"Address: insufficient balance\");\n\n        // solhint-disable-next-line avoid-call-value\n        (bool success, ) = recipient.call.value(amount)(\"\");\n        require(success, \"Address: unable to send value, recipient may have reverted\");\n    }\n}\n\nlibrary SafeERC20 {\n    using SafeMath for uint256;\n    using Address for address;\n\n    function safeTransfer(IERC20 token, address to, uint256 value) internal {\n        callOptionalReturn(token, abi.encodeWithSelector(token.transfer.selector, to, value));\n    }\n\n    function safeTransferFrom(IERC20 token, address from, address to, uint256 value) internal {\n        callOptionalReturn(token, abi.encodeWithSelector(token.transferFrom.selector, from, to, value));\n    }\n\n    function safeApprove(IERC20 token, address spender, uint256 value) internal {\n        require((value == 0) || (token.allowance(address(this), spender) == 0),\n            \"SafeERC20: approve from non-zero to non-zero allowance\"\n        );\n        callOptionalReturn(token, abi.encodeWithSelector(token.approve.selector, spender, value));\n    }\n\n    function safeIncreaseAllowance(IERC20 token, address spender, uint256 value) internal {\n        uint256 newAllowance = token.allowance(address(this), spender).add(value);\n        callOptionalReturn(token, abi.encodeWithSelector(token.approve.selector, spender, newAllowance));\n    }\n\n    function safeDecreaseAllowance(IERC20 token, address spender, uint256 value) internal {\n        uint256 newAllowance = token.allowance(address(this), spender).sub(value, \"SafeERC20: decreased allowance below zero\");\n        callOptionalReturn(token, abi.encodeWithSelector(token.approve.selector, spender, newAllowance));\n    }\n    function callOptionalReturn(IERC20 token, bytes memory data) private {\n        require(address(token).isContract(), \"SafeERC20: call to non-contract\");\n\n        // solhint-disable-next-line avoid-low-level-calls\n        (bool success, bytes memory returndata) = address(token).call(data);\n        require(success, \"SafeERC20: low-level call failed\");\n\n        if (returndata.length > 0) { // Return data is optional\n            // solhint-disable-next-line max-line-length\n            require(abi.decode(returndata, (bool)), \"SafeERC20: ERC20 operation did not succeed\");\n        }\n    }\n}\n\ninterface ILendingPoolAddressesProvider {\n    function getLendingPool() external view returns (address);\n}\n\ninterface Aave {\n    function deposit(address _reserve, uint256 _amount, uint16 _referralCode) external;\n    function borrow(address _reserve, uint256 _amount, uint256 _interestRateModel, uint16 _referralCode) external;\n    function getUserBorrowBalances(address _reserve, address _user) external view returns (uint256, uint256, uint256);\n    function repay(address _reserve, uint256 _amount, address payable _onBehalfOf) external payable;\n}\n\ninterface AToken {\n    function redeem(uint256 amount) external;\n}\n\ninterface LendingPoolAddressesProvider {\n    function getLendingPool() external view returns (address);\n    function getLendingPoolCore() external view returns (address);\n}\n\ncontract iCollateral is ERC20, ERC20Detailed, ReentrancyGuard, Ownable {\n  using SafeERC20 for IERC20;\n  using Address for address;\n  using SafeMath for uint256;\n\n  address public collateral;\n\n  address public aave;\n  address public aavePool;\n  address public yAaveToken;\n\n  uint256 public maxBorrow;\n  uint256 public maxBorrowBase;\n  address public trader;\n\n  address public constant DAI = address(0x6B175474E89094C44Da98b954EedeAC495271d0F);\n  address public constant USDC = address(0xA0b86991c6218b36c1d19D4a2e9Eb0cE3606eB48);\n  address public constant USDT = address(0xdAC17F958D2ee523a2206206994597C13D831ec7);\n\n  modifier onlyTrader() {\n      require(trader == msg.sender, \"itrade: caller is not the trader\");\n      _;\n  }\n  function transferTrader(address newOwner) public onlyOwner {\n      _transferTrader(newOwner);\n  }\n  function _transferTrader(address newOwner) internal {\n      require(newOwner != address(0), \"itrade: new trader is the zero address\");\n      trader = newOwner;\n  }\n\n  constructor() public ERC20Detailed(\"itrade y.curve.fi\", \"y.curve.fi\", 18) {\n    //TUSD collateral\n    collateral = address(0x0000000000085d4780B73119b644AE5ecd22b376);\n\n    aave = address(0x24a42fD28C976A61Df5D00D0599C34c4f90748c8);\n    aavePool = address(0x3dfd23A6c5E8BbcFc9581d2E864a68feb6a076d3);\n    // collateral token aTUSD\n    yAaveToken = address(0x4DA9b813057D04BAef4e5800E36083717b4a0341);\n    maxBorrow = uint256(50);\n    maxBorrowBase = uint256(100);\n\n    approveToken();\n  }\n\n  // LP deposit\n  function deposit(uint256 _amount)\n      external\n      nonReentrant\n  {\n      require(_amount > 0, \"deposit must be greater than 0\");\n      uint256 pool = calcPoolValueInToken();\n\n      IERC20(collateral).safeTransferFrom(msg.sender, address(this), _amount);\n\n      // Calculate collateral pool shares\n      uint256 shares = 0;\n      if (pool == 0) {\n        shares = _amount;\n        pool = _amount;\n      } else {\n        shares = (_amount.mul(totalSupply())).div(pool);\n      }\n      _mint(msg.sender, shares);\n  }\n\n  function withdraw(uint256 _shares)\n      external\n      nonReentrant\n  {\n      require(_shares > 0, \"withdraw must be greater than 0\");\n\n      uint256 ibalance = balanceOf(msg.sender);\n      require(_shares <= ibalance, \"insufficient balance\");\n\n      // Could have over value from cTokens\n      uint256 pool = calcPoolValueInToken();\n      // Calc to redeem before updating balances\n      uint256 r = (pool.mul(_shares)).div(totalSupply());\n\n      _burn(msg.sender, _shares);\n\n      // Check balance\n      uint256 b = IERC20(collateral).balanceOf(address(this));\n      if (b < r) {\n        _withdrawSome(r.sub(b));\n      }\n\n      uint maxDebt = balanceAave().mul(maxBorrow).div(maxBorrowBase);\n      require(calcSystemDebt() < maxDebt, \"itrade: over max collateralization\");\n\n      IERC20(collateral).safeTransfer(msg.sender, r);\n  }\n\n  function getAave() public view returns (address) {\n      return LendingPoolAddressesProvider(aave).getLendingPool();\n  }\n\n  function getAaveCore() public view returns (address) {\n      return LendingPoolAddressesProvider(aave).getLendingPoolCore();\n  }\n\n  function approveToken() public {\n      // Collateral to Aave\n      IERC20(collateral).safeApprove(getAaveCore(), uint(-1));\n\n      // Repayments to Aave\n      IERC20(DAI).safeApprove(getAaveCore(), uint(-1));\n      IERC20(USDC).safeApprove(getAaveCore(), uint(-1));\n      /*IERC20(TUSD).safeApprove(getAaveCore(), uint(-1));*/\n\n      IERC20(USDT).safeApprove(getAaveCore(), uint(0));\n      IERC20(USDT).safeApprove(getAaveCore(), uint(-1));\n  }\n\n  function balance() public view returns (uint256) {\n      return IERC20(collateral).balanceOf(address(this));\n  }\n\n  function balanceAaveAvailable() public view returns (uint256) {\n      return IERC20(collateral).balanceOf(aavePool);\n  }\n\n  function balanceAave() public view returns (uint256) {\n      return IERC20(yAaveToken).balanceOf(address(this));\n  }\n\n  function borrowAave(address _reserve, uint256 _amount) external onlyTrader {\n      require(isReserve(_reserve) == true, \"itrade: invalid reserve\");\n      //0x2 = VARIABLE InterestRateModel\n      Aave(getAave()).borrow(_reserve, _amount, 2, 7);\n      uint maxDebt = balanceAave().mul(maxBorrow).div(maxBorrowBase);\n      require(calcSystemDebt() < maxDebt, \"itrade: over max collateralization\");\n      IERC20(_reserve).safeTransfer(msg.sender, _amount);\n  }\n\n  function calcSystemDebt() public view returns (uint256) {\n    return getBorrowDebt(DAI).add(getBorrowDebt(USDC)).add(getBorrowDebt(USDT));\n  }\n\n  function getBorrowDebt(address _reserve) public view returns (uint256) {\n      (,uint256 compounded,) = Aave(getAaveCore()).getUserBorrowBalances(_reserve, address(this));\n      return compounded;\n  }\n\n  function getBorrowInterest(address _reserve) public view returns (uint256) {\n      (uint256 principal,uint256 compounded,) = Aave(getAaveCore()).getUserBorrowBalances(_reserve, address(this));\n      return compounded.sub(principal);\n  }\n\n  function supplyAave() public {\n      Aave(getAave()).deposit(collateral, IERC20(collateral).balanceOf(address(this)), 7);\n  }\n\n  function repayAave(address _reserve, uint256 _amount) public onlyTrader {\n      require(isReserve(_reserve) == true, \"itrade: invalid reserve\");\n      IERC20(_reserve).safeTransferFrom(msg.sender, address(this), _amount);\n      Aave(getAave()).repay(_reserve, _amount, address(uint160(address(this))));\n\n      uint maxDebt = balanceAave().mul(maxBorrow).div(maxBorrowBase);\n      require(calcSystemDebt() < maxDebt, \"itrade: over max collateralization\");\n  }\n\n  function _withdrawSome(uint amount) internal {\n      AToken(yAaveToken).redeem(amount);\n  }\n\n  function calcPoolValueInToken() public view returns (uint) {\n      return balanceAave().add(balance());\n  }\n  function getPricePerFullShare() public view returns (uint) {\n      uint _pool = calcPoolValueInToken();\n      return _pool.mul(1e18).div(totalSupply());\n  }\n  function isReserve(address _reserve) public pure returns (bool) {\n      if (_reserve == DAI) {\n        return true;\n      } else if (_reserve == USDC) {\n        return true;\n      } else if (_reserve == USDT) {\n        return true;\n    /*  } else if (_reserve == TUSD) {\n        return true;*/\n      } else {\n        return false;\n      }\n  }\n  // incase of half-way error\n  function inCaseTokenGetsStuck(IERC20 _TokenAddress) onlyOwner public {\n      uint qty = _TokenAddress.balanceOf(address(this));\n      _TokenAddress.safeTransfer(msg.sender, qty);\n  }\n  // incase of half-way error\n  function inCaseETHGetsStuck() onlyOwner public{\n      (bool result, ) = msg.sender.call.value(address(this).balance)(\"\");\n      require(result, \"transfer of ETH failed\");\n  }\n}\n",
  "sourcePath": "D:/ftm/itrade/contracts/iCollateral.sol",
  "compiler": {
    "name": "solc",
    "version": "0.5.12+commit.7709ece9.Emscripten.clang"
  },
  "schemaVersion": "3.0.19",
  "updatedAt": "2020-03-05T13:52:51.043Z",
  "devdoc": {
    "methods": {}
  },
  "userdoc": {
    "methods": {}
  }
}