{
  "contractName": "iManage",
  "abi": [
    {
      "inputs": [],
      "payable": false,
      "stateMutability": "nonpayable",
      "type": "constructor"
    },
    {
      "anonymous": false,
      "inputs": [
        {
          "indexed": true,
          "internalType": "address",
          "name": "previousOwner",
          "type": "address"
        },
        {
          "indexed": true,
          "internalType": "address",
          "name": "newOwner",
          "type": "address"
        }
      ],
      "name": "OwnershipTransferred",
      "type": "event"
    },
    {
      "constant": true,
      "inputs": [],
      "name": "DAI",
      "outputs": [
        {
          "internalType": "address",
          "name": "",
          "type": "address"
        }
      ],
      "payable": false,
      "stateMutability": "view",
      "type": "function"
    },
    {
      "constant": true,
      "inputs": [],
      "name": "TUSD",
      "outputs": [
        {
          "internalType": "address",
          "name": "",
          "type": "address"
        }
      ],
      "payable": false,
      "stateMutability": "view",
      "type": "function"
    },
    {
      "constant": true,
      "inputs": [],
      "name": "USDC",
      "outputs": [
        {
          "internalType": "address",
          "name": "",
          "type": "address"
        }
      ],
      "payable": false,
      "stateMutability": "view",
      "type": "function"
    },
    {
      "constant": true,
      "inputs": [],
      "name": "USDT",
      "outputs": [
        {
          "internalType": "address",
          "name": "",
          "type": "address"
        }
      ],
      "payable": false,
      "stateMutability": "view",
      "type": "function"
    },
    {
      "constant": true,
      "inputs": [],
      "name": "base",
      "outputs": [
        {
          "internalType": "uint256",
          "name": "",
          "type": "uint256"
        }
      ],
      "payable": false,
      "stateMutability": "view",
      "type": "function"
    },
    {
      "constant": true,
      "inputs": [],
      "name": "collateral",
      "outputs": [
        {
          "internalType": "contract iBorrower",
          "name": "",
          "type": "address"
        }
      ],
      "payable": false,
      "stateMutability": "view",
      "type": "function"
    },
    {
      "constant": true,
      "inputs": [],
      "name": "isOwner",
      "outputs": [
        {
          "internalType": "bool",
          "name": "",
          "type": "bool"
        }
      ],
      "payable": false,
      "stateMutability": "view",
      "type": "function"
    },
    {
      "constant": true,
      "inputs": [],
      "name": "ledger",
      "outputs": [
        {
          "internalType": "contract iLedger",
          "name": "",
          "type": "address"
        }
      ],
      "payable": false,
      "stateMutability": "view",
      "type": "function"
    },
    {
      "constant": true,
      "inputs": [],
      "name": "ltv",
      "outputs": [
        {
          "internalType": "uint256",
          "name": "",
          "type": "uint256"
        }
      ],
      "payable": false,
      "stateMutability": "view",
      "type": "function"
    },
    {
      "constant": true,
      "inputs": [],
      "name": "owner",
      "outputs": [
        {
          "internalType": "address",
          "name": "",
          "type": "address"
        }
      ],
      "payable": false,
      "stateMutability": "view",
      "type": "function"
    },
    {
      "constant": false,
      "inputs": [],
      "name": "renounceOwnership",
      "outputs": [],
      "payable": false,
      "stateMutability": "nonpayable",
      "type": "function"
    },
    {
      "constant": false,
      "inputs": [
        {
          "internalType": "address",
          "name": "newOwner",
          "type": "address"
        }
      ],
      "name": "transferOwnership",
      "outputs": [],
      "payable": false,
      "stateMutability": "nonpayable",
      "type": "function"
    },
    {
      "constant": true,
      "inputs": [],
      "name": "yCurveSwap",
      "outputs": [
        {
          "internalType": "address",
          "name": "",
          "type": "address"
        }
      ],
      "payable": false,
      "stateMutability": "view",
      "type": "function"
    },
    {
      "constant": true,
      "inputs": [],
      "name": "yDAI",
      "outputs": [
        {
          "internalType": "address",
          "name": "",
          "type": "address"
        }
      ],
      "payable": false,
      "stateMutability": "view",
      "type": "function"
    },
    {
      "constant": true,
      "inputs": [],
      "name": "yTUSD",
      "outputs": [
        {
          "internalType": "address",
          "name": "",
          "type": "address"
        }
      ],
      "payable": false,
      "stateMutability": "view",
      "type": "function"
    },
    {
      "constant": true,
      "inputs": [],
      "name": "yUSDC",
      "outputs": [
        {
          "internalType": "address",
          "name": "",
          "type": "address"
        }
      ],
      "payable": false,
      "stateMutability": "view",
      "type": "function"
    },
    {
      "constant": true,
      "inputs": [],
      "name": "yUSDT",
      "outputs": [
        {
          "internalType": "address",
          "name": "",
          "type": "address"
        }
      ],
      "payable": false,
      "stateMutability": "view",
      "type": "function"
    },
    {
      "constant": false,
      "inputs": [
        {
          "internalType": "address",
          "name": "_reserve",
          "type": "address"
        },
        {
          "internalType": "address",
          "name": "_to",
          "type": "address"
        },
        {
          "internalType": "uint256",
          "name": "_amount",
          "type": "uint256"
        },
        {
          "internalType": "uint256",
          "name": "_min_to_amount",
          "type": "uint256"
        }
      ],
      "name": "tradePosition",
      "outputs": [],
      "payable": false,
      "stateMutability": "nonpayable",
      "type": "function"
    },
    {
      "constant": false,
      "inputs": [
        {
          "internalType": "address",
          "name": "_reserve",
          "type": "address"
        },
        {
          "internalType": "uint256",
          "name": "_amount",
          "type": "uint256"
        }
      ],
      "name": "closePosition",
      "outputs": [],
      "payable": false,
      "stateMutability": "nonpayable",
      "type": "function"
    },
    {
      "constant": false,
      "inputs": [
        {
          "internalType": "contract IERC20",
          "name": "_TokenAddress",
          "type": "address"
        }
      ],
      "name": "inCaseTokenGetsStuck",
      "outputs": [],
      "payable": false,
      "stateMutability": "nonpayable",
      "type": "function"
    },
    {
      "constant": false,
      "inputs": [],
      "name": "inCaseETHGetsStuck",
      "outputs": [],
      "payable": false,
      "stateMutability": "nonpayable",
      "type": "function"
    }
  ],
  "bytecode": "0x60806040523480156200001157600080fd5b5060016000819055506200002a620000ed60201b60201c565b600160006101000a81548173ffffffffffffffffffffffffffffffffffffffff021916908373ffffffffffffffffffffffffffffffffffffffff160217905550600160009054906101000a900473ffffffffffffffffffffffffffffffffffffffff1673ffffffffffffffffffffffffffffffffffffffff16600073ffffffffffffffffffffffffffffffffffffffff167f8be0079c531659141344cd1fd0a4f28419497f9722a3daafe3b4186f6b6457e060405160405180910390a3620000f5565b600033905090565b61390a80620001056000396000f3fe608060405234801561001057600080fd5b50600436106101375760003560e01c80638323550b116100b8578063c54e44eb1161007c578063c54e44eb146104fe578063d8dfeb4514610548578063e0bab4c414610592578063e31ff1be146105dc578063f2fde38b14610626578063f60a15ed1461066a57610137565b80638323550b146103b457806389a30271146103fe5780638da5cb5b146104485780638f32d59b14610492578063b18cf95e146104b457610137565b806356397c35116100ff57806356397c35146102aa5780636fb49d73146102f4578063715018a614610312578063742fe1f81461031c578063756bb1cc1461036a57610137565b806317e5a9a41461013c57806319d9e008146101865780632e8d6e18146101d0578063378f74a2146102145780635001f3b51461028c575b600080fd5b610144610674565b604051808273ffffffffffffffffffffffffffffffffffffffff1673ffffffffffffffffffffffffffffffffffffffff16815260200191505060405180910390f35b61018e61068c565b604051808273ffffffffffffffffffffffffffffffffffffffff1673ffffffffffffffffffffffffffffffffffffffff16815260200191505060405180910390f35b610212600480360360208110156101e657600080fd5b81019080803573ffffffffffffffffffffffffffffffffffffffff1690602001909291905050506106a4565b005b61028a6004803603608081101561022a57600080fd5b81019080803573ffffffffffffffffffffffffffffffffffffffff169060200190929190803573ffffffffffffffffffffffffffffffffffffffff1690602001909291908035906020019092919080359060200190929190505050610809565b005b610294611ba3565b6040518082815260200191505060405180910390f35b6102b2611ba8565b604051808273ffffffffffffffffffffffffffffffffffffffff1673ffffffffffffffffffffffffffffffffffffffff16815260200191505060405180910390f35b6102fc611bc0565b6040518082815260200191505060405180910390f35b61031a611bc5565b005b6103686004803603604081101561033257600080fd5b81019080803573ffffffffffffffffffffffffffffffffffffffff16906020019092919080359060200190929190505050611d00565b005b610372612d4d565b604051808273ffffffffffffffffffffffffffffffffffffffff1673ffffffffffffffffffffffffffffffffffffffff16815260200191505060405180910390f35b6103bc612d65565b604051808273ffffffffffffffffffffffffffffffffffffffff1673ffffffffffffffffffffffffffffffffffffffff16815260200191505060405180910390f35b610406612d78565b604051808273ffffffffffffffffffffffffffffffffffffffff1673ffffffffffffffffffffffffffffffffffffffff16815260200191505060405180910390f35b610450612d90565b604051808273ffffffffffffffffffffffffffffffffffffffff1673ffffffffffffffffffffffffffffffffffffffff16815260200191505060405180910390f35b61049a612dba565b604051808215151515815260200191505060405180910390f35b6104bc612e19565b604051808273ffffffffffffffffffffffffffffffffffffffff1673ffffffffffffffffffffffffffffffffffffffff16815260200191505060405180910390f35b610506612e31565b604051808273ffffffffffffffffffffffffffffffffffffffff1673ffffffffffffffffffffffffffffffffffffffff16815260200191505060405180910390f35b610550612e49565b604051808273ffffffffffffffffffffffffffffffffffffffff1673ffffffffffffffffffffffffffffffffffffffff16815260200191505060405180910390f35b61059a612e61565b604051808273ffffffffffffffffffffffffffffffffffffffff1673ffffffffffffffffffffffffffffffffffffffff16815260200191505060405180910390f35b6105e4612e79565b604051808273ffffffffffffffffffffffffffffffffffffffff1673ffffffffffffffffffffffffffffffffffffffff16815260200191505060405180910390f35b6106686004803603602081101561063c57600080fd5b81019080803573ffffffffffffffffffffffffffffffffffffffff169060200190929190505050612e91565b005b610672612f17565b005b7383f798e925bcd4017eb265844fddabb448f1707d81565b73d6ad7a6750a7593e092a9b218d66c0a814a3436e81565b6106ac612dba565b61071e576040517f08c379a00000000000000000000000000000000000000000000000000000000081526004018080602001828103825260208152602001807f4f776e61626c653a2063616c6c6572206973206e6f7420746865206f776e657281525060200191505060405180910390fd5b60008173ffffffffffffffffffffffffffffffffffffffff166370a08231306040518263ffffffff1660e01b8152600401808273ffffffffffffffffffffffffffffffffffffffff1673ffffffffffffffffffffffffffffffffffffffff16815260200191505060206040518083038186803b15801561079d57600080fd5b505afa1580156107b1573d6000803e3d6000fd5b505050506040513d60208110156107c757600080fd5b8101908080519060200190929190505050905061080533828473ffffffffffffffffffffffffffffffffffffffff166130879092919063ffffffff16565b5050565b600160008082825401925050819055506000805490506001151573acd746993f60e807fbf69f646e42daeda63a4cfc73ffffffffffffffffffffffffffffffffffffffff16637a2b0587876040518263ffffffff1660e01b8152600401808273ffffffffffffffffffffffffffffffffffffffff1673ffffffffffffffffffffffffffffffffffffffff16815260200191505060206040518083038186803b1580156108b457600080fd5b505afa1580156108c8573d6000803e3d6000fd5b505050506040513d60208110156108de57600080fd5b8101908080519060200190929190505050151514610964576040517f08c379a00000000000000000000000000000000000000000000000000000000081526004018080602001828103825260178152602001807f6974726164653a20696e76616c6964207265736572766500000000000000000081525060200191505060405180910390fd5b73acd746993f60e807fbf69f646e42daeda63a4cfc73ffffffffffffffffffffffffffffffffffffffff1663b33dc19086336040518363ffffffff1660e01b8152600401808373ffffffffffffffffffffffffffffffffffffffff1673ffffffffffffffffffffffffffffffffffffffff1681526020018273ffffffffffffffffffffffffffffffffffffffff1673ffffffffffffffffffffffffffffffffffffffff1681526020019250505060206040518083038186803b158015610a2957600080fd5b505afa158015610a3d573d6000803e3d6000fd5b505050506040513d6020811015610a5357600080fd5b8101908080519060200190929190505050831115610ad9576040517f08c379a000000000000000000000000000000000000000000000000000000000815260040180806020018281038252601c8152602001807f6974726164653a20696e73756666696369656e742062616c616e63650000000081525060200191505060405180910390fd5b60008573ffffffffffffffffffffffffffffffffffffffff166370a08231306040518263ffffffff1660e01b8152600401808273ffffffffffffffffffffffffffffffffffffffff1673ffffffffffffffffffffffffffffffffffffffff16815260200191505060206040518083038186803b158015610b5857600080fd5b505afa158015610b6c573d6000803e3d6000fd5b505050506040513d6020811015610b8257600080fd5b810190808051906020019092919050505014610c06576040517f08c379a00000000000000000000000000000000000000000000000000000000081526004018080602001828103825260198152602001807f6974726164653a20756e657870656374656420726573756c740000000000000081525060200191505060405180910390fd5b600073acd746993f60e807fbf69f646e42daeda63a4cfc73ffffffffffffffffffffffffffffffffffffffff1663ede26bc8876040518263ffffffff1660e01b8152600401808273ffffffffffffffffffffffffffffffffffffffff1673ffffffffffffffffffffffffffffffffffffffff16815260200191505060206040518083038186803b158015610c9957600080fd5b505afa158015610cad573d6000803e3d6000fd5b505050506040513d6020811015610cc357600080fd5b810190808051906020019092919050505073ffffffffffffffffffffffffffffffffffffffff166377c7b8fc6040518163ffffffff1660e01b815260040160206040518083038186803b158015610d1957600080fd5b505afa158015610d2d573d6000803e3d6000fd5b505050506040513d6020811015610d4357600080fd5b810190808051906020019092919050505090506000610d986001610d8a84610d7c670de0b6b3a76400008a61315890919063ffffffff16565b6131de90919063ffffffff16565b61322890919063ffffffff16565b905073acd746993f60e807fbf69f646e42daeda63a4cfc73ffffffffffffffffffffffffffffffffffffffff1663ede26bc8886040518263ffffffff1660e01b8152600401808273ffffffffffffffffffffffffffffffffffffffff1673ffffffffffffffffffffffffffffffffffffffff16815260200191505060206040518083038186803b158015610e2b57600080fd5b505afa158015610e3f573d6000803e3d6000fd5b505050506040513d6020811015610e5557600080fd5b810190808051906020019092919050505073ffffffffffffffffffffffffffffffffffffffff16632e1a7d4d826040518263ffffffff1660e01b815260040180828152602001915050600060405180830381600087803b158015610eb857600080fd5b505af1158015610ecc573d6000803e3d6000fd5b50505050848773ffffffffffffffffffffffffffffffffffffffff166370a08231306040518263ffffffff1660e01b8152600401808273ffffffffffffffffffffffffffffffffffffffff1673ffffffffffffffffffffffffffffffffffffffff16815260200191505060206040518083038186803b158015610f4e57600080fd5b505afa158015610f62573d6000803e3d6000fd5b505050506040513d6020811015610f7857600080fd5b81019080805190602001909291905050501015610ffd576040517f08c379a00000000000000000000000000000000000000000000000000000000081526004018080602001828103825260198152602001807f6974726164653a20756e657870656374656420726573756c740000000000000081525060200191505060405180910390fd5b60008673ffffffffffffffffffffffffffffffffffffffff166370a08231306040518263ffffffff1660e01b8152600401808273ffffffffffffffffffffffffffffffffffffffff1673ffffffffffffffffffffffffffffffffffffffff16815260200191505060206040518083038186803b15801561107c57600080fd5b505afa158015611090573d6000803e3d6000fd5b505050506040513d60208110156110a657600080fd5b81019080805190602001909291905050501461112a576040517f08c379a00000000000000000000000000000000000000000000000000000000081526004018080602001828103825260198152602001807f6974726164653a20756e657870656374656420726573756c740000000000000081525060200191505060405180910390fd5b600073acd746993f60e807fbf69f646e42daeda63a4cfc73ffffffffffffffffffffffffffffffffffffffff16631663999e896040518263ffffffff1660e01b8152600401808273ffffffffffffffffffffffffffffffffffffffff1673ffffffffffffffffffffffffffffffffffffffff16815260200191505060206040518083038186803b1580156111bd57600080fd5b505afa1580156111d1573d6000803e3d6000fd5b505050506040513d60208110156111e757600080fd5b81019080805190602001909291905050509050600073acd746993f60e807fbf69f646e42daeda63a4cfc73ffffffffffffffffffffffffffffffffffffffff16631663999e896040518263ffffffff1660e01b8152600401808273ffffffffffffffffffffffffffffffffffffffff1673ffffffffffffffffffffffffffffffffffffffff16815260200191505060206040518083038186803b15801561128d57600080fd5b505afa1580156112a1573d6000803e3d6000fd5b505050506040513d60208110156112b757600080fd5b810190808051906020019092919050505090507345f783cce6b7ff23b2ab2d70e416cdb7d6055f5173ffffffffffffffffffffffffffffffffffffffff1663a6417ed683838a8a6040518563ffffffff1660e01b8152600401808560ff16600f0b81526020018460ff16600f0b8152602001838152602001828152602001945050505050600060405180830381600087803b15801561135557600080fd5b505af1158015611369573d6000803e3d6000fd5b5050505073acd746993f60e807fbf69f646e42daeda63a4cfc73ffffffffffffffffffffffffffffffffffffffff1663a506e38c8a338a6040518463ffffffff1660e01b8152600401808473ffffffffffffffffffffffffffffffffffffffff1673ffffffffffffffffffffffffffffffffffffffff1681526020018373ffffffffffffffffffffffffffffffffffffffff1673ffffffffffffffffffffffffffffffffffffffff1681526020018281526020019350505050600060405180830381600087803b15801561143c57600080fd5b505af1158015611450573d6000803e3d6000fd5b5050505060008873ffffffffffffffffffffffffffffffffffffffff166370a08231306040518263ffffffff1660e01b8152600401808273ffffffffffffffffffffffffffffffffffffffff1673ffffffffffffffffffffffffffffffffffffffff16815260200191505060206040518083038186803b1580156114d357600080fd5b505afa1580156114e7573d6000803e3d6000fd5b505050506040513d60208110156114fd57600080fd5b8101908080519060200190929190505050905073acd746993f60e807fbf69f646e42daeda63a4cfc73ffffffffffffffffffffffffffffffffffffffff16632eaed1018a33846040518463ffffffff1660e01b8152600401808473ffffffffffffffffffffffffffffffffffffffff1673ffffffffffffffffffffffffffffffffffffffff1681526020018373ffffffffffffffffffffffffffffffffffffffff1673ffffffffffffffffffffffffffffffffffffffff1681526020018281526020019350505050600060405180830381600087803b1580156115df57600080fd5b505af11580156115f3573d6000803e3d6000fd5b5050505073acd746993f60e807fbf69f646e42daeda63a4cfc73ffffffffffffffffffffffffffffffffffffffff1663ede26bc88a6040518263ffffffff1660e01b8152600401808273ffffffffffffffffffffffffffffffffffffffff1673ffffffffffffffffffffffffffffffffffffffff16815260200191505060206040518083038186803b15801561168857600080fd5b505afa15801561169c573d6000803e3d6000fd5b505050506040513d60208110156116b257600080fd5b810190808051906020019092919050505073ffffffffffffffffffffffffffffffffffffffff1663b6b55f25826040518263ffffffff1660e01b815260040180828152602001915050600060405180830381600087803b15801561171557600080fd5b505af1158015611729573d6000803e3d6000fd5b5050505060008a73ffffffffffffffffffffffffffffffffffffffff166370a08231306040518263ffffffff1660e01b8152600401808273ffffffffffffffffffffffffffffffffffffffff1673ffffffffffffffffffffffffffffffffffffffff16815260200191505060206040518083038186803b1580156117ac57600080fd5b505afa1580156117c0573d6000803e3d6000fd5b505050506040513d60208110156117d657600080fd5b810190808051906020019092919050505011156119db5773acd746993f60e807fbf69f646e42daeda63a4cfc73ffffffffffffffffffffffffffffffffffffffff1663ede26bc88b6040518263ffffffff1660e01b8152600401808273ffffffffffffffffffffffffffffffffffffffff1673ffffffffffffffffffffffffffffffffffffffff16815260200191505060206040518083038186803b15801561187e57600080fd5b505afa158015611892573d6000803e3d6000fd5b505050506040513d60208110156118a857600080fd5b810190808051906020019092919050505073ffffffffffffffffffffffffffffffffffffffff1663b6b55f258b73ffffffffffffffffffffffffffffffffffffffff166370a08231306040518263ffffffff1660e01b8152600401808273ffffffffffffffffffffffffffffffffffffffff1673ffffffffffffffffffffffffffffffffffffffff16815260200191505060206040518083038186803b15801561195157600080fd5b505afa158015611965573d6000803e3d6000fd5b505050506040513d602081101561197b57600080fd5b81019080805190602001909291905050506040518263ffffffff1660e01b815260040180828152602001915050600060405180830381600087803b1580156119c257600080fd5b505af11580156119d6573d6000803e3d6000fd5b505050505b6001151573acd746993f60e807fbf69f646e42daeda63a4cfc73ffffffffffffffffffffffffffffffffffffffff1663769a28ac336040518263ffffffff1660e01b8152600401808273ffffffffffffffffffffffffffffffffffffffff1673ffffffffffffffffffffffffffffffffffffffff16815260200191505060206040518083038186803b158015611a7057600080fd5b505afa158015611a84573d6000803e3d6000fd5b505050506040513d6020811015611a9a57600080fd5b8101908080519060200190929190505050151514611b20576040517f08c379a000000000000000000000000000000000000000000000000000000000815260040180806020018281038252601f8152602001807f6974726164653a206163636f756e7420776f756c64206c69717569646174650081525060200191505060405180910390fd5b50505050506000548114611b9c576040517f08c379a000000000000000000000000000000000000000000000000000000000815260040180806020018281038252601f8152602001807f5265656e7472616e637947756172643a207265656e7472616e742063616c6c0081525060200191505060405180910390fd5b5050505050565b606481565b73acd746993f60e807fbf69f646e42daeda63a4cfc81565b603281565b611bcd612dba565b611c3f576040517f08c379a00000000000000000000000000000000000000000000000000000000081526004018080602001828103825260208152602001807f4f776e61626c653a2063616c6c6572206973206e6f7420746865206f776e657281525060200191505060405180910390fd5b600073ffffffffffffffffffffffffffffffffffffffff16600160009054906101000a900473ffffffffffffffffffffffffffffffffffffffff1673ffffffffffffffffffffffffffffffffffffffff167f8be0079c531659141344cd1fd0a4f28419497f9722a3daafe3b4186f6b6457e060405160405180910390a36000600160006101000a81548173ffffffffffffffffffffffffffffffffffffffff021916908373ffffffffffffffffffffffffffffffffffffffff160217905550565b600160008082825401925050819055506000805490506001151573acd746993f60e807fbf69f646e42daeda63a4cfc73ffffffffffffffffffffffffffffffffffffffff16637a2b0587856040518263ffffffff1660e01b8152600401808273ffffffffffffffffffffffffffffffffffffffff1673ffffffffffffffffffffffffffffffffffffffff16815260200191505060206040518083038186803b158015611dab57600080fd5b505afa158015611dbf573d6000803e3d6000fd5b505050506040513d6020811015611dd557600080fd5b8101908080519060200190929190505050151514611e5b576040517f08c379a00000000000000000000000000000000000000000000000000000000081526004018080602001828103825260178152602001807f6974726164653a20696e76616c6964207265736572766500000000000000000081525060200191505060405180910390fd5b73acd746993f60e807fbf69f646e42daeda63a4cfc73ffffffffffffffffffffffffffffffffffffffff1663b33dc19084336040518363ffffffff1660e01b8152600401808373ffffffffffffffffffffffffffffffffffffffff1673ffffffffffffffffffffffffffffffffffffffff1681526020018273ffffffffffffffffffffffffffffffffffffffff1673ffffffffffffffffffffffffffffffffffffffff1681526020019250505060206040518083038186803b158015611f2057600080fd5b505afa158015611f34573d6000803e3d6000fd5b505050506040513d6020811015611f4a57600080fd5b8101908080519060200190929190505050821115611fd0576040517f08c379a000000000000000000000000000000000000000000000000000000000815260040180806020018281038252601c8152602001807f6974726164653a20696e73756666696369656e742062616c616e63650000000081525060200191505060405180910390fd5b60008373ffffffffffffffffffffffffffffffffffffffff166370a08231306040518263ffffffff1660e01b8152600401808273ffffffffffffffffffffffffffffffffffffffff1673ffffffffffffffffffffffffffffffffffffffff16815260200191505060206040518083038186803b15801561204f57600080fd5b505afa158015612063573d6000803e3d6000fd5b505050506040513d602081101561207957600080fd5b8101908080519060200190929190505050146120fd576040517f08c379a00000000000000000000000000000000000000000000000000000000081526004018080602001828103825260198152602001807f6974726164653a20756e657870656374656420726573756c740000000000000081525060200191505060405180910390fd5b600073acd746993f60e807fbf69f646e42daeda63a4cfc73ffffffffffffffffffffffffffffffffffffffff1663a2a00ed685336040518363ffffffff1660e01b8152600401808373ffffffffffffffffffffffffffffffffffffffff1673ffffffffffffffffffffffffffffffffffffffff1681526020018273ffffffffffffffffffffffffffffffffffffffff1673ffffffffffffffffffffffffffffffffffffffff1681526020019250505060206040518083038186803b1580156121c457600080fd5b505afa1580156121d8573d6000803e3d6000fd5b505050506040513d60208110156121ee57600080fd5b810190808051906020019092919050505090506000809050818411156122275761222182856132b090919063ffffffff16565b90508193505b600073acd746993f60e807fbf69f646e42daeda63a4cfc73ffffffffffffffffffffffffffffffffffffffff1663ede26bc8876040518263ffffffff1660e01b8152600401808273ffffffffffffffffffffffffffffffffffffffff1673ffffffffffffffffffffffffffffffffffffffff16815260200191505060206040518083038186803b1580156122ba57600080fd5b505afa1580156122ce573d6000803e3d6000fd5b505050506040513d60208110156122e457600080fd5b810190808051906020019092919050505073ffffffffffffffffffffffffffffffffffffffff166377c7b8fc6040518163ffffffff1660e01b815260040160206040518083038186803b15801561233a57600080fd5b505afa15801561234e573d6000803e3d6000fd5b505050506040513d602081101561236457600080fd5b8101908080519060200190929190505050905060006123b960016123ab8461239d670de0b6b3a76400008b61315890919063ffffffff16565b6131de90919063ffffffff16565b61322890919063ffffffff16565b905073acd746993f60e807fbf69f646e42daeda63a4cfc73ffffffffffffffffffffffffffffffffffffffff1663ede26bc8886040518263ffffffff1660e01b8152600401808273ffffffffffffffffffffffffffffffffffffffff1673ffffffffffffffffffffffffffffffffffffffff16815260200191505060206040518083038186803b15801561244c57600080fd5b505afa158015612460573d6000803e3d6000fd5b505050506040513d602081101561247657600080fd5b810190808051906020019092919050505073ffffffffffffffffffffffffffffffffffffffff16632e1a7d4d826040518263ffffffff1660e01b815260040180828152602001915050600060405180830381600087803b1580156124d957600080fd5b505af11580156124ed573d6000803e3d6000fd5b5050505060008411156127be576000612620856126128973acd746993f60e807fbf69f646e42daeda63a4cfc73ffffffffffffffffffffffffffffffffffffffff1663498b5ae88d336040518363ffffffff1660e01b8152600401808373ffffffffffffffffffffffffffffffffffffffff1673ffffffffffffffffffffffffffffffffffffffff1681526020018273ffffffffffffffffffffffffffffffffffffffff1673ffffffffffffffffffffffffffffffffffffffff1681526020019250505060206040518083038186803b1580156125c957600080fd5b505afa1580156125dd573d6000803e3d6000fd5b505050506040513d60208110156125f357600080fd5b810190808051906020019092919050505061315890919063ffffffff16565b6131de90919063ffffffff16565b905073acd746993f60e807fbf69f646e42daeda63a4cfc73ffffffffffffffffffffffffffffffffffffffff166379f3c01489896040518363ffffffff1660e01b8152600401808373ffffffffffffffffffffffffffffffffffffffff1673ffffffffffffffffffffffffffffffffffffffff16815260200182815260200192505050600060405180830381600087803b1580156126bd57600080fd5b505af11580156126d1573d6000803e3d6000fd5b5050505073acd746993f60e807fbf69f646e42daeda63a4cfc73ffffffffffffffffffffffffffffffffffffffff166358bb2a4d8933846040518463ffffffff1660e01b8152600401808473ffffffffffffffffffffffffffffffffffffffff1673ffffffffffffffffffffffffffffffffffffffff1681526020018373ffffffffffffffffffffffffffffffffffffffff1673ffffffffffffffffffffffffffffffffffffffff1681526020018281526020019350505050600060405180830381600087803b1580156127a457600080fd5b505af11580156127b8573d6000803e3d6000fd5b50505050505b60008311156127f3576127f233848973ffffffffffffffffffffffffffffffffffffffff166130879092919063ffffffff16565b5b73acd746993f60e807fbf69f646e42daeda63a4cfc73ffffffffffffffffffffffffffffffffffffffff1663a506e38c8833896040518463ffffffff1660e01b8152600401808473ffffffffffffffffffffffffffffffffffffffff1673ffffffffffffffffffffffffffffffffffffffff1681526020018373ffffffffffffffffffffffffffffffffffffffff1673ffffffffffffffffffffffffffffffffffffffff1681526020018281526020019350505050600060405180830381600087803b1580156128c257600080fd5b505af11580156128d6573d6000803e3d6000fd5b5050505060008773ffffffffffffffffffffffffffffffffffffffff166370a08231306040518263ffffffff1660e01b8152600401808273ffffffffffffffffffffffffffffffffffffffff1673ffffffffffffffffffffffffffffffffffffffff16815260200191505060206040518083038186803b15801561295957600080fd5b505afa15801561296d573d6000803e3d6000fd5b505050506040513d602081101561298357600080fd5b81019080805190602001909291905050501115612b885773acd746993f60e807fbf69f646e42daeda63a4cfc73ffffffffffffffffffffffffffffffffffffffff1663ede26bc8886040518263ffffffff1660e01b8152600401808273ffffffffffffffffffffffffffffffffffffffff1673ffffffffffffffffffffffffffffffffffffffff16815260200191505060206040518083038186803b158015612a2b57600080fd5b505afa158015612a3f573d6000803e3d6000fd5b505050506040513d6020811015612a5557600080fd5b810190808051906020019092919050505073ffffffffffffffffffffffffffffffffffffffff1663b6b55f258873ffffffffffffffffffffffffffffffffffffffff166370a08231306040518263ffffffff1660e01b8152600401808273ffffffffffffffffffffffffffffffffffffffff1673ffffffffffffffffffffffffffffffffffffffff16815260200191505060206040518083038186803b158015612afe57600080fd5b505afa158015612b12573d6000803e3d6000fd5b505050506040513d6020811015612b2857600080fd5b81019080805190602001909291905050506040518263ffffffff1660e01b815260040180828152602001915050600060405180830381600087803b158015612b6f57600080fd5b505af1158015612b83573d6000803e3d6000fd5b505050505b6001151573acd746993f60e807fbf69f646e42daeda63a4cfc73ffffffffffffffffffffffffffffffffffffffff1663769a28ac336040518263ffffffff1660e01b8152600401808273ffffffffffffffffffffffffffffffffffffffff1673ffffffffffffffffffffffffffffffffffffffff16815260200191505060206040518083038186803b158015612c1d57600080fd5b505afa158015612c31573d6000803e3d6000fd5b505050506040513d6020811015612c4757600080fd5b8101908080519060200190929190505050151514612ccd576040517f08c379a000000000000000000000000000000000000000000000000000000000815260040180806020018281038252601f8152602001807f6974726164653a206163636f756e7420776f756c64206c69717569646174650081525060200191505060405180910390fd5b505050506000548114612d48576040517f08c379a000000000000000000000000000000000000000000000000000000000815260040180806020018281038252601f8152602001807f5265656e7472616e637947756172643a207265656e7472616e742063616c6c0081525060200191505060405180910390fd5b505050565b7316de59092dae5ccf4a1e6439d611fd0653f0bd0181565b6e085d4780b73119b644ae5ecd22b37681565b73a0b86991c6218b36c1d19d4a2e9eb0ce3606eb4881565b6000600160009054906101000a900473ffffffffffffffffffffffffffffffffffffffff16905090565b6000600160009054906101000a900473ffffffffffffffffffffffffffffffffffffffff1673ffffffffffffffffffffffffffffffffffffffff16612dfd6132fa565b73ffffffffffffffffffffffffffffffffffffffff1614905090565b7345f783cce6b7ff23b2ab2d70e416cdb7d6055f5181565b73dac17f958d2ee523a2206206994597c13d831ec781565b73acd746993f60e807fbf69f646e42daeda63a4cfc81565b736b175474e89094c44da98b954eedeac495271d0f81565b7373a052500105205d34daf004eab301916da8190f81565b612e99612dba565b612f0b576040517f08c379a00000000000000000000000000000000000000000000000000000000081526004018080602001828103825260208152602001807f4f776e61626c653a2063616c6c6572206973206e6f7420746865206f776e657281525060200191505060405180910390fd5b612f1481613302565b50565b612f1f612dba565b612f91576040517f08c379a00000000000000000000000000000000000000000000000000000000081526004018080602001828103825260208152602001807f4f776e61626c653a2063616c6c6572206973206e6f7420746865206f776e657281525060200191505060405180910390fd5b60003373ffffffffffffffffffffffffffffffffffffffff163073ffffffffffffffffffffffffffffffffffffffff163160405180600001905060006040518083038185875af1925050503d8060008114613008576040519150601f19603f3d011682016040523d82523d6000602084013e61300d565b606091505b5050905080613084576040517f08c379a00000000000000000000000000000000000000000000000000000000081526004018080602001828103825260168152602001807f7472616e73666572206f6620455448206661696c65640000000000000000000081525060200191505060405180910390fd5b50565b613153838473ffffffffffffffffffffffffffffffffffffffff1663a9059cbb905060e01b8484604051602401808373ffffffffffffffffffffffffffffffffffffffff1673ffffffffffffffffffffffffffffffffffffffff16815260200182815260200192505050604051602081830303815290604052907bffffffffffffffffffffffffffffffffffffffffffffffffffffffff19166020820180517bffffffffffffffffffffffffffffffffffffffffffffffffffffffff8381831617835250505050613448565b505050565b60008083141561316b57600090506131d8565b600082840290508284828161317c57fe5b04146131d3576040517f08c379a000000000000000000000000000000000000000000000000000000000815260040180806020018281038252602181526020018061388b6021913960400191505060405180910390fd5b809150505b92915050565b600061322083836040518060400160405280601a81526020017f536166654d6174683a206469766973696f6e206279207a65726f000000000000815250613693565b905092915050565b6000808284019050838110156132a6576040517f08c379a000000000000000000000000000000000000000000000000000000000815260040180806020018281038252601b8152602001807f536166654d6174683a206164646974696f6e206f766572666c6f77000000000081525060200191505060405180910390fd5b8091505092915050565b60006132f283836040518060400160405280601e81526020017f536166654d6174683a207375627472616374696f6e206f766572666c6f770000815250613759565b905092915050565b600033905090565b600073ffffffffffffffffffffffffffffffffffffffff168173ffffffffffffffffffffffffffffffffffffffff161415613388576040517f08c379a00000000000000000000000000000000000000000000000000000000081526004018080602001828103825260268152602001806138656026913960400191505060405180910390fd5b8073ffffffffffffffffffffffffffffffffffffffff16600160009054906101000a900473ffffffffffffffffffffffffffffffffffffffff1673ffffffffffffffffffffffffffffffffffffffff167f8be0079c531659141344cd1fd0a4f28419497f9722a3daafe3b4186f6b6457e060405160405180910390a380600160006101000a81548173ffffffffffffffffffffffffffffffffffffffff021916908373ffffffffffffffffffffffffffffffffffffffff16021790555050565b6134678273ffffffffffffffffffffffffffffffffffffffff16613819565b6134d9576040517f08c379a000000000000000000000000000000000000000000000000000000000815260040180806020018281038252601f8152602001807f5361666545524332303a2063616c6c20746f206e6f6e2d636f6e74726163740081525060200191505060405180910390fd5b600060608373ffffffffffffffffffffffffffffffffffffffff16836040518082805190602001908083835b602083106135285780518252602082019150602081019050602083039250613505565b6001836020036101000a0380198251168184511680821785525050505050509050019150506000604051808303816000865af19150503d806000811461358a576040519150601f19603f3d011682016040523d82523d6000602084013e61358f565b606091505b509150915081613607576040517f08c379a00000000000000000000000000000000000000000000000000000000081526004018080602001828103825260208152602001807f5361666545524332303a206c6f772d6c6576656c2063616c6c206661696c656481525060200191505060405180910390fd5b60008151111561368d5780806020019051602081101561362657600080fd5b810190808051906020019092919050505061368c576040517f08c379a000000000000000000000000000000000000000000000000000000000815260040180806020018281038252602a8152602001806138ac602a913960400191505060405180910390fd5b5b50505050565b6000808311829061373f576040517f08c379a00000000000000000000000000000000000000000000000000000000081526004018080602001828103825283818151815260200191508051906020019080838360005b838110156137045780820151818401526020810190506136e9565b50505050905090810190601f1680156137315780820380516001836020036101000a031916815260200191505b509250505060405180910390fd5b50600083858161374b57fe5b049050809150509392505050565b6000838311158290613806576040517f08c379a00000000000000000000000000000000000000000000000000000000081526004018080602001828103825283818151815260200191508051906020019080838360005b838110156137cb5780820151818401526020810190506137b0565b50505050905090810190601f1680156137f85780820380516001836020036101000a031916815260200191505b509250505060405180910390fd5b5060008385039050809150509392505050565b60008060007fc5d2460186f7233c927e7db2dcc703c0e500b653ca82273b7bfad8045d85a47060001b9050833f91506000801b821415801561385b5750808214155b9250505091905056fe4f776e61626c653a206e6577206f776e657220697320746865207a65726f2061646472657373536166654d6174683a206d756c7469706c69636174696f6e206f766572666c6f775361666545524332303a204552433230206f7065726174696f6e20646964206e6f742073756363656564a265627a7a723158203e712bbad7d11125b731d6936dc36b91b506b0b0c16dc31951ae0a3c5a47a34964736f6c634300050c0032",
  "source": "pragma solidity ^0.5.0;\n\ninterface IERC20 {\n    function totalSupply() external view returns (uint256);\n    function balanceOf(address account) external view returns (uint256);\n    function transfer(address recipient, uint256 amount) external returns (bool);\n    function allowance(address owner, address spender) external view returns (uint256);\n    function approve(address spender, uint256 amount) external returns (bool);\n    function transferFrom(address sender, address recipient, uint256 amount) external returns (bool);\n    event Transfer(address indexed from, address indexed to, uint256 value);\n    event Approval(address indexed owner, address indexed spender, uint256 value);\n}\n\ncontract Context {\n    constructor () internal { }\n    // solhint-disable-previous-line no-empty-blocks\n\n    function _msgSender() internal view returns (address payable) {\n        return msg.sender;\n    }\n\n    function _msgData() internal view returns (bytes memory) {\n        this; // silence state mutability warning without generating bytecode - see https://github.com/ethereum/solidity/issues/2691\n        return msg.data;\n    }\n}\n\ncontract Ownable is Context {\n    address private _owner;\n\n    event OwnershipTransferred(address indexed previousOwner, address indexed newOwner);\n    constructor () internal {\n        _owner = _msgSender();\n        emit OwnershipTransferred(address(0), _owner);\n    }\n    function owner() public view returns (address) {\n        return _owner;\n    }\n    modifier onlyOwner() {\n        require(isOwner(), \"Ownable: caller is not the owner\");\n        _;\n    }\n    function isOwner() public view returns (bool) {\n        return _msgSender() == _owner;\n    }\n    function renounceOwnership() public onlyOwner {\n        emit OwnershipTransferred(_owner, address(0));\n        _owner = address(0);\n    }\n    function transferOwnership(address newOwner) public onlyOwner {\n        _transferOwnership(newOwner);\n    }\n    function _transferOwnership(address newOwner) internal {\n        require(newOwner != address(0), \"Ownable: new owner is the zero address\");\n        emit OwnershipTransferred(_owner, newOwner);\n        _owner = newOwner;\n    }\n}\n\ncontract ReentrancyGuard {\n    uint256 private _guardCounter;\n\n    constructor () internal {\n        _guardCounter = 1;\n    }\n\n    modifier nonReentrant() {\n        _guardCounter += 1;\n        uint256 localCounter = _guardCounter;\n        _;\n        require(localCounter == _guardCounter, \"ReentrancyGuard: reentrant call\");\n    }\n}\n\nlibrary SafeMath {\n    function add(uint256 a, uint256 b) internal pure returns (uint256) {\n        uint256 c = a + b;\n        require(c >= a, \"SafeMath: addition overflow\");\n\n        return c;\n    }\n    function sub(uint256 a, uint256 b) internal pure returns (uint256) {\n        return sub(a, b, \"SafeMath: subtraction overflow\");\n    }\n    function sub(uint256 a, uint256 b, string memory errorMessage) internal pure returns (uint256) {\n        require(b <= a, errorMessage);\n        uint256 c = a - b;\n\n        return c;\n    }\n    function mul(uint256 a, uint256 b) internal pure returns (uint256) {\n        if (a == 0) {\n            return 0;\n        }\n\n        uint256 c = a * b;\n        require(c / a == b, \"SafeMath: multiplication overflow\");\n\n        return c;\n    }\n    function div(uint256 a, uint256 b) internal pure returns (uint256) {\n        return div(a, b, \"SafeMath: division by zero\");\n    }\n    function div(uint256 a, uint256 b, string memory errorMessage) internal pure returns (uint256) {\n        // Solidity only automatically asserts when dividing by 0\n        require(b > 0, errorMessage);\n        uint256 c = a / b;\n\n        return c;\n    }\n    function mod(uint256 a, uint256 b) internal pure returns (uint256) {\n        return mod(a, b, \"SafeMath: modulo by zero\");\n    }\n    function mod(uint256 a, uint256 b, string memory errorMessage) internal pure returns (uint256) {\n        require(b != 0, errorMessage);\n        return a % b;\n    }\n}\n\nlibrary Address {\n    function isContract(address account) internal view returns (bool) {\n        bytes32 codehash;\n        bytes32 accountHash = 0xc5d2460186f7233c927e7db2dcc703c0e500b653ca82273b7bfad8045d85a470;\n        // solhint-disable-next-line no-inline-assembly\n        assembly { codehash := extcodehash(account) }\n        return (codehash != 0x0 && codehash != accountHash);\n    }\n    function toPayable(address account) internal pure returns (address payable) {\n        return address(uint160(account));\n    }\n    function sendValue(address payable recipient, uint256 amount) internal {\n        require(address(this).balance >= amount, \"Address: insufficient balance\");\n\n        // solhint-disable-next-line avoid-call-value\n        (bool success, ) = recipient.call.value(amount)(\"\");\n        require(success, \"Address: unable to send value, recipient may have reverted\");\n    }\n}\n\nlibrary SafeERC20 {\n    using SafeMath for uint256;\n    using Address for address;\n\n    function safeTransfer(IERC20 token, address to, uint256 value) internal {\n        callOptionalReturn(token, abi.encodeWithSelector(token.transfer.selector, to, value));\n    }\n\n    function safeTransferFrom(IERC20 token, address from, address to, uint256 value) internal {\n        callOptionalReturn(token, abi.encodeWithSelector(token.transferFrom.selector, from, to, value));\n    }\n\n    function safeApprove(IERC20 token, address spender, uint256 value) internal {\n        require((value == 0) || (token.allowance(address(this), spender) == 0),\n            \"SafeERC20: approve from non-zero to non-zero allowance\"\n        );\n        callOptionalReturn(token, abi.encodeWithSelector(token.approve.selector, spender, value));\n    }\n\n    function safeIncreaseAllowance(IERC20 token, address spender, uint256 value) internal {\n        uint256 newAllowance = token.allowance(address(this), spender).add(value);\n        callOptionalReturn(token, abi.encodeWithSelector(token.approve.selector, spender, newAllowance));\n    }\n\n    function safeDecreaseAllowance(IERC20 token, address spender, uint256 value) internal {\n        uint256 newAllowance = token.allowance(address(this), spender).sub(value, \"SafeERC20: decreased allowance below zero\");\n        callOptionalReturn(token, abi.encodeWithSelector(token.approve.selector, spender, newAllowance));\n    }\n    function callOptionalReturn(IERC20 token, bytes memory data) private {\n        require(address(token).isContract(), \"SafeERC20: call to non-contract\");\n\n        // solhint-disable-next-line avoid-low-level-calls\n        (bool success, bytes memory returndata) = address(token).call(data);\n        require(success, \"SafeERC20: low-level call failed\");\n\n        if (returndata.length > 0) { // Return data is optional\n            // solhint-disable-next-line max-line-length\n            require(abi.decode(returndata, (bool)), \"SafeERC20: ERC20 operation did not succeed\");\n        }\n    }\n}\n\ninterface ICurveFi {\n  function exchange_underlying(\n    int128 from, int128 to, uint256 _from_amount, uint256 _min_to_amount\n  ) external;\n}\n\ninterface yERC20 {\n  function deposit(uint256 _amount) external;\n  function withdraw(uint256 _amount) external;\n  function getPricePerFullShare() external view returns (uint256);\n}\n\ninterface iBorrower {\n  function borrowAave(address _reserve, uint256 _amount) external;\n  function getBorrowDebt(address _reserve) external view returns (uint256);\n  function getBorrowInterest(address _reserve) external view returns (uint256);\n  function repayAave(address _reserve, uint256 _amount) external;\n  function getYToken(address _reserve) external view returns (address);\n  function getCurveID(address _reserve) external view returns (uint8);\n  function isLeverage(uint256 leverage) external view returns (bool);\n  function isReserve(address _reserve) external view returns (bool);\n}\n\ninterface iLedger {\n  function mintDebt(address _reserve, address account, uint256 amount) external;\n  function burnDebt(address _reserve, address account, uint256 amount) external;\n  function mintPrincipal(address _reserve, address account, uint256 amount) external;\n  function burnPrincipal(address _reserve, address account, uint256 amount) external;\n  function mintPosition(address _reserve, address account, uint256 amount) external;\n  function burnPosition(address _reserve, address account, uint256 amount) external;\n  function getUserInterest(address _reserve, address _user) external view returns (uint256);\n  function getUserDebt(address _reserve, address _user) external view returns (uint256);\n  function getDebt(address _reserve, address _user) external view returns (uint256);\n  function getPosition(address _reserve, address _user) external view returns (uint256);\n  function getPrincipal(address _reserve, address _user) external view returns (uint256);\n  function getTotalDebt(address _reserve) external view returns (uint256);\n  function getTotalPosition(address _user) external view returns (uint256);\n  function getTotalPrincipal(address _user) external view returns (uint256);\n  function isSafe(address _user) external view returns (bool);\n}\n\ncontract iManage is ReentrancyGuard, Ownable {\n  using SafeERC20 for IERC20;\n  using Address for address;\n  using SafeMath for uint256;\n\n  address public constant yCurveSwap = address(0x45F783CCE6B7FF23B2ab2D70e416cdb7D6055f51);\n\n  address public constant yDAI = address(0x16de59092dAE5CcF4A1E6439D611fd0653f0Bd01);\n  address public constant yUSDC = address(0xd6aD7a6750A7593E092a9B218d66C0A814a3436e);\n  address public constant yUSDT = address(0x83f798e925BcD4017Eb265844FDDAbb448f1707D);\n  address public constant yTUSD = address(0x73a052500105205d34Daf004eAb301916DA8190f);\n\n  address public constant DAI = address(0x6B175474E89094C44Da98b954EedeAC495271d0F);\n  address public constant USDC = address(0xA0b86991c6218b36c1d19D4a2e9Eb0cE3606eB48);\n  address public constant USDT = address(0xdAC17F958D2ee523a2206206994597C13D831ec7);\n  address public constant TUSD = address(0x0000000000085d4780B73119b644AE5ecd22b376);\n\n  iBorrower public constant collateral = iBorrower(0xaCD746993f60e807fBf69F646e42DaedA63a4CfC);\n  iLedger public constant ledger = iLedger(0xaCD746993f60e807fBf69F646e42DaedA63a4CfC);\n\n  uint256 public constant ltv = uint256(50);\n  uint256 public constant base = uint256(100);\n\n  constructor() public {\n\n  }\n\n  function tradePosition(address _reserve, address _to, uint256 _amount, uint256 _min_to_amount) external nonReentrant {\n      require(collateral.isReserve(_reserve) == true, \"itrade: invalid reserve\");\n      require(_amount <= ledger.getPosition(_reserve, msg.sender), \"itrade: insufficient balance\");\n      require(IERC20(_reserve).balanceOf(address(this)) == 0, \"itrade: unexpected result\");\n\n      uint256 _price = yERC20(collateral.getYToken(_reserve)).getPricePerFullShare();\n      uint256 _ytoken = _amount.mul(1e18).div(_price).add(1);\n      yERC20(collateral.getYToken(_reserve)).withdraw(_ytoken);\n\n      require(IERC20(_reserve).balanceOf(address(this)) >= _amount, \"itrade: unexpected result\");\n      require(IERC20(_to).balanceOf(address(this)) == 0, \"itrade: unexpected result\");\n\n      uint8 _fromID = collateral.getCurveID(_reserve);\n      uint8 _toID = collateral.getCurveID(_to);\n\n      ICurveFi(yCurveSwap).exchange_underlying(_fromID, _toID, _amount, _min_to_amount);\n      ledger.burnPosition(_reserve, msg.sender, _amount);\n      uint256 _bought = IERC20(_to).balanceOf(address(this));\n      ledger.mintPosition(_to, msg.sender, _bought);\n      yERC20(collateral.getYToken(_to)).deposit(_bought);\n\n      // Cleanup dust (if any)\n      if (IERC20(_reserve).balanceOf(address(this)) > 0) {\n        yERC20(collateral.getYToken(_reserve)).deposit(IERC20(_reserve).balanceOf(address(this)));\n      }\n\n      require(ledger.isSafe(msg.sender) == true, \"itrade: account would liquidate\");\n  }\n\n  function closePosition(address _reserve, uint256 _amount) public nonReentrant {\n      require(collateral.isReserve(_reserve) == true, \"itrade: invalid reserve\");\n      require(_amount <= ledger.getPosition(_reserve,msg.sender), \"itrade: insufficient balance\");\n      require(IERC20(_reserve).balanceOf(address(this)) == 0, \"itrade: unexpected result\");\n\n      uint256 debt = ledger.getUserDebt(_reserve, msg.sender);\n      uint256 ret = 0;\n\n      if (_amount > debt) {\n        ret = _amount.sub(debt);\n        _amount = debt;\n      }\n\n      uint256 _price = yERC20(collateral.getYToken(_reserve)).getPricePerFullShare();\n      uint256 _ytoken = _amount.mul(1e18).div(_price).add(1);\n      yERC20(collateral.getYToken(_reserve)).withdraw(_ytoken);\n\n      if (debt > 0) {\n        uint256 shares = ledger.getDebt(_reserve,msg.sender).mul(_amount).div(debt);\n        collateral.repayAave(_reserve, _amount);\n        ledger.burnDebt(_reserve, msg.sender, shares);\n      }\n\n      // Profits from trade\n      if (ret > 0) {\n        IERC20(_reserve).safeTransfer(msg.sender, ret);\n      }\n\n      ledger.burnPosition(_reserve, msg.sender, _amount);\n\n      // Cleanup dust (if any)\n      if (IERC20(_reserve).balanceOf(address(this)) > 0) {\n        yERC20(collateral.getYToken(_reserve)).deposit(IERC20(_reserve).balanceOf(address(this)));\n      }\n\n      require(ledger.isSafe(msg.sender) == true, \"itrade: account would liquidate\");\n  }\n\n  // incase of half-way error\n  function inCaseTokenGetsStuck(IERC20 _TokenAddress) onlyOwner public {\n      uint qty = _TokenAddress.balanceOf(address(this));\n      _TokenAddress.safeTransfer(msg.sender, qty);\n  }\n  // incase of half-way error\n  function inCaseETHGetsStuck() onlyOwner public{\n      (bool result, ) = msg.sender.call.value(address(this).balance)(\"\");\n      require(result, \"transfer of ETH failed\");\n  }\n}\n",
  "sourcePath": "D:/ftm/itrade/contracts/iManage.sol",
  "compiler": {
    "name": "solc",
    "version": "0.5.12+commit.7709ece9.Emscripten.clang"
  },
  "schemaVersion": "3.0.19",
  "updatedAt": "2020-03-07T13:51:45.208Z",
  "devdoc": {
    "methods": {}
  },
  "userdoc": {
    "methods": {}
  }
}