{
  "contractName": "iTrade",
  "abi": [
    {
      "inputs": [],
      "payable": false,
      "stateMutability": "nonpayable",
      "type": "constructor"
    },
    {
      "anonymous": false,
      "inputs": [
        {
          "indexed": true,
          "internalType": "address",
          "name": "previousOwner",
          "type": "address"
        },
        {
          "indexed": true,
          "internalType": "address",
          "name": "newOwner",
          "type": "address"
        }
      ],
      "name": "OwnershipTransferred",
      "type": "event"
    },
    {
      "constant": true,
      "inputs": [],
      "name": "DAI",
      "outputs": [
        {
          "internalType": "address",
          "name": "",
          "type": "address"
        }
      ],
      "payable": false,
      "stateMutability": "view",
      "type": "function"
    },
    {
      "constant": true,
      "inputs": [],
      "name": "TUSD",
      "outputs": [
        {
          "internalType": "address",
          "name": "",
          "type": "address"
        }
      ],
      "payable": false,
      "stateMutability": "view",
      "type": "function"
    },
    {
      "constant": true,
      "inputs": [],
      "name": "USDC",
      "outputs": [
        {
          "internalType": "address",
          "name": "",
          "type": "address"
        }
      ],
      "payable": false,
      "stateMutability": "view",
      "type": "function"
    },
    {
      "constant": true,
      "inputs": [],
      "name": "USDT",
      "outputs": [
        {
          "internalType": "address",
          "name": "",
          "type": "address"
        }
      ],
      "payable": false,
      "stateMutability": "view",
      "type": "function"
    },
    {
      "constant": true,
      "inputs": [],
      "name": "base",
      "outputs": [
        {
          "internalType": "uint256",
          "name": "",
          "type": "uint256"
        }
      ],
      "payable": false,
      "stateMutability": "view",
      "type": "function"
    },
    {
      "constant": true,
      "inputs": [],
      "name": "collateral",
      "outputs": [
        {
          "internalType": "contract iBorrower",
          "name": "",
          "type": "address"
        }
      ],
      "payable": false,
      "stateMutability": "view",
      "type": "function"
    },
    {
      "constant": true,
      "inputs": [],
      "name": "isOwner",
      "outputs": [
        {
          "internalType": "bool",
          "name": "",
          "type": "bool"
        }
      ],
      "payable": false,
      "stateMutability": "view",
      "type": "function"
    },
    {
      "constant": true,
      "inputs": [],
      "name": "ledger",
      "outputs": [
        {
          "internalType": "contract iLedger",
          "name": "",
          "type": "address"
        }
      ],
      "payable": false,
      "stateMutability": "view",
      "type": "function"
    },
    {
      "constant": true,
      "inputs": [],
      "name": "ltv",
      "outputs": [
        {
          "internalType": "uint256",
          "name": "",
          "type": "uint256"
        }
      ],
      "payable": false,
      "stateMutability": "view",
      "type": "function"
    },
    {
      "constant": true,
      "inputs": [],
      "name": "owner",
      "outputs": [
        {
          "internalType": "address",
          "name": "",
          "type": "address"
        }
      ],
      "payable": false,
      "stateMutability": "view",
      "type": "function"
    },
    {
      "constant": false,
      "inputs": [],
      "name": "renounceOwnership",
      "outputs": [],
      "payable": false,
      "stateMutability": "nonpayable",
      "type": "function"
    },
    {
      "constant": false,
      "inputs": [
        {
          "internalType": "address",
          "name": "newOwner",
          "type": "address"
        }
      ],
      "name": "transferOwnership",
      "outputs": [],
      "payable": false,
      "stateMutability": "nonpayable",
      "type": "function"
    },
    {
      "constant": true,
      "inputs": [],
      "name": "yCurveSwap",
      "outputs": [
        {
          "internalType": "address",
          "name": "",
          "type": "address"
        }
      ],
      "payable": false,
      "stateMutability": "view",
      "type": "function"
    },
    {
      "constant": true,
      "inputs": [],
      "name": "yDAI",
      "outputs": [
        {
          "internalType": "address",
          "name": "",
          "type": "address"
        }
      ],
      "payable": false,
      "stateMutability": "view",
      "type": "function"
    },
    {
      "constant": true,
      "inputs": [],
      "name": "yTUSD",
      "outputs": [
        {
          "internalType": "address",
          "name": "",
          "type": "address"
        }
      ],
      "payable": false,
      "stateMutability": "view",
      "type": "function"
    },
    {
      "constant": true,
      "inputs": [],
      "name": "yUSDC",
      "outputs": [
        {
          "internalType": "address",
          "name": "",
          "type": "address"
        }
      ],
      "payable": false,
      "stateMutability": "view",
      "type": "function"
    },
    {
      "constant": true,
      "inputs": [],
      "name": "yUSDT",
      "outputs": [
        {
          "internalType": "address",
          "name": "",
          "type": "address"
        }
      ],
      "payable": false,
      "stateMutability": "view",
      "type": "function"
    },
    {
      "constant": false,
      "inputs": [],
      "name": "approveToken",
      "outputs": [],
      "payable": false,
      "stateMutability": "nonpayable",
      "type": "function"
    },
    {
      "constant": false,
      "inputs": [
        {
          "internalType": "address",
          "name": "_reserve",
          "type": "address"
        },
        {
          "internalType": "address",
          "name": "_to",
          "type": "address"
        },
        {
          "internalType": "uint256",
          "name": "_amount",
          "type": "uint256"
        },
        {
          "internalType": "uint256",
          "name": "_min_to_amount",
          "type": "uint256"
        },
        {
          "internalType": "uint256",
          "name": "leverage",
          "type": "uint256"
        }
      ],
      "name": "addCollateral",
      "outputs": [],
      "payable": false,
      "stateMutability": "nonpayable",
      "type": "function"
    },
    {
      "constant": false,
      "inputs": [
        {
          "internalType": "address",
          "name": "_reserve",
          "type": "address"
        },
        {
          "internalType": "address",
          "name": "_to",
          "type": "address"
        },
        {
          "internalType": "uint256",
          "name": "_amount",
          "type": "uint256"
        },
        {
          "internalType": "uint256",
          "name": "_min_to_amount",
          "type": "uint256"
        },
        {
          "internalType": "uint256",
          "name": "leverage",
          "type": "uint256"
        },
        {
          "internalType": "uint256",
          "name": "fee",
          "type": "uint256"
        }
      ],
      "name": "addCollateralWithFee",
      "outputs": [],
      "payable": false,
      "stateMutability": "nonpayable",
      "type": "function"
    },
    {
      "constant": false,
      "inputs": [
        {
          "internalType": "address",
          "name": "_reserve",
          "type": "address"
        },
        {
          "internalType": "uint256",
          "name": "_amount",
          "type": "uint256"
        }
      ],
      "name": "withdrawCollateral",
      "outputs": [],
      "payable": false,
      "stateMutability": "nonpayable",
      "type": "function"
    },
    {
      "constant": false,
      "inputs": [
        {
          "internalType": "address",
          "name": "_reserve",
          "type": "address"
        },
        {
          "internalType": "address",
          "name": "_user",
          "type": "address"
        },
        {
          "internalType": "uint256",
          "name": "_amount",
          "type": "uint256"
        }
      ],
      "name": "repayDebtFor",
      "outputs": [],
      "payable": false,
      "stateMutability": "nonpayable",
      "type": "function"
    },
    {
      "constant": false,
      "inputs": [
        {
          "internalType": "address",
          "name": "_reserve",
          "type": "address"
        },
        {
          "internalType": "uint256",
          "name": "_amount",
          "type": "uint256"
        }
      ],
      "name": "repayDebt",
      "outputs": [],
      "payable": false,
      "stateMutability": "nonpayable",
      "type": "function"
    },
    {
      "constant": false,
      "inputs": [
        {
          "internalType": "address",
          "name": "_reserve",
          "type": "address"
        }
      ],
      "name": "exit",
      "outputs": [],
      "payable": false,
      "stateMutability": "nonpayable",
      "type": "function"
    },
    {
      "constant": false,
      "inputs": [
        {
          "internalType": "address",
          "name": "_reserve",
          "type": "address"
        }
      ],
      "name": "settle",
      "outputs": [],
      "payable": false,
      "stateMutability": "nonpayable",
      "type": "function"
    },
    {
      "constant": false,
      "inputs": [
        {
          "internalType": "address",
          "name": "_reserve",
          "type": "address"
        },
        {
          "internalType": "address",
          "name": "_to",
          "type": "address"
        },
        {
          "internalType": "uint256",
          "name": "_amount",
          "type": "uint256"
        },
        {
          "internalType": "uint256",
          "name": "_min_to_amount",
          "type": "uint256"
        }
      ],
      "name": "tradePosition",
      "outputs": [],
      "payable": false,
      "stateMutability": "nonpayable",
      "type": "function"
    },
    {
      "constant": false,
      "inputs": [
        {
          "internalType": "address",
          "name": "_reserve",
          "type": "address"
        },
        {
          "internalType": "uint256",
          "name": "_amount",
          "type": "uint256"
        }
      ],
      "name": "closePosition",
      "outputs": [],
      "payable": false,
      "stateMutability": "nonpayable",
      "type": "function"
    },
    {
      "constant": false,
      "inputs": [
        {
          "internalType": "address",
          "name": "_user",
          "type": "address"
        }
      ],
      "name": "seize",
      "outputs": [],
      "payable": false,
      "stateMutability": "nonpayable",
      "type": "function"
    },
    {
      "constant": false,
      "inputs": [
        {
          "internalType": "contract IERC20",
          "name": "_TokenAddress",
          "type": "address"
        }
      ],
      "name": "inCaseTokenGetsStuck",
      "outputs": [],
      "payable": false,
      "stateMutability": "nonpayable",
      "type": "function"
    },
    {
      "constant": false,
      "inputs": [],
      "name": "inCaseETHGetsStuck",
      "outputs": [],
      "payable": false,
      "stateMutability": "nonpayable",
      "type": "function"
    }
  ],
  "bytecode": "0x60806040523480156200001157600080fd5b5060016000819055506200002a620000fd60201b60201c565b600160006101000a81548173ffffffffffffffffffffffffffffffffffffffff021916908373ffffffffffffffffffffffffffffffffffffffff160217905550600160009054906101000a900473ffffffffffffffffffffffffffffffffffffffff1673ffffffffffffffffffffffffffffffffffffffff16600073ffffffffffffffffffffffffffffffffffffffff167f8be0079c531659141344cd1fd0a4f28419497f9722a3daafe3b4186f6b6457e060405160405180910390a3620000f76200010560201b60201c565b62000c9d565b600033905090565b6200017f73acd746993f60e807fbf69f646e42daeda63a4cfc7fffffffffffffffffffffffffffffffffffffffffffffffffffffffffffffffff736b175474e89094c44da98b954eedeac495271d0f73ffffffffffffffffffffffffffffffffffffffff16620007c160201b62007505179092919060201c565b620001f973acd746993f60e807fbf69f646e42daeda63a4cfc7fffffffffffffffffffffffffffffffffffffffffffffffffffffffffffffffff73a0b86991c6218b36c1d19d4a2e9eb0ce3606eb4873ffffffffffffffffffffffffffffffffffffffff16620007c160201b62007505179092919060201c565b6200026e73acd746993f60e807fbf69f646e42daeda63a4cfc7fffffffffffffffffffffffffffffffffffffffffffffffffffffffffffffffff6e085d4780b73119b644ae5ecd22b37673ffffffffffffffffffffffffffffffffffffffff16620007c160201b62007505179092919060201c565b620002c973acd746993f60e807fbf69f646e42daeda63a4cfc600073dac17f958d2ee523a2206206994597c13d831ec773ffffffffffffffffffffffffffffffffffffffff16620007c160201b62007505179092919060201c565b6200034373acd746993f60e807fbf69f646e42daeda63a4cfc7fffffffffffffffffffffffffffffffffffffffffffffffffffffffffffffffff73dac17f958d2ee523a2206206994597c13d831ec773ffffffffffffffffffffffffffffffffffffffff16620007c160201b62007505179092919060201c565b620003bd7316de59092dae5ccf4a1e6439d611fd0653f0bd017fffffffffffffffffffffffffffffffffffffffffffffffffffffffffffffffff736b175474e89094c44da98b954eedeac495271d0f73ffffffffffffffffffffffffffffffffffffffff16620007c160201b62007505179092919060201c565b6200043773d6ad7a6750a7593e092a9b218d66c0a814a3436e7fffffffffffffffffffffffffffffffffffffffffffffffffffffffffffffffff73a0b86991c6218b36c1d19d4a2e9eb0ce3606eb4873ffffffffffffffffffffffffffffffffffffffff16620007c160201b62007505179092919060201c565b620004ac7373a052500105205d34daf004eab301916da8190f7fffffffffffffffffffffffffffffffffffffffffffffffffffffffffffffffff6e085d4780b73119b644ae5ecd22b37673ffffffffffffffffffffffffffffffffffffffff16620007c160201b62007505179092919060201c565b620005077383f798e925bcd4017eb265844fddabb448f1707d600073dac17f958d2ee523a2206206994597c13d831ec773ffffffffffffffffffffffffffffffffffffffff16620007c160201b62007505179092919060201c565b620005817383f798e925bcd4017eb265844fddabb448f1707d7fffffffffffffffffffffffffffffffffffffffffffffffffffffffffffffffff73dac17f958d2ee523a2206206994597c13d831ec773ffffffffffffffffffffffffffffffffffffffff16620007c160201b62007505179092919060201c565b620005fb7345f783cce6b7ff23b2ab2d70e416cdb7d6055f517fffffffffffffffffffffffffffffffffffffffffffffffffffffffffffffffff736b175474e89094c44da98b954eedeac495271d0f73ffffffffffffffffffffffffffffffffffffffff16620007c160201b62007505179092919060201c565b620006757345f783cce6b7ff23b2ab2d70e416cdb7d6055f517fffffffffffffffffffffffffffffffffffffffffffffffffffffffffffffffff73a0b86991c6218b36c1d19d4a2e9eb0ce3606eb4873ffffffffffffffffffffffffffffffffffffffff16620007c160201b62007505179092919060201c565b620006ea7345f783cce6b7ff23b2ab2d70e416cdb7d6055f517fffffffffffffffffffffffffffffffffffffffffffffffffffffffffffffffff6e085d4780b73119b644ae5ecd22b37673ffffffffffffffffffffffffffffffffffffffff16620007c160201b62007505179092919060201c565b620007457345f783cce6b7ff23b2ab2d70e416cdb7d6055f51600073dac17f958d2ee523a2206206994597c13d831ec773ffffffffffffffffffffffffffffffffffffffff16620007c160201b62007505179092919060201c565b620007bf7345f783cce6b7ff23b2ab2d70e416cdb7d6055f517fffffffffffffffffffffffffffffffffffffffffffffffffffffffffffffffff73dac17f958d2ee523a2206206994597c13d831ec773ffffffffffffffffffffffffffffffffffffffff16620007c160201b62007505179092919060201c565b565b6000811480620008bf575060008373ffffffffffffffffffffffffffffffffffffffff1663dd62ed3e30856040518363ffffffff1660e01b8152600401808373ffffffffffffffffffffffffffffffffffffffff1673ffffffffffffffffffffffffffffffffffffffff1681526020018273ffffffffffffffffffffffffffffffffffffffff1673ffffffffffffffffffffffffffffffffffffffff1681526020019250505060206040518083038186803b1580156200088057600080fd5b505afa15801562000895573d6000803e3d6000fd5b505050506040513d6020811015620008ac57600080fd5b8101908080519060200190929190505050145b62000916576040517f08c379a0000000000000000000000000000000000000000000000000000000008152600401808060200182810382526036815260200180620093056036913960400191505060405180910390fd5b620009ea838473ffffffffffffffffffffffffffffffffffffffff1663095ea7b3905060e01b8484604051602401808373ffffffffffffffffffffffffffffffffffffffff1673ffffffffffffffffffffffffffffffffffffffff16815260200182815260200192505050604051602081830303815290604052907bffffffffffffffffffffffffffffffffffffffffffffffffffffffff19166020820180517bffffffffffffffffffffffffffffffffffffffffffffffffffffffff8381831617835250505050620009ef60201b60201c565b505050565b62000a1b8273ffffffffffffffffffffffffffffffffffffffff1662000c5160201b620084c31760201c565b62000a8e576040517f08c379a000000000000000000000000000000000000000000000000000000000815260040180806020018281038252601f8152602001807f5361666545524332303a2063616c6c20746f206e6f6e2d636f6e74726163740081525060200191505060405180910390fd5b600060608373ffffffffffffffffffffffffffffffffffffffff16836040518082805190602001908083835b6020831062000adf578051825260208201915060208101905060208303925062000aba565b6001836020036101000a0380198251168184511680821785525050505050509050019150506000604051808303816000865af19150503d806000811462000b43576040519150601f19603f3d011682016040523d82523d6000602084013e62000b48565b606091505b50915091508162000bc1576040517f08c379a00000000000000000000000000000000000000000000000000000000081526004018080602001828103825260208152602001807f5361666545524332303a206c6f772d6c6576656c2063616c6c206661696c656481525060200191505060405180910390fd5b60008151111562000c4b5780806020019051602081101562000be257600080fd5b810190808051906020019092919050505062000c4a576040517f08c379a000000000000000000000000000000000000000000000000000000000815260040180806020018281038252602a815260200180620092db602a913960400191505060405180910390fd5b5b50505050565b60008060007fc5d2460186f7233c927e7db2dcc703c0e500b653ca82273b7bfad8045d85a47060001b9050833f91506000801b821415801562000c945750808214155b92505050919050565b61862e8062000cad6000396000f3fe608060405234801561001057600080fd5b50600436106101da5760003560e01c806379e20bdc11610104578063b42652e9116100a2578063e31ff1be11610071578063e31ff1be14610929578063f2fde38b14610973578063f60a15ed146109b7578063fb3ee571146109c1576101da565b8063b42652e914610807578063c54e44eb1461084b578063d8dfeb4514610895578063e0bab4c4146108df576101da565b80638da5cb5b116100de5780638da5cb5b146107475780638f32d59b1461079157806399b71d5c146107b3578063b18cf95e146107bd576101da565b806379e20bdc146106655780638323550b146106b357806389a30271146106fd576101da565b806356397c351161017c5780636fb49d731161014b5780636fb49d73146105a5578063715018a6146105c3578063742fe1f8146105cd578063756bb1cc1461061b576101da565b806356397c35146104275780636a256b29146104715780636da9a06b146104b55780636e52dde314610537576101da565b8063350c35e9116101b8578063350c35e9146102b75780633612c54914610305578063378f74a2146103915780635001f3b514610409576101da565b806317e5a9a4146101df57806319d9e008146102295780632e8d6e1814610273575b600080fd5b6101e7610a05565b604051808273ffffffffffffffffffffffffffffffffffffffff1673ffffffffffffffffffffffffffffffffffffffff16815260200191505060405180910390f35b610231610a1d565b604051808273ffffffffffffffffffffffffffffffffffffffff1673ffffffffffffffffffffffffffffffffffffffff16815260200191505060405180910390f35b6102b56004803603602081101561028957600080fd5b81019080803573ffffffffffffffffffffffffffffffffffffffff169060200190929190505050610a35565b005b610303600480360360408110156102cd57600080fd5b81019080803573ffffffffffffffffffffffffffffffffffffffff16906020019092919080359060200190929190505050610b9a565b005b61038f600480360360c081101561031b57600080fd5b81019080803573ffffffffffffffffffffffffffffffffffffffff169060200190929190803573ffffffffffffffffffffffffffffffffffffffff16906020019092919080359060200190929190803590602001909291908035906020019092919080359060200190929190505050611a56565b005b610407600480360360808110156103a757600080fd5b81019080803573ffffffffffffffffffffffffffffffffffffffff169060200190929190803573ffffffffffffffffffffffffffffffffffffffff1690602001909291908035906020019092919080359060200190929190505050612ab9565b005b610411613e53565b6040518082815260200191505060405180910390f35b61042f613e58565b604051808273ffffffffffffffffffffffffffffffffffffffff1673ffffffffffffffffffffffffffffffffffffffff16815260200191505060405180910390f35b6104b36004803603602081101561048757600080fd5b81019080803573ffffffffffffffffffffffffffffffffffffffff169060200190929190505050613e70565b005b610535600480360360a08110156104cb57600080fd5b81019080803573ffffffffffffffffffffffffffffffffffffffff169060200190929190803573ffffffffffffffffffffffffffffffffffffffff169060200190929190803590602001909291908035906020019092919080359060200190929190505050614560565b005b6105a36004803603606081101561054d57600080fd5b81019080803573ffffffffffffffffffffffffffffffffffffffff169060200190929190803573ffffffffffffffffffffffffffffffffffffffff16906020019092919080359060200190929190505050614604565b005b6105ad614d22565b6040518082815260200191505060405180910390f35b6105cb614d27565b005b610619600480360360408110156105e357600080fd5b81019080803573ffffffffffffffffffffffffffffffffffffffff16906020019092919080359060200190929190505050614e62565b005b610623615eaf565b604051808273ffffffffffffffffffffffffffffffffffffffff1673ffffffffffffffffffffffffffffffffffffffff16815260200191505060405180910390f35b6106b16004803603604081101561067b57600080fd5b81019080803573ffffffffffffffffffffffffffffffffffffffff16906020019092919080359060200190929190505050615ec7565b005b6106bb615f64565b604051808273ffffffffffffffffffffffffffffffffffffffff1673ffffffffffffffffffffffffffffffffffffffff16815260200191505060405180910390f35b610705615f77565b604051808273ffffffffffffffffffffffffffffffffffffffff1673ffffffffffffffffffffffffffffffffffffffff16815260200191505060405180910390f35b61074f615f8f565b604051808273ffffffffffffffffffffffffffffffffffffffff1673ffffffffffffffffffffffffffffffffffffffff16815260200191505060405180910390f35b610799615fb9565b604051808215151515815260200191505060405180910390f35b6107bb616018565b005b6107c561666b565b604051808273ffffffffffffffffffffffffffffffffffffffff1673ffffffffffffffffffffffffffffffffffffffff16815260200191505060405180910390f35b6108496004803603602081101561081d57600080fd5b81019080803573ffffffffffffffffffffffffffffffffffffffff169060200190929190505050616683565b005b610853616a74565b604051808273ffffffffffffffffffffffffffffffffffffffff1673ffffffffffffffffffffffffffffffffffffffff16815260200191505060405180910390f35b61089d616a8c565b604051808273ffffffffffffffffffffffffffffffffffffffff1673ffffffffffffffffffffffffffffffffffffffff16815260200191505060405180910390f35b6108e7616aa4565b604051808273ffffffffffffffffffffffffffffffffffffffff1673ffffffffffffffffffffffffffffffffffffffff16815260200191505060405180910390f35b610931616abc565b604051808273ffffffffffffffffffffffffffffffffffffffff1673ffffffffffffffffffffffffffffffffffffffff16815260200191505060405180910390f35b6109b56004803603602081101561098957600080fd5b81019080803573ffffffffffffffffffffffffffffffffffffffff169060200190929190505050616ad4565b005b6109bf616b5a565b005b610a03600480360360208110156109d757600080fd5b81019080803573ffffffffffffffffffffffffffffffffffffffff169060200190929190505050616cca565b005b7383f798e925bcd4017eb265844fddabb448f1707d81565b73d6ad7a6750a7593e092a9b218d66c0a814a3436e81565b610a3d615fb9565b610aaf576040517f08c379a00000000000000000000000000000000000000000000000000000000081526004018080602001828103825260208152602001807f4f776e61626c653a2063616c6c6572206973206e6f7420746865206f776e657281525060200191505060405180910390fd5b60008173ffffffffffffffffffffffffffffffffffffffff166370a08231306040518263ffffffff1660e01b8152600401808273ffffffffffffffffffffffffffffffffffffffff1673ffffffffffffffffffffffffffffffffffffffff16815260200191505060206040518083038186803b158015610b2e57600080fd5b505afa158015610b42573d6000803e3d6000fd5b505050506040513d6020811015610b5857600080fd5b81019080805190602001909291905050509050610b9633828473ffffffffffffffffffffffffffffffffffffffff166171849092919063ffffffff16565b5050565b600160008082825401925050819055506000805490506001151573acd746993f60e807fbf69f646e42daeda63a4cfc73ffffffffffffffffffffffffffffffffffffffff16637a2b0587856040518263ffffffff1660e01b8152600401808273ffffffffffffffffffffffffffffffffffffffff1673ffffffffffffffffffffffffffffffffffffffff16815260200191505060206040518083038186803b158015610c4557600080fd5b505afa158015610c59573d6000803e3d6000fd5b505050506040513d6020811015610c6f57600080fd5b8101908080519060200190929190505050151514610cf5576040517f08c379a00000000000000000000000000000000000000000000000000000000081526004018080602001828103825260178152602001807f6974726164653a20696e76616c6964207265736572766500000000000000000081525060200191505060405180910390fd5b600073acd746993f60e807fbf69f646e42daeda63a4cfc73ffffffffffffffffffffffffffffffffffffffff1663a2a00ed685336040518363ffffffff1660e01b8152600401808373ffffffffffffffffffffffffffffffffffffffff1673ffffffffffffffffffffffffffffffffffffffff1681526020018273ffffffffffffffffffffffffffffffffffffffff1673ffffffffffffffffffffffffffffffffffffffff1681526020019250505060206040518083038186803b158015610dbc57600080fd5b505afa158015610dd0573d6000803e3d6000fd5b505050506040513d6020811015610de657600080fd5b810190808051906020019092919050505014610e4d576040517f08c379a00000000000000000000000000000000000000000000000000000000081526004018080602001828103825260228152602001806185576022913960400191505060405180910390fd5b73acd746993f60e807fbf69f646e42daeda63a4cfc73ffffffffffffffffffffffffffffffffffffffff16631851f00084336040518363ffffffff1660e01b8152600401808373ffffffffffffffffffffffffffffffffffffffff1673ffffffffffffffffffffffffffffffffffffffff1681526020018273ffffffffffffffffffffffffffffffffffffffff1673ffffffffffffffffffffffffffffffffffffffff1681526020019250505060206040518083038186803b158015610f1257600080fd5b505afa158015610f26573d6000803e3d6000fd5b505050506040513d6020811015610f3c57600080fd5b8101908080519060200190929190505050821115610fc2576040517f08c379a000000000000000000000000000000000000000000000000000000000815260040180806020018281038252601c8152602001807f6974726164653a20696e73756666696369656e742062616c616e63650000000081525060200191505060405180910390fd5b60008373ffffffffffffffffffffffffffffffffffffffff166370a08231306040518263ffffffff1660e01b8152600401808273ffffffffffffffffffffffffffffffffffffffff1673ffffffffffffffffffffffffffffffffffffffff16815260200191505060206040518083038186803b15801561104157600080fd5b505afa158015611055573d6000803e3d6000fd5b505050506040513d602081101561106b57600080fd5b8101908080519060200190929190505050146110ef576040517f08c379a00000000000000000000000000000000000000000000000000000000081526004018080602001828103825260198152602001807f6974726164653a20756e657870656374656420726573756c740000000000000081525060200191505060405180910390fd5b600073acd746993f60e807fbf69f646e42daeda63a4cfc73ffffffffffffffffffffffffffffffffffffffff1663ede26bc8856040518263ffffffff1660e01b8152600401808273ffffffffffffffffffffffffffffffffffffffff1673ffffffffffffffffffffffffffffffffffffffff16815260200191505060206040518083038186803b15801561118257600080fd5b505afa158015611196573d6000803e3d6000fd5b505050506040513d60208110156111ac57600080fd5b810190808051906020019092919050505073ffffffffffffffffffffffffffffffffffffffff166377c7b8fc6040518163ffffffff1660e01b815260040160206040518083038186803b15801561120257600080fd5b505afa158015611216573d6000803e3d6000fd5b505050506040513d602081101561122c57600080fd5b81019080805190602001909291905050509050600061126e82611260670de0b6b3a76400008761725590919063ffffffff16565b6172db90919063ffffffff16565b905073acd746993f60e807fbf69f646e42daeda63a4cfc73ffffffffffffffffffffffffffffffffffffffff1663ede26bc8866040518263ffffffff1660e01b8152600401808273ffffffffffffffffffffffffffffffffffffffff1673ffffffffffffffffffffffffffffffffffffffff16815260200191505060206040518083038186803b15801561130157600080fd5b505afa158015611315573d6000803e3d6000fd5b505050506040513d602081101561132b57600080fd5b810190808051906020019092919050505073ffffffffffffffffffffffffffffffffffffffff16632e1a7d4d826040518263ffffffff1660e01b815260040180828152602001915050600060405180830381600087803b15801561138e57600080fd5b505af11580156113a2573d6000803e3d6000fd5b50505050838573ffffffffffffffffffffffffffffffffffffffff166370a08231306040518263ffffffff1660e01b8152600401808273ffffffffffffffffffffffffffffffffffffffff1673ffffffffffffffffffffffffffffffffffffffff16815260200191505060206040518083038186803b15801561142457600080fd5b505afa158015611438573d6000803e3d6000fd5b505050506040513d602081101561144e57600080fd5b810190808051906020019092919050505010156114d3576040517f08c379a00000000000000000000000000000000000000000000000000000000081526004018080602001828103825260198152602001807f6974726164653a20756e657870656374656420726573756c740000000000000081525060200191505060405180910390fd5b73acd746993f60e807fbf69f646e42daeda63a4cfc73ffffffffffffffffffffffffffffffffffffffff1663d8c6b87f8633876040518463ffffffff1660e01b8152600401808473ffffffffffffffffffffffffffffffffffffffff1673ffffffffffffffffffffffffffffffffffffffff1681526020018373ffffffffffffffffffffffffffffffffffffffff1673ffffffffffffffffffffffffffffffffffffffff1681526020018281526020019350505050600060405180830381600087803b1580156115a257600080fd5b505af11580156115b6573d6000803e3d6000fd5b505050506115e533858773ffffffffffffffffffffffffffffffffffffffff166171849092919063ffffffff16565b60008573ffffffffffffffffffffffffffffffffffffffff166370a08231306040518263ffffffff1660e01b8152600401808273ffffffffffffffffffffffffffffffffffffffff1673ffffffffffffffffffffffffffffffffffffffff16815260200191505060206040518083038186803b15801561166457600080fd5b505afa158015611678573d6000803e3d6000fd5b505050506040513d602081101561168e57600080fd5b810190808051906020019092919050505011156118935773acd746993f60e807fbf69f646e42daeda63a4cfc73ffffffffffffffffffffffffffffffffffffffff1663ede26bc8866040518263ffffffff1660e01b8152600401808273ffffffffffffffffffffffffffffffffffffffff1673ffffffffffffffffffffffffffffffffffffffff16815260200191505060206040518083038186803b15801561173657600080fd5b505afa15801561174a573d6000803e3d6000fd5b505050506040513d602081101561176057600080fd5b810190808051906020019092919050505073ffffffffffffffffffffffffffffffffffffffff1663b6b55f258673ffffffffffffffffffffffffffffffffffffffff166370a08231306040518263ffffffff1660e01b8152600401808273ffffffffffffffffffffffffffffffffffffffff1673ffffffffffffffffffffffffffffffffffffffff16815260200191505060206040518083038186803b15801561180957600080fd5b505afa15801561181d573d6000803e3d6000fd5b505050506040513d602081101561183357600080fd5b81019080805190602001909291905050506040518263ffffffff1660e01b815260040180828152602001915050600060405180830381600087803b15801561187a57600080fd5b505af115801561188e573d6000803e3d6000fd5b505050505b6001151573acd746993f60e807fbf69f646e42daeda63a4cfc73ffffffffffffffffffffffffffffffffffffffff1663769a28ac336040518263ffffffff1660e01b8152600401808273ffffffffffffffffffffffffffffffffffffffff1673ffffffffffffffffffffffffffffffffffffffff16815260200191505060206040518083038186803b15801561192857600080fd5b505afa15801561193c573d6000803e3d6000fd5b505050506040513d602081101561195257600080fd5b81019080805190602001909291905050501515146119d8576040517f08c379a000000000000000000000000000000000000000000000000000000000815260040180806020018281038252601f8152602001807f6974726164653a206163636f756e7420776f756c64206c69717569646174650081525060200191505060405180910390fd5b50506000548114611a51576040517f08c379a000000000000000000000000000000000000000000000000000000000815260040180806020018281038252601f8152602001807f5265656e7472616e637947756172643a207265656e7472616e742063616c6c0081525060200191505060405180910390fd5b505050565b600160008082825401925050819055506000805490506001151573acd746993f60e807fbf69f646e42daeda63a4cfc73ffffffffffffffffffffffffffffffffffffffff1663c4c77a79856040518263ffffffff1660e01b81526004018082815260200191505060206040518083038186803b158015611ad557600080fd5b505afa158015611ae9573d6000803e3d6000fd5b505050506040513d6020811015611aff57600080fd5b8101908080519060200190929190505050151514611b68576040517f08c379a000000000000000000000000000000000000000000000000000000000815260040180806020018281038252602281526020018061850f6022913960400191505060405180910390fd5b6001151573acd746993f60e807fbf69f646e42daeda63a4cfc73ffffffffffffffffffffffffffffffffffffffff16637a2b0587896040518263ffffffff1660e01b8152600401808273ffffffffffffffffffffffffffffffffffffffff1673ffffffffffffffffffffffffffffffffffffffff16815260200191505060206040518083038186803b158015611bfd57600080fd5b505afa158015611c11573d6000803e3d6000fd5b505050506040513d6020811015611c2757600080fd5b8101908080519060200190929190505050151514611cad576040517f08c379a00000000000000000000000000000000000000000000000000000000081526004018080602001828103825260178152602001807f6974726164653a20696e76616c6964207265736572766500000000000000000081525060200191505060405180910390fd5b611cec3330611cc5858961732590919063ffffffff16565b8a73ffffffffffffffffffffffffffffffffffffffff166173ad909392919063ffffffff16565b73acd746993f60e807fbf69f646e42daeda63a4cfc73ffffffffffffffffffffffffffffffffffffffff16632dc445a38833886040518463ffffffff1660e01b8152600401808473ffffffffffffffffffffffffffffffffffffffff1673ffffffffffffffffffffffffffffffffffffffff1681526020018373ffffffffffffffffffffffffffffffffffffffff1673ffffffffffffffffffffffffffffffffffffffff1681526020018281526020019350505050600060405180830381600087803b158015611dbb57600080fd5b505af1158015611dcf573d6000803e3d6000fd5b5050505073acd746993f60e807fbf69f646e42daeda63a4cfc73ffffffffffffffffffffffffffffffffffffffff1663ede26bc8886040518263ffffffff1660e01b8152600401808273ffffffffffffffffffffffffffffffffffffffff1673ffffffffffffffffffffffffffffffffffffffff16815260200191505060206040518083038186803b158015611e6457600080fd5b505afa158015611e78573d6000803e3d6000fd5b505050506040513d6020811015611e8e57600080fd5b810190808051906020019092919050505073ffffffffffffffffffffffffffffffffffffffff1663b6b55f25611ecd848861732590919063ffffffff16565b6040518263ffffffff1660e01b815260040180828152602001915050600060405180830381600087803b158015611f0357600080fd5b505af1158015611f17573d6000803e3d6000fd5b505050506000611f30848761725590919063ffffffff16565b9050600073acd746993f60e807fbf69f646e42daeda63a4cfc73ffffffffffffffffffffffffffffffffffffffff16636b2bad158a6040518263ffffffff1660e01b8152600401808273ffffffffffffffffffffffffffffffffffffffff1673ffffffffffffffffffffffffffffffffffffffff16815260200191505060206040518083038186803b158015611fc557600080fd5b505afa158015611fd9573d6000803e3d6000fd5b505050506040513d6020811015611fef57600080fd5b81019080805190602001909291905050509050600080905060008214156120185782905061210b565b612108826120fa73acd746993f60e807fbf69f646e42daeda63a4cfc73ffffffffffffffffffffffffffffffffffffffff16634d44ac4f8e6040518263ffffffff1660e01b8152600401808273ffffffffffffffffffffffffffffffffffffffff1673ffffffffffffffffffffffffffffffffffffffff16815260200191505060206040518083038186803b1580156120b057600080fd5b505afa1580156120c4573d6000803e3d6000fd5b505050506040513d60208110156120da57600080fd5b81019080805190602001909291905050508661725590919063ffffffff16565b6172db90919063ffffffff16565b90505b73acd746993f60e807fbf69f646e42daeda63a4cfc73ffffffffffffffffffffffffffffffffffffffff16638cad6e778b33846040518463ffffffff1660e01b8152600401808473ffffffffffffffffffffffffffffffffffffffff1673ffffffffffffffffffffffffffffffffffffffff1681526020018373ffffffffffffffffffffffffffffffffffffffff1673ffffffffffffffffffffffffffffffffffffffff1681526020018281526020019350505050600060405180830381600087803b1580156121da57600080fd5b505af11580156121ee573d6000803e3d6000fd5b5050505073acd746993f60e807fbf69f646e42daeda63a4cfc73ffffffffffffffffffffffffffffffffffffffff166316e6b4878b856040518363ffffffff1660e01b8152600401808373ffffffffffffffffffffffffffffffffffffffff1673ffffffffffffffffffffffffffffffffffffffff16815260200182815260200192505050600060405180830381600087803b15801561228d57600080fd5b505af11580156122a1573d6000803e3d6000fd5b50505050600073acd746993f60e807fbf69f646e42daeda63a4cfc73ffffffffffffffffffffffffffffffffffffffff16631663999e8c6040518263ffffffff1660e01b8152600401808273ffffffffffffffffffffffffffffffffffffffff1673ffffffffffffffffffffffffffffffffffffffff16815260200191505060206040518083038186803b15801561233857600080fd5b505afa15801561234c573d6000803e3d6000fd5b505050506040513d602081101561236257600080fd5b81019080805190602001909291905050509050600073acd746993f60e807fbf69f646e42daeda63a4cfc73ffffffffffffffffffffffffffffffffffffffff16631663999e8c6040518263ffffffff1660e01b8152600401808273ffffffffffffffffffffffffffffffffffffffff1673ffffffffffffffffffffffffffffffffffffffff16815260200191505060206040518083038186803b15801561240857600080fd5b505afa15801561241c573d6000803e3d6000fd5b505050506040513d602081101561243257600080fd5b8101908080519060200190929190505050905060008b73ffffffffffffffffffffffffffffffffffffffff166370a08231306040518263ffffffff1660e01b8152600401808273ffffffffffffffffffffffffffffffffffffffff1673ffffffffffffffffffffffffffffffffffffffff16815260200191505060206040518083038186803b1580156124c457600080fd5b505afa1580156124d8573d6000803e3d6000fd5b505050506040513d60208110156124ee57600080fd5b810190808051906020019092919050505014612572576040517f08c379a00000000000000000000000000000000000000000000000000000000081526004018080602001828103825260198152602001807f6974726164653a20756e657870656374656420726573756c740000000000000081525060200191505060405180910390fd5b7345f783cce6b7ff23b2ab2d70e416cdb7d6055f5173ffffffffffffffffffffffffffffffffffffffff1663a6417ed68383888d6040518563ffffffff1660e01b8152600401808560ff16600f0b81526020018460ff16600f0b8152602001838152602001828152602001945050505050600060405180830381600087803b1580156125fd57600080fd5b505af1158015612611573d6000803e3d6000fd5b5050505060008b73ffffffffffffffffffffffffffffffffffffffff166370a08231306040518263ffffffff1660e01b8152600401808273ffffffffffffffffffffffffffffffffffffffff1673ffffffffffffffffffffffffffffffffffffffff16815260200191505060206040518083038186803b15801561269457600080fd5b505afa1580156126a8573d6000803e3d6000fd5b505050506040513d60208110156126be57600080fd5b8101908080519060200190929190505050905073acd746993f60e807fbf69f646e42daeda63a4cfc73ffffffffffffffffffffffffffffffffffffffff16632eaed1018d33846040518463ffffffff1660e01b8152600401808473ffffffffffffffffffffffffffffffffffffffff1673ffffffffffffffffffffffffffffffffffffffff1681526020018373ffffffffffffffffffffffffffffffffffffffff1673ffffffffffffffffffffffffffffffffffffffff1681526020018281526020019350505050600060405180830381600087803b1580156127a057600080fd5b505af11580156127b4573d6000803e3d6000fd5b5050505073acd746993f60e807fbf69f646e42daeda63a4cfc73ffffffffffffffffffffffffffffffffffffffff1663ede26bc88d6040518263ffffffff1660e01b8152600401808273ffffffffffffffffffffffffffffffffffffffff1673ffffffffffffffffffffffffffffffffffffffff16815260200191505060206040518083038186803b15801561284957600080fd5b505afa15801561285d573d6000803e3d6000fd5b505050506040513d602081101561287357600080fd5b810190808051906020019092919050505073ffffffffffffffffffffffffffffffffffffffff1663b6b55f25826040518263ffffffff1660e01b815260040180828152602001915050600060405180830381600087803b1580156128d657600080fd5b505af11580156128ea573d6000803e3d6000fd5b505050506001151573acd746993f60e807fbf69f646e42daeda63a4cfc73ffffffffffffffffffffffffffffffffffffffff1663769a28ac336040518263ffffffff1660e01b8152600401808273ffffffffffffffffffffffffffffffffffffffff1673ffffffffffffffffffffffffffffffffffffffff16815260200191505060206040518083038186803b15801561298357600080fd5b505afa158015612997573d6000803e3d6000fd5b505050506040513d60208110156129ad57600080fd5b8101908080519060200190929190505050151514612a33576040517f08c379a000000000000000000000000000000000000000000000000000000000815260040180806020018281038252601f8152602001807f6974726164653a206163636f756e7420776f756c64206c69717569646174650081525060200191505060405180910390fd5b5050505050506000548114612ab0576040517f08c379a000000000000000000000000000000000000000000000000000000000815260040180806020018281038252601f8152602001807f5265656e7472616e637947756172643a207265656e7472616e742063616c6c0081525060200191505060405180910390fd5b50505050505050565b600160008082825401925050819055506000805490506001151573acd746993f60e807fbf69f646e42daeda63a4cfc73ffffffffffffffffffffffffffffffffffffffff16637a2b0587876040518263ffffffff1660e01b8152600401808273ffffffffffffffffffffffffffffffffffffffff1673ffffffffffffffffffffffffffffffffffffffff16815260200191505060206040518083038186803b158015612b6457600080fd5b505afa158015612b78573d6000803e3d6000fd5b505050506040513d6020811015612b8e57600080fd5b8101908080519060200190929190505050151514612c14576040517f08c379a00000000000000000000000000000000000000000000000000000000081526004018080602001828103825260178152602001807f6974726164653a20696e76616c6964207265736572766500000000000000000081525060200191505060405180910390fd5b73acd746993f60e807fbf69f646e42daeda63a4cfc73ffffffffffffffffffffffffffffffffffffffff1663b33dc19086336040518363ffffffff1660e01b8152600401808373ffffffffffffffffffffffffffffffffffffffff1673ffffffffffffffffffffffffffffffffffffffff1681526020018273ffffffffffffffffffffffffffffffffffffffff1673ffffffffffffffffffffffffffffffffffffffff1681526020019250505060206040518083038186803b158015612cd957600080fd5b505afa158015612ced573d6000803e3d6000fd5b505050506040513d6020811015612d0357600080fd5b8101908080519060200190929190505050831115612d89576040517f08c379a000000000000000000000000000000000000000000000000000000000815260040180806020018281038252601c8152602001807f6974726164653a20696e73756666696369656e742062616c616e63650000000081525060200191505060405180910390fd5b60008573ffffffffffffffffffffffffffffffffffffffff166370a08231306040518263ffffffff1660e01b8152600401808273ffffffffffffffffffffffffffffffffffffffff1673ffffffffffffffffffffffffffffffffffffffff16815260200191505060206040518083038186803b158015612e0857600080fd5b505afa158015612e1c573d6000803e3d6000fd5b505050506040513d6020811015612e3257600080fd5b810190808051906020019092919050505014612eb6576040517f08c379a00000000000000000000000000000000000000000000000000000000081526004018080602001828103825260198152602001807f6974726164653a20756e657870656374656420726573756c740000000000000081525060200191505060405180910390fd5b600073acd746993f60e807fbf69f646e42daeda63a4cfc73ffffffffffffffffffffffffffffffffffffffff1663ede26bc8876040518263ffffffff1660e01b8152600401808273ffffffffffffffffffffffffffffffffffffffff1673ffffffffffffffffffffffffffffffffffffffff16815260200191505060206040518083038186803b158015612f4957600080fd5b505afa158015612f5d573d6000803e3d6000fd5b505050506040513d6020811015612f7357600080fd5b810190808051906020019092919050505073ffffffffffffffffffffffffffffffffffffffff166377c7b8fc6040518163ffffffff1660e01b815260040160206040518083038186803b158015612fc957600080fd5b505afa158015612fdd573d6000803e3d6000fd5b505050506040513d6020811015612ff357600080fd5b810190808051906020019092919050505090506000613048600161303a8461302c670de0b6b3a76400008a61725590919063ffffffff16565b6172db90919063ffffffff16565b61732590919063ffffffff16565b905073acd746993f60e807fbf69f646e42daeda63a4cfc73ffffffffffffffffffffffffffffffffffffffff1663ede26bc8886040518263ffffffff1660e01b8152600401808273ffffffffffffffffffffffffffffffffffffffff1673ffffffffffffffffffffffffffffffffffffffff16815260200191505060206040518083038186803b1580156130db57600080fd5b505afa1580156130ef573d6000803e3d6000fd5b505050506040513d602081101561310557600080fd5b810190808051906020019092919050505073ffffffffffffffffffffffffffffffffffffffff16632e1a7d4d826040518263ffffffff1660e01b815260040180828152602001915050600060405180830381600087803b15801561316857600080fd5b505af115801561317c573d6000803e3d6000fd5b50505050848773ffffffffffffffffffffffffffffffffffffffff166370a08231306040518263ffffffff1660e01b8152600401808273ffffffffffffffffffffffffffffffffffffffff1673ffffffffffffffffffffffffffffffffffffffff16815260200191505060206040518083038186803b1580156131fe57600080fd5b505afa158015613212573d6000803e3d6000fd5b505050506040513d602081101561322857600080fd5b810190808051906020019092919050505010156132ad576040517f08c379a00000000000000000000000000000000000000000000000000000000081526004018080602001828103825260198152602001807f6974726164653a20756e657870656374656420726573756c740000000000000081525060200191505060405180910390fd5b60008673ffffffffffffffffffffffffffffffffffffffff166370a08231306040518263ffffffff1660e01b8152600401808273ffffffffffffffffffffffffffffffffffffffff1673ffffffffffffffffffffffffffffffffffffffff16815260200191505060206040518083038186803b15801561332c57600080fd5b505afa158015613340573d6000803e3d6000fd5b505050506040513d602081101561335657600080fd5b8101908080519060200190929190505050146133da576040517f08c379a00000000000000000000000000000000000000000000000000000000081526004018080602001828103825260198152602001807f6974726164653a20756e657870656374656420726573756c740000000000000081525060200191505060405180910390fd5b600073acd746993f60e807fbf69f646e42daeda63a4cfc73ffffffffffffffffffffffffffffffffffffffff16631663999e896040518263ffffffff1660e01b8152600401808273ffffffffffffffffffffffffffffffffffffffff1673ffffffffffffffffffffffffffffffffffffffff16815260200191505060206040518083038186803b15801561346d57600080fd5b505afa158015613481573d6000803e3d6000fd5b505050506040513d602081101561349757600080fd5b81019080805190602001909291905050509050600073acd746993f60e807fbf69f646e42daeda63a4cfc73ffffffffffffffffffffffffffffffffffffffff16631663999e896040518263ffffffff1660e01b8152600401808273ffffffffffffffffffffffffffffffffffffffff1673ffffffffffffffffffffffffffffffffffffffff16815260200191505060206040518083038186803b15801561353d57600080fd5b505afa158015613551573d6000803e3d6000fd5b505050506040513d602081101561356757600080fd5b810190808051906020019092919050505090507345f783cce6b7ff23b2ab2d70e416cdb7d6055f5173ffffffffffffffffffffffffffffffffffffffff1663a6417ed683838a8a6040518563ffffffff1660e01b8152600401808560ff16600f0b81526020018460ff16600f0b8152602001838152602001828152602001945050505050600060405180830381600087803b15801561360557600080fd5b505af1158015613619573d6000803e3d6000fd5b5050505073acd746993f60e807fbf69f646e42daeda63a4cfc73ffffffffffffffffffffffffffffffffffffffff1663a506e38c8a338a6040518463ffffffff1660e01b8152600401808473ffffffffffffffffffffffffffffffffffffffff1673ffffffffffffffffffffffffffffffffffffffff1681526020018373ffffffffffffffffffffffffffffffffffffffff1673ffffffffffffffffffffffffffffffffffffffff1681526020018281526020019350505050600060405180830381600087803b1580156136ec57600080fd5b505af1158015613700573d6000803e3d6000fd5b5050505060008873ffffffffffffffffffffffffffffffffffffffff166370a08231306040518263ffffffff1660e01b8152600401808273ffffffffffffffffffffffffffffffffffffffff1673ffffffffffffffffffffffffffffffffffffffff16815260200191505060206040518083038186803b15801561378357600080fd5b505afa158015613797573d6000803e3d6000fd5b505050506040513d60208110156137ad57600080fd5b8101908080519060200190929190505050905073acd746993f60e807fbf69f646e42daeda63a4cfc73ffffffffffffffffffffffffffffffffffffffff16632eaed1018a33846040518463ffffffff1660e01b8152600401808473ffffffffffffffffffffffffffffffffffffffff1673ffffffffffffffffffffffffffffffffffffffff1681526020018373ffffffffffffffffffffffffffffffffffffffff1673ffffffffffffffffffffffffffffffffffffffff1681526020018281526020019350505050600060405180830381600087803b15801561388f57600080fd5b505af11580156138a3573d6000803e3d6000fd5b5050505073acd746993f60e807fbf69f646e42daeda63a4cfc73ffffffffffffffffffffffffffffffffffffffff1663ede26bc88a6040518263ffffffff1660e01b8152600401808273ffffffffffffffffffffffffffffffffffffffff1673ffffffffffffffffffffffffffffffffffffffff16815260200191505060206040518083038186803b15801561393857600080fd5b505afa15801561394c573d6000803e3d6000fd5b505050506040513d602081101561396257600080fd5b810190808051906020019092919050505073ffffffffffffffffffffffffffffffffffffffff1663b6b55f25826040518263ffffffff1660e01b815260040180828152602001915050600060405180830381600087803b1580156139c557600080fd5b505af11580156139d9573d6000803e3d6000fd5b5050505060008a73ffffffffffffffffffffffffffffffffffffffff166370a08231306040518263ffffffff1660e01b8152600401808273ffffffffffffffffffffffffffffffffffffffff1673ffffffffffffffffffffffffffffffffffffffff16815260200191505060206040518083038186803b158015613a5c57600080fd5b505afa158015613a70573d6000803e3d6000fd5b505050506040513d6020811015613a8657600080fd5b81019080805190602001909291905050501115613c8b5773acd746993f60e807fbf69f646e42daeda63a4cfc73ffffffffffffffffffffffffffffffffffffffff1663ede26bc88b6040518263ffffffff1660e01b8152600401808273ffffffffffffffffffffffffffffffffffffffff1673ffffffffffffffffffffffffffffffffffffffff16815260200191505060206040518083038186803b158015613b2e57600080fd5b505afa158015613b42573d6000803e3d6000fd5b505050506040513d6020811015613b5857600080fd5b810190808051906020019092919050505073ffffffffffffffffffffffffffffffffffffffff1663b6b55f258b73ffffffffffffffffffffffffffffffffffffffff166370a08231306040518263ffffffff1660e01b8152600401808273ffffffffffffffffffffffffffffffffffffffff1673ffffffffffffffffffffffffffffffffffffffff16815260200191505060206040518083038186803b158015613c0157600080fd5b505afa158015613c15573d6000803e3d6000fd5b505050506040513d6020811015613c2b57600080fd5b81019080805190602001909291905050506040518263ffffffff1660e01b815260040180828152602001915050600060405180830381600087803b158015613c7257600080fd5b505af1158015613c86573d6000803e3d6000fd5b505050505b6001151573acd746993f60e807fbf69f646e42daeda63a4cfc73ffffffffffffffffffffffffffffffffffffffff1663769a28ac336040518263ffffffff1660e01b8152600401808273ffffffffffffffffffffffffffffffffffffffff1673ffffffffffffffffffffffffffffffffffffffff16815260200191505060206040518083038186803b158015613d2057600080fd5b505afa158015613d34573d6000803e3d6000fd5b505050506040513d6020811015613d4a57600080fd5b8101908080519060200190929190505050151514613dd0576040517f08c379a000000000000000000000000000000000000000000000000000000000815260040180806020018281038252601f8152602001807f6974726164653a206163636f756e7420776f756c64206c69717569646174650081525060200191505060405180910390fd5b50505050506000548114613e4c576040517f08c379a000000000000000000000000000000000000000000000000000000000815260040180806020018281038252601f8152602001807f5265656e7472616e637947756172643a207265656e7472616e742063616c6c0081525060200191505060405180910390fd5b5050505050565b606481565b73acd746993f60e807fbf69f646e42daeda63a4cfc81565b600160008082825401925050819055506000805490506001151573acd746993f60e807fbf69f646e42daeda63a4cfc73ffffffffffffffffffffffffffffffffffffffff16637a2b0587846040518263ffffffff1660e01b8152600401808273ffffffffffffffffffffffffffffffffffffffff1673ffffffffffffffffffffffffffffffffffffffff16815260200191505060206040518083038186803b158015613f1b57600080fd5b505afa158015613f2f573d6000803e3d6000fd5b505050506040513d6020811015613f4557600080fd5b8101908080519060200190929190505050151514613fcb576040517f08c379a00000000000000000000000000000000000000000000000000000000081526004018080602001828103825260178152602001807f6974726164653a20696e76616c6964207265736572766500000000000000000081525060200191505060405180910390fd5b600073acd746993f60e807fbf69f646e42daeda63a4cfc73ffffffffffffffffffffffffffffffffffffffff1663a2a00ed684336040518363ffffffff1660e01b8152600401808373ffffffffffffffffffffffffffffffffffffffff1673ffffffffffffffffffffffffffffffffffffffff1681526020018273ffffffffffffffffffffffffffffffffffffffff1673ffffffffffffffffffffffffffffffffffffffff1681526020019250505060206040518083038186803b15801561409257600080fd5b505afa1580156140a6573d6000803e3d6000fd5b505050506040513d60208110156140bc57600080fd5b81019080805190602001909291905050509050600081111561439f576141053330838673ffffffffffffffffffffffffffffffffffffffff166173ad909392919063ffffffff16565b73acd746993f60e807fbf69f646e42daeda63a4cfc73ffffffffffffffffffffffffffffffffffffffff166379f3c01484836040518363ffffffff1660e01b8152600401808373ffffffffffffffffffffffffffffffffffffffff1673ffffffffffffffffffffffffffffffffffffffff16815260200182815260200192505050600060405180830381600087803b1580156141a057600080fd5b505af11580156141b4573d6000803e3d6000fd5b5050505073acd746993f60e807fbf69f646e42daeda63a4cfc73ffffffffffffffffffffffffffffffffffffffff166358bb2a4d843373acd746993f60e807fbf69f646e42daeda63a4cfc73ffffffffffffffffffffffffffffffffffffffff1663498b5ae888336040518363ffffffff1660e01b8152600401808373ffffffffffffffffffffffffffffffffffffffff1673ffffffffffffffffffffffffffffffffffffffff1681526020018273ffffffffffffffffffffffffffffffffffffffff1673ffffffffffffffffffffffffffffffffffffffff1681526020019250505060206040518083038186803b1580156142af57600080fd5b505afa1580156142c3573d6000803e3d6000fd5b505050506040513d60208110156142d957600080fd5b81019080805190602001909291905050506040518463ffffffff1660e01b8152600401808473ffffffffffffffffffffffffffffffffffffffff1673ffffffffffffffffffffffffffffffffffffffff1681526020018373ffffffffffffffffffffffffffffffffffffffff1673ffffffffffffffffffffffffffffffffffffffff1681526020018281526020019350505050600060405180830381600087803b15801561438657600080fd5b505af115801561439a573d6000803e3d6000fd5b505050505b6001151573acd746993f60e807fbf69f646e42daeda63a4cfc73ffffffffffffffffffffffffffffffffffffffff1663769a28ac336040518263ffffffff1660e01b8152600401808273ffffffffffffffffffffffffffffffffffffffff1673ffffffffffffffffffffffffffffffffffffffff16815260200191505060206040518083038186803b15801561443457600080fd5b505afa158015614448573d6000803e3d6000fd5b505050506040513d602081101561445e57600080fd5b81019080805190602001909291905050501515146144e4576040517f08c379a000000000000000000000000000000000000000000000000000000000815260040180806020018281038252601f8152602001807f6974726164653a206163636f756e7420776f756c64206c69717569646174650081525060200191505060405180910390fd5b50600054811461455c576040517f08c379a000000000000000000000000000000000000000000000000000000000815260040180806020018281038252601f8152602001807f5265656e7472616e637947756172643a207265656e7472616e742063616c6c0081525060200191505060405180910390fd5b5050565b6001600080828254019250508190555060008054905061458586868686866000611a56565b60005481146145fc576040517f08c379a000000000000000000000000000000000000000000000000000000000815260040180806020018281038252601f8152602001807f5265656e7472616e637947756172643a207265656e7472616e742063616c6c0081525060200191505060405180910390fd5b505050505050565b600160008082825401925050819055506000805490506001151573acd746993f60e807fbf69f646e42daeda63a4cfc73ffffffffffffffffffffffffffffffffffffffff16637a2b0587866040518263ffffffff1660e01b8152600401808273ffffffffffffffffffffffffffffffffffffffff1673ffffffffffffffffffffffffffffffffffffffff16815260200191505060206040518083038186803b1580156146af57600080fd5b505afa1580156146c3573d6000803e3d6000fd5b505050506040513d60208110156146d957600080fd5b810190808051906020019092919050505015151461475f576040517f08c379a00000000000000000000000000000000000000000000000000000000081526004018080602001828103825260178152602001807f6974726164653a20696e76616c6964207265736572766500000000000000000081525060200191505060405180910390fd5b600073acd746993f60e807fbf69f646e42daeda63a4cfc73ffffffffffffffffffffffffffffffffffffffff1663a2a00ed686866040518363ffffffff1660e01b8152600401808373ffffffffffffffffffffffffffffffffffffffff1673ffffffffffffffffffffffffffffffffffffffff1681526020018273ffffffffffffffffffffffffffffffffffffffff1673ffffffffffffffffffffffffffffffffffffffff1681526020019250505060206040518083038186803b15801561482657600080fd5b505afa15801561483a573d6000803e3d6000fd5b505050506040513d602081101561485057600080fd5b810190808051906020019092919050505090508083111561486f578092505b61489c3330858873ffffffffffffffffffffffffffffffffffffffff166173ad909392919063ffffffff16565b60006149c2826149b48673acd746993f60e807fbf69f646e42daeda63a4cfc73ffffffffffffffffffffffffffffffffffffffff1663498b5ae88b8b6040518363ffffffff1660e01b8152600401808373ffffffffffffffffffffffffffffffffffffffff1673ffffffffffffffffffffffffffffffffffffffff1681526020018273ffffffffffffffffffffffffffffffffffffffff1673ffffffffffffffffffffffffffffffffffffffff1681526020019250505060206040518083038186803b15801561496b57600080fd5b505afa15801561497f573d6000803e3d6000fd5b505050506040513d602081101561499557600080fd5b810190808051906020019092919050505061725590919063ffffffff16565b6172db90919063ffffffff16565b905073acd746993f60e807fbf69f646e42daeda63a4cfc73ffffffffffffffffffffffffffffffffffffffff166379f3c01487866040518363ffffffff1660e01b8152600401808373ffffffffffffffffffffffffffffffffffffffff1673ffffffffffffffffffffffffffffffffffffffff16815260200182815260200192505050600060405180830381600087803b158015614a5f57600080fd5b505af1158015614a73573d6000803e3d6000fd5b5050505073acd746993f60e807fbf69f646e42daeda63a4cfc73ffffffffffffffffffffffffffffffffffffffff166358bb2a4d8787846040518463ffffffff1660e01b8152600401808473ffffffffffffffffffffffffffffffffffffffff1673ffffffffffffffffffffffffffffffffffffffff1681526020018373ffffffffffffffffffffffffffffffffffffffff1673ffffffffffffffffffffffffffffffffffffffff1681526020018281526020019350505050600060405180830381600087803b158015614b4657600080fd5b505af1158015614b5a573d6000803e3d6000fd5b505050506001151573acd746993f60e807fbf69f646e42daeda63a4cfc73ffffffffffffffffffffffffffffffffffffffff1663769a28ac336040518263ffffffff1660e01b8152600401808273ffffffffffffffffffffffffffffffffffffffff1673ffffffffffffffffffffffffffffffffffffffff16815260200191505060206040518083038186803b158015614bf357600080fd5b505afa158015614c07573d6000803e3d6000fd5b505050506040513d6020811015614c1d57600080fd5b8101908080519060200190929190505050151514614ca3576040517f08c379a000000000000000000000000000000000000000000000000000000000815260040180806020018281038252601f8152602001807f6974726164653a206163636f756e7420776f756c64206c69717569646174650081525060200191505060405180910390fd5b50506000548114614d1c576040517f08c379a000000000000000000000000000000000000000000000000000000000815260040180806020018281038252601f8152602001807f5265656e7472616e637947756172643a207265656e7472616e742063616c6c0081525060200191505060405180910390fd5b50505050565b603281565b614d2f615fb9565b614da1576040517f08c379a00000000000000000000000000000000000000000000000000000000081526004018080602001828103825260208152602001807f4f776e61626c653a2063616c6c6572206973206e6f7420746865206f776e657281525060200191505060405180910390fd5b600073ffffffffffffffffffffffffffffffffffffffff16600160009054906101000a900473ffffffffffffffffffffffffffffffffffffffff1673ffffffffffffffffffffffffffffffffffffffff167f8be0079c531659141344cd1fd0a4f28419497f9722a3daafe3b4186f6b6457e060405160405180910390a36000600160006101000a81548173ffffffffffffffffffffffffffffffffffffffff021916908373ffffffffffffffffffffffffffffffffffffffff160217905550565b600160008082825401925050819055506000805490506001151573acd746993f60e807fbf69f646e42daeda63a4cfc73ffffffffffffffffffffffffffffffffffffffff16637a2b0587856040518263ffffffff1660e01b8152600401808273ffffffffffffffffffffffffffffffffffffffff1673ffffffffffffffffffffffffffffffffffffffff16815260200191505060206040518083038186803b158015614f0d57600080fd5b505afa158015614f21573d6000803e3d6000fd5b505050506040513d6020811015614f3757600080fd5b8101908080519060200190929190505050151514614fbd576040517f08c379a00000000000000000000000000000000000000000000000000000000081526004018080602001828103825260178152602001807f6974726164653a20696e76616c6964207265736572766500000000000000000081525060200191505060405180910390fd5b73acd746993f60e807fbf69f646e42daeda63a4cfc73ffffffffffffffffffffffffffffffffffffffff1663b33dc19084336040518363ffffffff1660e01b8152600401808373ffffffffffffffffffffffffffffffffffffffff1673ffffffffffffffffffffffffffffffffffffffff1681526020018273ffffffffffffffffffffffffffffffffffffffff1673ffffffffffffffffffffffffffffffffffffffff1681526020019250505060206040518083038186803b15801561508257600080fd5b505afa158015615096573d6000803e3d6000fd5b505050506040513d60208110156150ac57600080fd5b8101908080519060200190929190505050821115615132576040517f08c379a000000000000000000000000000000000000000000000000000000000815260040180806020018281038252601c8152602001807f6974726164653a20696e73756666696369656e742062616c616e63650000000081525060200191505060405180910390fd5b60008373ffffffffffffffffffffffffffffffffffffffff166370a08231306040518263ffffffff1660e01b8152600401808273ffffffffffffffffffffffffffffffffffffffff1673ffffffffffffffffffffffffffffffffffffffff16815260200191505060206040518083038186803b1580156151b157600080fd5b505afa1580156151c5573d6000803e3d6000fd5b505050506040513d60208110156151db57600080fd5b81019080805190602001909291905050501461525f576040517f08c379a00000000000000000000000000000000000000000000000000000000081526004018080602001828103825260198152602001807f6974726164653a20756e657870656374656420726573756c740000000000000081525060200191505060405180910390fd5b600073acd746993f60e807fbf69f646e42daeda63a4cfc73ffffffffffffffffffffffffffffffffffffffff1663a2a00ed685336040518363ffffffff1660e01b8152600401808373ffffffffffffffffffffffffffffffffffffffff1673ffffffffffffffffffffffffffffffffffffffff1681526020018273ffffffffffffffffffffffffffffffffffffffff1673ffffffffffffffffffffffffffffffffffffffff1681526020019250505060206040518083038186803b15801561532657600080fd5b505afa15801561533a573d6000803e3d6000fd5b505050506040513d602081101561535057600080fd5b810190808051906020019092919050505090506000809050818411156153895761538382856174b390919063ffffffff16565b90508193505b600073acd746993f60e807fbf69f646e42daeda63a4cfc73ffffffffffffffffffffffffffffffffffffffff1663ede26bc8876040518263ffffffff1660e01b8152600401808273ffffffffffffffffffffffffffffffffffffffff1673ffffffffffffffffffffffffffffffffffffffff16815260200191505060206040518083038186803b15801561541c57600080fd5b505afa158015615430573d6000803e3d6000fd5b505050506040513d602081101561544657600080fd5b810190808051906020019092919050505073ffffffffffffffffffffffffffffffffffffffff166377c7b8fc6040518163ffffffff1660e01b815260040160206040518083038186803b15801561549c57600080fd5b505afa1580156154b0573d6000803e3d6000fd5b505050506040513d60208110156154c657600080fd5b81019080805190602001909291905050509050600061551b600161550d846154ff670de0b6b3a76400008b61725590919063ffffffff16565b6172db90919063ffffffff16565b61732590919063ffffffff16565b905073acd746993f60e807fbf69f646e42daeda63a4cfc73ffffffffffffffffffffffffffffffffffffffff1663ede26bc8886040518263ffffffff1660e01b8152600401808273ffffffffffffffffffffffffffffffffffffffff1673ffffffffffffffffffffffffffffffffffffffff16815260200191505060206040518083038186803b1580156155ae57600080fd5b505afa1580156155c2573d6000803e3d6000fd5b505050506040513d60208110156155d857600080fd5b810190808051906020019092919050505073ffffffffffffffffffffffffffffffffffffffff16632e1a7d4d826040518263ffffffff1660e01b815260040180828152602001915050600060405180830381600087803b15801561563b57600080fd5b505af115801561564f573d6000803e3d6000fd5b505050506000841115615920576000615782856157748973acd746993f60e807fbf69f646e42daeda63a4cfc73ffffffffffffffffffffffffffffffffffffffff1663498b5ae88d336040518363ffffffff1660e01b8152600401808373ffffffffffffffffffffffffffffffffffffffff1673ffffffffffffffffffffffffffffffffffffffff1681526020018273ffffffffffffffffffffffffffffffffffffffff1673ffffffffffffffffffffffffffffffffffffffff1681526020019250505060206040518083038186803b15801561572b57600080fd5b505afa15801561573f573d6000803e3d6000fd5b505050506040513d602081101561575557600080fd5b810190808051906020019092919050505061725590919063ffffffff16565b6172db90919063ffffffff16565b905073acd746993f60e807fbf69f646e42daeda63a4cfc73ffffffffffffffffffffffffffffffffffffffff166379f3c01489896040518363ffffffff1660e01b8152600401808373ffffffffffffffffffffffffffffffffffffffff1673ffffffffffffffffffffffffffffffffffffffff16815260200182815260200192505050600060405180830381600087803b15801561581f57600080fd5b505af1158015615833573d6000803e3d6000fd5b5050505073acd746993f60e807fbf69f646e42daeda63a4cfc73ffffffffffffffffffffffffffffffffffffffff166358bb2a4d8933846040518463ffffffff1660e01b8152600401808473ffffffffffffffffffffffffffffffffffffffff1673ffffffffffffffffffffffffffffffffffffffff1681526020018373ffffffffffffffffffffffffffffffffffffffff1673ffffffffffffffffffffffffffffffffffffffff1681526020018281526020019350505050600060405180830381600087803b15801561590657600080fd5b505af115801561591a573d6000803e3d6000fd5b50505050505b60008311156159555761595433848973ffffffffffffffffffffffffffffffffffffffff166171849092919063ffffffff16565b5b73acd746993f60e807fbf69f646e42daeda63a4cfc73ffffffffffffffffffffffffffffffffffffffff1663a506e38c8833896040518463ffffffff1660e01b8152600401808473ffffffffffffffffffffffffffffffffffffffff1673ffffffffffffffffffffffffffffffffffffffff1681526020018373ffffffffffffffffffffffffffffffffffffffff1673ffffffffffffffffffffffffffffffffffffffff1681526020018281526020019350505050600060405180830381600087803b158015615a2457600080fd5b505af1158015615a38573d6000803e3d6000fd5b5050505060008773ffffffffffffffffffffffffffffffffffffffff166370a08231306040518263ffffffff1660e01b8152600401808273ffffffffffffffffffffffffffffffffffffffff1673ffffffffffffffffffffffffffffffffffffffff16815260200191505060206040518083038186803b158015615abb57600080fd5b505afa158015615acf573d6000803e3d6000fd5b505050506040513d6020811015615ae557600080fd5b81019080805190602001909291905050501115615cea5773acd746993f60e807fbf69f646e42daeda63a4cfc73ffffffffffffffffffffffffffffffffffffffff1663ede26bc8886040518263ffffffff1660e01b8152600401808273ffffffffffffffffffffffffffffffffffffffff1673ffffffffffffffffffffffffffffffffffffffff16815260200191505060206040518083038186803b158015615b8d57600080fd5b505afa158015615ba1573d6000803e3d6000fd5b505050506040513d6020811015615bb757600080fd5b810190808051906020019092919050505073ffffffffffffffffffffffffffffffffffffffff1663b6b55f258873ffffffffffffffffffffffffffffffffffffffff166370a08231306040518263ffffffff1660e01b8152600401808273ffffffffffffffffffffffffffffffffffffffff1673ffffffffffffffffffffffffffffffffffffffff16815260200191505060206040518083038186803b158015615c6057600080fd5b505afa158015615c74573d6000803e3d6000fd5b505050506040513d6020811015615c8a57600080fd5b81019080805190602001909291905050506040518263ffffffff1660e01b815260040180828152602001915050600060405180830381600087803b158015615cd157600080fd5b505af1158015615ce5573d6000803e3d6000fd5b505050505b6001151573acd746993f60e807fbf69f646e42daeda63a4cfc73ffffffffffffffffffffffffffffffffffffffff1663769a28ac336040518263ffffffff1660e01b8152600401808273ffffffffffffffffffffffffffffffffffffffff1673ffffffffffffffffffffffffffffffffffffffff16815260200191505060206040518083038186803b158015615d7f57600080fd5b505afa158015615d93573d6000803e3d6000fd5b505050506040513d6020811015615da957600080fd5b8101908080519060200190929190505050151514615e2f576040517f08c379a000000000000000000000000000000000000000000000000000000000815260040180806020018281038252601f8152602001807f6974726164653a206163636f756e7420776f756c64206c69717569646174650081525060200191505060405180910390fd5b505050506000548114615eaa576040517f08c379a000000000000000000000000000000000000000000000000000000000815260040180806020018281038252601f8152602001807f5265656e7472616e637947756172643a207265656e7472616e742063616c6c0081525060200191505060405180910390fd5b505050565b7316de59092dae5ccf4a1e6439d611fd0653f0bd0181565b60016000808282540192505081905550600080549050615ee8833384614604565b6000548114615f5f576040517f08c379a000000000000000000000000000000000000000000000000000000000815260040180806020018281038252601f8152602001807f5265656e7472616e637947756172643a207265656e7472616e742063616c6c0081525060200191505060405180910390fd5b505050565b6e085d4780b73119b644ae5ecd22b37681565b73a0b86991c6218b36c1d19d4a2e9eb0ce3606eb4881565b6000600160009054906101000a900473ffffffffffffffffffffffffffffffffffffffff16905090565b6000600160009054906101000a900473ffffffffffffffffffffffffffffffffffffffff1673ffffffffffffffffffffffffffffffffffffffff16615ffc6174fd565b73ffffffffffffffffffffffffffffffffffffffff1614905090565b61608b73acd746993f60e807fbf69f646e42daeda63a4cfc7fffffffffffffffffffffffffffffffffffffffffffffffffffffffffffffffff736b175474e89094c44da98b954eedeac495271d0f73ffffffffffffffffffffffffffffffffffffffff166175059092919063ffffffff16565b6160fe73acd746993f60e807fbf69f646e42daeda63a4cfc7fffffffffffffffffffffffffffffffffffffffffffffffffffffffffffffffff73a0b86991c6218b36c1d19d4a2e9eb0ce3606eb4873ffffffffffffffffffffffffffffffffffffffff166175059092919063ffffffff16565b61616c73acd746993f60e807fbf69f646e42daeda63a4cfc7fffffffffffffffffffffffffffffffffffffffffffffffffffffffffffffffff6e085d4780b73119b644ae5ecd22b37673ffffffffffffffffffffffffffffffffffffffff166175059092919063ffffffff16565b6161c073acd746993f60e807fbf69f646e42daeda63a4cfc600073dac17f958d2ee523a2206206994597c13d831ec773ffffffffffffffffffffffffffffffffffffffff166175059092919063ffffffff16565b61623373acd746993f60e807fbf69f646e42daeda63a4cfc7fffffffffffffffffffffffffffffffffffffffffffffffffffffffffffffffff73dac17f958d2ee523a2206206994597c13d831ec773ffffffffffffffffffffffffffffffffffffffff166175059092919063ffffffff16565b6162a67316de59092dae5ccf4a1e6439d611fd0653f0bd017fffffffffffffffffffffffffffffffffffffffffffffffffffffffffffffffff736b175474e89094c44da98b954eedeac495271d0f73ffffffffffffffffffffffffffffffffffffffff166175059092919063ffffffff16565b61631973d6ad7a6750a7593e092a9b218d66c0a814a3436e7fffffffffffffffffffffffffffffffffffffffffffffffffffffffffffffffff73a0b86991c6218b36c1d19d4a2e9eb0ce3606eb4873ffffffffffffffffffffffffffffffffffffffff166175059092919063ffffffff16565b6163877373a052500105205d34daf004eab301916da8190f7fffffffffffffffffffffffffffffffffffffffffffffffffffffffffffffffff6e085d4780b73119b644ae5ecd22b37673ffffffffffffffffffffffffffffffffffffffff166175059092919063ffffffff16565b6163db7383f798e925bcd4017eb265844fddabb448f1707d600073dac17f958d2ee523a2206206994597c13d831ec773ffffffffffffffffffffffffffffffffffffffff166175059092919063ffffffff16565b61644e7383f798e925bcd4017eb265844fddabb448f1707d7fffffffffffffffffffffffffffffffffffffffffffffffffffffffffffffffff73dac17f958d2ee523a2206206994597c13d831ec773ffffffffffffffffffffffffffffffffffffffff166175059092919063ffffffff16565b6164c17345f783cce6b7ff23b2ab2d70e416cdb7d6055f517fffffffffffffffffffffffffffffffffffffffffffffffffffffffffffffffff736b175474e89094c44da98b954eedeac495271d0f73ffffffffffffffffffffffffffffffffffffffff166175059092919063ffffffff16565b6165347345f783cce6b7ff23b2ab2d70e416cdb7d6055f517fffffffffffffffffffffffffffffffffffffffffffffffffffffffffffffffff73a0b86991c6218b36c1d19d4a2e9eb0ce3606eb4873ffffffffffffffffffffffffffffffffffffffff166175059092919063ffffffff16565b6165a27345f783cce6b7ff23b2ab2d70e416cdb7d6055f517fffffffffffffffffffffffffffffffffffffffffffffffffffffffffffffffff6e085d4780b73119b644ae5ecd22b37673ffffffffffffffffffffffffffffffffffffffff166175059092919063ffffffff16565b6165f67345f783cce6b7ff23b2ab2d70e416cdb7d6055f51600073dac17f958d2ee523a2206206994597c13d831ec773ffffffffffffffffffffffffffffffffffffffff166175059092919063ffffffff16565b6166697345f783cce6b7ff23b2ab2d70e416cdb7d6055f517fffffffffffffffffffffffffffffffffffffffffffffffffffffffffffffffff73dac17f958d2ee523a2206206994597c13d831ec773ffffffffffffffffffffffffffffffffffffffff166175059092919063ffffffff16565b565b7345f783cce6b7ff23b2ab2d70e416cdb7d6055f5181565b600160008082825401925050819055506000805490506167a28273acd746993f60e807fbf69f646e42daeda63a4cfc73ffffffffffffffffffffffffffffffffffffffff1663b33dc19085336040518363ffffffff1660e01b8152600401808373ffffffffffffffffffffffffffffffffffffffff1673ffffffffffffffffffffffffffffffffffffffff1681526020018273ffffffffffffffffffffffffffffffffffffffff1673ffffffffffffffffffffffffffffffffffffffff1681526020019250505060206040518083038186803b15801561676257600080fd5b505afa158015616776573d6000803e3d6000fd5b505050506040513d602081101561678c57600080fd5b8101908080519060200190929190505050614e62565b6167ab82613e70565b6168b48273acd746993f60e807fbf69f646e42daeda63a4cfc73ffffffffffffffffffffffffffffffffffffffff16631851f00085336040518363ffffffff1660e01b8152600401808373ffffffffffffffffffffffffffffffffffffffff1673ffffffffffffffffffffffffffffffffffffffff1681526020018273ffffffffffffffffffffffffffffffffffffffff1673ffffffffffffffffffffffffffffffffffffffff1681526020019250505060206040518083038186803b15801561687457600080fd5b505afa158015616888573d6000803e3d6000fd5b505050506040513d602081101561689e57600080fd5b8101908080519060200190929190505050610b9a565b6001151573acd746993f60e807fbf69f646e42daeda63a4cfc73ffffffffffffffffffffffffffffffffffffffff1663769a28ac336040518263ffffffff1660e01b8152600401808273ffffffffffffffffffffffffffffffffffffffff1673ffffffffffffffffffffffffffffffffffffffff16815260200191505060206040518083038186803b15801561694957600080fd5b505afa15801561695d573d6000803e3d6000fd5b505050506040513d602081101561697357600080fd5b81019080805190602001909291905050501515146169f9576040517f08c379a000000000000000000000000000000000000000000000000000000000815260040180806020018281038252601f8152602001807f6974726164653a206163636f756e7420776f756c64206c69717569646174650081525060200191505060405180910390fd5b6000548114616a70576040517f08c379a000000000000000000000000000000000000000000000000000000000815260040180806020018281038252601f8152602001807f5265656e7472616e637947756172643a207265656e7472616e742063616c6c0081525060200191505060405180910390fd5b5050565b73dac17f958d2ee523a2206206994597c13d831ec781565b73acd746993f60e807fbf69f646e42daeda63a4cfc81565b736b175474e89094c44da98b954eedeac495271d0f81565b7373a052500105205d34daf004eab301916da8190f81565b616adc615fb9565b616b4e576040517f08c379a00000000000000000000000000000000000000000000000000000000081526004018080602001828103825260208152602001807f4f776e61626c653a2063616c6c6572206973206e6f7420746865206f776e657281525060200191505060405180910390fd5b616b5781617725565b50565b616b62615fb9565b616bd4576040517f08c379a00000000000000000000000000000000000000000000000000000000081526004018080602001828103825260208152602001807f4f776e61626c653a2063616c6c6572206973206e6f7420746865206f776e657281525060200191505060405180910390fd5b60003373ffffffffffffffffffffffffffffffffffffffff163073ffffffffffffffffffffffffffffffffffffffff163160405180600001905060006040518083038185875af1925050503d8060008114616c4b576040519150601f19603f3d011682016040523d82523d6000602084013e616c50565b606091505b5050905080616cc7576040517f08c379a00000000000000000000000000000000000000000000000000000000081526004018080602001828103825260168152602001807f7472616e73666572206f6620455448206661696c65640000000000000000000081525060200191505060405180910390fd5b50565b600160008082825401925050819055506000805490506000151573acd746993f60e807fbf69f646e42daeda63a4cfc73ffffffffffffffffffffffffffffffffffffffff1663769a28ac846040518263ffffffff1660e01b8152600401808273ffffffffffffffffffffffffffffffffffffffff1673ffffffffffffffffffffffffffffffffffffffff16815260200191505060206040518083038186803b158015616d7557600080fd5b505afa158015616d89573d6000803e3d6000fd5b505050506040513d6020811015616d9f57600080fd5b8101908080519060200190929190505050151514616e25576040517f08c379a00000000000000000000000000000000000000000000000000000000081526004018080602001828103825260178152602001807f6974726164653a206163636f756e74206973207361666500000000000000000081525060200191505060405180910390fd5b616e43736b175474e89094c44da98b954eedeac495271d0f8361786b565b616e6173a0b86991c6218b36c1d19d4a2e9eb0ce3606eb488361786b565b616e7f73dac17f958d2ee523a2206206994597c13d831ec78361786b565b6001151573acd746993f60e807fbf69f646e42daeda63a4cfc73ffffffffffffffffffffffffffffffffffffffff1663769a28ac336040518263ffffffff1660e01b8152600401808273ffffffffffffffffffffffffffffffffffffffff1673ffffffffffffffffffffffffffffffffffffffff16815260200191505060206040518083038186803b158015616f1457600080fd5b505afa158015616f28573d6000803e3d6000fd5b505050506040513d6020811015616f3e57600080fd5b8101908080519060200190929190505050151514616fc4576040517f08c379a000000000000000000000000000000000000000000000000000000000815260040180806020018281038252601f8152602001807f6974726164653a206163636f756e7420776f756c64206c69717569646174650081525060200191505060405180910390fd5b6001151573acd746993f60e807fbf69f646e42daeda63a4cfc73ffffffffffffffffffffffffffffffffffffffff1663769a28ac846040518263ffffffff1660e01b8152600401808273ffffffffffffffffffffffffffffffffffffffff1673ffffffffffffffffffffffffffffffffffffffff16815260200191505060206040518083038186803b15801561705957600080fd5b505afa15801561706d573d6000803e3d6000fd5b505050506040513d602081101561708357600080fd5b8101908080519060200190929190505050151514617109576040517f08c379a000000000000000000000000000000000000000000000000000000000815260040180806020018281038252601f8152602001807f6974726164653a206163636f756e7420776f756c64206c69717569646174650081525060200191505060405180910390fd5b6000548114617180576040517f08c379a000000000000000000000000000000000000000000000000000000000815260040180806020018281038252601f8152602001807f5265656e7472616e637947756172643a207265656e7472616e742063616c6c0081525060200191505060405180910390fd5b5050565b617250838473ffffffffffffffffffffffffffffffffffffffff1663a9059cbb905060e01b8484604051602401808373ffffffffffffffffffffffffffffffffffffffff1673ffffffffffffffffffffffffffffffffffffffff16815260200182815260200192505050604051602081830303815290604052907bffffffffffffffffffffffffffffffffffffffffffffffffffffffff19166020820180517bffffffffffffffffffffffffffffffffffffffffffffffffffffffff83818316178352505050506180f2565b505050565b60008083141561726857600090506172d5565b600082840290508284828161727957fe5b04146172d0576040517f08c379a00000000000000000000000000000000000000000000000000000000081526004018080602001828103825260218152602001806185796021913960400191505060405180910390fd5b809150505b92915050565b600061731d83836040518060400160405280601a81526020017f536166654d6174683a206469766973696f6e206279207a65726f00000000000081525061833d565b905092915050565b6000808284019050838110156173a3576040517f08c379a000000000000000000000000000000000000000000000000000000000815260040180806020018281038252601b8152602001807f536166654d6174683a206164646974696f6e206f766572666c6f77000000000081525060200191505060405180910390fd5b8091505092915050565b6174ad848573ffffffffffffffffffffffffffffffffffffffff166323b872dd905060e01b858585604051602401808473ffffffffffffffffffffffffffffffffffffffff1673ffffffffffffffffffffffffffffffffffffffff1681526020018373ffffffffffffffffffffffffffffffffffffffff1673ffffffffffffffffffffffffffffffffffffffff1681526020018281526020019350505050604051602081830303815290604052907bffffffffffffffffffffffffffffffffffffffffffffffffffffffff19166020820180517bffffffffffffffffffffffffffffffffffffffffffffffffffffffff83818316178352505050506180f2565b50505050565b60006174f583836040518060400160405280601e81526020017f536166654d6174683a207375627472616374696f6e206f766572666c6f770000815250618403565b905092915050565b600033905090565b60008114806175ff575060008373ffffffffffffffffffffffffffffffffffffffff1663dd62ed3e30856040518363ffffffff1660e01b8152600401808373ffffffffffffffffffffffffffffffffffffffff1673ffffffffffffffffffffffffffffffffffffffff1681526020018273ffffffffffffffffffffffffffffffffffffffff1673ffffffffffffffffffffffffffffffffffffffff1681526020019250505060206040518083038186803b1580156175c257600080fd5b505afa1580156175d6573d6000803e3d6000fd5b505050506040513d60208110156175ec57600080fd5b8101908080519060200190929190505050145b617654576040517f08c379a00000000000000000000000000000000000000000000000000000000081526004018080602001828103825260368152602001806185c46036913960400191505060405180910390fd5b617720838473ffffffffffffffffffffffffffffffffffffffff1663095ea7b3905060e01b8484604051602401808373ffffffffffffffffffffffffffffffffffffffff1673ffffffffffffffffffffffffffffffffffffffff16815260200182815260200192505050604051602081830303815290604052907bffffffffffffffffffffffffffffffffffffffffffffffffffffffff19166020820180517bffffffffffffffffffffffffffffffffffffffffffffffffffffffff83818316178352505050506180f2565b505050565b600073ffffffffffffffffffffffffffffffffffffffff168173ffffffffffffffffffffffffffffffffffffffff1614156177ab576040517f08c379a00000000000000000000000000000000000000000000000000000000081526004018080602001828103825260268152602001806185316026913960400191505060405180910390fd5b8073ffffffffffffffffffffffffffffffffffffffff16600160009054906101000a900473ffffffffffffffffffffffffffffffffffffffff1673ffffffffffffffffffffffffffffffffffffffff167f8be0079c531659141344cd1fd0a4f28419497f9722a3daafe3b4186f6b6457e060405160405180910390a380600160006101000a81548173ffffffffffffffffffffffffffffffffffffffff021916908373ffffffffffffffffffffffffffffffffffffffff16021790555050565b600073acd746993f60e807fbf69f646e42daeda63a4cfc73ffffffffffffffffffffffffffffffffffffffff16631851f00084846040518363ffffffff1660e01b8152600401808373ffffffffffffffffffffffffffffffffffffffff1673ffffffffffffffffffffffffffffffffffffffff1681526020018273ffffffffffffffffffffffffffffffffffffffff1673ffffffffffffffffffffffffffffffffffffffff1681526020019250505060206040518083038186803b15801561793257600080fd5b505afa158015617946573d6000803e3d6000fd5b505050506040513d602081101561795c57600080fd5b8101908080519060200190929190505050905060008111156180ed57600073acd746993f60e807fbf69f646e42daeda63a4cfc73ffffffffffffffffffffffffffffffffffffffff1663498b5ae885856040518363ffffffff1660e01b8152600401808373ffffffffffffffffffffffffffffffffffffffff1673ffffffffffffffffffffffffffffffffffffffff1681526020018273ffffffffffffffffffffffffffffffffffffffff1673ffffffffffffffffffffffffffffffffffffffff1681526020019250505060206040518083038186803b158015617a3f57600080fd5b505afa158015617a53573d6000803e3d6000fd5b505050506040513d6020811015617a6957600080fd5b81019080805190602001909291905050509050600073acd746993f60e807fbf69f646e42daeda63a4cfc73ffffffffffffffffffffffffffffffffffffffff1663b33dc19086866040518363ffffffff1660e01b8152600401808373ffffffffffffffffffffffffffffffffffffffff1673ffffffffffffffffffffffffffffffffffffffff1681526020018273ffffffffffffffffffffffffffffffffffffffff1673ffffffffffffffffffffffffffffffffffffffff1681526020019250505060206040518083038186803b158015617b4357600080fd5b505afa158015617b57573d6000803e3d6000fd5b505050506040513d6020811015617b6d57600080fd5b8101908080519060200190929190505050905073acd746993f60e807fbf69f646e42daeda63a4cfc73ffffffffffffffffffffffffffffffffffffffff16632dc445a38686866040518463ffffffff1660e01b8152600401808473ffffffffffffffffffffffffffffffffffffffff1673ffffffffffffffffffffffffffffffffffffffff1681526020018373ffffffffffffffffffffffffffffffffffffffff1673ffffffffffffffffffffffffffffffffffffffff1681526020018281526020019350505050600060405180830381600087803b158015617c4f57600080fd5b505af1158015617c63573d6000803e3d6000fd5b5050505073acd746993f60e807fbf69f646e42daeda63a4cfc73ffffffffffffffffffffffffffffffffffffffff166358bb2a4d8686856040518463ffffffff1660e01b8152600401808473ffffffffffffffffffffffffffffffffffffffff1673ffffffffffffffffffffffffffffffffffffffff1681526020018373ffffffffffffffffffffffffffffffffffffffff1673ffffffffffffffffffffffffffffffffffffffff1681526020018281526020019350505050600060405180830381600087803b158015617d3657600080fd5b505af1158015617d4a573d6000803e3d6000fd5b5050505073acd746993f60e807fbf69f646e42daeda63a4cfc73ffffffffffffffffffffffffffffffffffffffff1663a506e38c8686846040518463ffffffff1660e01b8152600401808473ffffffffffffffffffffffffffffffffffffffff1673ffffffffffffffffffffffffffffffffffffffff1681526020018373ffffffffffffffffffffffffffffffffffffffff1673ffffffffffffffffffffffffffffffffffffffff1681526020018281526020019350505050600060405180830381600087803b158015617e1d57600080fd5b505af1158015617e31573d6000803e3d6000fd5b5050505073acd746993f60e807fbf69f646e42daeda63a4cfc73ffffffffffffffffffffffffffffffffffffffff16632dc445a38633866040518463ffffffff1660e01b8152600401808473ffffffffffffffffffffffffffffffffffffffff1673ffffffffffffffffffffffffffffffffffffffff1681526020018373ffffffffffffffffffffffffffffffffffffffff1673ffffffffffffffffffffffffffffffffffffffff1681526020018281526020019350505050600060405180830381600087803b158015617f0457600080fd5b505af1158015617f18573d6000803e3d6000fd5b5050505073acd746993f60e807fbf69f646e42daeda63a4cfc73ffffffffffffffffffffffffffffffffffffffff16638cad6e778633856040518463ffffffff1660e01b8152600401808473ffffffffffffffffffffffffffffffffffffffff1673ffffffffffffffffffffffffffffffffffffffff1681526020018373ffffffffffffffffffffffffffffffffffffffff1673ffffffffffffffffffffffffffffffffffffffff1681526020018281526020019350505050600060405180830381600087803b158015617feb57600080fd5b505af1158015617fff573d6000803e3d6000fd5b5050505073acd746993f60e807fbf69f646e42daeda63a4cfc73ffffffffffffffffffffffffffffffffffffffff16632eaed1018633846040518463ffffffff1660e01b8152600401808473ffffffffffffffffffffffffffffffffffffffff1673ffffffffffffffffffffffffffffffffffffffff1681526020018373ffffffffffffffffffffffffffffffffffffffff1673ffffffffffffffffffffffffffffffffffffffff1681526020018281526020019350505050600060405180830381600087803b1580156180d257600080fd5b505af11580156180e6573d6000803e3d6000fd5b5050505050505b505050565b6181118273ffffffffffffffffffffffffffffffffffffffff166184c3565b618183576040517f08c379a000000000000000000000000000000000000000000000000000000000815260040180806020018281038252601f8152602001807f5361666545524332303a2063616c6c20746f206e6f6e2d636f6e74726163740081525060200191505060405180910390fd5b600060608373ffffffffffffffffffffffffffffffffffffffff16836040518082805190602001908083835b602083106181d257805182526020820191506020810190506020830392506181af565b6001836020036101000a0380198251168184511680821785525050505050509050019150506000604051808303816000865af19150503d8060008114618234576040519150601f19603f3d011682016040523d82523d6000602084013e618239565b606091505b5091509150816182b1576040517f08c379a00000000000000000000000000000000000000000000000000000000081526004018080602001828103825260208152602001807f5361666545524332303a206c6f772d6c6576656c2063616c6c206661696c656481525060200191505060405180910390fd5b600081511115618337578080602001905160208110156182d057600080fd5b8101908080519060200190929190505050618336576040517f08c379a000000000000000000000000000000000000000000000000000000000815260040180806020018281038252602a81526020018061859a602a913960400191505060405180910390fd5b5b50505050565b600080831182906183e9576040517f08c379a00000000000000000000000000000000000000000000000000000000081526004018080602001828103825283818151815260200191508051906020019080838360005b838110156183ae578082015181840152602081019050618393565b50505050905090810190601f1680156183db5780820380516001836020036101000a031916815260200191505b509250505060405180910390fd5b5060008385816183f557fe5b049050809150509392505050565b60008383111582906184b0576040517f08c379a00000000000000000000000000000000000000000000000000000000081526004018080602001828103825283818151815260200191508051906020019080838360005b8381101561847557808201518184015260208101905061845a565b50505050905090810190601f1680156184a25780820380516001836020036101000a031916815260200191505b509250505060405180910390fd5b5060008385039050809150509392505050565b60008060007fc5d2460186f7233c927e7db2dcc703c0e500b653ca82273b7bfad8045d85a47060001b9050833f91506000801b82141580156185055750808214155b9250505091905056fe6974726164653a20696e76616c6964206c6576657261676520706172616d657465724f776e61626c653a206e6577206f776e657220697320746865207a65726f20616464726573736974726164653a206f75747374616e64696e67206465627420746f20736574746c65536166654d6174683a206d756c7469706c69636174696f6e206f766572666c6f775361666545524332303a204552433230206f7065726174696f6e20646964206e6f7420737563636565645361666545524332303a20617070726f76652066726f6d206e6f6e2d7a65726f20746f206e6f6e2d7a65726f20616c6c6f77616e6365a265627a7a72315820c60a436f9e177ec8d9722e4c8c211a0f2ccaaecdabdeb2e6f3ca89e707b7a2e564736f6c634300050c00325361666545524332303a204552433230206f7065726174696f6e20646964206e6f7420737563636565645361666545524332303a20617070726f76652066726f6d206e6f6e2d7a65726f20746f206e6f6e2d7a65726f20616c6c6f77616e6365",
  "source": "pragma solidity ^0.5.0;\n\ninterface IERC20 {\n    function totalSupply() external view returns (uint256);\n    function balanceOf(address account) external view returns (uint256);\n    function transfer(address recipient, uint256 amount) external returns (bool);\n    function allowance(address owner, address spender) external view returns (uint256);\n    function approve(address spender, uint256 amount) external returns (bool);\n    function transferFrom(address sender, address recipient, uint256 amount) external returns (bool);\n    event Transfer(address indexed from, address indexed to, uint256 value);\n    event Approval(address indexed owner, address indexed spender, uint256 value);\n}\n\ncontract Context {\n    constructor () internal { }\n    // solhint-disable-previous-line no-empty-blocks\n\n    function _msgSender() internal view returns (address payable) {\n        return msg.sender;\n    }\n\n    function _msgData() internal view returns (bytes memory) {\n        this; // silence state mutability warning without generating bytecode - see https://github.com/ethereum/solidity/issues/2691\n        return msg.data;\n    }\n}\n\ncontract Ownable is Context {\n    address private _owner;\n\n    event OwnershipTransferred(address indexed previousOwner, address indexed newOwner);\n    constructor () internal {\n        _owner = _msgSender();\n        emit OwnershipTransferred(address(0), _owner);\n    }\n    function owner() public view returns (address) {\n        return _owner;\n    }\n    modifier onlyOwner() {\n        require(isOwner(), \"Ownable: caller is not the owner\");\n        _;\n    }\n    function isOwner() public view returns (bool) {\n        return _msgSender() == _owner;\n    }\n    function renounceOwnership() public onlyOwner {\n        emit OwnershipTransferred(_owner, address(0));\n        _owner = address(0);\n    }\n    function transferOwnership(address newOwner) public onlyOwner {\n        _transferOwnership(newOwner);\n    }\n    function _transferOwnership(address newOwner) internal {\n        require(newOwner != address(0), \"Ownable: new owner is the zero address\");\n        emit OwnershipTransferred(_owner, newOwner);\n        _owner = newOwner;\n    }\n}\n\ncontract ReentrancyGuard {\n    uint256 private _guardCounter;\n\n    constructor () internal {\n        _guardCounter = 1;\n    }\n\n    modifier nonReentrant() {\n        _guardCounter += 1;\n        uint256 localCounter = _guardCounter;\n        _;\n        require(localCounter == _guardCounter, \"ReentrancyGuard: reentrant call\");\n    }\n}\n\nlibrary SafeMath {\n    function add(uint256 a, uint256 b) internal pure returns (uint256) {\n        uint256 c = a + b;\n        require(c >= a, \"SafeMath: addition overflow\");\n\n        return c;\n    }\n    function sub(uint256 a, uint256 b) internal pure returns (uint256) {\n        return sub(a, b, \"SafeMath: subtraction overflow\");\n    }\n    function sub(uint256 a, uint256 b, string memory errorMessage) internal pure returns (uint256) {\n        require(b <= a, errorMessage);\n        uint256 c = a - b;\n\n        return c;\n    }\n    function mul(uint256 a, uint256 b) internal pure returns (uint256) {\n        if (a == 0) {\n            return 0;\n        }\n\n        uint256 c = a * b;\n        require(c / a == b, \"SafeMath: multiplication overflow\");\n\n        return c;\n    }\n    function div(uint256 a, uint256 b) internal pure returns (uint256) {\n        return div(a, b, \"SafeMath: division by zero\");\n    }\n    function div(uint256 a, uint256 b, string memory errorMessage) internal pure returns (uint256) {\n        // Solidity only automatically asserts when dividing by 0\n        require(b > 0, errorMessage);\n        uint256 c = a / b;\n\n        return c;\n    }\n    function mod(uint256 a, uint256 b) internal pure returns (uint256) {\n        return mod(a, b, \"SafeMath: modulo by zero\");\n    }\n    function mod(uint256 a, uint256 b, string memory errorMessage) internal pure returns (uint256) {\n        require(b != 0, errorMessage);\n        return a % b;\n    }\n}\n\nlibrary Address {\n    function isContract(address account) internal view returns (bool) {\n        bytes32 codehash;\n        bytes32 accountHash = 0xc5d2460186f7233c927e7db2dcc703c0e500b653ca82273b7bfad8045d85a470;\n        // solhint-disable-next-line no-inline-assembly\n        assembly { codehash := extcodehash(account) }\n        return (codehash != 0x0 && codehash != accountHash);\n    }\n    function toPayable(address account) internal pure returns (address payable) {\n        return address(uint160(account));\n    }\n    function sendValue(address payable recipient, uint256 amount) internal {\n        require(address(this).balance >= amount, \"Address: insufficient balance\");\n\n        // solhint-disable-next-line avoid-call-value\n        (bool success, ) = recipient.call.value(amount)(\"\");\n        require(success, \"Address: unable to send value, recipient may have reverted\");\n    }\n}\n\nlibrary SafeERC20 {\n    using SafeMath for uint256;\n    using Address for address;\n\n    function safeTransfer(IERC20 token, address to, uint256 value) internal {\n        callOptionalReturn(token, abi.encodeWithSelector(token.transfer.selector, to, value));\n    }\n\n    function safeTransferFrom(IERC20 token, address from, address to, uint256 value) internal {\n        callOptionalReturn(token, abi.encodeWithSelector(token.transferFrom.selector, from, to, value));\n    }\n\n    function safeApprove(IERC20 token, address spender, uint256 value) internal {\n        require((value == 0) || (token.allowance(address(this), spender) == 0),\n            \"SafeERC20: approve from non-zero to non-zero allowance\"\n        );\n        callOptionalReturn(token, abi.encodeWithSelector(token.approve.selector, spender, value));\n    }\n\n    function safeIncreaseAllowance(IERC20 token, address spender, uint256 value) internal {\n        uint256 newAllowance = token.allowance(address(this), spender).add(value);\n        callOptionalReturn(token, abi.encodeWithSelector(token.approve.selector, spender, newAllowance));\n    }\n\n    function safeDecreaseAllowance(IERC20 token, address spender, uint256 value) internal {\n        uint256 newAllowance = token.allowance(address(this), spender).sub(value, \"SafeERC20: decreased allowance below zero\");\n        callOptionalReturn(token, abi.encodeWithSelector(token.approve.selector, spender, newAllowance));\n    }\n    function callOptionalReturn(IERC20 token, bytes memory data) private {\n        require(address(token).isContract(), \"SafeERC20: call to non-contract\");\n\n        // solhint-disable-next-line avoid-low-level-calls\n        (bool success, bytes memory returndata) = address(token).call(data);\n        require(success, \"SafeERC20: low-level call failed\");\n\n        if (returndata.length > 0) { // Return data is optional\n            // solhint-disable-next-line max-line-length\n            require(abi.decode(returndata, (bool)), \"SafeERC20: ERC20 operation did not succeed\");\n        }\n    }\n}\n\ninterface ICurveFi {\n  function exchange_underlying(\n    int128 from, int128 to, uint256 _from_amount, uint256 _min_to_amount\n  ) external;\n}\n\ninterface yERC20 {\n  function deposit(uint256 _amount) external;\n  function withdraw(uint256 _amount) external;\n  function getPricePerFullShare() external view returns (uint256);\n}\n\ninterface iBorrower {\n  function borrowAave(address _reserve, uint256 _amount) external;\n  function getBorrowDebt(address _reserve) external view returns (uint256);\n  function getBorrowInterest(address _reserve) external view returns (uint256);\n  function repayAave(address _reserve, uint256 _amount) external;\n  function getYToken(address _reserve) external view returns (address);\n  function getCurveID(address _reserve) external view returns (uint8);\n  function isLeverage(uint256 leverage) external view returns (bool);\n  function isReserve(address _reserve) external view returns (bool);\n}\n\ninterface iLedger {\n  function mintDebt(address _reserve, address account, uint256 amount) external;\n  function burnDebt(address _reserve, address account, uint256 amount) external;\n  function mintPrincipal(address _reserve, address account, uint256 amount) external;\n  function burnPrincipal(address _reserve, address account, uint256 amount) external;\n  function mintPosition(address _reserve, address account, uint256 amount) external;\n  function burnPosition(address _reserve, address account, uint256 amount) external;\n  function getUserInterest(address _reserve, address _user) external view returns (uint256);\n  function getUserDebt(address _reserve, address _user) external view returns (uint256);\n  function getDebt(address _reserve, address _user) external view returns (uint256);\n  function getPosition(address _reserve, address _user) external view returns (uint256);\n  function getPrincipal(address _reserve, address _user) external view returns (uint256);\n  function getTotalDebt(address _reserve) external view returns (uint256);\n  function getTotalPosition(address _user) external view returns (uint256);\n  function getTotalPrincipal(address _user) external view returns (uint256);\n  function isSafe(address _user) external view returns (bool);\n}\n\ncontract iTrade is ReentrancyGuard, Ownable {\n  using SafeERC20 for IERC20;\n  using Address for address;\n  using SafeMath for uint256;\n\n  address public constant yCurveSwap = address(0x45F783CCE6B7FF23B2ab2D70e416cdb7D6055f51);\n\n  address public constant yDAI = address(0x16de59092dAE5CcF4A1E6439D611fd0653f0Bd01);\n  address public constant yUSDC = address(0xd6aD7a6750A7593E092a9B218d66C0A814a3436e);\n  address public constant yUSDT = address(0x83f798e925BcD4017Eb265844FDDAbb448f1707D);\n  address public constant yTUSD = address(0x73a052500105205d34Daf004eAb301916DA8190f);\n\n  address public constant DAI = address(0x6B175474E89094C44Da98b954EedeAC495271d0F);\n  address public constant USDC = address(0xA0b86991c6218b36c1d19D4a2e9Eb0cE3606eB48);\n  address public constant USDT = address(0xdAC17F958D2ee523a2206206994597C13D831ec7);\n  address public constant TUSD = address(0x0000000000085d4780B73119b644AE5ecd22b376);\n\n  iBorrower public constant collateral = iBorrower(0xaCD746993f60e807fBf69F646e42DaedA63a4CfC);\n  iLedger public constant ledger = iLedger(0xaCD746993f60e807fBf69F646e42DaedA63a4CfC);\n\n  uint256 public constant ltv = uint256(50);\n  uint256 public constant base = uint256(100);\n\n  constructor() public {\n    approveToken();\n  }\n\n  function approveToken() public {\n      IERC20(DAI).safeApprove(address(collateral), uint(-1));\n      IERC20(USDC).safeApprove(address(collateral), uint(-1));\n      IERC20(TUSD).safeApprove(address(collateral), uint(-1));\n\n      IERC20(USDT).safeApprove(address(collateral), uint(0));\n      IERC20(USDT).safeApprove(address(collateral), uint(-1));\n\n      IERC20(DAI).safeApprove(yDAI, uint(-1));\n      IERC20(USDC).safeApprove(yUSDC, uint(-1));\n      IERC20(TUSD).safeApprove(yTUSD, uint(-1));\n\n      IERC20(USDT).safeApprove(yUSDT, uint(0));\n      IERC20(USDT).safeApprove(yUSDT, uint(-1));\n\n      // Approvals for swaps\n      IERC20(DAI).safeApprove(yCurveSwap, uint(-1));\n      IERC20(USDC).safeApprove(yCurveSwap, uint(-1));\n      IERC20(TUSD).safeApprove(yCurveSwap, uint(-1));\n\n      IERC20(USDT).safeApprove(yCurveSwap, uint(0));\n      IERC20(USDT).safeApprove(yCurveSwap, uint(-1));\n  }\n\n  function addCollateral(address _reserve, address _to, uint256 _amount, uint256 _min_to_amount, uint256 leverage) external nonReentrant {\n    addCollateralWithFee(_reserve, _to, _amount, _min_to_amount, leverage, 0);\n  }\n\n  function addCollateralWithFee(address _reserve, address _to, uint256 _amount, uint256 _min_to_amount, uint256 leverage, uint256 fee) public nonReentrant {\n    require(collateral.isLeverage(leverage) == true, \"itrade: invalid leverage parameter\");\n    require(collateral.isReserve(_reserve) == true, \"itrade: invalid reserve\");\n\n    IERC20(_reserve).safeTransferFrom(msg.sender, address(this), _amount.add(fee));\n    ledger.mintPrincipal(_reserve, msg.sender, _amount);\n    yERC20(collateral.getYToken(_reserve)).deposit(_amount.add(fee));\n\n    uint256 _borrow = _amount.mul(leverage);\n    uint256 _pool = collateral.getBorrowDebt(_reserve);\n    uint256 _debt = 0;\n    if (_pool == 0) {\n      _debt = _borrow;\n    } else {\n      _debt = (_borrow.mul(ledger.getTotalDebt(_reserve))).div(_pool);\n    }\n    ledger.mintDebt(_reserve, msg.sender, _debt);\n    collateral.borrowAave(_reserve, _borrow);\n\n    uint8 _fromID = collateral.getCurveID(_reserve);\n    uint8 _toID = collateral.getCurveID(_to);\n    require(IERC20(_to).balanceOf(address(this)) == 0, \"itrade: unexpected result\");\n    ICurveFi(yCurveSwap).exchange_underlying(_fromID, _toID, _borrow, _min_to_amount);\n    uint256 _bought = IERC20(_to).balanceOf(address(this));\n    ledger.mintPosition(_to, msg.sender, _bought);\n\n    yERC20(collateral.getYToken(_to)).deposit(_bought);\n\n    require(ledger.isSafe(msg.sender) == true, \"itrade: account would liquidate\");\n  }\n\n  function withdrawCollateral(address _reserve, uint256 _amount) public nonReentrant {\n      require(collateral.isReserve(_reserve) == true, \"itrade: invalid reserve\");\n      require(ledger.getUserDebt(_reserve, msg.sender) == 0, \"itrade: outstanding debt to settle\");\n\n      require(_amount <= ledger.getPrincipal(_reserve, msg.sender), \"itrade: insufficient balance\");\n      require(IERC20(_reserve).balanceOf(address(this)) == 0, \"itrade: unexpected result\");\n\n      uint256 _price = yERC20(collateral.getYToken(_reserve)).getPricePerFullShare();\n      uint256 _ytoken = _amount.mul(1e18).div(_price);\n      yERC20(collateral.getYToken(_reserve)).withdraw(_ytoken);\n\n      require(IERC20(_reserve).balanceOf(address(this)) >= _amount, \"itrade: unexpected result\");\n      ledger.burnPrincipal(_reserve, msg.sender, _amount);\n\n      IERC20(_reserve).safeTransfer(msg.sender, _amount);\n\n      // Cleanup dust (if any)\n      if (IERC20(_reserve).balanceOf(address(this)) > 0) {\n        yERC20(collateral.getYToken(_reserve)).deposit(IERC20(_reserve).balanceOf(address(this)));\n      }\n\n      require(ledger.isSafe(msg.sender) == true, \"itrade: account would liquidate\");\n  }\n\n  function repayDebtFor(address _reserve, address _user, uint256 _amount) public nonReentrant {\n    require(collateral.isReserve(_reserve) == true, \"itrade: invalid reserve\");\n\n    uint256 debt = ledger.getUserDebt(_reserve, _user);\n\n    if (_amount > debt) {\n      _amount = debt;\n    }\n\n    IERC20(_reserve).safeTransferFrom(msg.sender, address(this), _amount);\n    uint256 shares = ledger.getDebt(_reserve, _user).mul(_amount).div(debt);\n    collateral.repayAave(_reserve, _amount);\n    ledger.burnDebt(_reserve, _user, shares);\n\n    require(ledger.isSafe(msg.sender) == true, \"itrade: account would liquidate\");\n  }\n\n  function repayDebt(address _reserve, uint256 _amount) public nonReentrant {\n      repayDebtFor(_reserve, msg.sender, _amount);\n  }\n\n  function exit(address _reserve) external nonReentrant {\n      closePosition(_reserve, ledger.getPosition(_reserve,msg.sender));\n      settle(_reserve);\n      withdrawCollateral(_reserve, ledger.getPrincipal(_reserve,msg.sender));\n\n      require(ledger.isSafe(msg.sender) == true, \"itrade: account would liquidate\");\n  }\n\n  function settle(address _reserve) public nonReentrant {\n      require(collateral.isReserve(_reserve) == true, \"itrade: invalid reserve\");\n\n      // TODO: Add in clean principal if any for reserve\n      uint256 _debt = ledger.getUserDebt(_reserve, msg.sender);\n      if (_debt > 0) {\n        IERC20(_reserve).safeTransferFrom(msg.sender, address(this), _debt);\n        collateral.repayAave(_reserve, _debt);\n        ledger.burnDebt(_reserve, msg.sender, ledger.getDebt(_reserve,msg.sender));\n      }\n\n      require(ledger.isSafe(msg.sender) == true, \"itrade: account would liquidate\");\n  }\n\n  function tradePosition(address _reserve, address _to, uint256 _amount, uint256 _min_to_amount) external nonReentrant {\n      require(collateral.isReserve(_reserve) == true, \"itrade: invalid reserve\");\n      require(_amount <= ledger.getPosition(_reserve, msg.sender), \"itrade: insufficient balance\");\n      require(IERC20(_reserve).balanceOf(address(this)) == 0, \"itrade: unexpected result\");\n\n      uint256 _price = yERC20(collateral.getYToken(_reserve)).getPricePerFullShare();\n      uint256 _ytoken = _amount.mul(1e18).div(_price).add(1);\n      yERC20(collateral.getYToken(_reserve)).withdraw(_ytoken);\n\n      require(IERC20(_reserve).balanceOf(address(this)) >= _amount, \"itrade: unexpected result\");\n      require(IERC20(_to).balanceOf(address(this)) == 0, \"itrade: unexpected result\");\n\n      uint8 _fromID = collateral.getCurveID(_reserve);\n      uint8 _toID = collateral.getCurveID(_to);\n\n      ICurveFi(yCurveSwap).exchange_underlying(_fromID, _toID, _amount, _min_to_amount);\n      ledger.burnPosition(_reserve, msg.sender, _amount);\n      uint256 _bought = IERC20(_to).balanceOf(address(this));\n      ledger.mintPosition(_to, msg.sender, _bought);\n      yERC20(collateral.getYToken(_to)).deposit(_bought);\n\n      // Cleanup dust (if any)\n      if (IERC20(_reserve).balanceOf(address(this)) > 0) {\n        yERC20(collateral.getYToken(_reserve)).deposit(IERC20(_reserve).balanceOf(address(this)));\n      }\n\n      require(ledger.isSafe(msg.sender) == true, \"itrade: account would liquidate\");\n  }\n\n  function closePosition(address _reserve, uint256 _amount) public nonReentrant {\n      require(collateral.isReserve(_reserve) == true, \"itrade: invalid reserve\");\n      require(_amount <= ledger.getPosition(_reserve,msg.sender), \"itrade: insufficient balance\");\n      require(IERC20(_reserve).balanceOf(address(this)) == 0, \"itrade: unexpected result\");\n\n      uint256 debt = ledger.getUserDebt(_reserve, msg.sender);\n      uint256 ret = 0;\n\n      if (_amount > debt) {\n        ret = _amount.sub(debt);\n        _amount = debt;\n      }\n\n      uint256 _price = yERC20(collateral.getYToken(_reserve)).getPricePerFullShare();\n      uint256 _ytoken = _amount.mul(1e18).div(_price).add(1);\n      yERC20(collateral.getYToken(_reserve)).withdraw(_ytoken);\n\n      if (debt > 0) {\n        uint256 shares = ledger.getDebt(_reserve,msg.sender).mul(_amount).div(debt);\n        collateral.repayAave(_reserve, _amount);\n        ledger.burnDebt(_reserve, msg.sender, shares);\n      }\n\n      // Profits from trade\n      if (ret > 0) {\n        IERC20(_reserve).safeTransfer(msg.sender, ret);\n      }\n\n      ledger.burnPosition(_reserve, msg.sender, _amount);\n\n      // Cleanup dust (if any)\n      if (IERC20(_reserve).balanceOf(address(this)) > 0) {\n        yERC20(collateral.getYToken(_reserve)).deposit(IERC20(_reserve).balanceOf(address(this)));\n      }\n\n      require(ledger.isSafe(msg.sender) == true, \"itrade: account would liquidate\");\n  }\n\n  function seize(address _user) external nonReentrant {\n      require(ledger.isSafe(_user) == false, \"itrade: account is safe\");\n\n      _seizeReserve(DAI, _user);\n      _seizeReserve(USDC, _user);\n      _seizeReserve(USDT, _user);\n\n      require(ledger.isSafe(msg.sender) == true, \"itrade: account would liquidate\");\n      require(ledger.isSafe(_user) == true, \"itrade: account would liquidate\");\n  }\n\n  function _seizeReserve(address _reserve, address _user) internal {\n      uint256 _principal = ledger.getPrincipal(_reserve,_user);\n      if (_principal > 0) {\n        uint256 _debt = ledger.getDebt(_reserve,_user);\n        uint256 _position = ledger.getPosition(_reserve,_user);\n\n        ledger.mintPrincipal(_reserve, _user, _principal);\n        ledger.burnDebt(_reserve, _user, _debt);\n        ledger.burnPosition(_reserve, _user, _position);\n\n        ledger.mintPrincipal(_reserve, msg.sender, _principal);\n        ledger.mintDebt(_reserve, msg.sender, _debt);\n        ledger.mintPosition(_reserve, msg.sender, _position);\n      }\n  }\n\n  // incase of half-way error\n  function inCaseTokenGetsStuck(IERC20 _TokenAddress) onlyOwner public {\n      uint qty = _TokenAddress.balanceOf(address(this));\n      _TokenAddress.safeTransfer(msg.sender, qty);\n  }\n  // incase of half-way error\n  function inCaseETHGetsStuck() onlyOwner public{\n      (bool result, ) = msg.sender.call.value(address(this).balance)(\"\");\n      require(result, \"transfer of ETH failed\");\n  }\n}\n",
  "sourcePath": "D:/ftm/itrade/contracts/iTrade.sol",
  "compiler": {
    "name": "solc",
    "version": "0.5.12+commit.7709ece9.Emscripten.clang"
  },
  "schemaVersion": "3.0.19",
  "updatedAt": "2020-03-07T14:58:00.572Z",
  "devdoc": {
    "methods": {}
  },
  "userdoc": {
    "methods": {}
  }
}