{
  "contractName": "iTrade",
  "abi": [
    {
      "inputs": [],
      "payable": false,
      "stateMutability": "nonpayable",
      "type": "constructor"
    },
    {
      "anonymous": false,
      "inputs": [
        {
          "indexed": true,
          "internalType": "address",
          "name": "previousOwner",
          "type": "address"
        },
        {
          "indexed": true,
          "internalType": "address",
          "name": "newOwner",
          "type": "address"
        }
      ],
      "name": "OwnershipTransferred",
      "type": "event"
    },
    {
      "constant": true,
      "inputs": [],
      "name": "DAI",
      "outputs": [
        {
          "internalType": "address",
          "name": "",
          "type": "address"
        }
      ],
      "payable": false,
      "stateMutability": "view",
      "type": "function"
    },
    {
      "constant": true,
      "inputs": [],
      "name": "TUSD",
      "outputs": [
        {
          "internalType": "address",
          "name": "",
          "type": "address"
        }
      ],
      "payable": false,
      "stateMutability": "view",
      "type": "function"
    },
    {
      "constant": true,
      "inputs": [],
      "name": "USDC",
      "outputs": [
        {
          "internalType": "address",
          "name": "",
          "type": "address"
        }
      ],
      "payable": false,
      "stateMutability": "view",
      "type": "function"
    },
    {
      "constant": true,
      "inputs": [],
      "name": "USDT",
      "outputs": [
        {
          "internalType": "address",
          "name": "",
          "type": "address"
        }
      ],
      "payable": false,
      "stateMutability": "view",
      "type": "function"
    },
    {
      "constant": true,
      "inputs": [],
      "name": "base",
      "outputs": [
        {
          "internalType": "uint256",
          "name": "",
          "type": "uint256"
        }
      ],
      "payable": false,
      "stateMutability": "view",
      "type": "function"
    },
    {
      "constant": true,
      "inputs": [],
      "name": "collateral",
      "outputs": [
        {
          "internalType": "address",
          "name": "",
          "type": "address"
        }
      ],
      "payable": false,
      "stateMutability": "view",
      "type": "function"
    },
    {
      "constant": true,
      "inputs": [
        {
          "internalType": "address",
          "name": "",
          "type": "address"
        },
        {
          "internalType": "address",
          "name": "",
          "type": "address"
        }
      ],
      "name": "debts",
      "outputs": [
        {
          "internalType": "uint256",
          "name": "",
          "type": "uint256"
        }
      ],
      "payable": false,
      "stateMutability": "view",
      "type": "function"
    },
    {
      "constant": true,
      "inputs": [
        {
          "internalType": "address",
          "name": "",
          "type": "address"
        }
      ],
      "name": "debtsTotalSupply",
      "outputs": [
        {
          "internalType": "uint256",
          "name": "",
          "type": "uint256"
        }
      ],
      "payable": false,
      "stateMutability": "view",
      "type": "function"
    },
    {
      "constant": true,
      "inputs": [],
      "name": "isOwner",
      "outputs": [
        {
          "internalType": "bool",
          "name": "",
          "type": "bool"
        }
      ],
      "payable": false,
      "stateMutability": "view",
      "type": "function"
    },
    {
      "constant": true,
      "inputs": [],
      "name": "ltv",
      "outputs": [
        {
          "internalType": "uint256",
          "name": "",
          "type": "uint256"
        }
      ],
      "payable": false,
      "stateMutability": "view",
      "type": "function"
    },
    {
      "constant": true,
      "inputs": [],
      "name": "owner",
      "outputs": [
        {
          "internalType": "address",
          "name": "",
          "type": "address"
        }
      ],
      "payable": false,
      "stateMutability": "view",
      "type": "function"
    },
    {
      "constant": true,
      "inputs": [
        {
          "internalType": "address",
          "name": "",
          "type": "address"
        },
        {
          "internalType": "address",
          "name": "",
          "type": "address"
        }
      ],
      "name": "positions",
      "outputs": [
        {
          "internalType": "uint256",
          "name": "",
          "type": "uint256"
        }
      ],
      "payable": false,
      "stateMutability": "view",
      "type": "function"
    },
    {
      "constant": true,
      "inputs": [
        {
          "internalType": "address",
          "name": "",
          "type": "address"
        },
        {
          "internalType": "address",
          "name": "",
          "type": "address"
        }
      ],
      "name": "principals",
      "outputs": [
        {
          "internalType": "uint256",
          "name": "",
          "type": "uint256"
        }
      ],
      "payable": false,
      "stateMutability": "view",
      "type": "function"
    },
    {
      "constant": false,
      "inputs": [],
      "name": "renounceOwnership",
      "outputs": [],
      "payable": false,
      "stateMutability": "nonpayable",
      "type": "function"
    },
    {
      "constant": true,
      "inputs": [
        {
          "internalType": "address",
          "name": "",
          "type": "address"
        }
      ],
      "name": "totalDebts",
      "outputs": [
        {
          "internalType": "uint256",
          "name": "",
          "type": "uint256"
        }
      ],
      "payable": false,
      "stateMutability": "view",
      "type": "function"
    },
    {
      "constant": true,
      "inputs": [
        {
          "internalType": "address",
          "name": "",
          "type": "address"
        }
      ],
      "name": "totalPositions",
      "outputs": [
        {
          "internalType": "uint256",
          "name": "",
          "type": "uint256"
        }
      ],
      "payable": false,
      "stateMutability": "view",
      "type": "function"
    },
    {
      "constant": false,
      "inputs": [
        {
          "internalType": "address",
          "name": "newOwner",
          "type": "address"
        }
      ],
      "name": "transferOwnership",
      "outputs": [],
      "payable": false,
      "stateMutability": "nonpayable",
      "type": "function"
    },
    {
      "constant": true,
      "inputs": [],
      "name": "yCurveSwap",
      "outputs": [
        {
          "internalType": "address",
          "name": "",
          "type": "address"
        }
      ],
      "payable": false,
      "stateMutability": "view",
      "type": "function"
    },
    {
      "constant": true,
      "inputs": [],
      "name": "yDAI",
      "outputs": [
        {
          "internalType": "address",
          "name": "",
          "type": "address"
        }
      ],
      "payable": false,
      "stateMutability": "view",
      "type": "function"
    },
    {
      "constant": true,
      "inputs": [],
      "name": "yTUSD",
      "outputs": [
        {
          "internalType": "address",
          "name": "",
          "type": "address"
        }
      ],
      "payable": false,
      "stateMutability": "view",
      "type": "function"
    },
    {
      "constant": true,
      "inputs": [],
      "name": "yUSDC",
      "outputs": [
        {
          "internalType": "address",
          "name": "",
          "type": "address"
        }
      ],
      "payable": false,
      "stateMutability": "view",
      "type": "function"
    },
    {
      "constant": true,
      "inputs": [],
      "name": "yUSDT",
      "outputs": [
        {
          "internalType": "address",
          "name": "",
          "type": "address"
        }
      ],
      "payable": false,
      "stateMutability": "view",
      "type": "function"
    },
    {
      "constant": false,
      "inputs": [],
      "name": "approveToken",
      "outputs": [],
      "payable": false,
      "stateMutability": "nonpayable",
      "type": "function"
    },
    {
      "constant": false,
      "inputs": [
        {
          "internalType": "address",
          "name": "_reserve",
          "type": "address"
        },
        {
          "internalType": "address",
          "name": "_to",
          "type": "address"
        },
        {
          "internalType": "uint256",
          "name": "_amount",
          "type": "uint256"
        },
        {
          "internalType": "uint256",
          "name": "_min_to_amount",
          "type": "uint256"
        },
        {
          "internalType": "uint256",
          "name": "leverage",
          "type": "uint256"
        }
      ],
      "name": "addCollateral",
      "outputs": [],
      "payable": false,
      "stateMutability": "nonpayable",
      "type": "function"
    },
    {
      "constant": false,
      "inputs": [
        {
          "internalType": "address",
          "name": "_reserve",
          "type": "address"
        },
        {
          "internalType": "uint256",
          "name": "_amount",
          "type": "uint256"
        }
      ],
      "name": "withdrawCollateral",
      "outputs": [],
      "payable": false,
      "stateMutability": "nonpayable",
      "type": "function"
    },
    {
      "constant": false,
      "inputs": [
        {
          "internalType": "address",
          "name": "_reserve",
          "type": "address"
        },
        {
          "internalType": "uint256",
          "name": "_amount",
          "type": "uint256"
        }
      ],
      "name": "repayDebt",
      "outputs": [],
      "payable": false,
      "stateMutability": "nonpayable",
      "type": "function"
    },
    {
      "constant": false,
      "inputs": [
        {
          "internalType": "address",
          "name": "_reserve",
          "type": "address"
        }
      ],
      "name": "settle",
      "outputs": [],
      "payable": false,
      "stateMutability": "nonpayable",
      "type": "function"
    },
    {
      "constant": false,
      "inputs": [
        {
          "internalType": "address",
          "name": "_reserve",
          "type": "address"
        },
        {
          "internalType": "address",
          "name": "_to",
          "type": "address"
        },
        {
          "internalType": "uint256",
          "name": "_amount",
          "type": "uint256"
        },
        {
          "internalType": "uint256",
          "name": "_min_to_amount",
          "type": "uint256"
        }
      ],
      "name": "tradePosition",
      "outputs": [],
      "payable": false,
      "stateMutability": "nonpayable",
      "type": "function"
    },
    {
      "constant": false,
      "inputs": [
        {
          "internalType": "address",
          "name": "_reserve",
          "type": "address"
        },
        {
          "internalType": "uint256",
          "name": "_amount",
          "type": "uint256"
        }
      ],
      "name": "closePosition",
      "outputs": [],
      "payable": false,
      "stateMutability": "nonpayable",
      "type": "function"
    },
    {
      "constant": true,
      "inputs": [
        {
          "internalType": "address",
          "name": "_reserve",
          "type": "address"
        },
        {
          "internalType": "address",
          "name": "_user",
          "type": "address"
        }
      ],
      "name": "getUserDebt",
      "outputs": [
        {
          "internalType": "uint256",
          "name": "",
          "type": "uint256"
        }
      ],
      "payable": false,
      "stateMutability": "view",
      "type": "function"
    },
    {
      "constant": true,
      "inputs": [
        {
          "internalType": "address",
          "name": "_reserve",
          "type": "address"
        },
        {
          "internalType": "address",
          "name": "_user",
          "type": "address"
        }
      ],
      "name": "getUserInterest",
      "outputs": [
        {
          "internalType": "uint256",
          "name": "",
          "type": "uint256"
        }
      ],
      "payable": false,
      "stateMutability": "view",
      "type": "function"
    },
    {
      "constant": true,
      "inputs": [
        {
          "internalType": "address",
          "name": "_reserve",
          "type": "address"
        }
      ],
      "name": "getYToken",
      "outputs": [
        {
          "internalType": "address",
          "name": "",
          "type": "address"
        }
      ],
      "payable": false,
      "stateMutability": "pure",
      "type": "function"
    },
    {
      "constant": true,
      "inputs": [
        {
          "internalType": "address",
          "name": "_reserve",
          "type": "address"
        }
      ],
      "name": "getCurveID",
      "outputs": [
        {
          "internalType": "uint8",
          "name": "",
          "type": "uint8"
        }
      ],
      "payable": false,
      "stateMutability": "pure",
      "type": "function"
    },
    {
      "constant": true,
      "inputs": [
        {
          "internalType": "address",
          "name": "_reserve",
          "type": "address"
        }
      ],
      "name": "isReserve",
      "outputs": [
        {
          "internalType": "bool",
          "name": "",
          "type": "bool"
        }
      ],
      "payable": false,
      "stateMutability": "pure",
      "type": "function"
    },
    {
      "constant": true,
      "inputs": [
        {
          "internalType": "uint256",
          "name": "leverage",
          "type": "uint256"
        }
      ],
      "name": "isLeverage",
      "outputs": [
        {
          "internalType": "bool",
          "name": "",
          "type": "bool"
        }
      ],
      "payable": false,
      "stateMutability": "pure",
      "type": "function"
    },
    {
      "constant": false,
      "inputs": [
        {
          "internalType": "contract IERC20",
          "name": "_TokenAddress",
          "type": "address"
        }
      ],
      "name": "inCaseTokenGetsStuck",
      "outputs": [],
      "payable": false,
      "stateMutability": "nonpayable",
      "type": "function"
    },
    {
      "constant": false,
      "inputs": [],
      "name": "inCaseETHGetsStuck",
      "outputs": [],
      "payable": false,
      "stateMutability": "nonpayable",
      "type": "function"
    }
  ],
  "bytecode": "0x60806040523480156200001157600080fd5b5060016000819055506200002a620000fd60201b60201c565b600160006101000a81548173ffffffffffffffffffffffffffffffffffffffff021916908373ffffffffffffffffffffffffffffffffffffffff160217905550600160009054906101000a900473ffffffffffffffffffffffffffffffffffffffff1673ffffffffffffffffffffffffffffffffffffffff16600073ffffffffffffffffffffffffffffffffffffffff167f8be0079c531659141344cd1fd0a4f28419497f9722a3daafe3b4186f6b6457e060405160405180910390a3620000f76200010560201b60201c565b62000c9d565b600033905090565b6200017f73acd746993f60e807fbf69f646e42daeda63a4cfc7fffffffffffffffffffffffffffffffffffffffffffffffffffffffffffffffff736b175474e89094c44da98b954eedeac495271d0f73ffffffffffffffffffffffffffffffffffffffff16620007c160201b62005b2a179092919060201c565b620001f973acd746993f60e807fbf69f646e42daeda63a4cfc7fffffffffffffffffffffffffffffffffffffffffffffffffffffffffffffffff73a0b86991c6218b36c1d19d4a2e9eb0ce3606eb4873ffffffffffffffffffffffffffffffffffffffff16620007c160201b62005b2a179092919060201c565b6200026e73acd746993f60e807fbf69f646e42daeda63a4cfc7fffffffffffffffffffffffffffffffffffffffffffffffffffffffffffffffff6e085d4780b73119b644ae5ecd22b37673ffffffffffffffffffffffffffffffffffffffff16620007c160201b62005b2a179092919060201c565b620002c973acd746993f60e807fbf69f646e42daeda63a4cfc600073dac17f958d2ee523a2206206994597c13d831ec773ffffffffffffffffffffffffffffffffffffffff16620007c160201b62005b2a179092919060201c565b6200034373acd746993f60e807fbf69f646e42daeda63a4cfc7fffffffffffffffffffffffffffffffffffffffffffffffffffffffffffffffff73dac17f958d2ee523a2206206994597c13d831ec773ffffffffffffffffffffffffffffffffffffffff16620007c160201b62005b2a179092919060201c565b620003bd7316de59092dae5ccf4a1e6439d611fd0653f0bd017fffffffffffffffffffffffffffffffffffffffffffffffffffffffffffffffff736b175474e89094c44da98b954eedeac495271d0f73ffffffffffffffffffffffffffffffffffffffff16620007c160201b62005b2a179092919060201c565b6200043773d6ad7a6750a7593e092a9b218d66c0a814a3436e7fffffffffffffffffffffffffffffffffffffffffffffffffffffffffffffffff73a0b86991c6218b36c1d19d4a2e9eb0ce3606eb4873ffffffffffffffffffffffffffffffffffffffff16620007c160201b62005b2a179092919060201c565b620004ac7373a052500105205d34daf004eab301916da8190f7fffffffffffffffffffffffffffffffffffffffffffffffffffffffffffffffff6e085d4780b73119b644ae5ecd22b37673ffffffffffffffffffffffffffffffffffffffff16620007c160201b62005b2a179092919060201c565b620005077383f798e925bcd4017eb265844fddabb448f1707d600073dac17f958d2ee523a2206206994597c13d831ec773ffffffffffffffffffffffffffffffffffffffff16620007c160201b62005b2a179092919060201c565b620005817383f798e925bcd4017eb265844fddabb448f1707d7fffffffffffffffffffffffffffffffffffffffffffffffffffffffffffffffff73dac17f958d2ee523a2206206994597c13d831ec773ffffffffffffffffffffffffffffffffffffffff16620007c160201b62005b2a179092919060201c565b620005fb7345f783cce6b7ff23b2ab2d70e416cdb7d6055f517fffffffffffffffffffffffffffffffffffffffffffffffffffffffffffffffff736b175474e89094c44da98b954eedeac495271d0f73ffffffffffffffffffffffffffffffffffffffff16620007c160201b62005b2a179092919060201c565b620006757345f783cce6b7ff23b2ab2d70e416cdb7d6055f517fffffffffffffffffffffffffffffffffffffffffffffffffffffffffffffffff73a0b86991c6218b36c1d19d4a2e9eb0ce3606eb4873ffffffffffffffffffffffffffffffffffffffff16620007c160201b62005b2a179092919060201c565b620006ea7345f783cce6b7ff23b2ab2d70e416cdb7d6055f517fffffffffffffffffffffffffffffffffffffffffffffffffffffffffffffffff6e085d4780b73119b644ae5ecd22b37673ffffffffffffffffffffffffffffffffffffffff16620007c160201b62005b2a179092919060201c565b620007457345f783cce6b7ff23b2ab2d70e416cdb7d6055f51600073dac17f958d2ee523a2206206994597c13d831ec773ffffffffffffffffffffffffffffffffffffffff16620007c160201b62005b2a179092919060201c565b620007bf7345f783cce6b7ff23b2ab2d70e416cdb7d6055f517fffffffffffffffffffffffffffffffffffffffffffffffffffffffffffffffff73dac17f958d2ee523a2206206994597c13d831ec773ffffffffffffffffffffffffffffffffffffffff16620007c160201b62005b2a179092919060201c565b565b6000811480620008bf575060008373ffffffffffffffffffffffffffffffffffffffff1663dd62ed3e30856040518363ffffffff1660e01b8152600401808373ffffffffffffffffffffffffffffffffffffffff1673ffffffffffffffffffffffffffffffffffffffff1681526020018273ffffffffffffffffffffffffffffffffffffffff1673ffffffffffffffffffffffffffffffffffffffff1681526020019250505060206040518083038186803b1580156200088057600080fd5b505afa15801562000895573d6000803e3d6000fd5b505050506040513d6020811015620008ac57600080fd5b8101908080519060200190929190505050145b62000916576040517f08c379a0000000000000000000000000000000000000000000000000000000008152600401808060200182810382526036815260200180620070536036913960400191505060405180910390fd5b620009ea838473ffffffffffffffffffffffffffffffffffffffff1663095ea7b3905060e01b8484604051602401808373ffffffffffffffffffffffffffffffffffffffff1673ffffffffffffffffffffffffffffffffffffffff16815260200182815260200192505050604051602081830303815290604052907bffffffffffffffffffffffffffffffffffffffffffffffffffffffff19166020820180517bffffffffffffffffffffffffffffffffffffffffffffffffffffffff8381831617835250505050620009ef60201b60201c565b505050565b62000a1b8273ffffffffffffffffffffffffffffffffffffffff1662000c5160201b620061a11760201c565b62000a8e576040517f08c379a000000000000000000000000000000000000000000000000000000000815260040180806020018281038252601f8152602001807f5361666545524332303a2063616c6c20746f206e6f6e2d636f6e74726163740081525060200191505060405180910390fd5b600060608373ffffffffffffffffffffffffffffffffffffffff16836040518082805190602001908083835b6020831062000adf578051825260208201915060208101905060208303925062000aba565b6001836020036101000a0380198251168184511680821785525050505050509050019150506000604051808303816000865af19150503d806000811462000b43576040519150601f19603f3d011682016040523d82523d6000602084013e62000b48565b606091505b50915091508162000bc1576040517f08c379a00000000000000000000000000000000000000000000000000000000081526004018080602001828103825260208152602001807f5361666545524332303a206c6f772d6c6576656c2063616c6c206661696c656481525060200191505060405180910390fd5b60008151111562000c4b5780806020019051602081101562000be257600080fd5b810190808051906020019092919050505062000c4a576040517f08c379a000000000000000000000000000000000000000000000000000000000815260040180806020018281038252602a81526020018062007029602a913960400191505060405180910390fd5b5b50505050565b60008060007fc5d2460186f7233c927e7db2dcc703c0e500b653ca82273b7bfad8045d85a47060001b9050833f91506000801b821415801562000c945750808214155b92505050919050565b61637c8062000cad6000396000f3fe608060405234801561001057600080fd5b50600436106102275760003560e01c80638323550b11610130578063c54e44eb116100b8578063e0bab4c41161007c578063e0bab4c414610c04578063e31ff1be14610c4e578063ede26bc814610c98578063f2fde38b14610d1c578063f60a15ed14610d6057610227565b8063c54e44eb14610a48578063c85fe2e714610a92578063d4e5598014610aea578063d878aa9c14610b62578063d8dfeb4514610bba57610227565b806399b71d5c116100ff57806399b71d5c146108be578063a2a00ed6146108c8578063b046106114610940578063b18cf95e146109b8578063c4c77a7914610a0257610227565b80638323550b146107be57806389a30271146108085780638da5cb5b146108525780638f32d59b1461089c57610227565b80635001f3b5116101b3578063715018a611610182578063715018a614610672578063742fe1f81461067c578063756bb1cc146106ca57806379e20bdc146107145780637a2b05871461076257610227565b80635001f3b5146105705780636a256b291461058e5780636da9a06b146105d25780636fb49d731461065457610227565b80632e8d6e18116101fa5780632e8d6e1814610376578063350c35e9146103ba578063378f74a2146104085780634ac1c33d146104805780634bd21445146104f857610227565b80631663999e1461022c57806317e5a9a41461028a57806319d9e008146102d457806323b847af1461031e575b600080fd5b61026e6004803603602081101561024257600080fd5b81019080803573ffffffffffffffffffffffffffffffffffffffff169060200190929190505050610d6a565b604051808260ff1660ff16815260200191505060405180910390f35b610292610e69565b604051808273ffffffffffffffffffffffffffffffffffffffff1673ffffffffffffffffffffffffffffffffffffffff16815260200191505060405180910390f35b6102dc610e81565b604051808273ffffffffffffffffffffffffffffffffffffffff1673ffffffffffffffffffffffffffffffffffffffff16815260200191505060405180910390f35b6103606004803603602081101561033457600080fd5b81019080803573ffffffffffffffffffffffffffffffffffffffff169060200190929190505050610e99565b6040518082815260200191505060405180910390f35b6103b86004803603602081101561038c57600080fd5b81019080803573ffffffffffffffffffffffffffffffffffffffff169060200190929190505050610eb1565b005b610406600480360360408110156103d057600080fd5b81019080803573ffffffffffffffffffffffffffffffffffffffff16906020019092919080359060200190929190505050611016565b005b61047e6004803603608081101561041e57600080fd5b81019080803573ffffffffffffffffffffffffffffffffffffffff169060200190929190803573ffffffffffffffffffffffffffffffffffffffff169060200190929190803590602001909291908035906020019092919050505061196b565b005b6104e26004803603604081101561049657600080fd5b81019080803573ffffffffffffffffffffffffffffffffffffffff169060200190929190803573ffffffffffffffffffffffffffffffffffffffff169060200190929190505050612708565b6040518082815260200191505060405180910390f35b61055a6004803603604081101561050e57600080fd5b81019080803573ffffffffffffffffffffffffffffffffffffffff169060200190929190803573ffffffffffffffffffffffffffffffffffffffff16906020019092919050505061272d565b6040518082815260200191505060405180910390f35b610578612752565b6040518082815260200191505060405180910390f35b6105d0600480360360208110156105a457600080fd5b81019080803573ffffffffffffffffffffffffffffffffffffffff169060200190929190505050612757565b005b610652600480360360a08110156105e857600080fd5b81019080803573ffffffffffffffffffffffffffffffffffffffff169060200190929190803573ffffffffffffffffffffffffffffffffffffffff169060200190929190803590602001909291908035906020019092919080359060200190929190505050612952565b005b61065c613369565b6040518082815260200191505060405180910390f35b61067a61336e565b005b6106c86004803603604081101561069257600080fd5b81019080803573ffffffffffffffffffffffffffffffffffffffff169060200190929190803590602001909291905050506134a9565b005b6106d2613e30565b604051808273ffffffffffffffffffffffffffffffffffffffff1673ffffffffffffffffffffffffffffffffffffffff16815260200191505060405180910390f35b6107606004803603604081101561072a57600080fd5b81019080803573ffffffffffffffffffffffffffffffffffffffff16906020019092919080359060200190929190505050613e48565b005b6107a46004803603602081101561077857600080fd5b81019080803573ffffffffffffffffffffffffffffffffffffffff16906020019092919050505061407a565b604051808215151515815260200191505060405180910390f35b6107c6614179565b604051808273ffffffffffffffffffffffffffffffffffffffff1673ffffffffffffffffffffffffffffffffffffffff16815260200191505060405180910390f35b61081061418c565b604051808273ffffffffffffffffffffffffffffffffffffffff1673ffffffffffffffffffffffffffffffffffffffff16815260200191505060405180910390f35b61085a6141a4565b604051808273ffffffffffffffffffffffffffffffffffffffff1673ffffffffffffffffffffffffffffffffffffffff16815260200191505060405180910390f35b6108a46141ce565b604051808215151515815260200191505060405180910390f35b6108c661422d565b005b61092a600480360360408110156108de57600080fd5b81019080803573ffffffffffffffffffffffffffffffffffffffff169060200190929190803573ffffffffffffffffffffffffffffffffffffffff169060200190929190505050614880565b6040518082815260200191505060405180910390f35b6109a26004803603604081101561095657600080fd5b81019080803573ffffffffffffffffffffffffffffffffffffffff169060200190929190803573ffffffffffffffffffffffffffffffffffffffff169060200190929190505050614a86565b6040518082815260200191505060405180910390f35b6109c0614aab565b604051808273ffffffffffffffffffffffffffffffffffffffff1673ffffffffffffffffffffffffffffffffffffffff16815260200191505060405180910390f35b610a2e60048036036020811015610a1857600080fd5b8101908080359060200190929190505050614ac3565b604051808215151515815260200191505060405180910390f35b610a50614b2f565b604051808273ffffffffffffffffffffffffffffffffffffffff1673ffffffffffffffffffffffffffffffffffffffff16815260200191505060405180910390f35b610ad460048036036020811015610aa857600080fd5b81019080803573ffffffffffffffffffffffffffffffffffffffff169060200190929190505050614b47565b6040518082815260200191505060405180910390f35b610b4c60048036036040811015610b0057600080fd5b81019080803573ffffffffffffffffffffffffffffffffffffffff169060200190929190803573ffffffffffffffffffffffffffffffffffffffff169060200190929190505050614b5f565b6040518082815260200191505060405180910390f35b610ba460048036036020811015610b7857600080fd5b81019080803573ffffffffffffffffffffffffffffffffffffffff169060200190929190505050614d65565b6040518082815260200191505060405180910390f35b610bc2614d7d565b604051808273ffffffffffffffffffffffffffffffffffffffff1673ffffffffffffffffffffffffffffffffffffffff16815260200191505060405180910390f35b610c0c614d95565b604051808273ffffffffffffffffffffffffffffffffffffffff1673ffffffffffffffffffffffffffffffffffffffff16815260200191505060405180910390f35b610c56614dad565b604051808273ffffffffffffffffffffffffffffffffffffffff1673ffffffffffffffffffffffffffffffffffffffff16815260200191505060405180910390f35b610cda60048036036020811015610cae57600080fd5b81019080803573ffffffffffffffffffffffffffffffffffffffff169060200190929190505050614dc5565b604051808273ffffffffffffffffffffffffffffffffffffffff1673ffffffffffffffffffffffffffffffffffffffff16815260200191505060405180910390f35b610d5e60048036036020811015610d3257600080fd5b81019080803573ffffffffffffffffffffffffffffffffffffffff169060200190929190505050614efd565b005b610d68614f83565b005b6000736b175474e89094c44da98b954eedeac495271d0f73ffffffffffffffffffffffffffffffffffffffff168273ffffffffffffffffffffffffffffffffffffffff161415610dbd5760009050610e64565b73a0b86991c6218b36c1d19d4a2e9eb0ce3606eb4873ffffffffffffffffffffffffffffffffffffffff168273ffffffffffffffffffffffffffffffffffffffff161415610e0e5760019050610e64565b73dac17f958d2ee523a2206206994597c13d831ec773ffffffffffffffffffffffffffffffffffffffff168273ffffffffffffffffffffffffffffffffffffffff161415610e5f5760029050610e64565b600090505b919050565b7383f798e925bcd4017eb265844fddabb448f1707d81565b73d6ad7a6750a7593e092a9b218d66c0a814a3436e81565b60066020528060005260406000206000915090505481565b610eb96141ce565b610f2b576040517f08c379a00000000000000000000000000000000000000000000000000000000081526004018080602001828103825260208152602001807f4f776e61626c653a2063616c6c6572206973206e6f7420746865206f776e657281525060200191505060405180910390fd5b60008173ffffffffffffffffffffffffffffffffffffffff166370a08231306040518263ffffffff1660e01b8152600401808273ffffffffffffffffffffffffffffffffffffffff1673ffffffffffffffffffffffffffffffffffffffff16815260200191505060206040518083038186803b158015610faa57600080fd5b505afa158015610fbe573d6000803e3d6000fd5b505050506040513d6020811015610fd457600080fd5b8101908080519060200190929190505050905061101233828473ffffffffffffffffffffffffffffffffffffffff166150f39092919063ffffffff16565b5050565b600115156110238361407a565b151514611098576040517f08c379a00000000000000000000000000000000000000000000000000000000081526004018080602001828103825260178152602001807f6974726164653a20696e76616c6964207265736572766500000000000000000081525060200191505060405180910390fd5b60006110a48333614880565b146110fa576040517f08c379a000000000000000000000000000000000000000000000000000000000815260040180806020018281038252602281526020018061625d6022913960400191505060405180910390fd5b600360008373ffffffffffffffffffffffffffffffffffffffff1673ffffffffffffffffffffffffffffffffffffffff16815260200190815260200160002060003373ffffffffffffffffffffffffffffffffffffffff1673ffffffffffffffffffffffffffffffffffffffff168152602001908152602001600020548111156111ec576040517f08c379a000000000000000000000000000000000000000000000000000000000815260040180806020018281038252601c8152602001807f6974726164653a20696e73756666696369656e742062616c616e63650000000081525060200191505060405180910390fd5b60008273ffffffffffffffffffffffffffffffffffffffff166370a08231306040518263ffffffff1660e01b8152600401808273ffffffffffffffffffffffffffffffffffffffff1673ffffffffffffffffffffffffffffffffffffffff16815260200191505060206040518083038186803b15801561126b57600080fd5b505afa15801561127f573d6000803e3d6000fd5b505050506040513d602081101561129557600080fd5b810190808051906020019092919050505014611319576040517f08c379a00000000000000000000000000000000000000000000000000000000081526004018080602001828103825260198152602001807f6974726164653a20756e657870656374656420726573756c740000000000000081525060200191505060405180910390fd5b600061132483614dc5565b73ffffffffffffffffffffffffffffffffffffffff166377c7b8fc6040518163ffffffff1660e01b815260040160206040518083038186803b15801561136957600080fd5b505afa15801561137d573d6000803e3d6000fd5b505050506040513d602081101561139357600080fd5b8101908080519060200190929190505050905060006113d5826113c7670de0b6b3a7640000866151c490919063ffffffff16565b61524a90919063ffffffff16565b90506113e084614dc5565b73ffffffffffffffffffffffffffffffffffffffff16632e1a7d4d826040518263ffffffff1660e01b815260040180828152602001915050600060405180830381600087803b15801561143257600080fd5b505af1158015611446573d6000803e3d6000fd5b50505050828473ffffffffffffffffffffffffffffffffffffffff166370a08231306040518263ffffffff1660e01b8152600401808273ffffffffffffffffffffffffffffffffffffffff1673ffffffffffffffffffffffffffffffffffffffff16815260200191505060206040518083038186803b1580156114c857600080fd5b505afa1580156114dc573d6000803e3d6000fd5b505050506040513d60208110156114f257600080fd5b81019080805190602001909291905050501015611577576040517f08c379a00000000000000000000000000000000000000000000000000000000081526004018080602001828103825260198152602001807f6974726164653a20756e657870656374656420726573756c740000000000000081525060200191505060405180910390fd5b6116208360405180606001604052806028815260200161623560289139600360008873ffffffffffffffffffffffffffffffffffffffff1673ffffffffffffffffffffffffffffffffffffffff16815260200190815260200160002060003373ffffffffffffffffffffffffffffffffffffffff1673ffffffffffffffffffffffffffffffffffffffff168152602001908152602001600020546152949092919063ffffffff16565b600360008673ffffffffffffffffffffffffffffffffffffffff1673ffffffffffffffffffffffffffffffffffffffff16815260200190815260200160002060003373ffffffffffffffffffffffffffffffffffffffff1673ffffffffffffffffffffffffffffffffffffffff1681526020019081526020016000208190555061170c8360405180606001604052806028815260200161623560289139600260003373ffffffffffffffffffffffffffffffffffffffff1673ffffffffffffffffffffffffffffffffffffffff168152602001908152602001600020546152949092919063ffffffff16565b600260003373ffffffffffffffffffffffffffffffffffffffff1673ffffffffffffffffffffffffffffffffffffffff1681526020019081526020016000208190555061177a33848673ffffffffffffffffffffffffffffffffffffffff166150f39092919063ffffffff16565b60008473ffffffffffffffffffffffffffffffffffffffff166370a08231306040518263ffffffff1660e01b8152600401808273ffffffffffffffffffffffffffffffffffffffff1673ffffffffffffffffffffffffffffffffffffffff16815260200191505060206040518083038186803b1580156117f957600080fd5b505afa15801561180d573d6000803e3d6000fd5b505050506040513d602081101561182357600080fd5b810190808051906020019092919050505011156119655761184384614dc5565b73ffffffffffffffffffffffffffffffffffffffff1663b6b55f258573ffffffffffffffffffffffffffffffffffffffff166370a08231306040518263ffffffff1660e01b8152600401808273ffffffffffffffffffffffffffffffffffffffff1673ffffffffffffffffffffffffffffffffffffffff16815260200191505060206040518083038186803b1580156118db57600080fd5b505afa1580156118ef573d6000803e3d6000fd5b505050506040513d602081101561190557600080fd5b81019080805190602001909291905050506040518263ffffffff1660e01b815260040180828152602001915050600060405180830381600087803b15801561194c57600080fd5b505af1158015611960573d6000803e3d6000fd5b505050505b50505050565b600115156119788561407a565b1515146119ed576040517f08c379a00000000000000000000000000000000000000000000000000000000081526004018080602001828103825260178152602001807f6974726164653a20696e76616c6964207265736572766500000000000000000081525060200191505060405180910390fd5b600860008573ffffffffffffffffffffffffffffffffffffffff1673ffffffffffffffffffffffffffffffffffffffff16815260200190815260200160002060003373ffffffffffffffffffffffffffffffffffffffff1673ffffffffffffffffffffffffffffffffffffffff16815260200190815260200160002054821115611adf576040517f08c379a000000000000000000000000000000000000000000000000000000000815260040180806020018281038252601c8152602001807f6974726164653a20696e73756666696369656e742062616c616e63650000000081525060200191505060405180910390fd5b60008473ffffffffffffffffffffffffffffffffffffffff166370a08231306040518263ffffffff1660e01b8152600401808273ffffffffffffffffffffffffffffffffffffffff1673ffffffffffffffffffffffffffffffffffffffff16815260200191505060206040518083038186803b158015611b5e57600080fd5b505afa158015611b72573d6000803e3d6000fd5b505050506040513d6020811015611b8857600080fd5b810190808051906020019092919050505014611c0c576040517f08c379a00000000000000000000000000000000000000000000000000000000081526004018080602001828103825260198152602001807f6974726164653a20756e657870656374656420726573756c740000000000000081525060200191505060405180910390fd5b6000611c1785614dc5565b73ffffffffffffffffffffffffffffffffffffffff166377c7b8fc6040518163ffffffff1660e01b815260040160206040518083038186803b158015611c5c57600080fd5b505afa158015611c70573d6000803e3d6000fd5b505050506040513d6020811015611c8657600080fd5b810190808051906020019092919050505090506000611cdb6001611ccd84611cbf670de0b6b3a7640000896151c490919063ffffffff16565b61524a90919063ffffffff16565b61535490919063ffffffff16565b9050611ce686614dc5565b73ffffffffffffffffffffffffffffffffffffffff16632e1a7d4d826040518263ffffffff1660e01b815260040180828152602001915050600060405180830381600087803b158015611d3857600080fd5b505af1158015611d4c573d6000803e3d6000fd5b50505050838673ffffffffffffffffffffffffffffffffffffffff166370a08231306040518263ffffffff1660e01b8152600401808273ffffffffffffffffffffffffffffffffffffffff1673ffffffffffffffffffffffffffffffffffffffff16815260200191505060206040518083038186803b158015611dce57600080fd5b505afa158015611de2573d6000803e3d6000fd5b505050506040513d6020811015611df857600080fd5b81019080805190602001909291905050501015611e7d576040517f08c379a00000000000000000000000000000000000000000000000000000000081526004018080602001828103825260198152602001807f6974726164653a20756e657870656374656420726573756c740000000000000081525060200191505060405180910390fd5b60008573ffffffffffffffffffffffffffffffffffffffff166370a08231306040518263ffffffff1660e01b8152600401808273ffffffffffffffffffffffffffffffffffffffff1673ffffffffffffffffffffffffffffffffffffffff16815260200191505060206040518083038186803b158015611efc57600080fd5b505afa158015611f10573d6000803e3d6000fd5b505050506040513d6020811015611f2657600080fd5b810190808051906020019092919050505014611faa576040517f08c379a00000000000000000000000000000000000000000000000000000000081526004018080602001828103825260198152602001807f6974726164653a20756e657870656374656420726573756c740000000000000081525060200191505060405180910390fd5b6000611fb587610d6a565b90506000611fc287610d6a565b90507345f783cce6b7ff23b2ab2d70e416cdb7d6055f5173ffffffffffffffffffffffffffffffffffffffff1663a6417ed6838389896040518563ffffffff1660e01b8152600401808560ff16600f0b81526020018460ff16600f0b8152602001838152602001828152602001945050505050600060405180830381600087803b15801561204f57600080fd5b505af1158015612063573d6000803e3d6000fd5b505050506121108660405180606001604052806027815260200161627f60279139600860008c73ffffffffffffffffffffffffffffffffffffffff1673ffffffffffffffffffffffffffffffffffffffff16815260200190815260200160002060003373ffffffffffffffffffffffffffffffffffffffff1673ffffffffffffffffffffffffffffffffffffffff168152602001908152602001600020546152949092919063ffffffff16565b600860008a73ffffffffffffffffffffffffffffffffffffffff1673ffffffffffffffffffffffffffffffffffffffff16815260200190815260200160002060003373ffffffffffffffffffffffffffffffffffffffff1673ffffffffffffffffffffffffffffffffffffffff168152602001908152602001600020819055506121fc8660405180606001604052806027815260200161627f60279139600760003373ffffffffffffffffffffffffffffffffffffffff1673ffffffffffffffffffffffffffffffffffffffff168152602001908152602001600020546152949092919063ffffffff16565b600760003373ffffffffffffffffffffffffffffffffffffffff1673ffffffffffffffffffffffffffffffffffffffff1681526020019081526020016000208190555060008773ffffffffffffffffffffffffffffffffffffffff166370a08231306040518263ffffffff1660e01b8152600401808273ffffffffffffffffffffffffffffffffffffffff1673ffffffffffffffffffffffffffffffffffffffff16815260200191505060206040518083038186803b1580156122be57600080fd5b505afa1580156122d2573d6000803e3d6000fd5b505050506040513d60208110156122e857600080fd5b8101908080519060200190929190505050905061238a81600860008b73ffffffffffffffffffffffffffffffffffffffff1673ffffffffffffffffffffffffffffffffffffffff16815260200190815260200160002060003373ffffffffffffffffffffffffffffffffffffffff1673ffffffffffffffffffffffffffffffffffffffff1681526020019081526020016000205461535490919063ffffffff16565b600860008a73ffffffffffffffffffffffffffffffffffffffff1673ffffffffffffffffffffffffffffffffffffffff16815260200190815260200160002060003373ffffffffffffffffffffffffffffffffffffffff1673ffffffffffffffffffffffffffffffffffffffff1681526020019081526020016000208190555061245c81600760003373ffffffffffffffffffffffffffffffffffffffff1673ffffffffffffffffffffffffffffffffffffffff1681526020019081526020016000205461535490919063ffffffff16565b600760003373ffffffffffffffffffffffffffffffffffffffff1673ffffffffffffffffffffffffffffffffffffffff168152602001908152602001600020819055506124a888614dc5565b73ffffffffffffffffffffffffffffffffffffffff1663b6b55f25826040518263ffffffff1660e01b815260040180828152602001915050600060405180830381600087803b1580156124fa57600080fd5b505af115801561250e573d6000803e3d6000fd5b5050505060008973ffffffffffffffffffffffffffffffffffffffff166370a08231306040518263ffffffff1660e01b8152600401808273ffffffffffffffffffffffffffffffffffffffff1673ffffffffffffffffffffffffffffffffffffffff16815260200191505060206040518083038186803b15801561259157600080fd5b505afa1580156125a5573d6000803e3d6000fd5b505050506040513d60208110156125bb57600080fd5b810190808051906020019092919050505011156126fd576125db89614dc5565b73ffffffffffffffffffffffffffffffffffffffff1663b6b55f258a73ffffffffffffffffffffffffffffffffffffffff166370a08231306040518263ffffffff1660e01b8152600401808273ffffffffffffffffffffffffffffffffffffffff1673ffffffffffffffffffffffffffffffffffffffff16815260200191505060206040518083038186803b15801561267357600080fd5b505afa158015612687573d6000803e3d6000fd5b505050506040513d602081101561269d57600080fd5b81019080805190602001909291905050506040518263ffffffff1660e01b815260040180828152602001915050600060405180830381600087803b1580156126e457600080fd5b505af11580156126f8573d6000803e3d6000fd5b505050505b505050505050505050565b6005602052816000526040600020602052806000526040600020600091509150505481565b6008602052816000526040600020602052806000526040600020600091509150505481565b606481565b600115156127648261407a565b1515146127d9576040517f08c379a00000000000000000000000000000000000000000000000000000000081526004018080602001828103825260178152602001807f6974726164653a20696e76616c6964207265736572766500000000000000000081525060200191505060405180910390fd5b60006127e58233614880565b90506128143330838573ffffffffffffffffffffffffffffffffffffffff166153dc909392919063ffffffff16565b73acd746993f60e807fbf69f646e42daeda63a4cfc73ffffffffffffffffffffffffffffffffffffffff166379f3c01483836040518363ffffffff1660e01b8152600401808373ffffffffffffffffffffffffffffffffffffffff1673ffffffffffffffffffffffffffffffffffffffff16815260200182815260200192505050600060405180830381600087803b1580156128af57600080fd5b505af11580156128c3573d6000803e3d6000fd5b5050505061294e8233600560008673ffffffffffffffffffffffffffffffffffffffff1673ffffffffffffffffffffffffffffffffffffffff16815260200190815260200160002060003373ffffffffffffffffffffffffffffffffffffffff1673ffffffffffffffffffffffffffffffffffffffff168152602001908152602001600020546154e2565b5050565b6001151561295f82614ac3565b1515146129b7576040517f08c379a00000000000000000000000000000000000000000000000000000000081526004018080602001828103825260228152602001806161ed6022913960400191505060405180910390fd5b600115156129c48661407a565b151514612a39576040517f08c379a00000000000000000000000000000000000000000000000000000000081526004018080602001828103825260178152602001807f6974726164653a20696e76616c6964207265736572766500000000000000000081525060200191505060405180910390fd5b612a663330858873ffffffffffffffffffffffffffffffffffffffff166153dc909392919063ffffffff16565b612af583600360008873ffffffffffffffffffffffffffffffffffffffff1673ffffffffffffffffffffffffffffffffffffffff16815260200190815260200160002060003373ffffffffffffffffffffffffffffffffffffffff1673ffffffffffffffffffffffffffffffffffffffff1681526020019081526020016000205461535490919063ffffffff16565b600360008773ffffffffffffffffffffffffffffffffffffffff1673ffffffffffffffffffffffffffffffffffffffff16815260200190815260200160002060003373ffffffffffffffffffffffffffffffffffffffff1673ffffffffffffffffffffffffffffffffffffffff16815260200190815260200160002081905550612bc783600260003373ffffffffffffffffffffffffffffffffffffffff1673ffffffffffffffffffffffffffffffffffffffff1681526020019081526020016000205461535490919063ffffffff16565b600260003373ffffffffffffffffffffffffffffffffffffffff1673ffffffffffffffffffffffffffffffffffffffff16815260200190815260200160002081905550612c1385614dc5565b73ffffffffffffffffffffffffffffffffffffffff1663b6b55f25846040518263ffffffff1660e01b815260040180828152602001915050600060405180830381600087803b158015612c6557600080fd5b505af1158015612c79573d6000803e3d6000fd5b505050506000612c9282856151c490919063ffffffff16565b9050600073acd746993f60e807fbf69f646e42daeda63a4cfc73ffffffffffffffffffffffffffffffffffffffff16636b2bad15886040518263ffffffff1660e01b8152600401808273ffffffffffffffffffffffffffffffffffffffff1673ffffffffffffffffffffffffffffffffffffffff16815260200191505060206040518083038186803b158015612d2757600080fd5b505afa158015612d3b573d6000803e3d6000fd5b505050506040513d6020811015612d5157600080fd5b8101908080519060200190929190505050905060008090506000821415612d7a57829050612de1565b612dde82612dd0600660008c73ffffffffffffffffffffffffffffffffffffffff1673ffffffffffffffffffffffffffffffffffffffff16815260200190815260200160002054866151c490919063ffffffff16565b61524a90919063ffffffff16565b90505b612dec8833836157f7565b73acd746993f60e807fbf69f646e42daeda63a4cfc73ffffffffffffffffffffffffffffffffffffffff166316e6b48789856040518363ffffffff1660e01b8152600401808373ffffffffffffffffffffffffffffffffffffffff1673ffffffffffffffffffffffffffffffffffffffff16815260200182815260200192505050600060405180830381600087803b158015612e8757600080fd5b505af1158015612e9b573d6000803e3d6000fd5b505050506000612eaa89610d6a565b90506000612eb789610d6a565b905060008973ffffffffffffffffffffffffffffffffffffffff166370a08231306040518263ffffffff1660e01b8152600401808273ffffffffffffffffffffffffffffffffffffffff1673ffffffffffffffffffffffffffffffffffffffff16815260200191505060206040518083038186803b158015612f3857600080fd5b505afa158015612f4c573d6000803e3d6000fd5b505050506040513d6020811015612f6257600080fd5b810190808051906020019092919050505014612fe6576040517f08c379a00000000000000000000000000000000000000000000000000000000081526004018080602001828103825260198152602001807f6974726164653a20756e657870656374656420726573756c740000000000000081525060200191505060405180910390fd5b7345f783cce6b7ff23b2ab2d70e416cdb7d6055f5173ffffffffffffffffffffffffffffffffffffffff1663a6417ed68383888b6040518563ffffffff1660e01b8152600401808560ff16600f0b81526020018460ff16600f0b8152602001838152602001828152602001945050505050600060405180830381600087803b15801561307157600080fd5b505af1158015613085573d6000803e3d6000fd5b5050505060008973ffffffffffffffffffffffffffffffffffffffff166370a08231306040518263ffffffff1660e01b8152600401808273ffffffffffffffffffffffffffffffffffffffff1673ffffffffffffffffffffffffffffffffffffffff16815260200191505060206040518083038186803b15801561310857600080fd5b505afa15801561311c573d6000803e3d6000fd5b505050506040513d602081101561313257600080fd5b810190808051906020019092919050505090506131d481600860008d73ffffffffffffffffffffffffffffffffffffffff1673ffffffffffffffffffffffffffffffffffffffff16815260200190815260200160002060003373ffffffffffffffffffffffffffffffffffffffff1673ffffffffffffffffffffffffffffffffffffffff1681526020019081526020016000205461535490919063ffffffff16565b600860008c73ffffffffffffffffffffffffffffffffffffffff1673ffffffffffffffffffffffffffffffffffffffff16815260200190815260200160002060003373ffffffffffffffffffffffffffffffffffffffff1673ffffffffffffffffffffffffffffffffffffffff168152602001908152602001600020819055506132a681600760003373ffffffffffffffffffffffffffffffffffffffff1673ffffffffffffffffffffffffffffffffffffffff1681526020019081526020016000205461535490919063ffffffff16565b600760003373ffffffffffffffffffffffffffffffffffffffff1673ffffffffffffffffffffffffffffffffffffffff168152602001908152602001600020819055506132f28a614dc5565b73ffffffffffffffffffffffffffffffffffffffff1663b6b55f25826040518263ffffffff1660e01b815260040180828152602001915050600060405180830381600087803b15801561334457600080fd5b505af1158015613358573d6000803e3d6000fd5b505050505050505050505050505050565b609681565b6133766141ce565b6133e8576040517f08c379a00000000000000000000000000000000000000000000000000000000081526004018080602001828103825260208152602001807f4f776e61626c653a2063616c6c6572206973206e6f7420746865206f776e657281525060200191505060405180910390fd5b600073ffffffffffffffffffffffffffffffffffffffff16600160009054906101000a900473ffffffffffffffffffffffffffffffffffffffff1673ffffffffffffffffffffffffffffffffffffffff167f8be0079c531659141344cd1fd0a4f28419497f9722a3daafe3b4186f6b6457e060405160405180910390a36000600160006101000a81548173ffffffffffffffffffffffffffffffffffffffff021916908373ffffffffffffffffffffffffffffffffffffffff160217905550565b600115156134b68361407a565b15151461352b576040517f08c379a00000000000000000000000000000000000000000000000000000000081526004018080602001828103825260178152602001807f6974726164653a20696e76616c6964207265736572766500000000000000000081525060200191505060405180910390fd5b600860008373ffffffffffffffffffffffffffffffffffffffff1673ffffffffffffffffffffffffffffffffffffffff16815260200190815260200160002060003373ffffffffffffffffffffffffffffffffffffffff1673ffffffffffffffffffffffffffffffffffffffff1681526020019081526020016000205481111561361d576040517f08c379a000000000000000000000000000000000000000000000000000000000815260040180806020018281038252601c8152602001807f6974726164653a20696e73756666696369656e742062616c616e63650000000081525060200191505060405180910390fd5b60008273ffffffffffffffffffffffffffffffffffffffff166370a08231306040518263ffffffff1660e01b8152600401808273ffffffffffffffffffffffffffffffffffffffff1673ffffffffffffffffffffffffffffffffffffffff16815260200191505060206040518083038186803b15801561369c57600080fd5b505afa1580156136b0573d6000803e3d6000fd5b505050506040513d60208110156136c657600080fd5b81019080805190602001909291905050501461374a576040517f08c379a00000000000000000000000000000000000000000000000000000000081526004018080602001828103825260198152602001807f6974726164653a20756e657870656374656420726573756c740000000000000081525060200191505060405180910390fd5b60006137568333614880565b905060008090508183111561377e576137788284615ad890919063ffffffff16565b90508192505b600061378985614dc5565b73ffffffffffffffffffffffffffffffffffffffff166377c7b8fc6040518163ffffffff1660e01b815260040160206040518083038186803b1580156137ce57600080fd5b505afa1580156137e2573d6000803e3d6000fd5b505050506040513d60208110156137f857600080fd5b81019080805190602001909291905050509050600061384d600161383f84613831670de0b6b3a76400008a6151c490919063ffffffff16565b61524a90919063ffffffff16565b61535490919063ffffffff16565b905061385886614dc5565b73ffffffffffffffffffffffffffffffffffffffff16632e1a7d4d826040518263ffffffff1660e01b815260040180828152602001915050600060405180830381600087803b1580156138aa57600080fd5b505af11580156138be573d6000803e3d6000fd5b505050506000841115613a3057600061396e8561396088600560008c73ffffffffffffffffffffffffffffffffffffffff1673ffffffffffffffffffffffffffffffffffffffff16815260200190815260200160002060003373ffffffffffffffffffffffffffffffffffffffff1673ffffffffffffffffffffffffffffffffffffffff168152602001908152602001600020546151c490919063ffffffff16565b61524a90919063ffffffff16565b905073acd746993f60e807fbf69f646e42daeda63a4cfc73ffffffffffffffffffffffffffffffffffffffff166379f3c01488886040518363ffffffff1660e01b8152600401808373ffffffffffffffffffffffffffffffffffffffff1673ffffffffffffffffffffffffffffffffffffffff16815260200182815260200192505050600060405180830381600087803b158015613a0b57600080fd5b505af1158015613a1f573d6000803e3d6000fd5b50505050613a2e8733836154e2565b505b6000831115613a6557613a6433848873ffffffffffffffffffffffffffffffffffffffff166150f39092919063ffffffff16565b5b613b0e8560405180606001604052806028815260200161623560289139600860008a73ffffffffffffffffffffffffffffffffffffffff1673ffffffffffffffffffffffffffffffffffffffff16815260200190815260200160002060003373ffffffffffffffffffffffffffffffffffffffff1673ffffffffffffffffffffffffffffffffffffffff168152602001908152602001600020546152949092919063ffffffff16565b600860008873ffffffffffffffffffffffffffffffffffffffff1673ffffffffffffffffffffffffffffffffffffffff16815260200190815260200160002060003373ffffffffffffffffffffffffffffffffffffffff1673ffffffffffffffffffffffffffffffffffffffff16815260200190815260200160002081905550613bfa8560405180606001604052806028815260200161623560289139600760003373ffffffffffffffffffffffffffffffffffffffff1673ffffffffffffffffffffffffffffffffffffffff168152602001908152602001600020546152949092919063ffffffff16565b600760003373ffffffffffffffffffffffffffffffffffffffff1673ffffffffffffffffffffffffffffffffffffffff1681526020019081526020016000208190555060008673ffffffffffffffffffffffffffffffffffffffff166370a08231306040518263ffffffff1660e01b8152600401808273ffffffffffffffffffffffffffffffffffffffff1673ffffffffffffffffffffffffffffffffffffffff16815260200191505060206040518083038186803b158015613cbc57600080fd5b505afa158015613cd0573d6000803e3d6000fd5b505050506040513d6020811015613ce657600080fd5b81019080805190602001909291905050501115613e2857613d0686614dc5565b73ffffffffffffffffffffffffffffffffffffffff1663b6b55f258773ffffffffffffffffffffffffffffffffffffffff166370a08231306040518263ffffffff1660e01b8152600401808273ffffffffffffffffffffffffffffffffffffffff1673ffffffffffffffffffffffffffffffffffffffff16815260200191505060206040518083038186803b158015613d9e57600080fd5b505afa158015613db2573d6000803e3d6000fd5b505050506040513d6020811015613dc857600080fd5b81019080805190602001909291905050506040518263ffffffff1660e01b815260040180828152602001915050600060405180830381600087803b158015613e0f57600080fd5b505af1158015613e23573d6000803e3d6000fd5b505050505b505050505050565b7316de59092dae5ccf4a1e6439d611fd0653f0bd0181565b60011515613e558361407a565b151514613eca576040517f08c379a00000000000000000000000000000000000000000000000000000000081526004018080602001828103825260178152602001807f6974726164653a20696e76616c6964207265736572766500000000000000000081525060200191505060405180910390fd5b6000613ed68333614880565b905080821115613ee4578091505b613f113330848673ffffffffffffffffffffffffffffffffffffffff166153dc909392919063ffffffff16565b6000613fb482613fa685600560008973ffffffffffffffffffffffffffffffffffffffff1673ffffffffffffffffffffffffffffffffffffffff16815260200190815260200160002060003373ffffffffffffffffffffffffffffffffffffffff1673ffffffffffffffffffffffffffffffffffffffff168152602001908152602001600020546151c490919063ffffffff16565b61524a90919063ffffffff16565b905073acd746993f60e807fbf69f646e42daeda63a4cfc73ffffffffffffffffffffffffffffffffffffffff166379f3c01485856040518363ffffffff1660e01b8152600401808373ffffffffffffffffffffffffffffffffffffffff1673ffffffffffffffffffffffffffffffffffffffff16815260200182815260200192505050600060405180830381600087803b15801561405157600080fd5b505af1158015614065573d6000803e3d6000fd5b505050506140748433836154e2565b50505050565b6000736b175474e89094c44da98b954eedeac495271d0f73ffffffffffffffffffffffffffffffffffffffff168273ffffffffffffffffffffffffffffffffffffffff1614156140cd5760019050614174565b73a0b86991c6218b36c1d19d4a2e9eb0ce3606eb4873ffffffffffffffffffffffffffffffffffffffff168273ffffffffffffffffffffffffffffffffffffffff16141561411e5760019050614174565b73dac17f958d2ee523a2206206994597c13d831ec773ffffffffffffffffffffffffffffffffffffffff168273ffffffffffffffffffffffffffffffffffffffff16141561416f5760019050614174565b600090505b919050565b6e085d4780b73119b644ae5ecd22b37681565b73a0b86991c6218b36c1d19d4a2e9eb0ce3606eb4881565b6000600160009054906101000a900473ffffffffffffffffffffffffffffffffffffffff16905090565b6000600160009054906101000a900473ffffffffffffffffffffffffffffffffffffffff1673ffffffffffffffffffffffffffffffffffffffff16614211615b22565b73ffffffffffffffffffffffffffffffffffffffff1614905090565b6142a073acd746993f60e807fbf69f646e42daeda63a4cfc7fffffffffffffffffffffffffffffffffffffffffffffffffffffffffffffffff736b175474e89094c44da98b954eedeac495271d0f73ffffffffffffffffffffffffffffffffffffffff16615b2a9092919063ffffffff16565b61431373acd746993f60e807fbf69f646e42daeda63a4cfc7fffffffffffffffffffffffffffffffffffffffffffffffffffffffffffffffff73a0b86991c6218b36c1d19d4a2e9eb0ce3606eb4873ffffffffffffffffffffffffffffffffffffffff16615b2a9092919063ffffffff16565b61438173acd746993f60e807fbf69f646e42daeda63a4cfc7fffffffffffffffffffffffffffffffffffffffffffffffffffffffffffffffff6e085d4780b73119b644ae5ecd22b37673ffffffffffffffffffffffffffffffffffffffff16615b2a9092919063ffffffff16565b6143d573acd746993f60e807fbf69f646e42daeda63a4cfc600073dac17f958d2ee523a2206206994597c13d831ec773ffffffffffffffffffffffffffffffffffffffff16615b2a9092919063ffffffff16565b61444873acd746993f60e807fbf69f646e42daeda63a4cfc7fffffffffffffffffffffffffffffffffffffffffffffffffffffffffffffffff73dac17f958d2ee523a2206206994597c13d831ec773ffffffffffffffffffffffffffffffffffffffff16615b2a9092919063ffffffff16565b6144bb7316de59092dae5ccf4a1e6439d611fd0653f0bd017fffffffffffffffffffffffffffffffffffffffffffffffffffffffffffffffff736b175474e89094c44da98b954eedeac495271d0f73ffffffffffffffffffffffffffffffffffffffff16615b2a9092919063ffffffff16565b61452e73d6ad7a6750a7593e092a9b218d66c0a814a3436e7fffffffffffffffffffffffffffffffffffffffffffffffffffffffffffffffff73a0b86991c6218b36c1d19d4a2e9eb0ce3606eb4873ffffffffffffffffffffffffffffffffffffffff16615b2a9092919063ffffffff16565b61459c7373a052500105205d34daf004eab301916da8190f7fffffffffffffffffffffffffffffffffffffffffffffffffffffffffffffffff6e085d4780b73119b644ae5ecd22b37673ffffffffffffffffffffffffffffffffffffffff16615b2a9092919063ffffffff16565b6145f07383f798e925bcd4017eb265844fddabb448f1707d600073dac17f958d2ee523a2206206994597c13d831ec773ffffffffffffffffffffffffffffffffffffffff16615b2a9092919063ffffffff16565b6146637383f798e925bcd4017eb265844fddabb448f1707d7fffffffffffffffffffffffffffffffffffffffffffffffffffffffffffffffff73dac17f958d2ee523a2206206994597c13d831ec773ffffffffffffffffffffffffffffffffffffffff16615b2a9092919063ffffffff16565b6146d67345f783cce6b7ff23b2ab2d70e416cdb7d6055f517fffffffffffffffffffffffffffffffffffffffffffffffffffffffffffffffff736b175474e89094c44da98b954eedeac495271d0f73ffffffffffffffffffffffffffffffffffffffff16615b2a9092919063ffffffff16565b6147497345f783cce6b7ff23b2ab2d70e416cdb7d6055f517fffffffffffffffffffffffffffffffffffffffffffffffffffffffffffffffff73a0b86991c6218b36c1d19d4a2e9eb0ce3606eb4873ffffffffffffffffffffffffffffffffffffffff16615b2a9092919063ffffffff16565b6147b77345f783cce6b7ff23b2ab2d70e416cdb7d6055f517fffffffffffffffffffffffffffffffffffffffffffffffffffffffffffffffff6e085d4780b73119b644ae5ecd22b37673ffffffffffffffffffffffffffffffffffffffff16615b2a9092919063ffffffff16565b61480b7345f783cce6b7ff23b2ab2d70e416cdb7d6055f51600073dac17f958d2ee523a2206206994597c13d831ec773ffffffffffffffffffffffffffffffffffffffff16615b2a9092919063ffffffff16565b61487e7345f783cce6b7ff23b2ab2d70e416cdb7d6055f517fffffffffffffffffffffffffffffffffffffffffffffffffffffffffffffffff73dac17f958d2ee523a2206206994597c13d831ec773ffffffffffffffffffffffffffffffffffffffff16615b2a9092919063ffffffff16565b565b600080600660008573ffffffffffffffffffffffffffffffffffffffff1673ffffffffffffffffffffffffffffffffffffffff1681526020019081526020016000205414156148d25760009050614a80565b614a7d600660008573ffffffffffffffffffffffffffffffffffffffff1673ffffffffffffffffffffffffffffffffffffffff16815260200190815260200160002054614a6f600560008773ffffffffffffffffffffffffffffffffffffffff1673ffffffffffffffffffffffffffffffffffffffff16815260200190815260200160002060008673ffffffffffffffffffffffffffffffffffffffff1673ffffffffffffffffffffffffffffffffffffffff1681526020019081526020016000205473acd746993f60e807fbf69f646e42daeda63a4cfc73ffffffffffffffffffffffffffffffffffffffff16636b2bad15886040518263ffffffff1660e01b8152600401808273ffffffffffffffffffffffffffffffffffffffff1673ffffffffffffffffffffffffffffffffffffffff16815260200191505060206040518083038186803b158015614a2657600080fd5b505afa158015614a3a573d6000803e3d6000fd5b505050506040513d6020811015614a5057600080fd5b81019080805190602001909291905050506151c490919063ffffffff16565b61524a90919063ffffffff16565b90505b92915050565b6003602052816000526040600020602052806000526040600020600091509150505481565b7345f783cce6b7ff23b2ab2d70e416cdb7d6055f5181565b60006002821480614ad45750600582145b80614adf5750600a82145b80614aea5750601982145b80614af55750603282145b80614b005750604b82145b80614b0b5750606482145b80614b1757506103e882145b15614b255760019050614b2a565b600090505b919050565b73dac17f958d2ee523a2206206994597c13d831ec781565b60046020528060005260406000206000915090505481565b600080600660008573ffffffffffffffffffffffffffffffffffffffff1673ffffffffffffffffffffffffffffffffffffffff168152602001908152602001600020541415614bb15760009050614d5f565b614d5c600660008573ffffffffffffffffffffffffffffffffffffffff1673ffffffffffffffffffffffffffffffffffffffff16815260200190815260200160002054614d4e600560008773ffffffffffffffffffffffffffffffffffffffff1673ffffffffffffffffffffffffffffffffffffffff16815260200190815260200160002060008673ffffffffffffffffffffffffffffffffffffffff1673ffffffffffffffffffffffffffffffffffffffff1681526020019081526020016000205473acd746993f60e807fbf69f646e42daeda63a4cfc73ffffffffffffffffffffffffffffffffffffffff1663e603d835886040518263ffffffff1660e01b8152600401808273ffffffffffffffffffffffffffffffffffffffff1673ffffffffffffffffffffffffffffffffffffffff16815260200191505060206040518083038186803b158015614d0557600080fd5b505afa158015614d19573d6000803e3d6000fd5b505050506040513d6020811015614d2f57600080fd5b81019080805190602001909291905050506151c490919063ffffffff16565b61524a90919063ffffffff16565b90505b92915050565b60076020528060005260406000206000915090505481565b73acd746993f60e807fbf69f646e42daeda63a4cfc81565b736b175474e89094c44da98b954eedeac495271d0f81565b7373a052500105205d34daf004eab301916da8190f81565b6000736b175474e89094c44da98b954eedeac495271d0f73ffffffffffffffffffffffffffffffffffffffff168273ffffffffffffffffffffffffffffffffffffffff161415614e2b577316de59092dae5ccf4a1e6439d611fd0653f0bd019050614ef8565b73a0b86991c6218b36c1d19d4a2e9eb0ce3606eb4873ffffffffffffffffffffffffffffffffffffffff168273ffffffffffffffffffffffffffffffffffffffff161415614e8f5773d6ad7a6750a7593e092a9b218d66c0a814a3436e9050614ef8565b73dac17f958d2ee523a2206206994597c13d831ec773ffffffffffffffffffffffffffffffffffffffff168273ffffffffffffffffffffffffffffffffffffffff161415614ef3577383f798e925bcd4017eb265844fddabb448f1707d9050614ef8565b600090505b919050565b614f056141ce565b614f77576040517f08c379a00000000000000000000000000000000000000000000000000000000081526004018080602001828103825260208152602001807f4f776e61626c653a2063616c6c6572206973206e6f7420746865206f776e657281525060200191505060405180910390fd5b614f8081615d4a565b50565b614f8b6141ce565b614ffd576040517f08c379a00000000000000000000000000000000000000000000000000000000081526004018080602001828103825260208152602001807f4f776e61626c653a2063616c6c6572206973206e6f7420746865206f776e657281525060200191505060405180910390fd5b60003373ffffffffffffffffffffffffffffffffffffffff163073ffffffffffffffffffffffffffffffffffffffff163160405180600001905060006040518083038185875af1925050503d8060008114615074576040519150601f19603f3d011682016040523d82523d6000602084013e615079565b606091505b50509050806150f0576040517f08c379a00000000000000000000000000000000000000000000000000000000081526004018080602001828103825260168152602001807f7472616e73666572206f6620455448206661696c65640000000000000000000081525060200191505060405180910390fd5b50565b6151bf838473ffffffffffffffffffffffffffffffffffffffff1663a9059cbb905060e01b8484604051602401808373ffffffffffffffffffffffffffffffffffffffff1673ffffffffffffffffffffffffffffffffffffffff16815260200182815260200192505050604051602081830303815290604052907bffffffffffffffffffffffffffffffffffffffffffffffffffffffff19166020820180517bffffffffffffffffffffffffffffffffffffffffffffffffffffffff8381831617835250505050615e90565b505050565b6000808314156151d75760009050615244565b60008284029050828482816151e857fe5b041461523f576040517f08c379a00000000000000000000000000000000000000000000000000000000081526004018080602001828103825260218152602001806162a66021913960400191505060405180910390fd5b809150505b92915050565b600061528c83836040518060400160405280601a81526020017f536166654d6174683a206469766973696f6e206279207a65726f0000000000008152506160db565b905092915050565b6000838311158290615341576040517f08c379a00000000000000000000000000000000000000000000000000000000081526004018080602001828103825283818151815260200191508051906020019080838360005b838110156153065780820151818401526020810190506152eb565b50505050905090810190601f1680156153335780820380516001836020036101000a031916815260200191505b509250505060405180910390fd5b5060008385039050809150509392505050565b6000808284019050838110156153d2576040517f08c379a000000000000000000000000000000000000000000000000000000000815260040180806020018281038252601b8152602001807f536166654d6174683a206164646974696f6e206f766572666c6f77000000000081525060200191505060405180910390fd5b8091505092915050565b6154dc848573ffffffffffffffffffffffffffffffffffffffff166323b872dd905060e01b858585604051602401808473ffffffffffffffffffffffffffffffffffffffff1673ffffffffffffffffffffffffffffffffffffffff1681526020018373ffffffffffffffffffffffffffffffffffffffff1673ffffffffffffffffffffffffffffffffffffffff1681526020018281526020019350505050604051602081830303815290604052907bffffffffffffffffffffffffffffffffffffffffffffffffffffffff19166020820180517bffffffffffffffffffffffffffffffffffffffffffffffffffffffff8381831617835250505050615e90565b50505050565b600073ffffffffffffffffffffffffffffffffffffffff168273ffffffffffffffffffffffffffffffffffffffff161415615585576040517f08c379a00000000000000000000000000000000000000000000000000000000081526004018080602001828103825260208152602001807f444542543a206275726e2066726f6d20746865207a65726f206164647265737381525060200191505060405180910390fd5b6155f1816040518060600160405280602181526020016162c760219139600460008673ffffffffffffffffffffffffffffffffffffffff1673ffffffffffffffffffffffffffffffffffffffff168152602001908152602001600020546152949092919063ffffffff16565b600460008473ffffffffffffffffffffffffffffffffffffffff1673ffffffffffffffffffffffffffffffffffffffff168152602001908152602001600020819055506156dd816040518060600160405280602181526020016162c760219139600560008773ffffffffffffffffffffffffffffffffffffffff1673ffffffffffffffffffffffffffffffffffffffff16815260200190815260200160002060008673ffffffffffffffffffffffffffffffffffffffff1673ffffffffffffffffffffffffffffffffffffffff168152602001908152602001600020546152949092919063ffffffff16565b600560008573ffffffffffffffffffffffffffffffffffffffff1673ffffffffffffffffffffffffffffffffffffffff16815260200190815260200160002060008473ffffffffffffffffffffffffffffffffffffffff1673ffffffffffffffffffffffffffffffffffffffff168152602001908152602001600020819055506157af81600660008673ffffffffffffffffffffffffffffffffffffffff1673ffffffffffffffffffffffffffffffffffffffff16815260200190815260200160002054615ad890919063ffffffff16565b600660008573ffffffffffffffffffffffffffffffffffffffff1673ffffffffffffffffffffffffffffffffffffffff16815260200190815260200160002081905550505050565b600073ffffffffffffffffffffffffffffffffffffffff168273ffffffffffffffffffffffffffffffffffffffff16141561589a576040517f08c379a000000000000000000000000000000000000000000000000000000000815260040180806020018281038252601e8152602001807f444542543a206d696e7420746f20746865207a65726f2061646472657373000081525060200191505060405180910390fd5b6158ec81600660008673ffffffffffffffffffffffffffffffffffffffff1673ffffffffffffffffffffffffffffffffffffffff1681526020019081526020016000205461535490919063ffffffff16565b600660008573ffffffffffffffffffffffffffffffffffffffff1673ffffffffffffffffffffffffffffffffffffffff168152602001908152602001600020819055506159be81600560008673ffffffffffffffffffffffffffffffffffffffff1673ffffffffffffffffffffffffffffffffffffffff16815260200190815260200160002060008573ffffffffffffffffffffffffffffffffffffffff1673ffffffffffffffffffffffffffffffffffffffff1681526020019081526020016000205461535490919063ffffffff16565b600560008573ffffffffffffffffffffffffffffffffffffffff1673ffffffffffffffffffffffffffffffffffffffff16815260200190815260200160002060008473ffffffffffffffffffffffffffffffffffffffff1673ffffffffffffffffffffffffffffffffffffffff16815260200190815260200160002081905550615a9081600460008573ffffffffffffffffffffffffffffffffffffffff1673ffffffffffffffffffffffffffffffffffffffff1681526020019081526020016000205461535490919063ffffffff16565b600460008473ffffffffffffffffffffffffffffffffffffffff1673ffffffffffffffffffffffffffffffffffffffff16815260200190815260200160002081905550505050565b6000615b1a83836040518060400160405280601e81526020017f536166654d6174683a207375627472616374696f6e206f766572666c6f770000815250615294565b905092915050565b600033905090565b6000811480615c24575060008373ffffffffffffffffffffffffffffffffffffffff1663dd62ed3e30856040518363ffffffff1660e01b8152600401808373ffffffffffffffffffffffffffffffffffffffff1673ffffffffffffffffffffffffffffffffffffffff1681526020018273ffffffffffffffffffffffffffffffffffffffff1673ffffffffffffffffffffffffffffffffffffffff1681526020019250505060206040518083038186803b158015615be757600080fd5b505afa158015615bfb573d6000803e3d6000fd5b505050506040513d6020811015615c1157600080fd5b8101908080519060200190929190505050145b615c79576040517f08c379a00000000000000000000000000000000000000000000000000000000081526004018080602001828103825260368152602001806163126036913960400191505060405180910390fd5b615d45838473ffffffffffffffffffffffffffffffffffffffff1663095ea7b3905060e01b8484604051602401808373ffffffffffffffffffffffffffffffffffffffff1673ffffffffffffffffffffffffffffffffffffffff16815260200182815260200192505050604051602081830303815290604052907bffffffffffffffffffffffffffffffffffffffffffffffffffffffff19166020820180517bffffffffffffffffffffffffffffffffffffffffffffffffffffffff8381831617835250505050615e90565b505050565b600073ffffffffffffffffffffffffffffffffffffffff168173ffffffffffffffffffffffffffffffffffffffff161415615dd0576040517f08c379a000000000000000000000000000000000000000000000000000000000815260040180806020018281038252602681526020018061620f6026913960400191505060405180910390fd5b8073ffffffffffffffffffffffffffffffffffffffff16600160009054906101000a900473ffffffffffffffffffffffffffffffffffffffff1673ffffffffffffffffffffffffffffffffffffffff167f8be0079c531659141344cd1fd0a4f28419497f9722a3daafe3b4186f6b6457e060405160405180910390a380600160006101000a81548173ffffffffffffffffffffffffffffffffffffffff021916908373ffffffffffffffffffffffffffffffffffffffff16021790555050565b615eaf8273ffffffffffffffffffffffffffffffffffffffff166161a1565b615f21576040517f08c379a000000000000000000000000000000000000000000000000000000000815260040180806020018281038252601f8152602001807f5361666545524332303a2063616c6c20746f206e6f6e2d636f6e74726163740081525060200191505060405180910390fd5b600060608373ffffffffffffffffffffffffffffffffffffffff16836040518082805190602001908083835b60208310615f705780518252602082019150602081019050602083039250615f4d565b6001836020036101000a0380198251168184511680821785525050505050509050019150506000604051808303816000865af19150503d8060008114615fd2576040519150601f19603f3d011682016040523d82523d6000602084013e615fd7565b606091505b50915091508161604f576040517f08c379a00000000000000000000000000000000000000000000000000000000081526004018080602001828103825260208152602001807f5361666545524332303a206c6f772d6c6576656c2063616c6c206661696c656481525060200191505060405180910390fd5b6000815111156160d55780806020019051602081101561606e57600080fd5b81019080805190602001909291905050506160d4576040517f08c379a000000000000000000000000000000000000000000000000000000000815260040180806020018281038252602a8152602001806162e8602a913960400191505060405180910390fd5b5b50505050565b60008083118290616187576040517f08c379a00000000000000000000000000000000000000000000000000000000081526004018080602001828103825283818151815260200191508051906020019080838360005b8381101561614c578082015181840152602081019050616131565b50505050905090810190601f1680156161795780820380516001836020036101000a031916815260200191505b509250505060405180910390fd5b50600083858161619357fe5b049050809150509392505050565b60008060007fc5d2460186f7233c927e7db2dcc703c0e500b653ca82273b7bfad8045d85a47060001b9050833f91506000801b82141580156161e35750808214155b9250505091905056fe6974726164653a20696e76616c6964206c6576657261676520706172616d657465724f776e61626c653a206e6577206f776e657220697320746865207a65726f20616464726573736974726164653a207072696e636970616c20616d6f756e7420657863656564732062616c616e63656974726164653a206f75747374616e64696e67206465627420746f20736574746c656974726164653a20706f736974696f6e20616d6f756e7420657863656564732062616c616e6365536166654d6174683a206d756c7469706c69636174696f6e206f766572666c6f77444542543a206275726e20616d6f756e7420657863656564732062616c616e63655361666545524332303a204552433230206f7065726174696f6e20646964206e6f7420737563636565645361666545524332303a20617070726f76652066726f6d206e6f6e2d7a65726f20746f206e6f6e2d7a65726f20616c6c6f77616e6365a265627a7a723158206b5259f349353dcd9cb62330d99cf40a641051ae6468e5df9716db7ed7eb5a2c64736f6c634300050c00325361666545524332303a204552433230206f7065726174696f6e20646964206e6f7420737563636565645361666545524332303a20617070726f76652066726f6d206e6f6e2d7a65726f20746f206e6f6e2d7a65726f20616c6c6f77616e6365",
  "source": "pragma solidity ^0.5.0;\n\ninterface IERC20 {\n    function totalSupply() external view returns (uint256);\n    function balanceOf(address account) external view returns (uint256);\n    function transfer(address recipient, uint256 amount) external returns (bool);\n    function allowance(address owner, address spender) external view returns (uint256);\n    function approve(address spender, uint256 amount) external returns (bool);\n    function transferFrom(address sender, address recipient, uint256 amount) external returns (bool);\n    event Transfer(address indexed from, address indexed to, uint256 value);\n    event Approval(address indexed owner, address indexed spender, uint256 value);\n}\n\ncontract Context {\n    constructor () internal { }\n    // solhint-disable-previous-line no-empty-blocks\n\n    function _msgSender() internal view returns (address payable) {\n        return msg.sender;\n    }\n\n    function _msgData() internal view returns (bytes memory) {\n        this; // silence state mutability warning without generating bytecode - see https://github.com/ethereum/solidity/issues/2691\n        return msg.data;\n    }\n}\n\ncontract Ownable is Context {\n    address private _owner;\n\n    event OwnershipTransferred(address indexed previousOwner, address indexed newOwner);\n    constructor () internal {\n        _owner = _msgSender();\n        emit OwnershipTransferred(address(0), _owner);\n    }\n    function owner() public view returns (address) {\n        return _owner;\n    }\n    modifier onlyOwner() {\n        require(isOwner(), \"Ownable: caller is not the owner\");\n        _;\n    }\n    function isOwner() public view returns (bool) {\n        return _msgSender() == _owner;\n    }\n    function renounceOwnership() public onlyOwner {\n        emit OwnershipTransferred(_owner, address(0));\n        _owner = address(0);\n    }\n    function transferOwnership(address newOwner) public onlyOwner {\n        _transferOwnership(newOwner);\n    }\n    function _transferOwnership(address newOwner) internal {\n        require(newOwner != address(0), \"Ownable: new owner is the zero address\");\n        emit OwnershipTransferred(_owner, newOwner);\n        _owner = newOwner;\n    }\n}\n\ncontract ReentrancyGuard {\n    uint256 private _guardCounter;\n\n    constructor () internal {\n        _guardCounter = 1;\n    }\n\n    modifier nonReentrant() {\n        _guardCounter += 1;\n        uint256 localCounter = _guardCounter;\n        _;\n        require(localCounter == _guardCounter, \"ReentrancyGuard: reentrant call\");\n    }\n}\n\nlibrary SafeMath {\n    function add(uint256 a, uint256 b) internal pure returns (uint256) {\n        uint256 c = a + b;\n        require(c >= a, \"SafeMath: addition overflow\");\n\n        return c;\n    }\n    function sub(uint256 a, uint256 b) internal pure returns (uint256) {\n        return sub(a, b, \"SafeMath: subtraction overflow\");\n    }\n    function sub(uint256 a, uint256 b, string memory errorMessage) internal pure returns (uint256) {\n        require(b <= a, errorMessage);\n        uint256 c = a - b;\n\n        return c;\n    }\n    function mul(uint256 a, uint256 b) internal pure returns (uint256) {\n        if (a == 0) {\n            return 0;\n        }\n\n        uint256 c = a * b;\n        require(c / a == b, \"SafeMath: multiplication overflow\");\n\n        return c;\n    }\n    function div(uint256 a, uint256 b) internal pure returns (uint256) {\n        return div(a, b, \"SafeMath: division by zero\");\n    }\n    function div(uint256 a, uint256 b, string memory errorMessage) internal pure returns (uint256) {\n        // Solidity only automatically asserts when dividing by 0\n        require(b > 0, errorMessage);\n        uint256 c = a / b;\n\n        return c;\n    }\n    function mod(uint256 a, uint256 b) internal pure returns (uint256) {\n        return mod(a, b, \"SafeMath: modulo by zero\");\n    }\n    function mod(uint256 a, uint256 b, string memory errorMessage) internal pure returns (uint256) {\n        require(b != 0, errorMessage);\n        return a % b;\n    }\n}\n\nlibrary Address {\n    function isContract(address account) internal view returns (bool) {\n        bytes32 codehash;\n        bytes32 accountHash = 0xc5d2460186f7233c927e7db2dcc703c0e500b653ca82273b7bfad8045d85a470;\n        // solhint-disable-next-line no-inline-assembly\n        assembly { codehash := extcodehash(account) }\n        return (codehash != 0x0 && codehash != accountHash);\n    }\n    function toPayable(address account) internal pure returns (address payable) {\n        return address(uint160(account));\n    }\n    function sendValue(address payable recipient, uint256 amount) internal {\n        require(address(this).balance >= amount, \"Address: insufficient balance\");\n\n        // solhint-disable-next-line avoid-call-value\n        (bool success, ) = recipient.call.value(amount)(\"\");\n        require(success, \"Address: unable to send value, recipient may have reverted\");\n    }\n}\n\nlibrary SafeERC20 {\n    using SafeMath for uint256;\n    using Address for address;\n\n    function safeTransfer(IERC20 token, address to, uint256 value) internal {\n        callOptionalReturn(token, abi.encodeWithSelector(token.transfer.selector, to, value));\n    }\n\n    function safeTransferFrom(IERC20 token, address from, address to, uint256 value) internal {\n        callOptionalReturn(token, abi.encodeWithSelector(token.transferFrom.selector, from, to, value));\n    }\n\n    function safeApprove(IERC20 token, address spender, uint256 value) internal {\n        require((value == 0) || (token.allowance(address(this), spender) == 0),\n            \"SafeERC20: approve from non-zero to non-zero allowance\"\n        );\n        callOptionalReturn(token, abi.encodeWithSelector(token.approve.selector, spender, value));\n    }\n\n    function safeIncreaseAllowance(IERC20 token, address spender, uint256 value) internal {\n        uint256 newAllowance = token.allowance(address(this), spender).add(value);\n        callOptionalReturn(token, abi.encodeWithSelector(token.approve.selector, spender, newAllowance));\n    }\n\n    function safeDecreaseAllowance(IERC20 token, address spender, uint256 value) internal {\n        uint256 newAllowance = token.allowance(address(this), spender).sub(value, \"SafeERC20: decreased allowance below zero\");\n        callOptionalReturn(token, abi.encodeWithSelector(token.approve.selector, spender, newAllowance));\n    }\n    function callOptionalReturn(IERC20 token, bytes memory data) private {\n        require(address(token).isContract(), \"SafeERC20: call to non-contract\");\n\n        // solhint-disable-next-line avoid-low-level-calls\n        (bool success, bytes memory returndata) = address(token).call(data);\n        require(success, \"SafeERC20: low-level call failed\");\n\n        if (returndata.length > 0) { // Return data is optional\n            // solhint-disable-next-line max-line-length\n            require(abi.decode(returndata, (bool)), \"SafeERC20: ERC20 operation did not succeed\");\n        }\n    }\n}\n\ninterface ICurveFi {\n  function exchange_underlying(\n    int128 from, int128 to, uint256 _from_amount, uint256 _min_to_amount\n  ) external;\n}\n\ninterface yERC20 {\n  function deposit(uint256 _amount) external;\n  function withdraw(uint256 _amount) external;\n  function getPricePerFullShare() external view returns (uint256);\n}\n\ninterface borrower {\n  function borrowAave(address _reserve, uint256 _amount) external;\n  function getBorrowDebt(address _reserve) external view returns (uint256);\n  function getBorrowInterest(address _reserve) external view returns (uint256);\n  function repayAave(address _reserve, uint256 _amount) external;\n}\n\ncontract iTrade is ReentrancyGuard, Ownable {\n  using SafeERC20 for IERC20;\n  using Address for address;\n  using SafeMath for uint256;\n\n  address public constant yCurveSwap = address(0x45F783CCE6B7FF23B2ab2D70e416cdb7D6055f51);\n\n  address public constant yDAI = address(0x16de59092dAE5CcF4A1E6439D611fd0653f0Bd01);\n  address public constant yUSDC = address(0xd6aD7a6750A7593E092a9B218d66C0A814a3436e);\n  address public constant yUSDT = address(0x83f798e925BcD4017Eb265844FDDAbb448f1707D);\n  address public constant yTUSD = address(0x73a052500105205d34Daf004eAb301916DA8190f);\n\n  address public constant DAI = address(0x6B175474E89094C44Da98b954EedeAC495271d0F);\n  address public constant USDC = address(0xA0b86991c6218b36c1d19D4a2e9Eb0cE3606eB48);\n  address public constant USDT = address(0xdAC17F958D2ee523a2206206994597C13D831ec7);\n  address public constant TUSD = address(0x0000000000085d4780B73119b644AE5ecd22b376);\n\n  address public constant collateral = address(0xaCD746993f60e807fBf69F646e42DaedA63a4CfC);\n\n  uint256 public constant ltv = uint256(150);\n  uint256 public constant base = uint256(100);\n\n  // principal deposits\n  mapping (address => uint256) totalPrincipals;\n  mapping (address => mapping (address => uint256)) public principals;\n\n  // debt shares\n  mapping (address => uint256) public totalDebts;\n  mapping (address => mapping (address => uint256)) public debts;\n  mapping (address => uint256) public debtsTotalSupply;\n\n  mapping (address => uint256) public totalPositions;\n  mapping (address => mapping (address => uint256)) public positions;\n\n  constructor() public {\n    approveToken();\n  }\n\n  function approveToken() public {\n      IERC20(DAI).safeApprove(collateral, uint(-1));\n      IERC20(USDC).safeApprove(collateral, uint(-1));\n      IERC20(TUSD).safeApprove(collateral, uint(-1));\n\n      IERC20(USDT).safeApprove(collateral, uint(0));\n      IERC20(USDT).safeApprove(collateral, uint(-1));\n\n      IERC20(DAI).safeApprove(yDAI, uint(-1));\n      IERC20(USDC).safeApprove(yUSDC, uint(-1));\n      IERC20(TUSD).safeApprove(yTUSD, uint(-1));\n\n      IERC20(USDT).safeApprove(yUSDT, uint(0));\n      IERC20(USDT).safeApprove(yUSDT, uint(-1));\n\n      // Approvals for swaps\n      IERC20(DAI).safeApprove(yCurveSwap, uint(-1));\n      IERC20(USDC).safeApprove(yCurveSwap, uint(-1));\n      IERC20(TUSD).safeApprove(yCurveSwap, uint(-1));\n\n      IERC20(USDT).safeApprove(yCurveSwap, uint(0));\n      IERC20(USDT).safeApprove(yCurveSwap, uint(-1));\n  }\n\n  function addCollateral(address _reserve, address _to, uint256 _amount, uint256 _min_to_amount, uint256 leverage) external {\n      require(isLeverage(leverage) == true, \"itrade: invalid leverage parameter\");\n      require(isReserve(_reserve) == true, \"itrade: invalid reserve\");\n\n      IERC20(_reserve).safeTransferFrom(msg.sender, address(this), _amount);\n      principals[_reserve][msg.sender] = principals[_reserve][msg.sender].add(_amount);\n      totalPrincipals[msg.sender] = totalPrincipals[msg.sender].add(_amount);\n      yERC20(getYToken(_reserve)).deposit(_amount);\n\n      uint256 _borrow = (_amount.mul(leverage));\n      uint256 _pool = borrower(collateral).getBorrowDebt(_reserve);\n      uint256 _debt = 0;\n      if (_pool == 0) {\n        _debt = _borrow;\n      } else {\n        _debt = (_borrow.mul(debtsTotalSupply[_reserve])).div(_pool);\n      }\n      _mintDebt(_reserve, msg.sender, _debt);\n      borrower(collateral).borrowAave(_reserve, _borrow);\n\n      uint8 _fromID = getCurveID(_reserve);\n      uint8 _toID = getCurveID(_to);\n      require(IERC20(_to).balanceOf(address(this)) == 0, \"itrade: unexpected result\");\n      ICurveFi(yCurveSwap).exchange_underlying(_fromID, _toID, _borrow, _min_to_amount);\n      uint256 _bought = IERC20(_to).balanceOf(address(this));\n      positions[_to][msg.sender] = positions[_to][msg.sender].add(_bought);\n      totalPositions[msg.sender] = totalPositions[msg.sender].add(_bought);\n\n      yERC20(getYToken(_to)).deposit(_bought);\n  }\n\n  function withdrawCollateral(address _reserve, uint256 _amount) external {\n      require(isReserve(_reserve) == true, \"itrade: invalid reserve\");\n      require(getUserDebt(_reserve, msg.sender) == 0, \"itrade: outstanding debt to settle\");\n\n      require(_amount <= principals[_reserve][msg.sender], \"itrade: insufficient balance\");\n      require(IERC20(_reserve).balanceOf(address(this)) == 0, \"itrade: unexpected result\");\n\n      uint256 _price = yERC20(getYToken(_reserve)).getPricePerFullShare();\n      uint256 _ytoken = _amount.mul(1e18).div(_price);\n      yERC20(getYToken(_reserve)).withdraw(_ytoken);\n\n      require(IERC20(_reserve).balanceOf(address(this)) >= _amount, \"itrade: unexpected result\");\n      principals[_reserve][msg.sender] = principals[_reserve][msg.sender].sub(_amount, \"itrade: principal amount exceeds balance\");\n      totalPrincipals[msg.sender] = totalPrincipals[msg.sender].sub(_amount, \"itrade: principal amount exceeds balance\");\n\n      IERC20(_reserve).safeTransfer(msg.sender, _amount);\n\n      // Cleanup dust (if any)\n      if (IERC20(_reserve).balanceOf(address(this)) > 0) {\n        yERC20(getYToken(_reserve)).deposit(IERC20(_reserve).balanceOf(address(this)));\n      }\n  }\n\n  function repayDebt(address _reserve, uint256 _amount) external {\n      require(isReserve(_reserve) == true, \"itrade: invalid reserve\");\n\n      uint256 debt = getUserDebt(_reserve, msg.sender);\n\n      if (_amount > debt) {\n        _amount = debt;\n      }\n\n      IERC20(_reserve).safeTransferFrom(msg.sender, address(this), _amount);\n      uint256 shares = debts[_reserve][msg.sender].mul(_amount).div(debt);\n      borrower(collateral).repayAave(_reserve, _amount);\n      _burnDebt(_reserve, msg.sender, shares);\n  }\n\n  function settle(address _reserve) external {\n      require(isReserve(_reserve) == true, \"itrade: invalid reserve\");\n\n      uint256 _debt = getUserDebt(_reserve, msg.sender);\n      IERC20(_reserve).safeTransferFrom(msg.sender, address(this), _debt);\n      borrower(collateral).repayAave(_reserve, _debt);\n      _burnDebt(_reserve, msg.sender, debts[_reserve][msg.sender]);\n  }\n\n  function tradePosition(address _reserve, address _to, uint256 _amount, uint256 _min_to_amount) external {\n      require(isReserve(_reserve) == true, \"itrade: invalid reserve\");\n      require(_amount <= positions[_reserve][msg.sender], \"itrade: insufficient balance\");\n      require(IERC20(_reserve).balanceOf(address(this)) == 0, \"itrade: unexpected result\");\n\n      uint256 _price = yERC20(getYToken(_reserve)).getPricePerFullShare();\n      uint256 _ytoken = _amount.mul(1e18).div(_price).add(1);\n      yERC20(getYToken(_reserve)).withdraw(_ytoken);\n\n      require(IERC20(_reserve).balanceOf(address(this)) >= _amount, \"itrade: unexpected result\");\n      require(IERC20(_to).balanceOf(address(this)) == 0, \"itrade: unexpected result\");\n\n      uint8 _fromID = getCurveID(_reserve);\n      uint8 _toID = getCurveID(_to);\n\n      ICurveFi(yCurveSwap).exchange_underlying(_fromID, _toID, _amount, _min_to_amount);\n      positions[_reserve][msg.sender] = positions[_reserve][msg.sender].sub(_amount, \"itrade: position amount exceeds balance\");\n      totalPositions[msg.sender] = totalPositions[msg.sender].sub(_amount, \"itrade: position amount exceeds balance\");\n      uint256 _bought = IERC20(_to).balanceOf(address(this));\n      positions[_to][msg.sender] = positions[_to][msg.sender].add(_bought);\n      totalPositions[msg.sender] = totalPositions[msg.sender].add(_bought);\n      yERC20(getYToken(_to)).deposit(_bought);\n\n      // Cleanup dust (if any)\n      if (IERC20(_reserve).balanceOf(address(this)) > 0) {\n        yERC20(getYToken(_reserve)).deposit(IERC20(_reserve).balanceOf(address(this)));\n      }\n  }\n\n  function closePosition(address _reserve, uint256 _amount) external {\n      require(isReserve(_reserve) == true, \"itrade: invalid reserve\");\n      require(_amount <= positions[_reserve][msg.sender], \"itrade: insufficient balance\");\n      require(IERC20(_reserve).balanceOf(address(this)) == 0, \"itrade: unexpected result\");\n\n      uint256 debt = getUserDebt(_reserve, msg.sender);\n      uint256 ret = 0;\n\n      if (_amount > debt) {\n        ret = _amount.sub(debt);\n        _amount = debt;\n      }\n\n      uint256 _price = yERC20(getYToken(_reserve)).getPricePerFullShare();\n      uint256 _ytoken = _amount.mul(1e18).div(_price).add(1);\n      yERC20(getYToken(_reserve)).withdraw(_ytoken);\n\n      if (debt > 0) {\n        uint256 shares = debts[_reserve][msg.sender].mul(_amount).div(debt);\n        borrower(collateral).repayAave(_reserve, _amount);\n        _burnDebt(_reserve, msg.sender, shares);\n      }\n\n      // Profits from trade\n      if (ret > 0) {\n        IERC20(_reserve).safeTransfer(msg.sender, ret);\n      }\n\n      positions[_reserve][msg.sender] = positions[_reserve][msg.sender].sub(_amount, \"itrade: principal amount exceeds balance\");\n      totalPositions[msg.sender] = totalPositions[msg.sender].sub(_amount, \"itrade: principal amount exceeds balance\");\n\n      // Cleanup dust (if any)\n      if (IERC20(_reserve).balanceOf(address(this)) > 0) {\n        yERC20(getYToken(_reserve)).deposit(IERC20(_reserve).balanceOf(address(this)));\n      }\n  }\n/*\n  function isSafe(address _reserve, address _user) public view returns (bool) {\n      uint256 debt = getUserDebt(_reserve, _user);\n      uint256 interest = getUSerInterest(_reserve, _user);\n      uint256 collateral = principals\n  }*/\n\n  function getUserDebt(address _reserve, address _user) public view returns (uint256) {\n      if (debtsTotalSupply[_reserve] == 0) {\n        return 0;\n      } else {\n        return borrower(collateral).getBorrowDebt(_reserve).mul(debts[_reserve][_user]).div(debtsTotalSupply[_reserve]);\n      }\n  }\n  function getUserInterest(address _reserve, address _user) public view returns (uint256) {\n      if (debtsTotalSupply[_reserve] == 0) {\n        return 0;\n      } else {\n        return borrower(collateral).getBorrowInterest(_reserve).mul(debts[_reserve][_user]).div(debtsTotalSupply[_reserve]);\n      }\n  }\n  function _mintDebt(address _reserve, address account, uint256 amount) internal {\n      require(account != address(0), \"DEBT: mint to the zero address\");\n      debtsTotalSupply[_reserve] = debtsTotalSupply[_reserve].add(amount);\n      debts[_reserve][account] = debts[_reserve][account].add(amount);\n      totalDebts[account] = totalDebts[account].add(amount);\n  }\n  function _burnDebt(address _reserve, address account, uint256 amount) internal {\n      require(account != address(0), \"DEBT: burn from the zero address\");\n      totalDebts[account] = totalDebts[account].sub(amount, \"DEBT: burn amount exceeds balance\");\n      debts[_reserve][account] = debts[_reserve][account].sub(amount, \"DEBT: burn amount exceeds balance\");\n      debtsTotalSupply[_reserve] = debtsTotalSupply[_reserve].sub(amount);\n  }\n  function getYToken(address _reserve) public pure returns (address) {\n      if (_reserve == DAI) {\n        return yDAI;\n      } else if (_reserve == USDC) {\n        return yUSDC;\n      } else if (_reserve == USDT) {\n        return yUSDT;\n      /*} else if (_reserve == TUSD) {\n        return yTUSD;*/\n      } else {\n        return address(0x0);\n      }\n  }\n  function getCurveID(address _reserve) public pure returns (uint8) {\n      if (_reserve == DAI) {\n        return uint8(0);\n      } else if (_reserve == USDC) {\n        return uint8(1);\n      } else if (_reserve == USDT) {\n        return uint8(2);\n      /*} else if (_reserve == TUSD) {\n        return uint8(3);*/\n      } else {\n        return uint8(0);\n      }\n  }\n  function isReserve(address _reserve) public pure returns (bool) {\n      if (_reserve == DAI) {\n        return true;\n      } else if (_reserve == USDC) {\n        return true;\n      } else if (_reserve == USDT) {\n        return true;\n    /*  } else if (_reserve == TUSD) {\n        return true;*/\n      } else {\n        return false;\n      }\n  }\n  function isLeverage(uint256 leverage) public pure returns (bool) {\n      if (leverage == 2||\n        leverage == 5||\n        leverage == 10||\n        leverage == 25||\n        leverage == 50||\n        leverage == 75||\n        leverage == 100||\n        leverage == 1000) {\n        return true;\n      } else {\n        return false;\n      }\n  }\n  // incase of half-way error\n  function inCaseTokenGetsStuck(IERC20 _TokenAddress) onlyOwner public {\n      uint qty = _TokenAddress.balanceOf(address(this));\n      _TokenAddress.safeTransfer(msg.sender, qty);\n  }\n  // incase of half-way error\n  function inCaseETHGetsStuck() onlyOwner public{\n      (bool result, ) = msg.sender.call.value(address(this).balance)(\"\");\n      require(result, \"transfer of ETH failed\");\n  }\n}\n",
  "sourcePath": "D:/ftm/itrade/contracts/itrade.sol",
  "compiler": {
    "name": "solc",
    "version": "0.5.12+commit.7709ece9.Emscripten.clang"
  },
  "schemaVersion": "3.0.19",
  "updatedAt": "2020-03-06T09:05:21.849Z",
  "devdoc": {
    "methods": {}
  },
  "userdoc": {
    "methods": {}
  }
}