{
  "contractName": "iTrade",
  "abi": [
    {
      "inputs": [],
      "payable": false,
      "stateMutability": "nonpayable",
      "type": "constructor"
    },
    {
      "anonymous": false,
      "inputs": [
        {
          "indexed": true,
          "internalType": "address",
          "name": "previousOwner",
          "type": "address"
        },
        {
          "indexed": true,
          "internalType": "address",
          "name": "newOwner",
          "type": "address"
        }
      ],
      "name": "OwnershipTransferred",
      "type": "event"
    },
    {
      "constant": true,
      "inputs": [],
      "name": "DAI",
      "outputs": [
        {
          "internalType": "address",
          "name": "",
          "type": "address"
        }
      ],
      "payable": false,
      "stateMutability": "view",
      "type": "function"
    },
    {
      "constant": true,
      "inputs": [],
      "name": "TUSD",
      "outputs": [
        {
          "internalType": "address",
          "name": "",
          "type": "address"
        }
      ],
      "payable": false,
      "stateMutability": "view",
      "type": "function"
    },
    {
      "constant": true,
      "inputs": [],
      "name": "USDC",
      "outputs": [
        {
          "internalType": "address",
          "name": "",
          "type": "address"
        }
      ],
      "payable": false,
      "stateMutability": "view",
      "type": "function"
    },
    {
      "constant": true,
      "inputs": [],
      "name": "USDT",
      "outputs": [
        {
          "internalType": "address",
          "name": "",
          "type": "address"
        }
      ],
      "payable": false,
      "stateMutability": "view",
      "type": "function"
    },
    {
      "constant": true,
      "inputs": [],
      "name": "base",
      "outputs": [
        {
          "internalType": "uint256",
          "name": "",
          "type": "uint256"
        }
      ],
      "payable": false,
      "stateMutability": "view",
      "type": "function"
    },
    {
      "constant": true,
      "inputs": [],
      "name": "collateral",
      "outputs": [
        {
          "internalType": "contract iBorrower",
          "name": "",
          "type": "address"
        }
      ],
      "payable": false,
      "stateMutability": "view",
      "type": "function"
    },
    {
      "constant": true,
      "inputs": [],
      "name": "isOwner",
      "outputs": [
        {
          "internalType": "bool",
          "name": "",
          "type": "bool"
        }
      ],
      "payable": false,
      "stateMutability": "view",
      "type": "function"
    },
    {
      "constant": true,
      "inputs": [],
      "name": "ledger",
      "outputs": [
        {
          "internalType": "contract iLedger",
          "name": "",
          "type": "address"
        }
      ],
      "payable": false,
      "stateMutability": "view",
      "type": "function"
    },
    {
      "constant": true,
      "inputs": [],
      "name": "ltv",
      "outputs": [
        {
          "internalType": "uint256",
          "name": "",
          "type": "uint256"
        }
      ],
      "payable": false,
      "stateMutability": "view",
      "type": "function"
    },
    {
      "constant": true,
      "inputs": [],
      "name": "owner",
      "outputs": [
        {
          "internalType": "address",
          "name": "",
          "type": "address"
        }
      ],
      "payable": false,
      "stateMutability": "view",
      "type": "function"
    },
    {
      "constant": false,
      "inputs": [],
      "name": "renounceOwnership",
      "outputs": [],
      "payable": false,
      "stateMutability": "nonpayable",
      "type": "function"
    },
    {
      "constant": false,
      "inputs": [
        {
          "internalType": "address",
          "name": "newOwner",
          "type": "address"
        }
      ],
      "name": "transferOwnership",
      "outputs": [],
      "payable": false,
      "stateMutability": "nonpayable",
      "type": "function"
    },
    {
      "constant": true,
      "inputs": [],
      "name": "yCurveSwap",
      "outputs": [
        {
          "internalType": "address",
          "name": "",
          "type": "address"
        }
      ],
      "payable": false,
      "stateMutability": "view",
      "type": "function"
    },
    {
      "constant": true,
      "inputs": [],
      "name": "yDAI",
      "outputs": [
        {
          "internalType": "address",
          "name": "",
          "type": "address"
        }
      ],
      "payable": false,
      "stateMutability": "view",
      "type": "function"
    },
    {
      "constant": true,
      "inputs": [],
      "name": "yTUSD",
      "outputs": [
        {
          "internalType": "address",
          "name": "",
          "type": "address"
        }
      ],
      "payable": false,
      "stateMutability": "view",
      "type": "function"
    },
    {
      "constant": true,
      "inputs": [],
      "name": "yUSDC",
      "outputs": [
        {
          "internalType": "address",
          "name": "",
          "type": "address"
        }
      ],
      "payable": false,
      "stateMutability": "view",
      "type": "function"
    },
    {
      "constant": true,
      "inputs": [],
      "name": "yUSDT",
      "outputs": [
        {
          "internalType": "address",
          "name": "",
          "type": "address"
        }
      ],
      "payable": false,
      "stateMutability": "view",
      "type": "function"
    },
    {
      "constant": false,
      "inputs": [],
      "name": "approveToken",
      "outputs": [],
      "payable": false,
      "stateMutability": "nonpayable",
      "type": "function"
    },
    {
      "constant": false,
      "inputs": [
        {
          "internalType": "address",
          "name": "_reserve",
          "type": "address"
        },
        {
          "internalType": "address",
          "name": "_to",
          "type": "address"
        },
        {
          "internalType": "uint256",
          "name": "_amount",
          "type": "uint256"
        },
        {
          "internalType": "uint256",
          "name": "_min_to_amount",
          "type": "uint256"
        },
        {
          "internalType": "uint256",
          "name": "leverage",
          "type": "uint256"
        }
      ],
      "name": "addCollateral",
      "outputs": [],
      "payable": false,
      "stateMutability": "nonpayable",
      "type": "function"
    },
    {
      "constant": false,
      "inputs": [
        {
          "internalType": "address",
          "name": "_reserve",
          "type": "address"
        },
        {
          "internalType": "address",
          "name": "_to",
          "type": "address"
        },
        {
          "internalType": "uint256",
          "name": "_amount",
          "type": "uint256"
        },
        {
          "internalType": "uint256",
          "name": "_min_to_amount",
          "type": "uint256"
        },
        {
          "internalType": "uint256",
          "name": "leverage",
          "type": "uint256"
        },
        {
          "internalType": "uint256",
          "name": "fee",
          "type": "uint256"
        }
      ],
      "name": "addCollateralWithFee",
      "outputs": [],
      "payable": false,
      "stateMutability": "nonpayable",
      "type": "function"
    },
    {
      "constant": false,
      "inputs": [
        {
          "internalType": "address",
          "name": "_reserve",
          "type": "address"
        },
        {
          "internalType": "uint256",
          "name": "_amount",
          "type": "uint256"
        }
      ],
      "name": "withdrawCollateral",
      "outputs": [],
      "payable": false,
      "stateMutability": "nonpayable",
      "type": "function"
    },
    {
      "constant": false,
      "inputs": [
        {
          "internalType": "address",
          "name": "_reserve",
          "type": "address"
        },
        {
          "internalType": "address",
          "name": "_user",
          "type": "address"
        },
        {
          "internalType": "uint256",
          "name": "_amount",
          "type": "uint256"
        }
      ],
      "name": "repayDebtFor",
      "outputs": [],
      "payable": false,
      "stateMutability": "nonpayable",
      "type": "function"
    },
    {
      "constant": false,
      "inputs": [
        {
          "internalType": "address",
          "name": "_reserve",
          "type": "address"
        },
        {
          "internalType": "uint256",
          "name": "_amount",
          "type": "uint256"
        }
      ],
      "name": "repayDebt",
      "outputs": [],
      "payable": false,
      "stateMutability": "nonpayable",
      "type": "function"
    },
    {
      "constant": false,
      "inputs": [
        {
          "internalType": "address",
          "name": "_reserve",
          "type": "address"
        }
      ],
      "name": "exit",
      "outputs": [],
      "payable": false,
      "stateMutability": "nonpayable",
      "type": "function"
    },
    {
      "constant": false,
      "inputs": [
        {
          "internalType": "address",
          "name": "_reserve",
          "type": "address"
        }
      ],
      "name": "settle",
      "outputs": [],
      "payable": false,
      "stateMutability": "nonpayable",
      "type": "function"
    },
    {
      "constant": false,
      "inputs": [
        {
          "internalType": "address",
          "name": "_reserve",
          "type": "address"
        },
        {
          "internalType": "address",
          "name": "_to",
          "type": "address"
        },
        {
          "internalType": "uint256",
          "name": "_amount",
          "type": "uint256"
        },
        {
          "internalType": "uint256",
          "name": "_min_to_amount",
          "type": "uint256"
        }
      ],
      "name": "tradePosition",
      "outputs": [],
      "payable": false,
      "stateMutability": "nonpayable",
      "type": "function"
    },
    {
      "constant": false,
      "inputs": [
        {
          "internalType": "address",
          "name": "_reserve",
          "type": "address"
        },
        {
          "internalType": "uint256",
          "name": "_amount",
          "type": "uint256"
        }
      ],
      "name": "closePosition",
      "outputs": [],
      "payable": false,
      "stateMutability": "nonpayable",
      "type": "function"
    },
    {
      "constant": false,
      "inputs": [
        {
          "internalType": "address",
          "name": "_user",
          "type": "address"
        }
      ],
      "name": "seize",
      "outputs": [],
      "payable": false,
      "stateMutability": "nonpayable",
      "type": "function"
    },
    {
      "constant": true,
      "inputs": [
        {
          "internalType": "address",
          "name": "_user",
          "type": "address"
        }
      ],
      "name": "isSafe",
      "outputs": [
        {
          "internalType": "bool",
          "name": "",
          "type": "bool"
        }
      ],
      "payable": false,
      "stateMutability": "view",
      "type": "function"
    },
    {
      "constant": true,
      "inputs": [
        {
          "internalType": "address",
          "name": "_user",
          "type": "address"
        }
      ],
      "name": "getAllDebt",
      "outputs": [
        {
          "internalType": "uint256",
          "name": "",
          "type": "uint256"
        }
      ],
      "payable": false,
      "stateMutability": "view",
      "type": "function"
    },
    {
      "constant": false,
      "inputs": [
        {
          "internalType": "contract IERC20",
          "name": "_TokenAddress",
          "type": "address"
        }
      ],
      "name": "inCaseTokenGetsStuck",
      "outputs": [],
      "payable": false,
      "stateMutability": "nonpayable",
      "type": "function"
    },
    {
      "constant": false,
      "inputs": [],
      "name": "inCaseETHGetsStuck",
      "outputs": [],
      "payable": false,
      "stateMutability": "nonpayable",
      "type": "function"
    }
  ],
  "bytecode": "0x60806040523480156200001157600080fd5b5060016000819055506200002a620000fd60201b60201c565b600160006101000a81548173ffffffffffffffffffffffffffffffffffffffff021916908373ffffffffffffffffffffffffffffffffffffffff160217905550600160009054906101000a900473ffffffffffffffffffffffffffffffffffffffff1673ffffffffffffffffffffffffffffffffffffffff16600073ffffffffffffffffffffffffffffffffffffffff167f8be0079c531659141344cd1fd0a4f28419497f9722a3daafe3b4186f6b6457e060405160405180910390a3620000f76200010560201b60201c565b62000c9d565b600033905090565b6200017f73acd746993f60e807fbf69f646e42daeda63a4cfc7fffffffffffffffffffffffffffffffffffffffffffffffffffffffffffffffff736b175474e89094c44da98b954eedeac495271d0f73ffffffffffffffffffffffffffffffffffffffff16620007c160201b620073bf179092919060201c565b620001f973acd746993f60e807fbf69f646e42daeda63a4cfc7fffffffffffffffffffffffffffffffffffffffffffffffffffffffffffffffff73a0b86991c6218b36c1d19d4a2e9eb0ce3606eb4873ffffffffffffffffffffffffffffffffffffffff16620007c160201b620073bf179092919060201c565b6200026e73acd746993f60e807fbf69f646e42daeda63a4cfc7fffffffffffffffffffffffffffffffffffffffffffffffffffffffffffffffff6e085d4780b73119b644ae5ecd22b37673ffffffffffffffffffffffffffffffffffffffff16620007c160201b620073bf179092919060201c565b620002c973acd746993f60e807fbf69f646e42daeda63a4cfc600073dac17f958d2ee523a2206206994597c13d831ec773ffffffffffffffffffffffffffffffffffffffff16620007c160201b620073bf179092919060201c565b6200034373acd746993f60e807fbf69f646e42daeda63a4cfc7fffffffffffffffffffffffffffffffffffffffffffffffffffffffffffffffff73dac17f958d2ee523a2206206994597c13d831ec773ffffffffffffffffffffffffffffffffffffffff16620007c160201b620073bf179092919060201c565b620003bd7316de59092dae5ccf4a1e6439d611fd0653f0bd017fffffffffffffffffffffffffffffffffffffffffffffffffffffffffffffffff736b175474e89094c44da98b954eedeac495271d0f73ffffffffffffffffffffffffffffffffffffffff16620007c160201b620073bf179092919060201c565b6200043773d6ad7a6750a7593e092a9b218d66c0a814a3436e7fffffffffffffffffffffffffffffffffffffffffffffffffffffffffffffffff73a0b86991c6218b36c1d19d4a2e9eb0ce3606eb4873ffffffffffffffffffffffffffffffffffffffff16620007c160201b620073bf179092919060201c565b620004ac7373a052500105205d34daf004eab301916da8190f7fffffffffffffffffffffffffffffffffffffffffffffffffffffffffffffffff6e085d4780b73119b644ae5ecd22b37673ffffffffffffffffffffffffffffffffffffffff16620007c160201b620073bf179092919060201c565b620005077383f798e925bcd4017eb265844fddabb448f1707d600073dac17f958d2ee523a2206206994597c13d831ec773ffffffffffffffffffffffffffffffffffffffff16620007c160201b620073bf179092919060201c565b620005817383f798e925bcd4017eb265844fddabb448f1707d7fffffffffffffffffffffffffffffffffffffffffffffffffffffffffffffffff73dac17f958d2ee523a2206206994597c13d831ec773ffffffffffffffffffffffffffffffffffffffff16620007c160201b620073bf179092919060201c565b620005fb7345f783cce6b7ff23b2ab2d70e416cdb7d6055f517fffffffffffffffffffffffffffffffffffffffffffffffffffffffffffffffff736b175474e89094c44da98b954eedeac495271d0f73ffffffffffffffffffffffffffffffffffffffff16620007c160201b620073bf179092919060201c565b620006757345f783cce6b7ff23b2ab2d70e416cdb7d6055f517fffffffffffffffffffffffffffffffffffffffffffffffffffffffffffffffff73a0b86991c6218b36c1d19d4a2e9eb0ce3606eb4873ffffffffffffffffffffffffffffffffffffffff16620007c160201b620073bf179092919060201c565b620006ea7345f783cce6b7ff23b2ab2d70e416cdb7d6055f517fffffffffffffffffffffffffffffffffffffffffffffffffffffffffffffffff6e085d4780b73119b644ae5ecd22b37673ffffffffffffffffffffffffffffffffffffffff16620007c160201b620073bf179092919060201c565b620007457345f783cce6b7ff23b2ab2d70e416cdb7d6055f51600073dac17f958d2ee523a2206206994597c13d831ec773ffffffffffffffffffffffffffffffffffffffff16620007c160201b620073bf179092919060201c565b620007bf7345f783cce6b7ff23b2ab2d70e416cdb7d6055f517fffffffffffffffffffffffffffffffffffffffffffffffffffffffffffffffff73dac17f958d2ee523a2206206994597c13d831ec773ffffffffffffffffffffffffffffffffffffffff16620007c160201b620073bf179092919060201c565b565b6000811480620008bf575060008373ffffffffffffffffffffffffffffffffffffffff1663dd62ed3e30856040518363ffffffff1660e01b8152600401808373ffffffffffffffffffffffffffffffffffffffff1673ffffffffffffffffffffffffffffffffffffffff1681526020018273ffffffffffffffffffffffffffffffffffffffff1673ffffffffffffffffffffffffffffffffffffffff1681526020019250505060206040518083038186803b1580156200088057600080fd5b505afa15801562000895573d6000803e3d6000fd5b505050506040513d6020811015620008ac57600080fd5b8101908080519060200190929190505050145b62000916576040517f08c379a0000000000000000000000000000000000000000000000000000000008152600401808060200182810382526036815260200180620091bf6036913960400191505060405180910390fd5b620009ea838473ffffffffffffffffffffffffffffffffffffffff1663095ea7b3905060e01b8484604051602401808373ffffffffffffffffffffffffffffffffffffffff1673ffffffffffffffffffffffffffffffffffffffff16815260200182815260200192505050604051602081830303815290604052907bffffffffffffffffffffffffffffffffffffffffffffffffffffffff19166020820180517bffffffffffffffffffffffffffffffffffffffffffffffffffffffff8381831617835250505050620009ef60201b60201c565b505050565b62000a1b8273ffffffffffffffffffffffffffffffffffffffff1662000c5160201b6200837d1760201c565b62000a8e576040517f08c379a000000000000000000000000000000000000000000000000000000000815260040180806020018281038252601f8152602001807f5361666545524332303a2063616c6c20746f206e6f6e2d636f6e74726163740081525060200191505060405180910390fd5b600060608373ffffffffffffffffffffffffffffffffffffffff16836040518082805190602001908083835b6020831062000adf578051825260208201915060208101905060208303925062000aba565b6001836020036101000a0380198251168184511680821785525050505050509050019150506000604051808303816000865af19150503d806000811462000b43576040519150601f19603f3d011682016040523d82523d6000602084013e62000b48565b606091505b50915091508162000bc1576040517f08c379a00000000000000000000000000000000000000000000000000000000081526004018080602001828103825260208152602001807f5361666545524332303a206c6f772d6c6576656c2063616c6c206661696c656481525060200191505060405180910390fd5b60008151111562000c4b5780806020019051602081101562000be257600080fd5b810190808051906020019092919050505062000c4a576040517f08c379a000000000000000000000000000000000000000000000000000000000815260040180806020018281038252602a81526020018062009195602a913960400191505060405180910390fd5b5b50505050565b60008060007fc5d2460186f7233c927e7db2dcc703c0e500b653ca82273b7bfad8045d85a47060001b9050833f91506000801b821415801562000c945750808214155b92505050919050565b6184e88062000cad6000396000f3fe608060405234801561001057600080fd5b50600436106101f05760003560e01c8063769a28ac1161010f578063b42652e9116100a2578063e31ff1be11610071578063e31ff1be146109f3578063f2fde38b14610a3d578063f60a15ed14610a81578063fb3ee57114610a8b576101f0565b8063b42652e9146108d1578063c54e44eb14610915578063d8dfeb451461095f578063e0bab4c4146109a9576101f0565b80638da5cb5b116100de5780638da5cb5b146108115780638f32d59b1461085b57806399b71d5c1461087d578063b18cf95e14610887576101f0565b8063769a28ac146106d357806379e20bdc1461072f5780638323550b1461077d57806389a30271146107c7576101f0565b80636609d2c5116101875780636fb49d73116101565780636fb49d7314610613578063715018a614610631578063742fe1f81461063b578063756bb1cc14610689576101f0565b80636609d2c5146104875780636a256b29146104df5780636da9a06b146105235780636e52dde3146105a5576101f0565b80633612c549116101c35780633612c5491461031b578063378f74a2146103a75780635001f3b51461041f57806356397c351461043d576101f0565b806317e5a9a4146101f557806319d9e0081461023f5780632e8d6e1814610289578063350c35e9146102cd575b600080fd5b6101fd610acf565b604051808273ffffffffffffffffffffffffffffffffffffffff1673ffffffffffffffffffffffffffffffffffffffff16815260200191505060405180910390f35b610247610ae7565b604051808273ffffffffffffffffffffffffffffffffffffffff1673ffffffffffffffffffffffffffffffffffffffff16815260200191505060405180910390f35b6102cb6004803603602081101561029f57600080fd5b81019080803573ffffffffffffffffffffffffffffffffffffffff169060200190929190505050610aff565b005b610319600480360360408110156102e357600080fd5b81019080803573ffffffffffffffffffffffffffffffffffffffff16906020019092919080359060200190929190505050610c64565b005b6103a5600480360360c081101561033157600080fd5b81019080803573ffffffffffffffffffffffffffffffffffffffff169060200190929190803573ffffffffffffffffffffffffffffffffffffffff16906020019092919080359060200190929190803590602001909291908035906020019092919080359060200190929190505050611a5d565b005b61041d600480360360808110156103bd57600080fd5b81019080803573ffffffffffffffffffffffffffffffffffffffff169060200190929190803573ffffffffffffffffffffffffffffffffffffffff16906020019092919080359060200190929190803590602001909291905050506129fd565b005b610427613cd4565b6040518082815260200191505060405180910390f35b610445613cd9565b604051808273ffffffffffffffffffffffffffffffffffffffff1673ffffffffffffffffffffffffffffffffffffffff16815260200191505060405180910390f35b6104c96004803603602081101561049d57600080fd5b81019080803573ffffffffffffffffffffffffffffffffffffffff169060200190929190505050613cf1565b6040518082815260200191505060405180910390f35b610521600480360360208110156104f557600080fd5b81019080803573ffffffffffffffffffffffffffffffffffffffff169060200190929190505050614058565b005b6105a3600480360360a081101561053957600080fd5b81019080803573ffffffffffffffffffffffffffffffffffffffff169060200190929190803573ffffffffffffffffffffffffffffffffffffffff169060200190929190803590602001909291908035906020019092919080359060200190929190505050614685565b005b610611600480360360608110156105bb57600080fd5b81019080803573ffffffffffffffffffffffffffffffffffffffff169060200190929190803573ffffffffffffffffffffffffffffffffffffffff16906020019092919080359060200190929190505050614729565b005b61061b614d84565b6040518082815260200191505060405180910390f35b610639614d89565b005b6106876004803603604081101561065157600080fd5b81019080803573ffffffffffffffffffffffffffffffffffffffff16906020019092919080359060200190929190505050614ec4565b005b610691615e4e565b604051808273ffffffffffffffffffffffffffffffffffffffff1673ffffffffffffffffffffffffffffffffffffffff16815260200191505060405180910390f35b610715600480360360208110156106e957600080fd5b81019080803573ffffffffffffffffffffffffffffffffffffffff169060200190929190505050615e66565b604051808215151515815260200191505060405180910390f35b61077b6004803603604081101561074557600080fd5b81019080803573ffffffffffffffffffffffffffffffffffffffff1690602001909291908035906020019092919050505061608d565b005b61078561612a565b604051808273ffffffffffffffffffffffffffffffffffffffff1673ffffffffffffffffffffffffffffffffffffffff16815260200191505060405180910390f35b6107cf61613d565b604051808273ffffffffffffffffffffffffffffffffffffffff1673ffffffffffffffffffffffffffffffffffffffff16815260200191505060405180910390f35b610819616155565b604051808273ffffffffffffffffffffffffffffffffffffffff1673ffffffffffffffffffffffffffffffffffffffff16815260200191505060405180910390f35b61086361617f565b604051808215151515815260200191505060405180910390f35b6108856161de565b005b61088f616831565b604051808273ffffffffffffffffffffffffffffffffffffffff1673ffffffffffffffffffffffffffffffffffffffff16815260200191505060405180910390f35b610913600480360360208110156108e757600080fd5b81019080803573ffffffffffffffffffffffffffffffffffffffff169060200190929190505050616849565b005b61091d616b77565b604051808273ffffffffffffffffffffffffffffffffffffffff1673ffffffffffffffffffffffffffffffffffffffff16815260200191505060405180910390f35b610967616b8f565b604051808273ffffffffffffffffffffffffffffffffffffffff1673ffffffffffffffffffffffffffffffffffffffff16815260200191505060405180910390f35b6109b1616ba7565b604051808273ffffffffffffffffffffffffffffffffffffffff1673ffffffffffffffffffffffffffffffffffffffff16815260200191505060405180910390f35b6109fb616bbf565b604051808273ffffffffffffffffffffffffffffffffffffffff1673ffffffffffffffffffffffffffffffffffffffff16815260200191505060405180910390f35b610a7f60048036036020811015610a5357600080fd5b81019080803573ffffffffffffffffffffffffffffffffffffffff169060200190929190505050616bd7565b005b610a89616c5d565b005b610acd60048036036020811015610aa157600080fd5b81019080803573ffffffffffffffffffffffffffffffffffffffff169060200190929190505050616dcd565b005b7383f798e925bcd4017eb265844fddabb448f1707d81565b73d6ad7a6750a7593e092a9b218d66c0a814a3436e81565b610b0761617f565b610b79576040517f08c379a00000000000000000000000000000000000000000000000000000000081526004018080602001828103825260208152602001807f4f776e61626c653a2063616c6c6572206973206e6f7420746865206f776e657281525060200191505060405180910390fd5b60008173ffffffffffffffffffffffffffffffffffffffff166370a08231306040518263ffffffff1660e01b8152600401808273ffffffffffffffffffffffffffffffffffffffff1673ffffffffffffffffffffffffffffffffffffffff16815260200191505060206040518083038186803b158015610bf857600080fd5b505afa158015610c0c573d6000803e3d6000fd5b505050506040513d6020811015610c2257600080fd5b81019080805190602001909291905050509050610c6033828473ffffffffffffffffffffffffffffffffffffffff1661703e9092919063ffffffff16565b5050565b600160008082825401925050819055506000805490506001151573acd746993f60e807fbf69f646e42daeda63a4cfc73ffffffffffffffffffffffffffffffffffffffff16637a2b0587856040518263ffffffff1660e01b8152600401808273ffffffffffffffffffffffffffffffffffffffff1673ffffffffffffffffffffffffffffffffffffffff16815260200191505060206040518083038186803b158015610d0f57600080fd5b505afa158015610d23573d6000803e3d6000fd5b505050506040513d6020811015610d3957600080fd5b8101908080519060200190929190505050151514610dbf576040517f08c379a00000000000000000000000000000000000000000000000000000000081526004018080602001828103825260178152602001807f6974726164653a20696e76616c6964207265736572766500000000000000000081525060200191505060405180910390fd5b600073acd746993f60e807fbf69f646e42daeda63a4cfc73ffffffffffffffffffffffffffffffffffffffff1663a2a00ed685336040518363ffffffff1660e01b8152600401808373ffffffffffffffffffffffffffffffffffffffff1673ffffffffffffffffffffffffffffffffffffffff1681526020018273ffffffffffffffffffffffffffffffffffffffff1673ffffffffffffffffffffffffffffffffffffffff1681526020019250505060206040518083038186803b158015610e8657600080fd5b505afa158015610e9a573d6000803e3d6000fd5b505050506040513d6020811015610eb057600080fd5b810190808051906020019092919050505014610f17576040517f08c379a00000000000000000000000000000000000000000000000000000000081526004018080602001828103825260228152602001806184116022913960400191505060405180910390fd5b73acd746993f60e807fbf69f646e42daeda63a4cfc73ffffffffffffffffffffffffffffffffffffffff16631851f00084336040518363ffffffff1660e01b8152600401808373ffffffffffffffffffffffffffffffffffffffff1673ffffffffffffffffffffffffffffffffffffffff1681526020018273ffffffffffffffffffffffffffffffffffffffff1673ffffffffffffffffffffffffffffffffffffffff1681526020019250505060206040518083038186803b158015610fdc57600080fd5b505afa158015610ff0573d6000803e3d6000fd5b505050506040513d602081101561100657600080fd5b810190808051906020019092919050505082111561108c576040517f08c379a000000000000000000000000000000000000000000000000000000000815260040180806020018281038252601c8152602001807f6974726164653a20696e73756666696369656e742062616c616e63650000000081525060200191505060405180910390fd5b60008373ffffffffffffffffffffffffffffffffffffffff166370a08231306040518263ffffffff1660e01b8152600401808273ffffffffffffffffffffffffffffffffffffffff1673ffffffffffffffffffffffffffffffffffffffff16815260200191505060206040518083038186803b15801561110b57600080fd5b505afa15801561111f573d6000803e3d6000fd5b505050506040513d602081101561113557600080fd5b8101908080519060200190929190505050146111b9576040517f08c379a00000000000000000000000000000000000000000000000000000000081526004018080602001828103825260198152602001807f6974726164653a20756e657870656374656420726573756c740000000000000081525060200191505060405180910390fd5b600073acd746993f60e807fbf69f646e42daeda63a4cfc73ffffffffffffffffffffffffffffffffffffffff1663ede26bc8856040518263ffffffff1660e01b8152600401808273ffffffffffffffffffffffffffffffffffffffff1673ffffffffffffffffffffffffffffffffffffffff16815260200191505060206040518083038186803b15801561124c57600080fd5b505afa158015611260573d6000803e3d6000fd5b505050506040513d602081101561127657600080fd5b810190808051906020019092919050505073ffffffffffffffffffffffffffffffffffffffff166377c7b8fc6040518163ffffffff1660e01b815260040160206040518083038186803b1580156112cc57600080fd5b505afa1580156112e0573d6000803e3d6000fd5b505050506040513d60208110156112f657600080fd5b8101908080519060200190929190505050905060006113388261132a670de0b6b3a76400008761710f90919063ffffffff16565b61719590919063ffffffff16565b905073acd746993f60e807fbf69f646e42daeda63a4cfc73ffffffffffffffffffffffffffffffffffffffff1663ede26bc8866040518263ffffffff1660e01b8152600401808273ffffffffffffffffffffffffffffffffffffffff1673ffffffffffffffffffffffffffffffffffffffff16815260200191505060206040518083038186803b1580156113cb57600080fd5b505afa1580156113df573d6000803e3d6000fd5b505050506040513d60208110156113f557600080fd5b810190808051906020019092919050505073ffffffffffffffffffffffffffffffffffffffff16632e1a7d4d826040518263ffffffff1660e01b815260040180828152602001915050600060405180830381600087803b15801561145857600080fd5b505af115801561146c573d6000803e3d6000fd5b50505050838573ffffffffffffffffffffffffffffffffffffffff166370a08231306040518263ffffffff1660e01b8152600401808273ffffffffffffffffffffffffffffffffffffffff1673ffffffffffffffffffffffffffffffffffffffff16815260200191505060206040518083038186803b1580156114ee57600080fd5b505afa158015611502573d6000803e3d6000fd5b505050506040513d602081101561151857600080fd5b8101908080519060200190929190505050101561159d576040517f08c379a00000000000000000000000000000000000000000000000000000000081526004018080602001828103825260198152602001807f6974726164653a20756e657870656374656420726573756c740000000000000081525060200191505060405180910390fd5b73acd746993f60e807fbf69f646e42daeda63a4cfc73ffffffffffffffffffffffffffffffffffffffff1663d8c6b87f8633876040518463ffffffff1660e01b8152600401808473ffffffffffffffffffffffffffffffffffffffff1673ffffffffffffffffffffffffffffffffffffffff1681526020018373ffffffffffffffffffffffffffffffffffffffff1673ffffffffffffffffffffffffffffffffffffffff1681526020018281526020019350505050600060405180830381600087803b15801561166c57600080fd5b505af1158015611680573d6000803e3d6000fd5b505050506116af33858773ffffffffffffffffffffffffffffffffffffffff1661703e9092919063ffffffff16565b60008573ffffffffffffffffffffffffffffffffffffffff166370a08231306040518263ffffffff1660e01b8152600401808273ffffffffffffffffffffffffffffffffffffffff1673ffffffffffffffffffffffffffffffffffffffff16815260200191505060206040518083038186803b15801561172e57600080fd5b505afa158015611742573d6000803e3d6000fd5b505050506040513d602081101561175857600080fd5b8101908080519060200190929190505050111561195d5773acd746993f60e807fbf69f646e42daeda63a4cfc73ffffffffffffffffffffffffffffffffffffffff1663ede26bc8866040518263ffffffff1660e01b8152600401808273ffffffffffffffffffffffffffffffffffffffff1673ffffffffffffffffffffffffffffffffffffffff16815260200191505060206040518083038186803b15801561180057600080fd5b505afa158015611814573d6000803e3d6000fd5b505050506040513d602081101561182a57600080fd5b810190808051906020019092919050505073ffffffffffffffffffffffffffffffffffffffff1663b6b55f258673ffffffffffffffffffffffffffffffffffffffff166370a08231306040518263ffffffff1660e01b8152600401808273ffffffffffffffffffffffffffffffffffffffff1673ffffffffffffffffffffffffffffffffffffffff16815260200191505060206040518083038186803b1580156118d357600080fd5b505afa1580156118e7573d6000803e3d6000fd5b505050506040513d60208110156118fd57600080fd5b81019080805190602001909291905050506040518263ffffffff1660e01b815260040180828152602001915050600060405180830381600087803b15801561194457600080fd5b505af1158015611958573d6000803e3d6000fd5b505050505b6001151561196a33615e66565b1515146119df576040517f08c379a000000000000000000000000000000000000000000000000000000000815260040180806020018281038252601f8152602001807f6974726164653a206163636f756e7420776f756c64206c69717569646174650081525060200191505060405180910390fd5b50506000548114611a58576040517f08c379a000000000000000000000000000000000000000000000000000000000815260040180806020018281038252601f8152602001807f5265656e7472616e637947756172643a207265656e7472616e742063616c6c0081525060200191505060405180910390fd5b505050565b600160008082825401925050819055506000805490506001151573acd746993f60e807fbf69f646e42daeda63a4cfc73ffffffffffffffffffffffffffffffffffffffff1663c4c77a79856040518263ffffffff1660e01b81526004018082815260200191505060206040518083038186803b158015611adc57600080fd5b505afa158015611af0573d6000803e3d6000fd5b505050506040513d6020811015611b0657600080fd5b8101908080519060200190929190505050151514611b6f576040517f08c379a00000000000000000000000000000000000000000000000000000000081526004018080602001828103825260228152602001806183c96022913960400191505060405180910390fd5b6001151573acd746993f60e807fbf69f646e42daeda63a4cfc73ffffffffffffffffffffffffffffffffffffffff16637a2b0587896040518263ffffffff1660e01b8152600401808273ffffffffffffffffffffffffffffffffffffffff1673ffffffffffffffffffffffffffffffffffffffff16815260200191505060206040518083038186803b158015611c0457600080fd5b505afa158015611c18573d6000803e3d6000fd5b505050506040513d6020811015611c2e57600080fd5b8101908080519060200190929190505050151514611cb4576040517f08c379a00000000000000000000000000000000000000000000000000000000081526004018080602001828103825260178152602001807f6974726164653a20696e76616c6964207265736572766500000000000000000081525060200191505060405180910390fd5b611cf33330611ccc85896171df90919063ffffffff16565b8a73ffffffffffffffffffffffffffffffffffffffff16617267909392919063ffffffff16565b73acd746993f60e807fbf69f646e42daeda63a4cfc73ffffffffffffffffffffffffffffffffffffffff16632dc445a38833886040518463ffffffff1660e01b8152600401808473ffffffffffffffffffffffffffffffffffffffff1673ffffffffffffffffffffffffffffffffffffffff1681526020018373ffffffffffffffffffffffffffffffffffffffff1673ffffffffffffffffffffffffffffffffffffffff1681526020018281526020019350505050600060405180830381600087803b158015611dc257600080fd5b505af1158015611dd6573d6000803e3d6000fd5b5050505073acd746993f60e807fbf69f646e42daeda63a4cfc73ffffffffffffffffffffffffffffffffffffffff1663ede26bc8886040518263ffffffff1660e01b8152600401808273ffffffffffffffffffffffffffffffffffffffff1673ffffffffffffffffffffffffffffffffffffffff16815260200191505060206040518083038186803b158015611e6b57600080fd5b505afa158015611e7f573d6000803e3d6000fd5b505050506040513d6020811015611e9557600080fd5b810190808051906020019092919050505073ffffffffffffffffffffffffffffffffffffffff1663b6b55f25611ed484886171df90919063ffffffff16565b6040518263ffffffff1660e01b815260040180828152602001915050600060405180830381600087803b158015611f0a57600080fd5b505af1158015611f1e573d6000803e3d6000fd5b505050506000611f37848761710f90919063ffffffff16565b9050600073acd746993f60e807fbf69f646e42daeda63a4cfc73ffffffffffffffffffffffffffffffffffffffff16636b2bad158a6040518263ffffffff1660e01b8152600401808273ffffffffffffffffffffffffffffffffffffffff1673ffffffffffffffffffffffffffffffffffffffff16815260200191505060206040518083038186803b158015611fcc57600080fd5b505afa158015611fe0573d6000803e3d6000fd5b505050506040513d6020811015611ff657600080fd5b810190808051906020019092919050505090506000809050600082141561201f57829050612112565b61210f8261210173acd746993f60e807fbf69f646e42daeda63a4cfc73ffffffffffffffffffffffffffffffffffffffff16634d44ac4f8e6040518263ffffffff1660e01b8152600401808273ffffffffffffffffffffffffffffffffffffffff1673ffffffffffffffffffffffffffffffffffffffff16815260200191505060206040518083038186803b1580156120b757600080fd5b505afa1580156120cb573d6000803e3d6000fd5b505050506040513d60208110156120e157600080fd5b81019080805190602001909291905050508661710f90919063ffffffff16565b61719590919063ffffffff16565b90505b73acd746993f60e807fbf69f646e42daeda63a4cfc73ffffffffffffffffffffffffffffffffffffffff16638cad6e778b33846040518463ffffffff1660e01b8152600401808473ffffffffffffffffffffffffffffffffffffffff1673ffffffffffffffffffffffffffffffffffffffff1681526020018373ffffffffffffffffffffffffffffffffffffffff1673ffffffffffffffffffffffffffffffffffffffff1681526020018281526020019350505050600060405180830381600087803b1580156121e157600080fd5b505af11580156121f5573d6000803e3d6000fd5b5050505073acd746993f60e807fbf69f646e42daeda63a4cfc73ffffffffffffffffffffffffffffffffffffffff166316e6b4878b856040518363ffffffff1660e01b8152600401808373ffffffffffffffffffffffffffffffffffffffff1673ffffffffffffffffffffffffffffffffffffffff16815260200182815260200192505050600060405180830381600087803b15801561229457600080fd5b505af11580156122a8573d6000803e3d6000fd5b50505050600073acd746993f60e807fbf69f646e42daeda63a4cfc73ffffffffffffffffffffffffffffffffffffffff16631663999e8c6040518263ffffffff1660e01b8152600401808273ffffffffffffffffffffffffffffffffffffffff1673ffffffffffffffffffffffffffffffffffffffff16815260200191505060206040518083038186803b15801561233f57600080fd5b505afa158015612353573d6000803e3d6000fd5b505050506040513d602081101561236957600080fd5b81019080805190602001909291905050509050600073acd746993f60e807fbf69f646e42daeda63a4cfc73ffffffffffffffffffffffffffffffffffffffff16631663999e8c6040518263ffffffff1660e01b8152600401808273ffffffffffffffffffffffffffffffffffffffff1673ffffffffffffffffffffffffffffffffffffffff16815260200191505060206040518083038186803b15801561240f57600080fd5b505afa158015612423573d6000803e3d6000fd5b505050506040513d602081101561243957600080fd5b8101908080519060200190929190505050905060008b73ffffffffffffffffffffffffffffffffffffffff166370a08231306040518263ffffffff1660e01b8152600401808273ffffffffffffffffffffffffffffffffffffffff1673ffffffffffffffffffffffffffffffffffffffff16815260200191505060206040518083038186803b1580156124cb57600080fd5b505afa1580156124df573d6000803e3d6000fd5b505050506040513d60208110156124f557600080fd5b810190808051906020019092919050505014612579576040517f08c379a00000000000000000000000000000000000000000000000000000000081526004018080602001828103825260198152602001807f6974726164653a20756e657870656374656420726573756c740000000000000081525060200191505060405180910390fd5b7345f783cce6b7ff23b2ab2d70e416cdb7d6055f5173ffffffffffffffffffffffffffffffffffffffff1663a6417ed68383888d6040518563ffffffff1660e01b8152600401808560ff16600f0b81526020018460ff16600f0b8152602001838152602001828152602001945050505050600060405180830381600087803b15801561260457600080fd5b505af1158015612618573d6000803e3d6000fd5b5050505060008b73ffffffffffffffffffffffffffffffffffffffff166370a08231306040518263ffffffff1660e01b8152600401808273ffffffffffffffffffffffffffffffffffffffff1673ffffffffffffffffffffffffffffffffffffffff16815260200191505060206040518083038186803b15801561269b57600080fd5b505afa1580156126af573d6000803e3d6000fd5b505050506040513d60208110156126c557600080fd5b8101908080519060200190929190505050905073acd746993f60e807fbf69f646e42daeda63a4cfc73ffffffffffffffffffffffffffffffffffffffff16632eaed1018d33846040518463ffffffff1660e01b8152600401808473ffffffffffffffffffffffffffffffffffffffff1673ffffffffffffffffffffffffffffffffffffffff1681526020018373ffffffffffffffffffffffffffffffffffffffff1673ffffffffffffffffffffffffffffffffffffffff1681526020018281526020019350505050600060405180830381600087803b1580156127a757600080fd5b505af11580156127bb573d6000803e3d6000fd5b5050505073acd746993f60e807fbf69f646e42daeda63a4cfc73ffffffffffffffffffffffffffffffffffffffff1663ede26bc88d6040518263ffffffff1660e01b8152600401808273ffffffffffffffffffffffffffffffffffffffff1673ffffffffffffffffffffffffffffffffffffffff16815260200191505060206040518083038186803b15801561285057600080fd5b505afa158015612864573d6000803e3d6000fd5b505050506040513d602081101561287a57600080fd5b810190808051906020019092919050505073ffffffffffffffffffffffffffffffffffffffff1663b6b55f25826040518263ffffffff1660e01b815260040180828152602001915050600060405180830381600087803b1580156128dd57600080fd5b505af11580156128f1573d6000803e3d6000fd5b505050506001151561290233615e66565b151514612977576040517f08c379a000000000000000000000000000000000000000000000000000000000815260040180806020018281038252601f8152602001807f6974726164653a206163636f756e7420776f756c64206c69717569646174650081525060200191505060405180910390fd5b50505050505060005481146129f4576040517f08c379a000000000000000000000000000000000000000000000000000000000815260040180806020018281038252601f8152602001807f5265656e7472616e637947756172643a207265656e7472616e742063616c6c0081525060200191505060405180910390fd5b50505050505050565b600160008082825401925050819055506000805490506001151573acd746993f60e807fbf69f646e42daeda63a4cfc73ffffffffffffffffffffffffffffffffffffffff16637a2b0587876040518263ffffffff1660e01b8152600401808273ffffffffffffffffffffffffffffffffffffffff1673ffffffffffffffffffffffffffffffffffffffff16815260200191505060206040518083038186803b158015612aa857600080fd5b505afa158015612abc573d6000803e3d6000fd5b505050506040513d6020811015612ad257600080fd5b8101908080519060200190929190505050151514612b58576040517f08c379a00000000000000000000000000000000000000000000000000000000081526004018080602001828103825260178152602001807f6974726164653a20696e76616c6964207265736572766500000000000000000081525060200191505060405180910390fd5b73acd746993f60e807fbf69f646e42daeda63a4cfc73ffffffffffffffffffffffffffffffffffffffff1663b33dc19086336040518363ffffffff1660e01b8152600401808373ffffffffffffffffffffffffffffffffffffffff1673ffffffffffffffffffffffffffffffffffffffff1681526020018273ffffffffffffffffffffffffffffffffffffffff1673ffffffffffffffffffffffffffffffffffffffff1681526020019250505060206040518083038186803b158015612c1d57600080fd5b505afa158015612c31573d6000803e3d6000fd5b505050506040513d6020811015612c4757600080fd5b8101908080519060200190929190505050831115612ccd576040517f08c379a000000000000000000000000000000000000000000000000000000000815260040180806020018281038252601c8152602001807f6974726164653a20696e73756666696369656e742062616c616e63650000000081525060200191505060405180910390fd5b60008573ffffffffffffffffffffffffffffffffffffffff166370a08231306040518263ffffffff1660e01b8152600401808273ffffffffffffffffffffffffffffffffffffffff1673ffffffffffffffffffffffffffffffffffffffff16815260200191505060206040518083038186803b158015612d4c57600080fd5b505afa158015612d60573d6000803e3d6000fd5b505050506040513d6020811015612d7657600080fd5b810190808051906020019092919050505014612dfa576040517f08c379a00000000000000000000000000000000000000000000000000000000081526004018080602001828103825260198152602001807f6974726164653a20756e657870656374656420726573756c740000000000000081525060200191505060405180910390fd5b600073acd746993f60e807fbf69f646e42daeda63a4cfc73ffffffffffffffffffffffffffffffffffffffff1663ede26bc8876040518263ffffffff1660e01b8152600401808273ffffffffffffffffffffffffffffffffffffffff1673ffffffffffffffffffffffffffffffffffffffff16815260200191505060206040518083038186803b158015612e8d57600080fd5b505afa158015612ea1573d6000803e3d6000fd5b505050506040513d6020811015612eb757600080fd5b810190808051906020019092919050505073ffffffffffffffffffffffffffffffffffffffff166377c7b8fc6040518163ffffffff1660e01b815260040160206040518083038186803b158015612f0d57600080fd5b505afa158015612f21573d6000803e3d6000fd5b505050506040513d6020811015612f3757600080fd5b810190808051906020019092919050505090506000612f8c6001612f7e84612f70670de0b6b3a76400008a61710f90919063ffffffff16565b61719590919063ffffffff16565b6171df90919063ffffffff16565b905073acd746993f60e807fbf69f646e42daeda63a4cfc73ffffffffffffffffffffffffffffffffffffffff1663ede26bc8886040518263ffffffff1660e01b8152600401808273ffffffffffffffffffffffffffffffffffffffff1673ffffffffffffffffffffffffffffffffffffffff16815260200191505060206040518083038186803b15801561301f57600080fd5b505afa158015613033573d6000803e3d6000fd5b505050506040513d602081101561304957600080fd5b810190808051906020019092919050505073ffffffffffffffffffffffffffffffffffffffff16632e1a7d4d826040518263ffffffff1660e01b815260040180828152602001915050600060405180830381600087803b1580156130ac57600080fd5b505af11580156130c0573d6000803e3d6000fd5b50505050848773ffffffffffffffffffffffffffffffffffffffff166370a08231306040518263ffffffff1660e01b8152600401808273ffffffffffffffffffffffffffffffffffffffff1673ffffffffffffffffffffffffffffffffffffffff16815260200191505060206040518083038186803b15801561314257600080fd5b505afa158015613156573d6000803e3d6000fd5b505050506040513d602081101561316c57600080fd5b810190808051906020019092919050505010156131f1576040517f08c379a00000000000000000000000000000000000000000000000000000000081526004018080602001828103825260198152602001807f6974726164653a20756e657870656374656420726573756c740000000000000081525060200191505060405180910390fd5b60008673ffffffffffffffffffffffffffffffffffffffff166370a08231306040518263ffffffff1660e01b8152600401808273ffffffffffffffffffffffffffffffffffffffff1673ffffffffffffffffffffffffffffffffffffffff16815260200191505060206040518083038186803b15801561327057600080fd5b505afa158015613284573d6000803e3d6000fd5b505050506040513d602081101561329a57600080fd5b81019080805190602001909291905050501461331e576040517f08c379a00000000000000000000000000000000000000000000000000000000081526004018080602001828103825260198152602001807f6974726164653a20756e657870656374656420726573756c740000000000000081525060200191505060405180910390fd5b600073acd746993f60e807fbf69f646e42daeda63a4cfc73ffffffffffffffffffffffffffffffffffffffff16631663999e896040518263ffffffff1660e01b8152600401808273ffffffffffffffffffffffffffffffffffffffff1673ffffffffffffffffffffffffffffffffffffffff16815260200191505060206040518083038186803b1580156133b157600080fd5b505afa1580156133c5573d6000803e3d6000fd5b505050506040513d60208110156133db57600080fd5b81019080805190602001909291905050509050600073acd746993f60e807fbf69f646e42daeda63a4cfc73ffffffffffffffffffffffffffffffffffffffff16631663999e896040518263ffffffff1660e01b8152600401808273ffffffffffffffffffffffffffffffffffffffff1673ffffffffffffffffffffffffffffffffffffffff16815260200191505060206040518083038186803b15801561348157600080fd5b505afa158015613495573d6000803e3d6000fd5b505050506040513d60208110156134ab57600080fd5b810190808051906020019092919050505090507345f783cce6b7ff23b2ab2d70e416cdb7d6055f5173ffffffffffffffffffffffffffffffffffffffff1663a6417ed683838a8a6040518563ffffffff1660e01b8152600401808560ff16600f0b81526020018460ff16600f0b8152602001838152602001828152602001945050505050600060405180830381600087803b15801561354957600080fd5b505af115801561355d573d6000803e3d6000fd5b5050505073acd746993f60e807fbf69f646e42daeda63a4cfc73ffffffffffffffffffffffffffffffffffffffff1663a506e38c8a338a6040518463ffffffff1660e01b8152600401808473ffffffffffffffffffffffffffffffffffffffff1673ffffffffffffffffffffffffffffffffffffffff1681526020018373ffffffffffffffffffffffffffffffffffffffff1673ffffffffffffffffffffffffffffffffffffffff1681526020018281526020019350505050600060405180830381600087803b15801561363057600080fd5b505af1158015613644573d6000803e3d6000fd5b5050505060008873ffffffffffffffffffffffffffffffffffffffff166370a08231306040518263ffffffff1660e01b8152600401808273ffffffffffffffffffffffffffffffffffffffff1673ffffffffffffffffffffffffffffffffffffffff16815260200191505060206040518083038186803b1580156136c757600080fd5b505afa1580156136db573d6000803e3d6000fd5b505050506040513d60208110156136f157600080fd5b8101908080519060200190929190505050905073acd746993f60e807fbf69f646e42daeda63a4cfc73ffffffffffffffffffffffffffffffffffffffff16632eaed1018a33846040518463ffffffff1660e01b8152600401808473ffffffffffffffffffffffffffffffffffffffff1673ffffffffffffffffffffffffffffffffffffffff1681526020018373ffffffffffffffffffffffffffffffffffffffff1673ffffffffffffffffffffffffffffffffffffffff1681526020018281526020019350505050600060405180830381600087803b1580156137d357600080fd5b505af11580156137e7573d6000803e3d6000fd5b5050505073acd746993f60e807fbf69f646e42daeda63a4cfc73ffffffffffffffffffffffffffffffffffffffff1663ede26bc88a6040518263ffffffff1660e01b8152600401808273ffffffffffffffffffffffffffffffffffffffff1673ffffffffffffffffffffffffffffffffffffffff16815260200191505060206040518083038186803b15801561387c57600080fd5b505afa158015613890573d6000803e3d6000fd5b505050506040513d60208110156138a657600080fd5b810190808051906020019092919050505073ffffffffffffffffffffffffffffffffffffffff1663b6b55f25826040518263ffffffff1660e01b815260040180828152602001915050600060405180830381600087803b15801561390957600080fd5b505af115801561391d573d6000803e3d6000fd5b5050505060008a73ffffffffffffffffffffffffffffffffffffffff166370a08231306040518263ffffffff1660e01b8152600401808273ffffffffffffffffffffffffffffffffffffffff1673ffffffffffffffffffffffffffffffffffffffff16815260200191505060206040518083038186803b1580156139a057600080fd5b505afa1580156139b4573d6000803e3d6000fd5b505050506040513d60208110156139ca57600080fd5b81019080805190602001909291905050501115613bcf5773acd746993f60e807fbf69f646e42daeda63a4cfc73ffffffffffffffffffffffffffffffffffffffff1663ede26bc88b6040518263ffffffff1660e01b8152600401808273ffffffffffffffffffffffffffffffffffffffff1673ffffffffffffffffffffffffffffffffffffffff16815260200191505060206040518083038186803b158015613a7257600080fd5b505afa158015613a86573d6000803e3d6000fd5b505050506040513d6020811015613a9c57600080fd5b810190808051906020019092919050505073ffffffffffffffffffffffffffffffffffffffff1663b6b55f258b73ffffffffffffffffffffffffffffffffffffffff166370a08231306040518263ffffffff1660e01b8152600401808273ffffffffffffffffffffffffffffffffffffffff1673ffffffffffffffffffffffffffffffffffffffff16815260200191505060206040518083038186803b158015613b4557600080fd5b505afa158015613b59573d6000803e3d6000fd5b505050506040513d6020811015613b6f57600080fd5b81019080805190602001909291905050506040518263ffffffff1660e01b815260040180828152602001915050600060405180830381600087803b158015613bb657600080fd5b505af1158015613bca573d6000803e3d6000fd5b505050505b60011515613bdc33615e66565b151514613c51576040517f08c379a000000000000000000000000000000000000000000000000000000000815260040180806020018281038252601f8152602001807f6974726164653a206163636f756e7420776f756c64206c69717569646174650081525060200191505060405180910390fd5b50505050506000548114613ccd576040517f08c379a000000000000000000000000000000000000000000000000000000000815260040180806020018281038252601f8152602001807f5265656e7472616e637947756172643a207265656e7472616e742063616c6c0081525060200191505060405180910390fd5b5050505050565b606481565b73acd746993f60e807fbf69f646e42daeda63a4cfc81565b600061405173acd746993f60e807fbf69f646e42daeda63a4cfc73ffffffffffffffffffffffffffffffffffffffff1663a2a00ed673dac17f958d2ee523a2206206994597c13d831ec7856040518363ffffffff1660e01b8152600401808373ffffffffffffffffffffffffffffffffffffffff1673ffffffffffffffffffffffffffffffffffffffff1681526020018273ffffffffffffffffffffffffffffffffffffffff1673ffffffffffffffffffffffffffffffffffffffff1681526020019250505060206040518083038186803b158015613dcf57600080fd5b505afa158015613de3573d6000803e3d6000fd5b505050506040513d6020811015613df957600080fd5b810190808051906020019092919050505061404373acd746993f60e807fbf69f646e42daeda63a4cfc73ffffffffffffffffffffffffffffffffffffffff1663a2a00ed673a0b86991c6218b36c1d19d4a2e9eb0ce3606eb48876040518363ffffffff1660e01b8152600401808373ffffffffffffffffffffffffffffffffffffffff1673ffffffffffffffffffffffffffffffffffffffff1681526020018273ffffffffffffffffffffffffffffffffffffffff1673ffffffffffffffffffffffffffffffffffffffff1681526020019250505060206040518083038186803b158015613ee657600080fd5b505afa158015613efa573d6000803e3d6000fd5b505050506040513d6020811015613f1057600080fd5b810190808051906020019092919050505073acd746993f60e807fbf69f646e42daeda63a4cfc73ffffffffffffffffffffffffffffffffffffffff1663a2a00ed6736b175474e89094c44da98b954eedeac495271d0f886040518363ffffffff1660e01b8152600401808373ffffffffffffffffffffffffffffffffffffffff1673ffffffffffffffffffffffffffffffffffffffff1681526020018273ffffffffffffffffffffffffffffffffffffffff1673ffffffffffffffffffffffffffffffffffffffff1681526020019250505060206040518083038186803b158015613ffa57600080fd5b505afa15801561400e573d6000803e3d6000fd5b505050506040513d602081101561402457600080fd5b81019080805190602001909291905050506171df90919063ffffffff16565b6171df90919063ffffffff16565b9050919050565b600160008082825401925050819055506000805490506001151573acd746993f60e807fbf69f646e42daeda63a4cfc73ffffffffffffffffffffffffffffffffffffffff16637a2b0587846040518263ffffffff1660e01b8152600401808273ffffffffffffffffffffffffffffffffffffffff1673ffffffffffffffffffffffffffffffffffffffff16815260200191505060206040518083038186803b15801561410357600080fd5b505afa158015614117573d6000803e3d6000fd5b505050506040513d602081101561412d57600080fd5b81019080805190602001909291905050501515146141b3576040517f08c379a00000000000000000000000000000000000000000000000000000000081526004018080602001828103825260178152602001807f6974726164653a20696e76616c6964207265736572766500000000000000000081525060200191505060405180910390fd5b600073acd746993f60e807fbf69f646e42daeda63a4cfc73ffffffffffffffffffffffffffffffffffffffff1663a2a00ed684336040518363ffffffff1660e01b8152600401808373ffffffffffffffffffffffffffffffffffffffff1673ffffffffffffffffffffffffffffffffffffffff1681526020018273ffffffffffffffffffffffffffffffffffffffff1673ffffffffffffffffffffffffffffffffffffffff1681526020019250505060206040518083038186803b15801561427a57600080fd5b505afa15801561428e573d6000803e3d6000fd5b505050506040513d60208110156142a457600080fd5b810190808051906020019092919050505090506000811115614587576142ed3330838673ffffffffffffffffffffffffffffffffffffffff16617267909392919063ffffffff16565b73acd746993f60e807fbf69f646e42daeda63a4cfc73ffffffffffffffffffffffffffffffffffffffff166379f3c01484836040518363ffffffff1660e01b8152600401808373ffffffffffffffffffffffffffffffffffffffff1673ffffffffffffffffffffffffffffffffffffffff16815260200182815260200192505050600060405180830381600087803b15801561438857600080fd5b505af115801561439c573d6000803e3d6000fd5b5050505073acd746993f60e807fbf69f646e42daeda63a4cfc73ffffffffffffffffffffffffffffffffffffffff166358bb2a4d843373acd746993f60e807fbf69f646e42daeda63a4cfc73ffffffffffffffffffffffffffffffffffffffff1663498b5ae888336040518363ffffffff1660e01b8152600401808373ffffffffffffffffffffffffffffffffffffffff1673ffffffffffffffffffffffffffffffffffffffff1681526020018273ffffffffffffffffffffffffffffffffffffffff1673ffffffffffffffffffffffffffffffffffffffff1681526020019250505060206040518083038186803b15801561449757600080fd5b505afa1580156144ab573d6000803e3d6000fd5b505050506040513d60208110156144c157600080fd5b81019080805190602001909291905050506040518463ffffffff1660e01b8152600401808473ffffffffffffffffffffffffffffffffffffffff1673ffffffffffffffffffffffffffffffffffffffff1681526020018373ffffffffffffffffffffffffffffffffffffffff1673ffffffffffffffffffffffffffffffffffffffff1681526020018281526020019350505050600060405180830381600087803b15801561456e57600080fd5b505af1158015614582573d6000803e3d6000fd5b505050505b6001151561459433615e66565b151514614609576040517f08c379a000000000000000000000000000000000000000000000000000000000815260040180806020018281038252601f8152602001807f6974726164653a206163636f756e7420776f756c64206c69717569646174650081525060200191505060405180910390fd5b506000548114614681576040517f08c379a000000000000000000000000000000000000000000000000000000000815260040180806020018281038252601f8152602001807f5265656e7472616e637947756172643a207265656e7472616e742063616c6c0081525060200191505060405180910390fd5b5050565b600160008082825401925050819055506000805490506146aa86868686866000611a5d565b6000548114614721576040517f08c379a000000000000000000000000000000000000000000000000000000000815260040180806020018281038252601f8152602001807f5265656e7472616e637947756172643a207265656e7472616e742063616c6c0081525060200191505060405180910390fd5b505050505050565b600160008082825401925050819055506000805490506001151573acd746993f60e807fbf69f646e42daeda63a4cfc73ffffffffffffffffffffffffffffffffffffffff16637a2b0587866040518263ffffffff1660e01b8152600401808273ffffffffffffffffffffffffffffffffffffffff1673ffffffffffffffffffffffffffffffffffffffff16815260200191505060206040518083038186803b1580156147d457600080fd5b505afa1580156147e8573d6000803e3d6000fd5b505050506040513d60208110156147fe57600080fd5b8101908080519060200190929190505050151514614884576040517f08c379a00000000000000000000000000000000000000000000000000000000081526004018080602001828103825260178152602001807f6974726164653a20696e76616c6964207265736572766500000000000000000081525060200191505060405180910390fd5b600073acd746993f60e807fbf69f646e42daeda63a4cfc73ffffffffffffffffffffffffffffffffffffffff1663a2a00ed686866040518363ffffffff1660e01b8152600401808373ffffffffffffffffffffffffffffffffffffffff1673ffffffffffffffffffffffffffffffffffffffff1681526020018273ffffffffffffffffffffffffffffffffffffffff1673ffffffffffffffffffffffffffffffffffffffff1681526020019250505060206040518083038186803b15801561494b57600080fd5b505afa15801561495f573d6000803e3d6000fd5b505050506040513d602081101561497557600080fd5b8101908080519060200190929190505050905080831115614994578092505b6149c13330858873ffffffffffffffffffffffffffffffffffffffff16617267909392919063ffffffff16565b6000614ae782614ad98673acd746993f60e807fbf69f646e42daeda63a4cfc73ffffffffffffffffffffffffffffffffffffffff1663498b5ae88b8b6040518363ffffffff1660e01b8152600401808373ffffffffffffffffffffffffffffffffffffffff1673ffffffffffffffffffffffffffffffffffffffff1681526020018273ffffffffffffffffffffffffffffffffffffffff1673ffffffffffffffffffffffffffffffffffffffff1681526020019250505060206040518083038186803b158015614a9057600080fd5b505afa158015614aa4573d6000803e3d6000fd5b505050506040513d6020811015614aba57600080fd5b810190808051906020019092919050505061710f90919063ffffffff16565b61719590919063ffffffff16565b905073acd746993f60e807fbf69f646e42daeda63a4cfc73ffffffffffffffffffffffffffffffffffffffff166379f3c01487866040518363ffffffff1660e01b8152600401808373ffffffffffffffffffffffffffffffffffffffff1673ffffffffffffffffffffffffffffffffffffffff16815260200182815260200192505050600060405180830381600087803b158015614b8457600080fd5b505af1158015614b98573d6000803e3d6000fd5b5050505073acd746993f60e807fbf69f646e42daeda63a4cfc73ffffffffffffffffffffffffffffffffffffffff166358bb2a4d8787846040518463ffffffff1660e01b8152600401808473ffffffffffffffffffffffffffffffffffffffff1673ffffffffffffffffffffffffffffffffffffffff1681526020018373ffffffffffffffffffffffffffffffffffffffff1673ffffffffffffffffffffffffffffffffffffffff1681526020018281526020019350505050600060405180830381600087803b158015614c6b57600080fd5b505af1158015614c7f573d6000803e3d6000fd5b5050505060011515614c9033615e66565b151514614d05576040517f08c379a000000000000000000000000000000000000000000000000000000000815260040180806020018281038252601f8152602001807f6974726164653a206163636f756e7420776f756c64206c69717569646174650081525060200191505060405180910390fd5b50506000548114614d7e576040517f08c379a000000000000000000000000000000000000000000000000000000000815260040180806020018281038252601f8152602001807f5265656e7472616e637947756172643a207265656e7472616e742063616c6c0081525060200191505060405180910390fd5b50505050565b603281565b614d9161617f565b614e03576040517f08c379a00000000000000000000000000000000000000000000000000000000081526004018080602001828103825260208152602001807f4f776e61626c653a2063616c6c6572206973206e6f7420746865206f776e657281525060200191505060405180910390fd5b600073ffffffffffffffffffffffffffffffffffffffff16600160009054906101000a900473ffffffffffffffffffffffffffffffffffffffff1673ffffffffffffffffffffffffffffffffffffffff167f8be0079c531659141344cd1fd0a4f28419497f9722a3daafe3b4186f6b6457e060405160405180910390a36000600160006101000a81548173ffffffffffffffffffffffffffffffffffffffff021916908373ffffffffffffffffffffffffffffffffffffffff160217905550565b600160008082825401925050819055506000805490506001151573acd746993f60e807fbf69f646e42daeda63a4cfc73ffffffffffffffffffffffffffffffffffffffff16637a2b0587856040518263ffffffff1660e01b8152600401808273ffffffffffffffffffffffffffffffffffffffff1673ffffffffffffffffffffffffffffffffffffffff16815260200191505060206040518083038186803b158015614f6f57600080fd5b505afa158015614f83573d6000803e3d6000fd5b505050506040513d6020811015614f9957600080fd5b810190808051906020019092919050505015151461501f576040517f08c379a00000000000000000000000000000000000000000000000000000000081526004018080602001828103825260178152602001807f6974726164653a20696e76616c6964207265736572766500000000000000000081525060200191505060405180910390fd5b73acd746993f60e807fbf69f646e42daeda63a4cfc73ffffffffffffffffffffffffffffffffffffffff1663b33dc19084336040518363ffffffff1660e01b8152600401808373ffffffffffffffffffffffffffffffffffffffff1673ffffffffffffffffffffffffffffffffffffffff1681526020018273ffffffffffffffffffffffffffffffffffffffff1673ffffffffffffffffffffffffffffffffffffffff1681526020019250505060206040518083038186803b1580156150e457600080fd5b505afa1580156150f8573d6000803e3d6000fd5b505050506040513d602081101561510e57600080fd5b8101908080519060200190929190505050821115615194576040517f08c379a000000000000000000000000000000000000000000000000000000000815260040180806020018281038252601c8152602001807f6974726164653a20696e73756666696369656e742062616c616e63650000000081525060200191505060405180910390fd5b60008373ffffffffffffffffffffffffffffffffffffffff166370a08231306040518263ffffffff1660e01b8152600401808273ffffffffffffffffffffffffffffffffffffffff1673ffffffffffffffffffffffffffffffffffffffff16815260200191505060206040518083038186803b15801561521357600080fd5b505afa158015615227573d6000803e3d6000fd5b505050506040513d602081101561523d57600080fd5b8101908080519060200190929190505050146152c1576040517f08c379a00000000000000000000000000000000000000000000000000000000081526004018080602001828103825260198152602001807f6974726164653a20756e657870656374656420726573756c740000000000000081525060200191505060405180910390fd5b600073acd746993f60e807fbf69f646e42daeda63a4cfc73ffffffffffffffffffffffffffffffffffffffff1663a2a00ed685336040518363ffffffff1660e01b8152600401808373ffffffffffffffffffffffffffffffffffffffff1673ffffffffffffffffffffffffffffffffffffffff1681526020018273ffffffffffffffffffffffffffffffffffffffff1673ffffffffffffffffffffffffffffffffffffffff1681526020019250505060206040518083038186803b15801561538857600080fd5b505afa15801561539c573d6000803e3d6000fd5b505050506040513d60208110156153b257600080fd5b810190808051906020019092919050505090506000809050818411156153eb576153e5828561736d90919063ffffffff16565b90508193505b600073acd746993f60e807fbf69f646e42daeda63a4cfc73ffffffffffffffffffffffffffffffffffffffff1663ede26bc8876040518263ffffffff1660e01b8152600401808273ffffffffffffffffffffffffffffffffffffffff1673ffffffffffffffffffffffffffffffffffffffff16815260200191505060206040518083038186803b15801561547e57600080fd5b505afa158015615492573d6000803e3d6000fd5b505050506040513d60208110156154a857600080fd5b810190808051906020019092919050505073ffffffffffffffffffffffffffffffffffffffff166377c7b8fc6040518163ffffffff1660e01b815260040160206040518083038186803b1580156154fe57600080fd5b505afa158015615512573d6000803e3d6000fd5b505050506040513d602081101561552857600080fd5b81019080805190602001909291905050509050600061557d600161556f84615561670de0b6b3a76400008b61710f90919063ffffffff16565b61719590919063ffffffff16565b6171df90919063ffffffff16565b905073acd746993f60e807fbf69f646e42daeda63a4cfc73ffffffffffffffffffffffffffffffffffffffff1663ede26bc8886040518263ffffffff1660e01b8152600401808273ffffffffffffffffffffffffffffffffffffffff1673ffffffffffffffffffffffffffffffffffffffff16815260200191505060206040518083038186803b15801561561057600080fd5b505afa158015615624573d6000803e3d6000fd5b505050506040513d602081101561563a57600080fd5b810190808051906020019092919050505073ffffffffffffffffffffffffffffffffffffffff16632e1a7d4d826040518263ffffffff1660e01b815260040180828152602001915050600060405180830381600087803b15801561569d57600080fd5b505af11580156156b1573d6000803e3d6000fd5b5050505060008411156159825760006157e4856157d68973acd746993f60e807fbf69f646e42daeda63a4cfc73ffffffffffffffffffffffffffffffffffffffff1663498b5ae88d336040518363ffffffff1660e01b8152600401808373ffffffffffffffffffffffffffffffffffffffff1673ffffffffffffffffffffffffffffffffffffffff1681526020018273ffffffffffffffffffffffffffffffffffffffff1673ffffffffffffffffffffffffffffffffffffffff1681526020019250505060206040518083038186803b15801561578d57600080fd5b505afa1580156157a1573d6000803e3d6000fd5b505050506040513d60208110156157b757600080fd5b810190808051906020019092919050505061710f90919063ffffffff16565b61719590919063ffffffff16565b905073acd746993f60e807fbf69f646e42daeda63a4cfc73ffffffffffffffffffffffffffffffffffffffff166379f3c01489896040518363ffffffff1660e01b8152600401808373ffffffffffffffffffffffffffffffffffffffff1673ffffffffffffffffffffffffffffffffffffffff16815260200182815260200192505050600060405180830381600087803b15801561588157600080fd5b505af1158015615895573d6000803e3d6000fd5b5050505073acd746993f60e807fbf69f646e42daeda63a4cfc73ffffffffffffffffffffffffffffffffffffffff166358bb2a4d8933846040518463ffffffff1660e01b8152600401808473ffffffffffffffffffffffffffffffffffffffff1673ffffffffffffffffffffffffffffffffffffffff1681526020018373ffffffffffffffffffffffffffffffffffffffff1673ffffffffffffffffffffffffffffffffffffffff1681526020018281526020019350505050600060405180830381600087803b15801561596857600080fd5b505af115801561597c573d6000803e3d6000fd5b50505050505b60008311156159b7576159b633848973ffffffffffffffffffffffffffffffffffffffff1661703e9092919063ffffffff16565b5b73acd746993f60e807fbf69f646e42daeda63a4cfc73ffffffffffffffffffffffffffffffffffffffff1663a506e38c8833896040518463ffffffff1660e01b8152600401808473ffffffffffffffffffffffffffffffffffffffff1673ffffffffffffffffffffffffffffffffffffffff1681526020018373ffffffffffffffffffffffffffffffffffffffff1673ffffffffffffffffffffffffffffffffffffffff1681526020018281526020019350505050600060405180830381600087803b158015615a8657600080fd5b505af1158015615a9a573d6000803e3d6000fd5b5050505060008773ffffffffffffffffffffffffffffffffffffffff166370a08231306040518263ffffffff1660e01b8152600401808273ffffffffffffffffffffffffffffffffffffffff1673ffffffffffffffffffffffffffffffffffffffff16815260200191505060206040518083038186803b158015615b1d57600080fd5b505afa158015615b31573d6000803e3d6000fd5b505050506040513d6020811015615b4757600080fd5b81019080805190602001909291905050501115615d4c5773acd746993f60e807fbf69f646e42daeda63a4cfc73ffffffffffffffffffffffffffffffffffffffff1663ede26bc8886040518263ffffffff1660e01b8152600401808273ffffffffffffffffffffffffffffffffffffffff1673ffffffffffffffffffffffffffffffffffffffff16815260200191505060206040518083038186803b158015615bef57600080fd5b505afa158015615c03573d6000803e3d6000fd5b505050506040513d6020811015615c1957600080fd5b810190808051906020019092919050505073ffffffffffffffffffffffffffffffffffffffff1663b6b55f258873ffffffffffffffffffffffffffffffffffffffff166370a08231306040518263ffffffff1660e01b8152600401808273ffffffffffffffffffffffffffffffffffffffff1673ffffffffffffffffffffffffffffffffffffffff16815260200191505060206040518083038186803b158015615cc257600080fd5b505afa158015615cd6573d6000803e3d6000fd5b505050506040513d6020811015615cec57600080fd5b81019080805190602001909291905050506040518263ffffffff1660e01b815260040180828152602001915050600060405180830381600087803b158015615d3357600080fd5b505af1158015615d47573d6000803e3d6000fd5b505050505b60011515615d5933615e66565b151514615dce576040517f08c379a000000000000000000000000000000000000000000000000000000000815260040180806020018281038252601f8152602001807f6974726164653a206163636f756e7420776f756c64206c69717569646174650081525060200191505060405180910390fd5b505050506000548114615e49576040517f08c379a000000000000000000000000000000000000000000000000000000000815260040180806020018281038252601f8152602001807f5265656e7472616e637947756172643a207265656e7472616e742063616c6c0081525060200191505060405180910390fd5b505050565b7316de59092dae5ccf4a1e6439d611fd0653f0bd0181565b600080615e7283613cf1565b9050600073acd746993f60e807fbf69f646e42daeda63a4cfc73ffffffffffffffffffffffffffffffffffffffff16634750c726856040518263ffffffff1660e01b8152600401808273ffffffffffffffffffffffffffffffffffffffff1673ffffffffffffffffffffffffffffffffffffffff16815260200191505060206040518083038186803b158015615f0757600080fd5b505afa158015615f1b573d6000803e3d6000fd5b505050506040513d6020811015615f3157600080fd5b81019080805190602001909291905050509050600073acd746993f60e807fbf69f646e42daeda63a4cfc73ffffffffffffffffffffffffffffffffffffffff1663f683bdc0866040518263ffffffff1660e01b8152600401808273ffffffffffffffffffffffffffffffffffffffff1673ffffffffffffffffffffffffffffffffffffffff16815260200191505060206040518083038186803b158015615fd757600080fd5b505afa158015615feb573d6000803e3d6000fd5b505050506040513d602081101561600157600080fd5b810190808051906020019092919050505090508282106160275760019350505050616088565b600061603c838561736d90919063ffffffff16565b90506000616067606461605960328561710f90919063ffffffff16565b61719590919063ffffffff16565b905080831061607e57600195505050505050616088565b6000955050505050505b919050565b600160008082825401925050819055506000805490506160ae833384614729565b6000548114616125576040517f08c379a000000000000000000000000000000000000000000000000000000000815260040180806020018281038252601f8152602001807f5265656e7472616e637947756172643a207265656e7472616e742063616c6c0081525060200191505060405180910390fd5b505050565b6e085d4780b73119b644ae5ecd22b37681565b73a0b86991c6218b36c1d19d4a2e9eb0ce3606eb4881565b6000600160009054906101000a900473ffffffffffffffffffffffffffffffffffffffff16905090565b6000600160009054906101000a900473ffffffffffffffffffffffffffffffffffffffff1673ffffffffffffffffffffffffffffffffffffffff166161c26173b7565b73ffffffffffffffffffffffffffffffffffffffff1614905090565b61625173acd746993f60e807fbf69f646e42daeda63a4cfc7fffffffffffffffffffffffffffffffffffffffffffffffffffffffffffffffff736b175474e89094c44da98b954eedeac495271d0f73ffffffffffffffffffffffffffffffffffffffff166173bf9092919063ffffffff16565b6162c473acd746993f60e807fbf69f646e42daeda63a4cfc7fffffffffffffffffffffffffffffffffffffffffffffffffffffffffffffffff73a0b86991c6218b36c1d19d4a2e9eb0ce3606eb4873ffffffffffffffffffffffffffffffffffffffff166173bf9092919063ffffffff16565b61633273acd746993f60e807fbf69f646e42daeda63a4cfc7fffffffffffffffffffffffffffffffffffffffffffffffffffffffffffffffff6e085d4780b73119b644ae5ecd22b37673ffffffffffffffffffffffffffffffffffffffff166173bf9092919063ffffffff16565b61638673acd746993f60e807fbf69f646e42daeda63a4cfc600073dac17f958d2ee523a2206206994597c13d831ec773ffffffffffffffffffffffffffffffffffffffff166173bf9092919063ffffffff16565b6163f973acd746993f60e807fbf69f646e42daeda63a4cfc7fffffffffffffffffffffffffffffffffffffffffffffffffffffffffffffffff73dac17f958d2ee523a2206206994597c13d831ec773ffffffffffffffffffffffffffffffffffffffff166173bf9092919063ffffffff16565b61646c7316de59092dae5ccf4a1e6439d611fd0653f0bd017fffffffffffffffffffffffffffffffffffffffffffffffffffffffffffffffff736b175474e89094c44da98b954eedeac495271d0f73ffffffffffffffffffffffffffffffffffffffff166173bf9092919063ffffffff16565b6164df73d6ad7a6750a7593e092a9b218d66c0a814a3436e7fffffffffffffffffffffffffffffffffffffffffffffffffffffffffffffffff73a0b86991c6218b36c1d19d4a2e9eb0ce3606eb4873ffffffffffffffffffffffffffffffffffffffff166173bf9092919063ffffffff16565b61654d7373a052500105205d34daf004eab301916da8190f7fffffffffffffffffffffffffffffffffffffffffffffffffffffffffffffffff6e085d4780b73119b644ae5ecd22b37673ffffffffffffffffffffffffffffffffffffffff166173bf9092919063ffffffff16565b6165a17383f798e925bcd4017eb265844fddabb448f1707d600073dac17f958d2ee523a2206206994597c13d831ec773ffffffffffffffffffffffffffffffffffffffff166173bf9092919063ffffffff16565b6166147383f798e925bcd4017eb265844fddabb448f1707d7fffffffffffffffffffffffffffffffffffffffffffffffffffffffffffffffff73dac17f958d2ee523a2206206994597c13d831ec773ffffffffffffffffffffffffffffffffffffffff166173bf9092919063ffffffff16565b6166877345f783cce6b7ff23b2ab2d70e416cdb7d6055f517fffffffffffffffffffffffffffffffffffffffffffffffffffffffffffffffff736b175474e89094c44da98b954eedeac495271d0f73ffffffffffffffffffffffffffffffffffffffff166173bf9092919063ffffffff16565b6166fa7345f783cce6b7ff23b2ab2d70e416cdb7d6055f517fffffffffffffffffffffffffffffffffffffffffffffffffffffffffffffffff73a0b86991c6218b36c1d19d4a2e9eb0ce3606eb4873ffffffffffffffffffffffffffffffffffffffff166173bf9092919063ffffffff16565b6167687345f783cce6b7ff23b2ab2d70e416cdb7d6055f517fffffffffffffffffffffffffffffffffffffffffffffffffffffffffffffffff6e085d4780b73119b644ae5ecd22b37673ffffffffffffffffffffffffffffffffffffffff166173bf9092919063ffffffff16565b6167bc7345f783cce6b7ff23b2ab2d70e416cdb7d6055f51600073dac17f958d2ee523a2206206994597c13d831ec773ffffffffffffffffffffffffffffffffffffffff166173bf9092919063ffffffff16565b61682f7345f783cce6b7ff23b2ab2d70e416cdb7d6055f517fffffffffffffffffffffffffffffffffffffffffffffffffffffffffffffffff73dac17f958d2ee523a2206206994597c13d831ec773ffffffffffffffffffffffffffffffffffffffff166173bf9092919063ffffffff16565b565b7345f783cce6b7ff23b2ab2d70e416cdb7d6055f5181565b600160008082825401925050819055506000805490506169688273acd746993f60e807fbf69f646e42daeda63a4cfc73ffffffffffffffffffffffffffffffffffffffff1663b33dc19085336040518363ffffffff1660e01b8152600401808373ffffffffffffffffffffffffffffffffffffffff1673ffffffffffffffffffffffffffffffffffffffff1681526020018273ffffffffffffffffffffffffffffffffffffffff1673ffffffffffffffffffffffffffffffffffffffff1681526020019250505060206040518083038186803b15801561692857600080fd5b505afa15801561693c573d6000803e3d6000fd5b505050506040513d602081101561695257600080fd5b8101908080519060200190929190505050614ec4565b61697182614058565b616a7a8273acd746993f60e807fbf69f646e42daeda63a4cfc73ffffffffffffffffffffffffffffffffffffffff16631851f00085336040518363ffffffff1660e01b8152600401808373ffffffffffffffffffffffffffffffffffffffff1673ffffffffffffffffffffffffffffffffffffffff1681526020018273ffffffffffffffffffffffffffffffffffffffff1673ffffffffffffffffffffffffffffffffffffffff1681526020019250505060206040518083038186803b158015616a3a57600080fd5b505afa158015616a4e573d6000803e3d6000fd5b505050506040513d6020811015616a6457600080fd5b8101908080519060200190929190505050610c64565b60011515616a8733615e66565b151514616afc576040517f08c379a000000000000000000000000000000000000000000000000000000000815260040180806020018281038252601f8152602001807f6974726164653a206163636f756e7420776f756c64206c69717569646174650081525060200191505060405180910390fd5b6000548114616b73576040517f08c379a000000000000000000000000000000000000000000000000000000000815260040180806020018281038252601f8152602001807f5265656e7472616e637947756172643a207265656e7472616e742063616c6c0081525060200191505060405180910390fd5b5050565b73dac17f958d2ee523a2206206994597c13d831ec781565b73acd746993f60e807fbf69f646e42daeda63a4cfc81565b736b175474e89094c44da98b954eedeac495271d0f81565b7373a052500105205d34daf004eab301916da8190f81565b616bdf61617f565b616c51576040517f08c379a00000000000000000000000000000000000000000000000000000000081526004018080602001828103825260208152602001807f4f776e61626c653a2063616c6c6572206973206e6f7420746865206f776e657281525060200191505060405180910390fd5b616c5a816175df565b50565b616c6561617f565b616cd7576040517f08c379a00000000000000000000000000000000000000000000000000000000081526004018080602001828103825260208152602001807f4f776e61626c653a2063616c6c6572206973206e6f7420746865206f776e657281525060200191505060405180910390fd5b60003373ffffffffffffffffffffffffffffffffffffffff163073ffffffffffffffffffffffffffffffffffffffff163160405180600001905060006040518083038185875af1925050503d8060008114616d4e576040519150601f19603f3d011682016040523d82523d6000602084013e616d53565b606091505b5050905080616dca576040517f08c379a00000000000000000000000000000000000000000000000000000000081526004018080602001828103825260168152602001807f7472616e73666572206f6620455448206661696c65640000000000000000000081525060200191505060405180910390fd5b50565b6001600080828254019250508190555060008054905060001515616df083615e66565b151514616e65576040517f08c379a00000000000000000000000000000000000000000000000000000000081526004018080602001828103825260178152602001807f6974726164653a206163636f756e74206973207361666500000000000000000081525060200191505060405180910390fd5b616e83736b175474e89094c44da98b954eedeac495271d0f83617725565b616ea173a0b86991c6218b36c1d19d4a2e9eb0ce3606eb4883617725565b616ebf73dac17f958d2ee523a2206206994597c13d831ec783617725565b60011515616ecc33615e66565b151514616f41576040517f08c379a000000000000000000000000000000000000000000000000000000000815260040180806020018281038252601f8152602001807f6974726164653a206163636f756e7420776f756c64206c69717569646174650081525060200191505060405180910390fd5b60011515616f4e83615e66565b151514616fc3576040517f08c379a000000000000000000000000000000000000000000000000000000000815260040180806020018281038252601f8152602001807f6974726164653a206163636f756e7420776f756c64206c69717569646174650081525060200191505060405180910390fd5b600054811461703a576040517f08c379a000000000000000000000000000000000000000000000000000000000815260040180806020018281038252601f8152602001807f5265656e7472616e637947756172643a207265656e7472616e742063616c6c0081525060200191505060405180910390fd5b5050565b61710a838473ffffffffffffffffffffffffffffffffffffffff1663a9059cbb905060e01b8484604051602401808373ffffffffffffffffffffffffffffffffffffffff1673ffffffffffffffffffffffffffffffffffffffff16815260200182815260200192505050604051602081830303815290604052907bffffffffffffffffffffffffffffffffffffffffffffffffffffffff19166020820180517bffffffffffffffffffffffffffffffffffffffffffffffffffffffff8381831617835250505050617fac565b505050565b600080831415617122576000905061718f565b600082840290508284828161713357fe5b041461718a576040517f08c379a00000000000000000000000000000000000000000000000000000000081526004018080602001828103825260218152602001806184336021913960400191505060405180910390fd5b809150505b92915050565b60006171d783836040518060400160405280601a81526020017f536166654d6174683a206469766973696f6e206279207a65726f0000000000008152506181f7565b905092915050565b60008082840190508381101561725d576040517f08c379a000000000000000000000000000000000000000000000000000000000815260040180806020018281038252601b8152602001807f536166654d6174683a206164646974696f6e206f766572666c6f77000000000081525060200191505060405180910390fd5b8091505092915050565b617367848573ffffffffffffffffffffffffffffffffffffffff166323b872dd905060e01b858585604051602401808473ffffffffffffffffffffffffffffffffffffffff1673ffffffffffffffffffffffffffffffffffffffff1681526020018373ffffffffffffffffffffffffffffffffffffffff1673ffffffffffffffffffffffffffffffffffffffff1681526020018281526020019350505050604051602081830303815290604052907bffffffffffffffffffffffffffffffffffffffffffffffffffffffff19166020820180517bffffffffffffffffffffffffffffffffffffffffffffffffffffffff8381831617835250505050617fac565b50505050565b60006173af83836040518060400160405280601e81526020017f536166654d6174683a207375627472616374696f6e206f766572666c6f7700008152506182bd565b905092915050565b600033905090565b60008114806174b9575060008373ffffffffffffffffffffffffffffffffffffffff1663dd62ed3e30856040518363ffffffff1660e01b8152600401808373ffffffffffffffffffffffffffffffffffffffff1673ffffffffffffffffffffffffffffffffffffffff1681526020018273ffffffffffffffffffffffffffffffffffffffff1673ffffffffffffffffffffffffffffffffffffffff1681526020019250505060206040518083038186803b15801561747c57600080fd5b505afa158015617490573d6000803e3d6000fd5b505050506040513d60208110156174a657600080fd5b8101908080519060200190929190505050145b61750e576040517f08c379a000000000000000000000000000000000000000000000000000000000815260040180806020018281038252603681526020018061847e6036913960400191505060405180910390fd5b6175da838473ffffffffffffffffffffffffffffffffffffffff1663095ea7b3905060e01b8484604051602401808373ffffffffffffffffffffffffffffffffffffffff1673ffffffffffffffffffffffffffffffffffffffff16815260200182815260200192505050604051602081830303815290604052907bffffffffffffffffffffffffffffffffffffffffffffffffffffffff19166020820180517bffffffffffffffffffffffffffffffffffffffffffffffffffffffff8381831617835250505050617fac565b505050565b600073ffffffffffffffffffffffffffffffffffffffff168173ffffffffffffffffffffffffffffffffffffffff161415617665576040517f08c379a00000000000000000000000000000000000000000000000000000000081526004018080602001828103825260268152602001806183eb6026913960400191505060405180910390fd5b8073ffffffffffffffffffffffffffffffffffffffff16600160009054906101000a900473ffffffffffffffffffffffffffffffffffffffff1673ffffffffffffffffffffffffffffffffffffffff167f8be0079c531659141344cd1fd0a4f28419497f9722a3daafe3b4186f6b6457e060405160405180910390a380600160006101000a81548173ffffffffffffffffffffffffffffffffffffffff021916908373ffffffffffffffffffffffffffffffffffffffff16021790555050565b600073acd746993f60e807fbf69f646e42daeda63a4cfc73ffffffffffffffffffffffffffffffffffffffff16631851f00084846040518363ffffffff1660e01b8152600401808373ffffffffffffffffffffffffffffffffffffffff1673ffffffffffffffffffffffffffffffffffffffff1681526020018273ffffffffffffffffffffffffffffffffffffffff1673ffffffffffffffffffffffffffffffffffffffff1681526020019250505060206040518083038186803b1580156177ec57600080fd5b505afa158015617800573d6000803e3d6000fd5b505050506040513d602081101561781657600080fd5b810190808051906020019092919050505090506000811115617fa757600073acd746993f60e807fbf69f646e42daeda63a4cfc73ffffffffffffffffffffffffffffffffffffffff1663498b5ae885856040518363ffffffff1660e01b8152600401808373ffffffffffffffffffffffffffffffffffffffff1673ffffffffffffffffffffffffffffffffffffffff1681526020018273ffffffffffffffffffffffffffffffffffffffff1673ffffffffffffffffffffffffffffffffffffffff1681526020019250505060206040518083038186803b1580156178f957600080fd5b505afa15801561790d573d6000803e3d6000fd5b505050506040513d602081101561792357600080fd5b81019080805190602001909291905050509050600073acd746993f60e807fbf69f646e42daeda63a4cfc73ffffffffffffffffffffffffffffffffffffffff1663b33dc19086866040518363ffffffff1660e01b8152600401808373ffffffffffffffffffffffffffffffffffffffff1673ffffffffffffffffffffffffffffffffffffffff1681526020018273ffffffffffffffffffffffffffffffffffffffff1673ffffffffffffffffffffffffffffffffffffffff1681526020019250505060206040518083038186803b1580156179fd57600080fd5b505afa158015617a11573d6000803e3d6000fd5b505050506040513d6020811015617a2757600080fd5b8101908080519060200190929190505050905073acd746993f60e807fbf69f646e42daeda63a4cfc73ffffffffffffffffffffffffffffffffffffffff16632dc445a38686866040518463ffffffff1660e01b8152600401808473ffffffffffffffffffffffffffffffffffffffff1673ffffffffffffffffffffffffffffffffffffffff1681526020018373ffffffffffffffffffffffffffffffffffffffff1673ffffffffffffffffffffffffffffffffffffffff1681526020018281526020019350505050600060405180830381600087803b158015617b0957600080fd5b505af1158015617b1d573d6000803e3d6000fd5b5050505073acd746993f60e807fbf69f646e42daeda63a4cfc73ffffffffffffffffffffffffffffffffffffffff166358bb2a4d8686856040518463ffffffff1660e01b8152600401808473ffffffffffffffffffffffffffffffffffffffff1673ffffffffffffffffffffffffffffffffffffffff1681526020018373ffffffffffffffffffffffffffffffffffffffff1673ffffffffffffffffffffffffffffffffffffffff1681526020018281526020019350505050600060405180830381600087803b158015617bf057600080fd5b505af1158015617c04573d6000803e3d6000fd5b5050505073acd746993f60e807fbf69f646e42daeda63a4cfc73ffffffffffffffffffffffffffffffffffffffff1663a506e38c8686846040518463ffffffff1660e01b8152600401808473ffffffffffffffffffffffffffffffffffffffff1673ffffffffffffffffffffffffffffffffffffffff1681526020018373ffffffffffffffffffffffffffffffffffffffff1673ffffffffffffffffffffffffffffffffffffffff1681526020018281526020019350505050600060405180830381600087803b158015617cd757600080fd5b505af1158015617ceb573d6000803e3d6000fd5b5050505073acd746993f60e807fbf69f646e42daeda63a4cfc73ffffffffffffffffffffffffffffffffffffffff16632dc445a38633866040518463ffffffff1660e01b8152600401808473ffffffffffffffffffffffffffffffffffffffff1673ffffffffffffffffffffffffffffffffffffffff1681526020018373ffffffffffffffffffffffffffffffffffffffff1673ffffffffffffffffffffffffffffffffffffffff1681526020018281526020019350505050600060405180830381600087803b158015617dbe57600080fd5b505af1158015617dd2573d6000803e3d6000fd5b5050505073acd746993f60e807fbf69f646e42daeda63a4cfc73ffffffffffffffffffffffffffffffffffffffff16638cad6e778633856040518463ffffffff1660e01b8152600401808473ffffffffffffffffffffffffffffffffffffffff1673ffffffffffffffffffffffffffffffffffffffff1681526020018373ffffffffffffffffffffffffffffffffffffffff1673ffffffffffffffffffffffffffffffffffffffff1681526020018281526020019350505050600060405180830381600087803b158015617ea557600080fd5b505af1158015617eb9573d6000803e3d6000fd5b5050505073acd746993f60e807fbf69f646e42daeda63a4cfc73ffffffffffffffffffffffffffffffffffffffff16632eaed1018633846040518463ffffffff1660e01b8152600401808473ffffffffffffffffffffffffffffffffffffffff1673ffffffffffffffffffffffffffffffffffffffff1681526020018373ffffffffffffffffffffffffffffffffffffffff1673ffffffffffffffffffffffffffffffffffffffff1681526020018281526020019350505050600060405180830381600087803b158015617f8c57600080fd5b505af1158015617fa0573d6000803e3d6000fd5b5050505050505b505050565b617fcb8273ffffffffffffffffffffffffffffffffffffffff1661837d565b61803d576040517f08c379a000000000000000000000000000000000000000000000000000000000815260040180806020018281038252601f8152602001807f5361666545524332303a2063616c6c20746f206e6f6e2d636f6e74726163740081525060200191505060405180910390fd5b600060608373ffffffffffffffffffffffffffffffffffffffff16836040518082805190602001908083835b6020831061808c5780518252602082019150602081019050602083039250618069565b6001836020036101000a0380198251168184511680821785525050505050509050019150506000604051808303816000865af19150503d80600081146180ee576040519150601f19603f3d011682016040523d82523d6000602084013e6180f3565b606091505b50915091508161816b576040517f08c379a00000000000000000000000000000000000000000000000000000000081526004018080602001828103825260208152602001807f5361666545524332303a206c6f772d6c6576656c2063616c6c206661696c656481525060200191505060405180910390fd5b6000815111156181f15780806020019051602081101561818a57600080fd5b81019080805190602001909291905050506181f0576040517f08c379a000000000000000000000000000000000000000000000000000000000815260040180806020018281038252602a815260200180618454602a913960400191505060405180910390fd5b5b50505050565b600080831182906182a3576040517f08c379a00000000000000000000000000000000000000000000000000000000081526004018080602001828103825283818151815260200191508051906020019080838360005b8381101561826857808201518184015260208101905061824d565b50505050905090810190601f1680156182955780820380516001836020036101000a031916815260200191505b509250505060405180910390fd5b5060008385816182af57fe5b049050809150509392505050565b600083831115829061836a576040517f08c379a00000000000000000000000000000000000000000000000000000000081526004018080602001828103825283818151815260200191508051906020019080838360005b8381101561832f578082015181840152602081019050618314565b50505050905090810190601f16801561835c5780820380516001836020036101000a031916815260200191505b509250505060405180910390fd5b5060008385039050809150509392505050565b60008060007fc5d2460186f7233c927e7db2dcc703c0e500b653ca82273b7bfad8045d85a47060001b9050833f91506000801b82141580156183bf5750808214155b9250505091905056fe6974726164653a20696e76616c6964206c6576657261676520706172616d657465724f776e61626c653a206e6577206f776e657220697320746865207a65726f20616464726573736974726164653a206f75747374616e64696e67206465627420746f20736574746c65536166654d6174683a206d756c7469706c69636174696f6e206f766572666c6f775361666545524332303a204552433230206f7065726174696f6e20646964206e6f7420737563636565645361666545524332303a20617070726f76652066726f6d206e6f6e2d7a65726f20746f206e6f6e2d7a65726f20616c6c6f77616e6365a265627a7a72315820ba408178e953bf6b95655b376242fac346055a8b5a4f35e5108d866a8b32c8fe64736f6c634300050c00325361666545524332303a204552433230206f7065726174696f6e20646964206e6f7420737563636565645361666545524332303a20617070726f76652066726f6d206e6f6e2d7a65726f20746f206e6f6e2d7a65726f20616c6c6f77616e6365",
  "source": "pragma solidity ^0.5.0;\n\ninterface IERC20 {\n    function totalSupply() external view returns (uint256);\n    function balanceOf(address account) external view returns (uint256);\n    function transfer(address recipient, uint256 amount) external returns (bool);\n    function allowance(address owner, address spender) external view returns (uint256);\n    function approve(address spender, uint256 amount) external returns (bool);\n    function transferFrom(address sender, address recipient, uint256 amount) external returns (bool);\n    event Transfer(address indexed from, address indexed to, uint256 value);\n    event Approval(address indexed owner, address indexed spender, uint256 value);\n}\n\ncontract Context {\n    constructor () internal { }\n    // solhint-disable-previous-line no-empty-blocks\n\n    function _msgSender() internal view returns (address payable) {\n        return msg.sender;\n    }\n\n    function _msgData() internal view returns (bytes memory) {\n        this; // silence state mutability warning without generating bytecode - see https://github.com/ethereum/solidity/issues/2691\n        return msg.data;\n    }\n}\n\ncontract Ownable is Context {\n    address private _owner;\n\n    event OwnershipTransferred(address indexed previousOwner, address indexed newOwner);\n    constructor () internal {\n        _owner = _msgSender();\n        emit OwnershipTransferred(address(0), _owner);\n    }\n    function owner() public view returns (address) {\n        return _owner;\n    }\n    modifier onlyOwner() {\n        require(isOwner(), \"Ownable: caller is not the owner\");\n        _;\n    }\n    function isOwner() public view returns (bool) {\n        return _msgSender() == _owner;\n    }\n    function renounceOwnership() public onlyOwner {\n        emit OwnershipTransferred(_owner, address(0));\n        _owner = address(0);\n    }\n    function transferOwnership(address newOwner) public onlyOwner {\n        _transferOwnership(newOwner);\n    }\n    function _transferOwnership(address newOwner) internal {\n        require(newOwner != address(0), \"Ownable: new owner is the zero address\");\n        emit OwnershipTransferred(_owner, newOwner);\n        _owner = newOwner;\n    }\n}\n\ncontract ReentrancyGuard {\n    uint256 private _guardCounter;\n\n    constructor () internal {\n        _guardCounter = 1;\n    }\n\n    modifier nonReentrant() {\n        _guardCounter += 1;\n        uint256 localCounter = _guardCounter;\n        _;\n        require(localCounter == _guardCounter, \"ReentrancyGuard: reentrant call\");\n    }\n}\n\nlibrary SafeMath {\n    function add(uint256 a, uint256 b) internal pure returns (uint256) {\n        uint256 c = a + b;\n        require(c >= a, \"SafeMath: addition overflow\");\n\n        return c;\n    }\n    function sub(uint256 a, uint256 b) internal pure returns (uint256) {\n        return sub(a, b, \"SafeMath: subtraction overflow\");\n    }\n    function sub(uint256 a, uint256 b, string memory errorMessage) internal pure returns (uint256) {\n        require(b <= a, errorMessage);\n        uint256 c = a - b;\n\n        return c;\n    }\n    function mul(uint256 a, uint256 b) internal pure returns (uint256) {\n        if (a == 0) {\n            return 0;\n        }\n\n        uint256 c = a * b;\n        require(c / a == b, \"SafeMath: multiplication overflow\");\n\n        return c;\n    }\n    function div(uint256 a, uint256 b) internal pure returns (uint256) {\n        return div(a, b, \"SafeMath: division by zero\");\n    }\n    function div(uint256 a, uint256 b, string memory errorMessage) internal pure returns (uint256) {\n        // Solidity only automatically asserts when dividing by 0\n        require(b > 0, errorMessage);\n        uint256 c = a / b;\n\n        return c;\n    }\n    function mod(uint256 a, uint256 b) internal pure returns (uint256) {\n        return mod(a, b, \"SafeMath: modulo by zero\");\n    }\n    function mod(uint256 a, uint256 b, string memory errorMessage) internal pure returns (uint256) {\n        require(b != 0, errorMessage);\n        return a % b;\n    }\n}\n\nlibrary Address {\n    function isContract(address account) internal view returns (bool) {\n        bytes32 codehash;\n        bytes32 accountHash = 0xc5d2460186f7233c927e7db2dcc703c0e500b653ca82273b7bfad8045d85a470;\n        // solhint-disable-next-line no-inline-assembly\n        assembly { codehash := extcodehash(account) }\n        return (codehash != 0x0 && codehash != accountHash);\n    }\n    function toPayable(address account) internal pure returns (address payable) {\n        return address(uint160(account));\n    }\n    function sendValue(address payable recipient, uint256 amount) internal {\n        require(address(this).balance >= amount, \"Address: insufficient balance\");\n\n        // solhint-disable-next-line avoid-call-value\n        (bool success, ) = recipient.call.value(amount)(\"\");\n        require(success, \"Address: unable to send value, recipient may have reverted\");\n    }\n}\n\nlibrary SafeERC20 {\n    using SafeMath for uint256;\n    using Address for address;\n\n    function safeTransfer(IERC20 token, address to, uint256 value) internal {\n        callOptionalReturn(token, abi.encodeWithSelector(token.transfer.selector, to, value));\n    }\n\n    function safeTransferFrom(IERC20 token, address from, address to, uint256 value) internal {\n        callOptionalReturn(token, abi.encodeWithSelector(token.transferFrom.selector, from, to, value));\n    }\n\n    function safeApprove(IERC20 token, address spender, uint256 value) internal {\n        require((value == 0) || (token.allowance(address(this), spender) == 0),\n            \"SafeERC20: approve from non-zero to non-zero allowance\"\n        );\n        callOptionalReturn(token, abi.encodeWithSelector(token.approve.selector, spender, value));\n    }\n\n    function safeIncreaseAllowance(IERC20 token, address spender, uint256 value) internal {\n        uint256 newAllowance = token.allowance(address(this), spender).add(value);\n        callOptionalReturn(token, abi.encodeWithSelector(token.approve.selector, spender, newAllowance));\n    }\n\n    function safeDecreaseAllowance(IERC20 token, address spender, uint256 value) internal {\n        uint256 newAllowance = token.allowance(address(this), spender).sub(value, \"SafeERC20: decreased allowance below zero\");\n        callOptionalReturn(token, abi.encodeWithSelector(token.approve.selector, spender, newAllowance));\n    }\n    function callOptionalReturn(IERC20 token, bytes memory data) private {\n        require(address(token).isContract(), \"SafeERC20: call to non-contract\");\n\n        // solhint-disable-next-line avoid-low-level-calls\n        (bool success, bytes memory returndata) = address(token).call(data);\n        require(success, \"SafeERC20: low-level call failed\");\n\n        if (returndata.length > 0) { // Return data is optional\n            // solhint-disable-next-line max-line-length\n            require(abi.decode(returndata, (bool)), \"SafeERC20: ERC20 operation did not succeed\");\n        }\n    }\n}\n\ninterface ICurveFi {\n  function exchange_underlying(\n    int128 from, int128 to, uint256 _from_amount, uint256 _min_to_amount\n  ) external;\n}\n\ninterface yERC20 {\n  function deposit(uint256 _amount) external;\n  function withdraw(uint256 _amount) external;\n  function getPricePerFullShare() external view returns (uint256);\n}\n\ninterface iBorrower {\n  function borrowAave(address _reserve, uint256 _amount) external;\n  function getBorrowDebt(address _reserve) external view returns (uint256);\n  function getBorrowInterest(address _reserve) external view returns (uint256);\n  function repayAave(address _reserve, uint256 _amount) external;\n  function getYToken(address _reserve) external view returns (address);\n  function getCurveID(address _reserve) external view returns (uint8);\n  function isLeverage(uint256 leverage) external view returns (bool);\n  function isReserve(address _reserve) external view returns (bool);\n}\n\ninterface iLedger {\n  function mintDebt(address _reserve, address account, uint256 amount) external;\n  function burnDebt(address _reserve, address account, uint256 amount) external;\n  function mintPrincipal(address _reserve, address account, uint256 amount) external;\n  function burnPrincipal(address _reserve, address account, uint256 amount) external;\n  function mintPosition(address _reserve, address account, uint256 amount) external;\n  function burnPosition(address _reserve, address account, uint256 amount) external;\n  function getUserInterest(address _reserve, address _user) external view returns (uint256);\n  function getUserDebt(address _reserve, address _user) external view returns (uint256);\n  function getDebt(address _reserve, address _user) external view returns (uint256);\n  function getPosition(address _reserve, address _user) external view returns (uint256);\n  function getPrincipal(address _reserve, address _user) external view returns (uint256);\n  function getTotalDebt(address _user) external view returns (uint256);\n  function getTotalPosition(address _user) external view returns (uint256);\n  function getTotalPrincipal(address _user) external view returns (uint256);\n}\n\ncontract iTrade is ReentrancyGuard, Ownable {\n  using SafeERC20 for IERC20;\n  using Address for address;\n  using SafeMath for uint256;\n\n  address public constant yCurveSwap = address(0x45F783CCE6B7FF23B2ab2D70e416cdb7D6055f51);\n\n  address public constant yDAI = address(0x16de59092dAE5CcF4A1E6439D611fd0653f0Bd01);\n  address public constant yUSDC = address(0xd6aD7a6750A7593E092a9B218d66C0A814a3436e);\n  address public constant yUSDT = address(0x83f798e925BcD4017Eb265844FDDAbb448f1707D);\n  address public constant yTUSD = address(0x73a052500105205d34Daf004eAb301916DA8190f);\n\n  address public constant DAI = address(0x6B175474E89094C44Da98b954EedeAC495271d0F);\n  address public constant USDC = address(0xA0b86991c6218b36c1d19D4a2e9Eb0cE3606eB48);\n  address public constant USDT = address(0xdAC17F958D2ee523a2206206994597C13D831ec7);\n  address public constant TUSD = address(0x0000000000085d4780B73119b644AE5ecd22b376);\n\n  iBorrower public constant collateral = iBorrower(0xaCD746993f60e807fBf69F646e42DaedA63a4CfC);\n  iLedger public constant ledger = iLedger(0xaCD746993f60e807fBf69F646e42DaedA63a4CfC);\n\n  uint256 public constant ltv = uint256(50);\n  uint256 public constant base = uint256(100);\n\n  constructor() public {\n    approveToken();\n  }\n\n  function approveToken() public {\n      IERC20(DAI).safeApprove(address(collateral), uint(-1));\n      IERC20(USDC).safeApprove(address(collateral), uint(-1));\n      IERC20(TUSD).safeApprove(address(collateral), uint(-1));\n\n      IERC20(USDT).safeApprove(address(collateral), uint(0));\n      IERC20(USDT).safeApprove(address(collateral), uint(-1));\n\n      IERC20(DAI).safeApprove(yDAI, uint(-1));\n      IERC20(USDC).safeApprove(yUSDC, uint(-1));\n      IERC20(TUSD).safeApprove(yTUSD, uint(-1));\n\n      IERC20(USDT).safeApprove(yUSDT, uint(0));\n      IERC20(USDT).safeApprove(yUSDT, uint(-1));\n\n      // Approvals for swaps\n      IERC20(DAI).safeApprove(yCurveSwap, uint(-1));\n      IERC20(USDC).safeApprove(yCurveSwap, uint(-1));\n      IERC20(TUSD).safeApprove(yCurveSwap, uint(-1));\n\n      IERC20(USDT).safeApprove(yCurveSwap, uint(0));\n      IERC20(USDT).safeApprove(yCurveSwap, uint(-1));\n  }\n\n  function addCollateral(address _reserve, address _to, uint256 _amount, uint256 _min_to_amount, uint256 leverage) external nonReentrant {\n    addCollateralWithFee(_reserve, _to, _amount, _min_to_amount, leverage, 0);\n  }\n\n  function addCollateralWithFee(address _reserve, address _to, uint256 _amount, uint256 _min_to_amount, uint256 leverage, uint256 fee) public nonReentrant {\n    require(collateral.isLeverage(leverage) == true, \"itrade: invalid leverage parameter\");\n    require(collateral.isReserve(_reserve) == true, \"itrade: invalid reserve\");\n\n    IERC20(_reserve).safeTransferFrom(msg.sender, address(this), _amount.add(fee));\n    ledger.mintPrincipal(_reserve, msg.sender, _amount);\n    yERC20(collateral.getYToken(_reserve)).deposit(_amount.add(fee));\n\n    uint256 _borrow = _amount.mul(leverage);\n    uint256 _pool = collateral.getBorrowDebt(_reserve);\n    uint256 _debt = 0;\n    if (_pool == 0) {\n      _debt = _borrow;\n    } else {\n      _debt = (_borrow.mul(ledger.getTotalDebt(_reserve))).div(_pool);\n    }\n    ledger.mintDebt(_reserve, msg.sender, _debt);\n    collateral.borrowAave(_reserve, _borrow);\n\n    uint8 _fromID = collateral.getCurveID(_reserve);\n    uint8 _toID = collateral.getCurveID(_to);\n    require(IERC20(_to).balanceOf(address(this)) == 0, \"itrade: unexpected result\");\n    ICurveFi(yCurveSwap).exchange_underlying(_fromID, _toID, _borrow, _min_to_amount);\n    uint256 _bought = IERC20(_to).balanceOf(address(this));\n    ledger.mintPosition(_to, msg.sender, _bought);\n\n    yERC20(collateral.getYToken(_to)).deposit(_bought);\n\n    require(isSafe(msg.sender) == true, \"itrade: account would liquidate\");\n  }\n\n  function withdrawCollateral(address _reserve, uint256 _amount) public nonReentrant {\n      require(collateral.isReserve(_reserve) == true, \"itrade: invalid reserve\");\n      require(ledger.getUserDebt(_reserve, msg.sender) == 0, \"itrade: outstanding debt to settle\");\n\n      require(_amount <= ledger.getPrincipal(_reserve, msg.sender), \"itrade: insufficient balance\");\n      require(IERC20(_reserve).balanceOf(address(this)) == 0, \"itrade: unexpected result\");\n\n      uint256 _price = yERC20(collateral.getYToken(_reserve)).getPricePerFullShare();\n      uint256 _ytoken = _amount.mul(1e18).div(_price);\n      yERC20(collateral.getYToken(_reserve)).withdraw(_ytoken);\n\n      require(IERC20(_reserve).balanceOf(address(this)) >= _amount, \"itrade: unexpected result\");\n      ledger.burnPrincipal(_reserve, msg.sender, _amount);\n\n      IERC20(_reserve).safeTransfer(msg.sender, _amount);\n\n      // Cleanup dust (if any)\n      if (IERC20(_reserve).balanceOf(address(this)) > 0) {\n        yERC20(collateral.getYToken(_reserve)).deposit(IERC20(_reserve).balanceOf(address(this)));\n      }\n\n      require(isSafe(msg.sender) == true, \"itrade: account would liquidate\");\n  }\n\n  function repayDebtFor(address _reserve, address _user, uint256 _amount) public nonReentrant {\n    require(collateral.isReserve(_reserve) == true, \"itrade: invalid reserve\");\n\n    uint256 debt = ledger.getUserDebt(_reserve, _user);\n\n    if (_amount > debt) {\n      _amount = debt;\n    }\n\n    IERC20(_reserve).safeTransferFrom(msg.sender, address(this), _amount);\n    uint256 shares = ledger.getDebt(_reserve, _user).mul(_amount).div(debt);\n    collateral.repayAave(_reserve, _amount);\n    ledger.burnDebt(_reserve, _user, shares);\n\n    require(isSafe(msg.sender) == true, \"itrade: account would liquidate\");\n  }\n\n  function repayDebt(address _reserve, uint256 _amount) public nonReentrant {\n      repayDebtFor(_reserve, msg.sender, _amount);\n  }\n\n  function exit(address _reserve) external nonReentrant {\n      closePosition(_reserve, ledger.getPosition(_reserve,msg.sender));\n      settle(_reserve);\n      withdrawCollateral(_reserve, ledger.getPrincipal(_reserve,msg.sender));\n\n      require(isSafe(msg.sender) == true, \"itrade: account would liquidate\");\n  }\n\n  function settle(address _reserve) public nonReentrant {\n      require(collateral.isReserve(_reserve) == true, \"itrade: invalid reserve\");\n\n      // TODO: Add in clean principal if any for reserve\n      uint256 _debt = ledger.getUserDebt(_reserve, msg.sender);\n      if (_debt > 0) {\n        IERC20(_reserve).safeTransferFrom(msg.sender, address(this), _debt);\n        collateral.repayAave(_reserve, _debt);\n        ledger.burnDebt(_reserve, msg.sender, ledger.getDebt(_reserve,msg.sender));\n      }\n\n      require(isSafe(msg.sender) == true, \"itrade: account would liquidate\");\n  }\n\n  function tradePosition(address _reserve, address _to, uint256 _amount, uint256 _min_to_amount) external nonReentrant {\n      require(collateral.isReserve(_reserve) == true, \"itrade: invalid reserve\");\n      require(_amount <= ledger.getPosition(_reserve, msg.sender), \"itrade: insufficient balance\");\n      require(IERC20(_reserve).balanceOf(address(this)) == 0, \"itrade: unexpected result\");\n\n      uint256 _price = yERC20(collateral.getYToken(_reserve)).getPricePerFullShare();\n      uint256 _ytoken = _amount.mul(1e18).div(_price).add(1);\n      yERC20(collateral.getYToken(_reserve)).withdraw(_ytoken);\n\n      require(IERC20(_reserve).balanceOf(address(this)) >= _amount, \"itrade: unexpected result\");\n      require(IERC20(_to).balanceOf(address(this)) == 0, \"itrade: unexpected result\");\n\n      uint8 _fromID = collateral.getCurveID(_reserve);\n      uint8 _toID = collateral.getCurveID(_to);\n\n      ICurveFi(yCurveSwap).exchange_underlying(_fromID, _toID, _amount, _min_to_amount);\n      ledger.burnPosition(_reserve, msg.sender, _amount);\n      uint256 _bought = IERC20(_to).balanceOf(address(this));\n      ledger.mintPosition(_to, msg.sender, _bought);\n      yERC20(collateral.getYToken(_to)).deposit(_bought);\n\n      // Cleanup dust (if any)\n      if (IERC20(_reserve).balanceOf(address(this)) > 0) {\n        yERC20(collateral.getYToken(_reserve)).deposit(IERC20(_reserve).balanceOf(address(this)));\n      }\n\n      require(isSafe(msg.sender) == true, \"itrade: account would liquidate\");\n  }\n\n  function closePosition(address _reserve, uint256 _amount) public nonReentrant {\n      require(collateral.isReserve(_reserve) == true, \"itrade: invalid reserve\");\n      require(_amount <= ledger.getPosition(_reserve,msg.sender), \"itrade: insufficient balance\");\n      require(IERC20(_reserve).balanceOf(address(this)) == 0, \"itrade: unexpected result\");\n\n      uint256 debt = ledger.getUserDebt(_reserve, msg.sender);\n      uint256 ret = 0;\n\n      if (_amount > debt) {\n        ret = _amount.sub(debt);\n        _amount = debt;\n      }\n\n      uint256 _price = yERC20(collateral.getYToken(_reserve)).getPricePerFullShare();\n      uint256 _ytoken = _amount.mul(1e18).div(_price).add(1);\n      yERC20(collateral.getYToken(_reserve)).withdraw(_ytoken);\n\n      if (debt > 0) {\n        uint256 shares = ledger.getDebt(_reserve,msg.sender).mul(_amount).div(debt);\n        collateral.repayAave(_reserve, _amount);\n        ledger.burnDebt(_reserve, msg.sender, shares);\n      }\n\n      // Profits from trade\n      if (ret > 0) {\n        IERC20(_reserve).safeTransfer(msg.sender, ret);\n      }\n\n      ledger.burnPosition(_reserve, msg.sender, _amount);\n\n      // Cleanup dust (if any)\n      if (IERC20(_reserve).balanceOf(address(this)) > 0) {\n        yERC20(collateral.getYToken(_reserve)).deposit(IERC20(_reserve).balanceOf(address(this)));\n      }\n\n      require(isSafe(msg.sender) == true, \"itrade: account would liquidate\");\n  }\n\n  function seize(address _user) external nonReentrant {\n      require(isSafe(_user) == false, \"itrade: account is safe\");\n\n      _seizeReserve(DAI, _user);\n      _seizeReserve(USDC, _user);\n      _seizeReserve(USDT, _user);\n\n      require(isSafe(msg.sender) == true, \"itrade: account would liquidate\");\n      require(isSafe(_user) == true, \"itrade: account would liquidate\");\n  }\n\n  function _seizeReserve(address _reserve, address _user) internal {\n      uint256 _principal = ledger.getPrincipal(_reserve,_user);\n      if (_principal > 0) {\n        uint256 _debt = ledger.getDebt(_reserve,_user);\n        uint256 _position = ledger.getPosition(_reserve,_user);\n\n        ledger.mintPrincipal(_reserve, _user, _principal);\n        ledger.burnDebt(_reserve, _user, _debt);\n        ledger.burnPosition(_reserve, _user, _position);\n\n        ledger.mintPrincipal(_reserve, msg.sender, _principal);\n        ledger.mintDebt(_reserve, msg.sender, _debt);\n        ledger.mintPosition(_reserve, msg.sender, _position);\n      }\n  }\n\n  function isSafe(address _user) public view returns (bool) {\n      uint256 _debt = getAllDebt(_user);\n      uint256 _position = ledger.getTotalPosition(_user);\n      uint256 _collateral = ledger.getTotalPrincipal(_user);\n      if (_position >= _debt) {\n        return true;\n      } else {\n        uint256 _diff = _debt.sub(_position);\n        uint256 _adjDebt = _diff.mul(ltv).div(base);\n        if (_collateral >= _adjDebt) {\n          return true;\n        } else {\n          return false;\n        }\n      }\n  }\n\n  function getAllDebt(address _user) public view returns (uint256) {\n      return ledger.getUserDebt(DAI, _user).add(ledger.getUserDebt(USDC, _user)).add(ledger.getUserDebt(USDT, _user));\n  }\n\n  // incase of half-way error\n  function inCaseTokenGetsStuck(IERC20 _TokenAddress) onlyOwner public {\n      uint qty = _TokenAddress.balanceOf(address(this));\n      _TokenAddress.safeTransfer(msg.sender, qty);\n  }\n  // incase of half-way error\n  function inCaseETHGetsStuck() onlyOwner public{\n      (bool result, ) = msg.sender.call.value(address(this).balance)(\"\");\n      require(result, \"transfer of ETH failed\");\n  }\n}\n",
  "sourcePath": "D:/ftm/itrade/contracts/itrade.sol",
  "compiler": {
    "name": "solc",
    "version": "0.5.12+commit.7709ece9.Emscripten.clang"
  },
  "schemaVersion": "3.0.19",
  "updatedAt": "2020-03-07T13:35:54.792Z",
  "devdoc": {
    "methods": {}
  },
  "userdoc": {
    "methods": {}
  }
}